:020000040800F2
:10000000F85A00245D040008F1A70008F9A00008D0
:1000100081A70008B1230008F9F7000800000000DC
:100020000000000000000000000000006F04000855
:10003000312A0008000000007304000829BA0008F3
:10004000770400087704000877040008C1B60008A8
:100050007704000877040008770400087704000894
:10006000770400087704000877040008C923000813
:100070007704000877040008770400087704000874
:100080007704000877040008770400087704000864
:10009000770400087704000877040008512A000854
:1000A0007704000877040008770400087704000844
:1000B0007704000877040008770400087704000834
:1000C0007704000877040008770400087704000824
:1000D0007704000877040008770400087704000814
:1000E0007704000877040008000000007704000887
:1000F00077040008770400087704000877040008F4
:1001000077040008770400087704000877040008E3
:100110007704000891C400087704000877040008F9
:1001200077040008770400087704000877040008C3
:1001300077040008770400087704000877040008B3
:1001400000000000000000000000000000000000AF
:100150007704000877040008770400087704000893
:100160007704000877040008C9B00008B9B0000897
:1001700077040008D9B00008770400087704000865
:100180007704000877040008770400087704000863
:100190007704000877040008770400087704000853
:1001A00061A1000851A100087704000800000000C8
:1001B0007704000877040008770400087704000833
:1001C0007704000877040008000000000000000029
:1001D000000000000000000077040008000000009C
:1001E000000000000000000000000000000000000F
:1001F00000000000000000007704000877040008F9
:100200007704000877040008000000007704000865
:1002100077040008770400087704000877040008D2
:1002200077040008000000007704000800000000C8
:100230007704000877040008000000007704000835
:1002400077040008770400087704000877040008A2
:100250007704000877040008770400087704000892
:100260007704000877040008770400087704000882
:1002700077040008770400087704000800000000F5
:100280007704000877040008770400087704000862
:1002900000000000770400087704000877040008D5
:1002A0007704000877040008770400087704000842
:1002B00091CF00087704000877040008770400084D
:1002C00077040008770400087704000800F002F8BB
:1002D00000F0B4F80AA090E8000C82448344AAF12C
:1002E0000107DA4501D100F0A9F8AFF2090EBAE82A
:1002F0000F0013F0010F18BFFB1A43F0010318475A
:1003000018390100483901000A4410F8014B14F073
:100310000F0508BF10F8015B240908BF10F8014B56
:100320006D1E05D010F8013B6D1E01F8013BF9D19F
:10033000641E03D0641E01F8015BFBD19142E4D33B
:1003400070470000103A24BF78C878C1FAD8520725
:1003500024BF30C830C144BF04680C60704700003F
:100360000023002400250026103A28BF78C1FBD8BE
:10037000520728BF30C148BF0B6070476E2900F09C
:10038000E183702900F04185662912F08E8165298C
:1003900012F08B81672912F08881612912F0878120
:1003A00003681B0A28BF41F08001692900F08E8391
:1003B000642900F08B83752900F088836F2900F091
:1003C000CF84782900F00D85E92900F06984E429BB
:1003D00000F06684F52900F06384EF2900F0CC84F6
:1003E000F82900F00C850368DB0928BF41F0800183
:1003F000632900F0EA83732900F0EF83E32901F019
:100400009381F32901F09881002070471FB512F005
:100410003FF99DE8030000F0E9FA01F0EBF9040070
:100420000020002112F01EF9401C60600020002115
:1004300012F002F9E0601FBD10B510BD01F0ACF97B
:100440001146FFF7E3FF11F077FA01F089FA03B4E0
:10045000FFF7F2FF03BC01F0B9FA0000094880473A
:1004600009480047FEE7FEE7FEE7FEE7FEE7FEE796
:10047000FEE7FEE7FEE7FEE704480549054A064BAE
:100480007047000001BB0008CD020008F8420024BC
:10049000F85A0024F84A0024F84A002470B50646A9
:1004A00000F088FA056806F10B0020F00704B4425A
:1004B0009CBF002070BD2B466A68BAB11068A0428C
:1004C00010D304F1080188423CBF5068586007D33C
:1004D0005168101941601168091B0160586014606F
:1004E000101D70BD13465268002AE7D121462846E8
:1004F00000F068FA0028DED170BD70B50446051F13
:1005000000F058FA0068002C14BF446870BD002C3D
:1005100018BFAC423CBF20466468F8D301680A1893
:10052000AA4218BF456003D12A68054611440160FC
:1005300028684119A1421CBF6C6070BD6168696088
:1005400021680844286070BD53EA020C00F06980FD
:100550002DE9F04B4FF00006002B1FBFB3FA83F5D7
:1005600003FA05F424FA05F65E4012BF1643B2FA08
:1005700082F502FA05F4C5F120051EBF22FA05FC3A
:1005800044EA0C04203556EA044C4FEA144418BFE0
:10059000641C4FF000084FF00009904271EB030C0F
:1005A00039D3002919BFB1FA81F701FA07F6B0FA79
:1005B00080F700FA07F6C7F120071EBF20FA07FCF4
:1005C00046EA0C062037B6FBF4FCA7EB0507103F04
:1005D00007F01F0BCBF120062CFA06F60CFA0BFBEA
:1005E00044BFB3460026202FA4BF5E464FF0000B49
:1005F0005BEA060C08BF4FF0010B19EB0B0948EB47
:100600000608ABFB027C06FB02CC0BFB03CCC01B39
:1006100071EB0C01C1E70B46024641464846BDE876
:10062000F08B13B5084318BF4FF0FF300146AFF30E
:100630000080BDE81C4070477CB51D4616460C0086
:10064000009001D02044401E074B7B442A46694657
:100650000190304600F08FFA05461CB10020694633
:1006600000F09CFA28467CBD590500000FB47CB50B
:100670000C0009AA009001D02044401E084B7B4486
:1006800069460190089800F076FA05461CB10020F2
:10069000694600F083FA28467CBC5DF814FB000034
:1006A0002505000070B50C460546012A05D02878BE
:1006B000800600D5EA69002302E0012305E05B1C07
:1006C000934202D2E05C0028F9D1A869E618C01A6A
:1006D000A861286A18442862284600F0BDF904E0A1
:1006E000D5E9012114F8010B9047B442F8D328460C
:1006F00000F0C8F970BD00002DE9F05F894604469E
:100700004FF0000ADFF874B1FB44C0F820A0204687
:10071000E1688847002874D0252806D0D4E9012153
:100720009047206A401C2062F1E700265F46204681
:10073000E16888472028054607DB312D05D2781966
:1007400010F8200C08B10643F1E7B00701D526F0F8
:100750000406C4F81CA00027C4F818A02A2D09D04C
:10076000284611F061FF38B304EB8708303DC8F824
:10077000185019E059F8041B204604EB87029161D8
:10078000E1688847012F054618D1E069002820DA82
:1007900026F020061DE0D8F8180000EB800005EBDD
:1007A00040003038C8F818002046E1688847054600
:1007B00011F03AFF0028EED1012F0AD02E2D08D1DA
:1007C0002046E16888477F1C0546022F46F0200638
:1007D000C4DBA069002803DA404246F00106A061AC
:1007E000F00701D026F010066C2D0BD0682D09D033
:1007F0004C2D39D06A2D35D0742D35D07A2D33D08B
:1008000016E038E0E1682F4620468847B8420546A2
:1008100009D16C2F26D04FF48060E1680643204652
:100820008847054604E06C2F1AD04FF480700643C9
:100830000DB3A5F14100192802D8203546F4006611
:100840004A462946204626604E46FFF797FD80B16E
:1008500001280BD0F61D26F0070000F1080956E725
:100860004020E4E78020D8E70020D6E706F104091D
:100870004DE7284652E7206ABDE8F09FA61F010019
:10088000032A40F2308010F0030C00F0158011F8BC
:10089000013BBCF1020F624498BF11F801CB00F894
:1008A000013B38BF11F8013BA2F1040298BF00F8E8
:1008B00001CB38BF00F8013B11F0030300F0B08218
:1008C000083AC0F0088051F8043B083A51F804CBCC
:1008D000A0E80810F5E7121D5CBF51F8043B40F892
:1008E000043BAFF30080D20724BF11F8013B11F89D
:1008F00001CB48BF11F8012B24BF00F8013B00F8E1
:1009000001CB48BF00F8012B704702F0FF0343EA18
:10091000032242EA024200F002B84FF0000204292A
:10092000C0F0128010F0030C00F01B80CCF1040C1E
:10093000BCF1020F18BF00F8012BA8BF20F8022B52
:10094000A1EB0C0100F00DB85FEAC17C24BF00F8F8
:10095000012B00F8012B48BF00F8012B70474FF026
:10096000000200B5134694469646203922BFA0E8FF
:100970000C50A0E80C50B1F12001BFF4F7AF09070B
:1009800028BFA0E80C5048BF0CC05DF804EB8900FC
:1009900028BF40F8042B08BF704748BF20F8022B3F
:1009A00011F0804F18BF00F8012B70477047704757
:1009B00070470000004870474801002470477047A6
:1009C0007047704738B504460A4600206946AFF3C1
:1009D0000080002808BF38BD02460099204600F07C
:1009E00055FA012038BD012000F0CEBEF8B5AFF3B6
:1009F0000080054600200C46102000BF0646A819BE
:100A0000A0420DD9324669460020AFF300800700AE
:100A100008BF00F0B9FE0098A04218BF0546C419EF
:100A2000FFF7C8FF05600746F01D20F007004619D4
:100A3000284600F00AF8B44208BFF8BDA21B3146B0
:100A40003868BDE8F84000F021BA00210160C0E933
:100A5000011070471020704770B504468569006822
:100A6000C10601D5302600E02026C00707D070BDA2
:100A7000D4E9012130469047206A401C20626D1E57
:100A8000F6D570BD70B5044685690078C00707D1FA
:100A900070BDD4E9012120209047206A401C2062CB
:100AA0006D1EF6D570BD09684A0501D540B2704784
:100AB000C905FCD500B2704709684A0501D5C0B226
:100AC0007047C905FCD580B2704700002DE9F041A0
:100AD0000646002410687529314616A510D0FFF788
:100AE000E2FF002802DA404213A507E031688A07D6
:100AF00001D512A502E0490704D511A5012401E0A2
:100B0000FFF7DAFF00210A2206F1240709E0B0FB13
:100B1000F2FCB0FBF2F302FB1C00303078541846B4
:100B2000491C0028F3D123462A463046BDE8F0414F
:100B300000F00BBA000000002D0000002B000000A8
:100B40002000000011680268006A530501D5087092
:100B50000AE0D30501D5088006E0130603D5C217C5
:100B6000C1E9000200E008600120704701694A1CE9
:100B700002610878704700B58FB0CDE901310021DE
:100B8000059105497944CDE9031011466846FFF700
:100B9000B3FD0FB000BD0000E5FFFFFF0A6802F8DB
:100BA000010B0A607047D1E900239A4202D2531C1C
:100BB0000B601070704710B5436913B1AFF300803C
:100BC00001E0FFF76FFD012010BD127800F1240154
:100BD0000A7000224A700122EDE711684FF0FF32DF
:100BE000E9E700002DE9FF5F15468A460446DFF875
:100BF000AC80F8440027D8E900103E46CDE900104B
:100C000010E03AF816106A4602A800F099FD411C5F
:100C100007D02178890603D5E269391891420DD8A9
:100C20000744761C2078800602D5E069B84205DDCD
:100C3000AE42E6DB3AF816000028E2D1A069C01BFC
:100C4000A0612046FFF708FFD8E90010CDE90010A9
:100C5000002017E03AF818106A4602A800F070FD6C
:100C6000B0F1FF3F81460BD000250DF1080B05E0E8
:100C7000D4E901211BF8050090476D1C4D45F7D3C1
:100C800008F10100B0428046E4DB206A384420626B
:100C90002046FFF7F7FEBDE8FF9F0000CE1A0100D7
:100CA0002DE9F0418046D21D22F007020025D2E94D
:100CB0000002F52915A614D0011E72F1000106DA12
:100CC0000023D0EB030063EB020211A608E0D8F882
:100CD00000108B0701D50FA602E0490701D50EA62B
:100CE00001251146002408F1240704E000F0E8F88B
:100CF00030323A55641C50EA0102F7D12B46324695
:100D000021464046BDE8F04100F01FB90000000058
:100D10002D0000002B0000002000000030B4002156
:100D200000F1240408E002F00705D208303542EA59
:100D30004372DB086554491C52EA0305F3D1046889
:100D4000002310A2250708D504F020040C4304D08A
:100D5000C46901230CA2641EC46130BC00F0F5B864
:100D600010B5044621461068FFF7A6FE024620464D
:100D7000BDE810400023D1E7D21D22F00701D1E9E0
:100D80000023CBE70000000030000000F0B40D4667
:100D90000188090502D5214C7C4402E01F4C7C44AB
:100DA0000E34002100F1240608E002F00F071209BA
:100DB000E75D42EA03721B097754491C52EA0307B4
:100DC000F3D102780023120704D5702D06D009B1A3
:100DD000022311342246F0BC00F0B7B801231034CE
:100DE000F8E770B504460D4621461068FFF764FE2B
:100DF000024629462046BDE870400023C6E7D21DC2
:100E000022F00703D3E90023C0E70368126843F028
:100E1000200303600823C3610023B7E730190100F2
:100E200010B5203AC0F00B80B1E81850A0E8185077
:100E3000B1E81850A0E81850203ABFF4F5AF5FEAC7
:100E4000027C24BFB1E81850A0E8185044BF18C96C
:100E500018C0BDE810405FEA827C24BF51F8043B13
:100E600040F8043B08BF7047D20728BF31F8023B67
:100E700048BF11F8012B28BF20F8023B48BF00F8FB
:100E8000012B70470048704740010024034640682A
:100E90008C46002818BF88423CBF03464068F8D300
:100EA00018681844884207D00CF1030020F00700AE
:100EB000001D411A521A0146081D0A60FFF71DBBAA
:100EC00030B5B0F10A0271F100034FEA900E4EEA1C
:100ED000817EB0EB0E0061EB91014FEA101E4EEAED
:100EE000017E10EB0E0041EB11114FEA102E4EEA7D
:100EF000016E10EB0E0041EB11214FEA104E4EEA4D
:100F0000014E10EB0E0041EB1141401841F1000180
:100F10004FEAD00040EA41704FEAD1014FEA810424
:100F200044EA907410EB800544EB01046D1944EB26
:100F30000404521BA3414FF0000348BF0A3200D5FE
:100F400030BD401C41F1000130BD2DE9F0470D4698
:100F500099469246044600F124080168880604D5A3
:100F6000E06921F01001216000E00120A84201DDCC
:100F7000471B00E00027A1697A1902EB0900081A53
:100F8000A0612078C00602D42046FFF765FD002648
:100F900008E0D4E901211AF806009047206A401CB5
:100FA000761C20624E45F4DB2078C0060AD5204628
:100FB000FFF752FD06E0D4E9012130209047206A76
:100FC000401C2062381EA7F10107F4DC07E0D4E9D9
:100FD000012118F805009047206A401C2062281E55
:100FE000A5F10105F3DC2046FFF74CFD2078000653
:100FF00002D50220BDE8F0870120FBE72DE9FF4F75
:101000000C461E464FF0FF378BB0D2E90001DDF8E9
:1010100060800A908A46C1F30A5505B93D46002111
:1010200008464FF00000BAF1000F00F4400005DA66
:1010300000EB80004FF4400101EA50004FEA905964
:10104000B9F1010F00DDB9460A9850EA4A000ED006
:1010500044F61050A5F2FF3545432F14B8F1000FA8
:101060001ED07542291E1EDDC9F100021CE0B8F138
:10107000010F4FF0000001D0302103E0F24305E002
:101080002154401CB042FBDB304600220021215499
:101090000B99C1F80880C1E900200FB0BDE8F08FBE
:1010A000BD1B6D1CDEE74A4600DA694206A800F067
:1010B000E5FB06AB93E8070003AB83E80700504667
:1010C0000A9910F0CCFE8DE80700A0F500501F38FB
:1010D00000900398002D0ADD42F21F014A460844A1
:1010E000002303A90390684611F035F909E0A0F543
:1010F00000504A461F38002303A90390684611F0A8
:101100003FF98DE807000004000C03D04FF0FF30DA
:10111000410800E01046B8F1000F03D00022009211
:1011200015461EE0751E05D4FFF7CAFE3032625523
:101130006D1EF9D5B3460122084302D000227F1C60
:1011400004E02078302801D100227F1E002A099770
:1011500084D01DE0112D07DAFFF7B2FE3032625560
:101160006D1C50EA0102F5D1084302D00098C8B1C5
:101170000EE00021681E05E0235C625C635422548B
:10118000401E491C8142F7DBAB46A81B401E09905C
:10119000002004F80B000B98099AC0F80880C0E9F9
:1011A000002B7AE711264FF0000857E72DE9F04FA2
:1011B00088460446D21D22F0070191B0D1E9000112
:1011C000CDE90A0111F018FA02460B98C00F01D0C0
:1011D0002D2007E02068810701D52B2002E0202187
:1011E00001EAC000032A099001D0072A05DB034663
:1011F0004146204600F002FB0BE12078800601D535
:10120000E06900E00620B8F1650F814606D0B8F12C
:10121000660F18D0B8F1670F70D131E00020B9F136
:10122000110F009001DB112301E009F101030AAA6B
:1012300001A90CA8FFF7E2FEDDE90C70002609F118
:101240000105834647E001204B4600904FF00047E0
:101250000AAA01A90CA8FFF7D1FEDDE90DB00C998F
:101260005D46002610B909F101000D18B9EB050023
:1012700003D4C0F1FF3609F10105A5EB09002BE00D
:10128000B9F1010F01DA4FF001090020B9F1110F96
:101290000090484601DD112300E003460AAA01A997
:1012A0000CA8FFF7ABFEDDE90C704D460026834627
:1012B000207800070AD4AB4500DA5D4601A8012D6D
:1012C00004DD411911F8011C302907D04F4502DA1D
:1012D00017F1040F04DA012082460FE06D1EEEE7DD
:1012E000002F02DCED1B3E4403E0781CA84200DD29
:1012F0007D1CB81B00F1010A4FF000472078000761
:1013000003D4AA4501DB4FF0FF3A0021B7F1004FAB
:101310000DF143088DF8431024D002202B23002F19
:1013200001DA7F422D230A21021EA0F1010000DC18
:101330005FB197FBF1FC97FBF1F201FB1C7C1746B8
:101340000CF1300C08F801CDEEE7A8F101000370B4
:101350002188090501D5452100E06521A0F101089A
:1013600000F8011C09980FA9A1EB0807FF1D00B1A7
:101370000120411901EBEA70A1693844081A401EA6
:10138000A0612078C00602D42046FFF765FB0998CB
:1013900028B1D4E901219047206A401C20622078BE
:1013A000C00622D52046FFF757FB1EE0002E04DBC7
:1013B000B34502DD01A8805D00E03020D4E90121C1
:1013C0009047206A401C2062761CAAF101005FEA67
:1013D000000A0AD100F00EFAC0680168405CD4E946
:1013E00001219047206A401C2062281EA5F10105BA
:1013F000DCDC07E0D4E9012118F8010B9047206AF2
:10140000401C2062381EA7F10107F3DC2046FFF7DD
:1014100039FB032011B041E62DE9F04F04460D469B
:10142000D21D22F0070089B0D0E90097484639461E
:1014300011F0E2F80246F80F01D02D2307E02068F2
:10144000810701D52B2302E0202101EAC0038DF89A
:1014500020300BB1012000E00020032A824601D099
:10146000072A04DB2946204600F0C8F93FE120782E
:10147000800601D40D2500E0E569C7F30A560D2D5D
:1014800049DA00214FEA175B08464FF00000002FB1
:1014900000F4400007DA00EB80004FF4400100EB5D
:1014A000D07001EA60008115012901DD4FF0FF31A4
:1014B00000224FEA850CBCF1180F06D31346ACF19D
:1014C00018004FF08052C24003E04FF4801323FA1B
:1014D0000CF30CF10C0CBCF1200F04D3ACF1200C7C
:1014E00009FA0CF001E007FA0CF000294FF000486F
:1014F00001DD18B90FE00ED140450CD319EB0209FC
:101500005F4121B9404502D19F4329EA0209BBEB63
:10151000175F00D0761C2088000502D57B487844F0
:1015200002E07A487844193808AA302302F80A30D1
:10153000037C0AF10101002E0AF1020A53546A46A3
:1015400002DC4FF0300101E04FF031014FF00108B3
:101550008DF8001002D0A6F2FF3603E059EA4701E9
:1015600000D06B4E002D02DC2178090704D54FF026
:1015700002082E218DF80110C44600210BE0C7F3AC
:1015800003433F01C35C491C6D1E02F80830052966
:1015900008F1010801DA002DF1DC00210CE000EB7C
:1015A0001973491C1B786D1E082902F808304FEA90
:1015B000091908F1010801DA002DF0DC21688B0619
:1015C00002D516E0A8F10108E04505DD02EB0803AD
:1015D00013F8013C302BF5D0B8F1000F09DD02EB18
:1015E000080313F8013C2E2B03D1090701D4A8F1FD
:1015F0000108002D05DD3E2102F808106D1E08F1DE
:101600000108407C002E02F8080008F1010804DA05
:101610002D20764202F8080002E02B2002F8080094
:101620000A214FF47A70864208F101080BDB96FB21
:10163000F0F3303302F8083096FBF0F308F10108BC
:1016400000FB136601E0642E0CDB642096FBF0F3D4
:10165000303302F8083096FBF0F308F1010800FB84
:10166000136601E00A2E06DB96FBF1F0303002F83B
:10167000080008F1010896FBF1F001FB1060303022
:1016800002F80800A16908F1010808EB050202EB65
:101690000A00081AA0612078C00602D42046FFF78D
:1016A000DBF9216A08AE01EB0A00206204E0D4E90C
:1016B000012116F8010B9047BAF1010AF7D2207800
:1016C000C00602D52046FFF7C7F96E4609E016F8B6
:1016D000010B3E280FD0D4E901219047206A401C1D
:1016E0002062B8F10108F2D22046FFF7CBF909B029
:1016F0000320BDE8F08F206A2844206203E0D4E98B
:101700000121302090476D1EEBD3F8E7E511010071
:1017100002FCFFFF10B5436913B1AFF3008001E095
:10172000FFF760FA012010BD128800F124018284C5
:101730000022C2840122EDE711684FF0FF32E9E791
:101740002DE9F04116460C46054600F04BF80368BB
:1017500093F80101012807D0FF2C12D8185D80B141
:1017600001202C70BDE8F081D3F8070132462146F4
:1017700003F20713C7182846BC46BDE8F041002312
:1017800060474FF0FF30EDE710B500F0F7F8BDE827
:10179000104000F0EEB870477546FFF773FBAE4699
:1017A00005006946534620F00700854618B020B56D
:1017B000FEF762FEBDE820404FF000064FF0000744
:1017C0004FF000084FF0000BAC46ACE8C009ACE8A5
:1017D000C009ACE8C009ACE8C00921F007018D469A
:1017E0007047000010B500F005F8001D10BD00BFE7
:1017F000750E010000487047600100242DE9F0419A
:101800001F46044603260168072A01F4006004DB32
:1018100008B116A505E016A503E008B115A500E07E
:1018200015A521F010002060A069C01EA0610FB1B5
:10183000401EA0612046FFF70FF94FB1D4E9012106
:1018400038469047206A401C2062C01C206206E097
:10185000206AFAE7D4E9012115F8010B9047761EBA
:10186000F8D22046FFF70EF9BDE8F0814E414E0058
:101870006E616E00494E4600696E66002DE9F047C4
:10188000814616468AB0354878440DC88DE80D006B
:1018900032487844801C03AC0DC884E80D0041F642
:1018A0009B300844372190FBF1F290FBF1F5A5F154
:1018B000800501FB12041B3C02D56442012000E0BC
:1018C0000020DFF898A080460027FA44AAF1BE0A5B
:1018D0000EE0E0070AD03246684607EB47010123D5
:1018E0000AEB810110F04CFD8DE8070064107F1CAD
:1018F000002CEED1194F7F44AE3F19E0E80715D018
:1019000007EB04100DF1180A90E80E008AE80E00AB
:10191000C068F04201D1981908903246012306A907
:1019200003A810F02DFD03AB83E807006D10641CC5
:10193000002DE3D14FF0010332466946B8F1000FA4
:1019400003A802D010F007FD01E010F019FDC9E96D
:101950000001C9F808200AB0BDE8F0870C0F0100AB
:1019600010B50446AFF300802046BDE81040FEF7F6
:101970006EBD002801D000F029B8704710B50128CD
:1019800005D0002103A000F027F8012010BD09A117
:10199000F8E7000053494752544D454D3A204F75E2
:1019A00074206F662068656170206D656D6F727957
:1019B000000000003A2048656170206D656D6F720F
:1019C0007920636F72727570746564000149182024
:1019D000ABBEFEE72600020070B505460C460A20A5
:1019E00000E06D1C00F052F835B128780028F8D1DD
:1019F00002E0641C00F04AF814B120780028F8D105
:101A0000BDE870400A2000F041B80000000000006E
:101A100030B44FF0013C50F8042BCCFA52F451F89A
:101A2000043BD51A20D1FCB950F8042BCCFA52F45F
:101A300051F8043BD51A17D1B4B950F8042BCCFA9D
:101A400052F451F8043BD51A0ED16CB950F8042B5E
:101A5000CCFA52F451F8043BD51A05D1002CDAD057
:101A600030BC4FF00000704729BAB1FA81F111F093
:101A70001801D1F120008440F2D1CA40CB4012F0CD
:101A8000FF0213F0FF0330BCD01A704708B5694657
:101A90008DF800000320ABBE08BD00000000000070
:101AA000B0B582B042F6D42040F23005C2F2004018
:101AB000C2F2004500210160E868804778B111A4B6
:101AC000142003F051FCE8688047034600200521FC
:101AD000224610F08CFDE86880470028F0D10A20EB
:101AE0000A214FF4C87220230CA4009401F05CFA80
:101AF000686980470FA20020002110F078FD02B035
:101B0000B0BD00BF69735472616E736D697474699E
:101B10006E67203D2025580D0A0000005374617245
:101B20007420646574656374696E67205553422E32
:101B30002E2E000041707020496E6974204F6B0D8D
:101B40000A0000000000000080B544F2580047F68B
:101B50000001C2F20040C4F20001082201604FF40B
:101B6000E13141600021C0E902110161C0E90521B4
:101B7000C0E90711C0E9091104F0F2F830B142F6EA
:101B8000E1302F21C0F601000AF012F844F25800AB
:101B90000021C2F2004007F017FA30B142F6E130FE
:101BA0003321C0F601000AF003F844F25800002186
:101BB000C2F2004007F0E0F930B142F6E1303721DF
:101BC000C0F6010009F0F4FF44F25800C2F20040F0
:101BD00007F0AEF9002808BF80BD42F6E1303B2196
:101BE000C0F6010009F0E4FF80BD00000000000025
:101BF00070B586B043F6B06445F20000C2F200440E
:101C0000C5F20020002520602046CDE90455CDE92D
:101C10000255CDE9005504F05BFD38B142F6E130E4
:101C20004FF4DF71C0F6010009F0C2FF0126192050
:101C3000C4E90165E56020610220C4E90505C4E945
:101C400007550320C4E90905C4E90B550820C4E978
:101C50000D052046E56304F04FFD38B142F6E13052
:101C60004FF4E971C0F6010009F0A2FF4FF0011036
:101C7000039043F6B0606946C2F2004041F28832F8
:101C800000960296059604F0B3FA38B142F6E130B8
:101C90004FF4ED71C0F6010009F08AFF06B070BD87
:101CA00080B543F6B0601146C2F2004041F288327E
:101CB00004F082FE002818BF012080BD0000000053
:101CC00080B543F6B0601146C2F2004041F288325E
:101CD00004F0D6FE002818BF012080BD00000000DF
:101CE00000EE100A43F678709FED071BC2F2004029
:101CF000B8EE400B006820EE010BBCEEC00B80ED8F
:101D00000D0A704700BF00BF6666666666660440DF
:101D100010B5A2B002A8342100242194CDE91F44BB
:101D2000CDE91D44CDE91B44CDE91944CDE9174463
:101D3000CDE91544CDE91344CDE91144CDE90F4473
:101D4000FEF70DFE43F6787044F20001C2F2004047
:101D5000C4F20101016040F2FF11C0E90114FF214A
:101D6000C0E9031444618021816106F079FF38B134
:101D700042F6E13040F21111C0F6010009F018FFFF
:101D80004FF48050199043F6787019A9C2F20040C0
:101D900006F0B2FF38B142F6E1304FF48B71C0F675
:101DA000010009F005FF43F67870C2F2004007F029
:101DB0008BF838B142F6E1304FF48D71C0F6010076
:101DC00009F0F6FE43F6787016A9C2F2004000242E
:101DD0001694189406F04CFE38B142F6E1304FF4F8
:101DE0009071C0F6010009F0E3FE60200FA9CDE973
:101DF0000F0443F678700022C2F20040CDE911448E
:101E0000CDE91344159406F0FFFF38B142F6E130F6
:101E100040F22B11C0F6010009F0CAFE002406941E
:101E2000CDE90444CDE902444FF4005002A9CDE9C4
:101E3000070443F678700E94C2F2004006F0BCFD31
:101E400038B142F6E13040F23711C0F6010009F036
:101E5000AFFE44F2E040C5F60200016841F0100117
:101E6000016000681DA900F0100001900198102089
:101E70001D900220CDE91E04032020900420219013
:101E800041F20000C5F6020003F0D6FB43F678707D
:101E90000021C2F2004006F05BFE22B010BD00003F
:101EA000F0B587B044F2E0400025C5F60200069583
:101EB000CDE90455CDE90255016841F6000441F031
:101EC000400101600068C5F6020400F04000019086
:101ED00001984FF40071012220464FF4007601274B
:101EE00003F07AFC02A92046CDE90267CDE904752A
:101EF00003F0A2FB07B0F0BD2DE9F04F87B044F22C
:101F0000E0400024C5F602000694CDE90444CDE982
:101F10000244016840F2004841F01001016001688C
:101F2000C5F6020801F0100101910199016841F024
:101F300001010160016802AD01F001010191019907
:101F4000016841F00201016001684FF0020901F0EF
:101F5000020101910199016841F0400101600168AD
:101F6000032601F0400101910199016841F004014B
:101F7000016001684FF00E0B01F00401019101991D
:101F8000016841F0080101600068294600F008007E
:101F90000190019842F26000029008F54060CDE99E
:101FA00003940596CDF818B003F046FB40F2762076
:101FB0002946CDE9020904A880E85008A8F5806008
:101FC00003F03AFB01202946CDE90209CDE9044698
:101FD00009200690404603F02FFB4FF4706029461D
:101FE000CDE9020904A880E85008404603F024FB2C
:101FF00046F6C00008F5A05ACDE9020904A8294612
:1020000080E85008504603F017FB4FF4C65008F51F
:102010008067CDE9020904A8294680E850083846BF
:1020200003F00AFB4FF480602946CDE90209CDE9AF
:1020300004460A200690384603F0FEFA4820294656
:10204000CDE9020904A880E8500808F5006003F013
:10205000F3FA4FF480602946CDE90209CDE9044640
:1020600009200690504603F0E7FA20202946CDE9E2
:1020700002094046CDE90446069603F0DDFA5820F1
:102080000021002204F09CF8582004F095F8592013
:102090000021002204F094F8592004F08DF807B0D4
:1020A000BDE8F08F0000000080B588B043F64470B2
:1020B00044F24011C2F20040C5F200210422016046
:1020C0000021C0E90111C260102202614022426178
:1020D0004FF48072C0E906214FF4006101624FF4B1
:1020E000805141624FF40051816202210522CDE905
:1020F00001110392062204920322CDE905210791E2
:1021000001A906F0F1FB38B142F6E13040F2662158
:10211000C0F6010009F04CFD08B080BD00000000D1
:10212000B0B543F6C47441F60045C2F20044C4F2AF
:1021300001052046256006F0C7FF25604FF4E13019
:1021400060600020C4E9020020610C21C4E9051090
:10215000C4E90700C4E90900204607F009FA38B1CC
:1021600042F6E13040F22521C0F6010009F020FDE1
:1021700043F6C4700021C2F2004006F025FF38B1DA
:1021800042F6E13040F22921C0F6010009F010FDCD
:1021900043F6C4700021C2F2004006F0EDFE38B1F3
:1021A00042F6E13040F22D21C0F6010009F000FDB9
:1021B00043F6C470C2F2004006F0BAFE002808BF21
:1021C000B0BD42F6E13040F23121C0F6010009F025
:1021D000EFFCB0BD0000000080B5FFF7A1FF80BD9F
:1021E00080B543F6CC1044F60041C2F20040C5F67B
:1021F0000201016000218180C0E905110121016215
:1022000000F086FF08B100F02FFC03A2002000219F
:1022100010F0EDF980BD00BF43524320496E697450
:10222000204F6B0D0A00000080B543F6E02046F613
:102230000001C2F20040C5F600014FF470220160B7
:102240000021C0E90111C160C0E90421C0E9061103
:1022500003F01EF838B142F6353040F21B11C0F6DB
:10226000010009F0A5FC03A20020002110F0BFF935
:1022700080BD00BF44545320496E6974204F6B0DDC
:102280000A00000000000000B0B586B043F62075DB
:102290000446C2F2004569460022284606F0A8F925
:1022A00005A90022284606F07FF99DF81700207046
:1022B000BDF81500A4F801009DF800002071BDF8DC
:1022C0000100A4F8050006B0B0BD00000000000049
:1022D00080B543F60C7041F60001C2F20040C4F62E
:1022E000020101600021416006F036F838B142F683
:1022F000353040F25911C0F6010009F059FC03A233
:102300000020002110F073F980BD00BF524E47201D
:10231000496E6974204F6B0D0A0000000000000038
:1023200080B543F6207044F20001C2F20040C5F6C9
:1023300000017F220160002141608260F922C0E932
:102340000321C0E90511C16106F07AF930B142F606
:1023500035307921C0F6010009F02AFC43F62070DF
:102360000021C2F20040042206F09AF830B142F691
:1023700035307F21C0F6010009F01AFC42F64420F6
:10238000C2F2004090F82610828C006A42EA0141B5
:1023900009F052F902A20020002110F028F980BDB6
:1023A00052544320496E6974204F6B0D0A0000009F
:1023B00042F68C106D21C0F6010009F0F9FB00BF58
:1023C000FEE700000000000080B543F6F010C2F206
:1023D000004001F08DFC80BD40F20F420168C4F264
:1023E0000202914210DC6F22C4F20202914220DC10
:1023F0003F22C4F20202914236DC1022C4F20202F1
:10240000914254D028224EE040F26F42C4F20202C0
:1024100091421ADC40F23F42C4F2020291422ADCAD
:1024200040F21042C4F20202914240D040F22842EF
:1024300039E09F22C4F20202914225DC7022C4F2EC
:102440000202914233D088222DE040F29F42C4F232
:10245000020291421FDC40F27042C4F20202914239
:1024600025D040F288421EE04022C4F2020291428E
:102470001DD0582217E040F24042C4F202029142BD
:1024800015D040F258420EE0A022C4F2020291425E
:102490000DD0B82207E040F2B842C4F202029142E5
:1024A00005D040F2A042C4F2020291421AD1D0F803
:1024B00000C06FF00F024AF6AB2352FA8CF2CAF654
:1024C000AA23A2FB033109A35F2AC1F302115B5CBB
:1024D00040F2FF312CEA0101C36588BF04318165F8
:1024E00008467047016821F0FF01F8E70006101662
:1024F000000610160000000010B545F257420168B2
:10250000C5F6020291420EDC45F22F42C5F60202E8
:10251000914217DC45F20842C5F60202914226D0EC
:1025200045F21C421FE045F27F42C5F6020291428D
:1025300011DC45F25842C5F60202914217D045F22D
:102540006C4210E045F23042C5F6020291420ED0D4
:1025500045F2444207E045F29442C5F60202914238
:1025600005D045F28042C5F60202914219D10178A8
:102570004CF6CD42CCF6CC4245F600030839C5F600
:102580000203A1FB021203F18001120903EB820393
:1025900002F01F0203660123416603FA02F181661D
:1025A00010BD02784AF6AB23CAF6AA234FF0080EF4
:1025B000103AA2FB032340F20F42C4F202024FEA98
:1025C000131C914202F1AA04624688BF0EEB13125B
:1025D00040F60003A142C4F2020303F1800128BFC8
:1025E0006246D3E70000000010B50279511E0729AA
:1025F00088BF10BD45F2574C45F6FC0E0368C5F682
:10260000020CC5F6020E63450EF1440C0EDC45F2D9
:102610002F44C5F60204A34217DC45F20844C5F670
:102620000204A34226D045F21C441FE045F27F4439
:10263000C5F60204A34211DC45F25844C5F6020473
:10264000A34217D045F26C4410E045F23044C5F681
:102650000204A3420ED045F2444407E045F2804410
:10266000C5F60204A34205D045F29444C5F602041F
:10267000A34209D10EEB8202C2660122C0F870C0EB
:1026800002FA01F1416710BD40F6FC0EC4F2020EE1
:102690000EF1440CEEE700008169B1F5005F07D050
:1026A00079B9816A022912D0012916D079B112E0D4
:1026B000816A03290FD8DFE801F0020A0210012025
:1026C0007047816A03293CBF0120704703D1C06A6B
:1026D000C0F30060704700207047C06AA0F1C0706E
:1026E000B0FA80F04009704770B540F26F44D0F8FE
:1026F00000E0C4F20204D0F858C0A64519DC9F25BA
:10270000C4F20205AE4531DC5725C4F20205AE45E0
:1027100056DC1025C4F20205AE4500F09280282553
:10272000C4F20205AE4500F08C804025C4F20205DB
:1027300084E045F22F45C5F60205AE452BDC40F29C
:10274000B745C4F20205AE4548DC40F27045C4F21C
:102750000205AE4575D040F28845C4F20205AE458B
:102760006FD040F2A045C4F2020567E040F2274571
:10277000C4F20205AE4540DCA025C4F20205AE4518
:102780005FD0B825C4F20205AE455AD040F21045DC
:10279000C4F2020552E045F26B45C5F60205AE45AE
:1027A0003CDC45F23045C5F60205AE4549D045F260
:1027B0004445C5F60205AE4543D045F258453BE0D9
:1027C0005825C4F20205AE453BD07025C4F202057F
:1027D000AE4536D08825C4F202052FE040F2B84558
:1027E000C4F20205AE452CD045F20845C5F60205F7
:1027F000AE4526D045F21C451EE040F22845C4F205
:102800000205AE451DD040F24045C4F20205AE457A
:1028100017D040F25845C4F202050FE045F26C456E
:10282000C5F60205AE450CD045F29445C5F6020545
:10283000AE4506D045F28045C5F60205AE4540F0EE
:10284000C980456EC66E002E866E6E601CBFD0E9D4
:102850001C566E60A64515DC9F24C4F20204A645F2
:102860002BDC5724C4F20204A6454EDC1024C4F22B
:102870000204A64576D02824C4F20204A64571D0ED
:1028800040246BE045F22F44C5F60204A64527DC40
:1028900040F2B744C4F20204A64542DC40F2704460
:1028A000C4F20204A6455DD040F28844C4F202049A
:1028B000A64557D040F2A04450E040F22744C4F26D
:1028C0000204A6453CDCA024C4F20204A64549D07B
:1028D000B824C4F20204A64544D040F210443DE0BE
:1028E00045F26B44C5F60204A6454FDC45F2304480
:1028F000C5F60204A6455BD045F24444C5F6020481
:10290000A64555D045F258444EE05824C4F202047E
:10291000A64527D07024C4F20204A64522D08824FC
:102920001CE040F2B844C4F20204A6451AD045F2B5
:102930000844C5F60204A6453AD045F21C4433E0EB
:1029400040F22844C4F20204A6450BD040F24044B1
:10295000C4F20204A64505D040F25844C4F2020471
:10296000A64537D104683F258668C06D00F01F007A
:10297000402E05FA00F0CCF80800206820F48020F2
:102980002060636021D0A160E26070BD45F26C44BC
:10299000C5F60204A6450BD045F28044C5F60204F4
:1029A000A64505D045F29444C5F60204A64511D1CA
:1029B0000468C66D806806F01F060125402805FAE8
:1029C00006F6CCF80460636002D1A260E16070BDDD
:1029D000A160E26070BD000070B5044600F5617052
:1029E00040214026FDF7BBFF04F58E704FF40071C7
:1029F00004F11C05FDF791FF002020704FF4807159
:102A0000A4F80110C4F8C403012020832846C4F8A8
:102A10001C134FF44071A67104F22634FDF79FFF9A
:102A200050212046FDF779FF70BD00000000000036
:102A300080B542F68C107B21C0F6010009F0B8F891
:102A400080BD00000000000080B5FFF77DF880BD6C
:102A500080B54FF4807002F0E3FD4FF4007002F097
:102A6000DFFD80BD00000000EFF3108072B600BFF4
:102A7000FEE700000000000010B5FFF7B9F840F2D3
:102A8000F004C2F2004420460CF01AFF28B9E368B3
:102A900005A2002000210FF0AAFD08A200200021BD
:102AA0000FF0A5FD10BD00BF666C617368206964FE
:102AB000203D20307825580D0A00000045787446E6
:102AC0006C61736820496E6974204F6B0D0A0000B9
:102AD00080B500EBC00040F2F00CC2F2004C0CEBF1
:102AE000C0000CF035FF80BD80B594B006916946FA
:102AF000119241F28832CDE902031698049017989A
:102B000007901898089019980E901A980F90002026
:102B1000CDE90000059009901090CDE912000B90CE
:102B200043F6B060C2F2004003F06AFD002818BF0F
:102B3000012014B080BD000080B500EBC00040F261
:102B4000F00CC2F2004C0CEBC0000DF039F880BD67
:102B50002DE9F04186B000260196FFF7A5FA43F66D
:102B6000447402ADC2F200444FF6FF72204629467B
:102B70004FF00108CDF808801027CDE903780596BD
:102B800005F0F6FE012002F0EFFB02A902204FF64D
:102B9000FF7281E8810120462946059605F0E8FE8E
:102BA00003204FF6FF72CDE9020708202946CDE940
:102BB0000406204605F0DCFE02A940F22220019026
:102BC000042081E88101019805904FF6FF722046AC
:102BD000294605F0CDFE40F21F41204605F0B0FE2B
:102BE0000A2002F0C1FB0A2002F0BEFB03A2002073
:102BF00000210FF0FCFC06B0BDE8F081457874526E
:102C0000414D20496E6974204F6B0D0A0000000091
:102C100080B5002200F004F880BD00000000000034
:102C200080B542F6380EC2F2004E9EF80930002BF5
:102C30001CBF012080BD9EF80930844600200EF89C
:102C400003009EF809300EEB8303C3F804C09EF81E
:102C5000093073441A729EF80920531C8EF809300B
:102C600030320A7042F63A72A1F80120C87080BD75
:102C7000B0B582B005460C460020019001A9284657
:102C800000F012F901992A690020545402B0B0BD35
:102C900070B50A68002A024600681CD020F4F8408B
:102CA00001F1080CD1E9073618434B6A304301F1B2
:102CB0000C0E1843106052F8040F47F6FF7320EA19
:102CC00003054E6801F1100001F1140301F118042D
:102CD00045EA060113E00E1D47F6FF73984301F124
:102CE000140C78CE034301F1180E1C4301F11C00B3
:102CF000254301F1200301F1240445EA0601DCF833
:102D00000060DEF800503143006829431B68084327
:102D1000246840EA030100202143116070BD0000D7
:102D20000246406943F6FE7320EA0303002043EAAB
:102D3000410151617047000010B5024600696FF310
:102D400015006FF01F04D1E900ECD1E9023140EA2F
:102D50000E0004EB431340EA0C000343002043EA57
:102D60004121116110BD00002DE9F043002A024607
:102D700052F8083F2ED040F6FF724FF20006CFF611
:102D80000F72CFF6FF761A40CB684F6906EB03331C
:102D90000026CFF6F0761A4306EB07573A438260D7
:102DA00050F80C2F8E68D1E900375D1E6FF00F03CD
:102DB00003EB071C6FF0FF030C6903EB062E0023E7
:102DC00002F07042CFF6FF7303EB044345EA0204BE
:102DD000024624E001F1080903F07048D1E900340B
:102DE00099E861026FF00F07013B07EB04146FF0E5
:102DF000FF0707EB00204FF20007CFF6FF7743EA0B
:102E0000080307EB053C00270025CFF6FF77CFF638
:102E1000F0751C4307EB064E044305EB0953886924
:102E200044EA0C01471E41EA0E0040EA030100207B
:102E300041EA07611160BDE8F08300000000000076
:102E4000844600284FF0010020D04FF055334FF05A
:102E5000333203EA5103CB1A02EA930223F0CC3354
:102E60001A444FF0013302EB121222F0F0325A43AF
:102E7000120E012A18BF7047481ECCF80C00002023
:102E8000CCF80810CCF80000CCF804007047000023
:102E9000016882684068091A0020914208BF032037
:102EA0007047000000000000B0B50C460546FFF773
:102EB000EFFF10B16868013068602968EA68481C53
:102EC0002860002011402160B0BD0000000000001B
:102ED0002DE9F04F83B042F644290127C2F20049A0
:102EE00090468B4699F82860F3087507054618BF89
:102EF00007EBD6037708D9F834A003FB07F440F2B8
:102F00003007C2F2004700BFF86880470028FBD1B5
:102F1000200643D0E1B2A8F12000C0B25C46009187
:102F2000002100EBC00002910AEB80000190DDE976
:102F300001104FF0000A11F8008000BF4FFA88F02E
:102F4000B0F1FF3F06DD99F8290048B13B6AD9F896
:102F5000302002E03B6AD9F82C20A8B2A1B29847F1
:102F600038680134A1B242688A4217D9A1EB0B013B
:102F7000B14207D0BAF1060F0AF1010A4FEA480838
:102F8000DCD905E001350068A9B25C46884205D964
:102F900002990131009881420291C8D103B0BDE885
:102FA000F08F0000000000002DE9F04F81B040F2EA
:102FB00030070C46C2F200478146DDF828C03F6862
:102FC000FE7A42F64427C2F2004797F82880BEB93D
:102FD000D7E90B064FF4FC6B4FF4784AC0F3C40EEC
:102FE0000BEA5015C6F3C40175440BEA561E0AEAF3
:102FF000102071440AEA16262844F86288193863BA
:103000009CF8000030B302EB09011A194FEA580B83
:103010000CF101068DB2CA4697B200BF20385F2876
:1030200002D32A2006F8010C1FFA8AF0A84228BF12
:10303000444428BF5FFA89FAA1B2B9420AD21FFA02
:103040008AF016F8012CFFF743FF3078DA44013696
:103050000028E3D101B0BDE8F08F000000000000BF
:1030600080B502F0C1FB80BDB0B5CB070FD14FF0EA
:10307000010C4FF0000EBEF1000F06D00068416158
:10308000816821F01801114381606046B0BD1F23A3
:103090003BB1013B03F01F0421FA04F4E407F7D02D
:1030A00001E04FF0FF334FEAF205032DDFD84FF078
:1030B000000C4FF0010EDFE805F00203101DDAE707
:1030C0004FF0000E4FF0000C0F2B88BF4FF0010C9B
:1030D000102B38BF4FF0010ECDE74FF0000E4FF030
:1030E000000C072B88BF4FF0010C082B38BF4FF0A6
:1030F000010EC0E74FF0000E4FF0000C062B88BF0A
:103100004FF0010C072B38BF4FF0010EB3E7000062
:1031100010B5A8B10446407F20B900202077204692
:1031200000F032F802206077207958B1D4E9021219
:103130002046FFF799FF00281CBF012010BD0BE0BF
:10314000012010BD206841F6B751C0F2C141416174
:10315000816821F018018160607908B1206901E07F
:103160004FF0FF302168D4E905230861886820F01A
:10317000600010438860886820F0800018438860F1
:1031800001206077002010BD81B044F2E04100686A
:10319000C5F6020101F5E462904201D001B070472A
:1031A000086840F400200860086800F400200090DF
:1031B000009801B0704700002DE9F041044602F08C
:1031C00013FB04B3054694F8350002281ED140F2E3
:1031D0000F472068C4F2020740F26F48B842C4F2B9
:1031E000020817DC6F21C4F20201884223DC3F2170
:1031F000C4F20201884239DC1021C4F20201884283
:1032000058D0282151E00120BDE8F0818020606580
:103210000120ABE240451ADC40F23F41C4F202011A
:1032200088422ADC40F21041C4F20201884241D0B7
:1032300040F2284139E09F21C4F20201884225DC96
:103240007021C4F20201884234D088212DE040F27E
:103250009F41C4F2020188421FDC40F27041C4F277
:103260000201884226D040F288411EE04021C4F28B
:10327000020188421ED0582117E040F24041C4F2BA
:103280000201884216D040F258410EE0A021C4F25B
:10329000020188420ED0B82107E040F2B841C4F2E2
:1032A0000201884206D040F2A041C4F202018842E5
:1032B00040F0EA812668316821F01E02314641F86B
:1032C000142B6FF080020B68404502EA03020A608B
:1032D00019DC9F21C4F20201884231DC5721C4F27B
:1032E0000201884256DC1021C4F20201884200F03B
:1032F00091802821C4F20201884200F08B80402195
:10330000C4F2020184E045F22F41C5F60201884271
:103310002BDC40F2B741C4F20201884248DC40F2A3
:103320007041C4F20201884274D040F28841C4F274
:10333000020188426ED040F2A041C4F2020167E06F
:1033400040F22741C4F20201884240DCA021C4F2CD
:10335000020188425ED0B821C4F20201884259D0ED
:1033600040F21041C4F2020152E045F26B41C5F651
:10337000020188423CDC45F23041C5F60201884238
:1033800048D045F24441C5F60201884242D045F298
:1033900058413BE05821C4F2020188423AD07021E2
:1033A000C4F20201884235D08821C4F202012FE024
:1033B00040F2B841C4F2020188422BD045F20841E4
:1033C000C5F60201884225D045F21C411EE040F2BC
:1033D0002841C4F2020188421CD040F24041C4F2AC
:1033E0000201884216D040F25841C4F202010FE0B7
:1033F00045F26C41C5F6020188420BD045F294417A
:10340000C5F60201884205D045F28041C5F60201A9
:10341000884269D1216EB8420A6822F480720A603B
:1034200010DC6F21C4F2020188421CDC3F21C4F28F
:103430000201884232DC1021C4F20201884252D0DB
:1034400028214AE040451ADC40F23F41C4F2020123
:1034500088422ADC40F21041C4F20201884242D084
:1034600040F2284139E09F21C4F20201884225DC64
:103470007021C4F20201884235D088212DE040F24B
:103480009F41C4F2020188421FDC40F27041C4F245
:103490000201884227D040F288411EE04021C4F258
:1034A000020188421FD0582117E040F24041C4F287
:1034B0000201884217D040F258410EE0A021C4F228
:1034C000020188420FD0B82107E040F2B841C4F2AF
:1034D0000201884207D040F2A041C4F202018842B2
:1034E00008BF206800E02068016821F00101016048
:1034F0003068C0070BD002F077F9401B0628F7D3DD
:1035000020206065032084F8350001202EE120682A
:10351000B84210DC6F21C4F2020188421CDC3F215A
:10352000C4F20201884232DC1021C4F20201884256
:1035300050D028214AE040451ADC40F23F41C4F215
:10354000020188422ADC40F21041C4F202018842A2
:1035500040D040F2284139E09F21C4F20201884264
:1035600025DC7021C4F20201884233D088212DE08D
:1035700040F29F41C4F2020188421FDC40F27041D8
:10358000C4F20201884225D040F288411EE0402169
:10359000C4F2020188421DD0582117E040F2404198
:1035A000C4F20201884215D040F258410EE0A02139
:1035B000C4F2020188420DD0B82107E040F2B841C0
:1035C000C4F20201884205D040F2A041C4F20201D7
:1035D00088425ED1D4E9161202F01F023F2303FA9B
:1035E00002F28A6040455EDC9F21C4F202018842FB
:1035F00014DC5721C4F20201884226DC1021C4F2F7
:103600000201884200F0A2802821C4F2020188420F
:1036100000F09C804021C4F2020195E040F2274175
:10362000C4F2020188421EDCA021C4F202018842D9
:1036300000F08C80B821C4F20201884200F086803C
:1036400040F21041C4F202017EE05821C4F20201AE
:1036500088427BD07021C4F20201884276D0882152
:10366000C4F2020170E040F22841C4F20201884233
:103670006CD040F24041C4F20201884266D040F270
:103680005841C4F202015FE021686FF00E020E465D
:1036900019E6D4E9161202F01F02012303FA02F21E
:1036A0004A604045A0DD45F22F41C5F6020188423F
:1036B00016DC40F2B741C4F20201884225DC40F238
:1036C0007041C4F20201884240D040F28841C4F205
:1036D000020188423AD040F2A041C4F2020133E034
:1036E00045F26B41C5F6020188421DDC45F23041CE
:1036F000C5F60201884229D045F24441C5F60201CF
:10370000884223D045F258411CE040F2B841C4F24F
:10371000020188421AD045F20841C5F602018842EA
:1037200014D045F21C410DE045F26C41C5F6020192
:1037300088420BD045F29441C5F60201884205D07B
:1037400045F28041C5F6020188420BD1616EA26E3E
:10375000E06E4A6030B1016821F480710160D4E903
:103760001C014160012084F835000020002184F80C
:103770003410BDE8F081000080B5D8B190F8351064
:10378000022919D140F20F420168C4F202029142AB
:1037900016DC6F23C4F20203994226DC3F23C4F2F5
:1037A000020399423CDC1023C4F2020399425AD02E
:1037B000282354E0012080BD80214165012080BD87
:1037C00040F26F43C4F2020399421ADC40F23F43D5
:1037D000C4F2020399422ADC40F21043C4F202030D
:1037E000994240D040F2284339E09F23C4F20203BB
:1037F000994225DC7023C4F20203994233D0882316
:103800002DE040F29F43C4F2020399421FDC40F2D4
:103810007043C4F20203994225D040F288431EE06F
:103820004023C4F2020399421DD0582317E040F20E
:103830004043C4F20203994215D040F258430EE0CF
:10384000A023C4F2020399420DD0B82307E040F24E
:10385000B843C4F20203994205D040F2A043C4F237
:103860000203994270D191424FF0040280F8352052
:1038700010DC6F22C4F20202914220DC3F22C4F22B
:103880000202914236DC1022C4F20202914254D06C
:1038900028224EE040F26F42C4F2020291421ADC4A
:1038A00040F23F42C4F2020291422ADC40F210424E
:1038B000C4F20202914240D040F2284239E09F22F5
:1038C000C4F20202914225DC7022C4F2020291424B
:1038D00033D088222DE040F29F42C4F2020291428E
:1038E0001FDC40F27042C4F20202914225D040F245
:1038F00088421EE04022C4F2020291421DD05822AA
:1039000017E040F24042C4F20202914215D040F268
:1039100058420EE0A022C4F2020291420DD0B82219
:1039200007E040F2B842C4F20202914205D040F2F0
:10393000A042C4F20202914224D10068016821F041
:1039400001010160002080BD0268136823F00E03AE
:10395000136045F25742C5F6020291420A6822F00E
:1039600001020A6014DC45F22F42C5F602029142C0
:103970001DDC45F20842C5F6020291422CD045F208
:103980001C4225E0086820F001000860002080BD8E
:1039900045F27F42C5F60202914211DC45F25842DF
:1039A000C5F60202914217D045F26C4210E045F292
:1039B0003042C5F6020291420ED045F2444207E081
:1039C00045F29442C5F60202914205D045F280428A
:1039D000C5F6020291421AD1D0E9181CD0E916E3CB
:1039E0000A6822F480720A6003F01F01012202FAC1
:1039F00001F1CEF80410816ECCF80410C16E31B123
:103A00000A6822F480720A60D0E91C124A6001211F
:103A100080F83510026D002180F834100AB190470B
:103A20000021084680BD000010B5E0B104460168E1
:103A300040F20F40C4F20200814240F26F40C4F2F3
:103A4000020012DC6F22C4F2020291421EDC3F220D
:103A5000C4F20202914234DC1022C4F2020291420A
:103A600053D028224CE0012010BD81421ADC40F2E4
:103A70003F42C4F2020291422ADC40F21042C4F2F8
:103A80000202914241D040F2284239E09F22C4F222
:103A90000202914225DC7022C4F20202914234D02B
:103AA00088222DE040F29F42C4F2020291421FDCC4
:103AB00040F27042C4F20202914226D040F28842A3
:103AC0001EE04022C4F2020291421ED0582217E0AA
:103AD00040F24042C4F20202914216D040F25842F3
:103AE0000EE0A022C4F2020291420ED0B82207E0FA
:103AF00040F2B842C4F20202914206D040F2A04223
:103B0000C4F20202914240F0ED80226813688142C3
:103B10004FF0010023F00103136015DC9F22C4F273
:103B2000020291422BDC5722C4F2020291424EDC87
:103B30001022C4F20202914276D02822C4F202027C
:103B4000914271D040226BE045F22F42C5F602024D
:103B5000914227DC40F2B742C4F20202914242DCB9
:103B600040F27042C4F2020291425DD040F28842BB
:103B7000C4F20202914257D040F2A04250E040F21B
:103B80002742C4F2020291423CDCA022C4F20202AB
:103B9000914249D0B822C4F20202914244D040F28C
:103BA00010423DE045F26B42C5F6020291424FDC05
:103BB00045F23042C5F6020291425BD045F24442E2
:103BC000C5F60202914255D045F258424EE05822C5
:103BD000C4F20202914227D07022C4F20202914242
:103BE00022D088221CE040F2B842C4F20202914284
:103BF0001AD045F20842C5F6020291423AD045F287
:103C00001C4233E040F22842C4F2020291420BD03F
:103C100040F24042C4F20202914205D040F25842C2
:103C2000C4F2020291425CD120680021016041602F
:103C30008160C1600161212141612046FEF7CCFB1A
:103C4000E16D3F2201F01F0102FA01F1816022E0E3
:103C500045F26C42C5F6020291420BD045F2804219
:103C6000C5F60202914205D045F29442C5F6020221
:103C7000914236D120680021016041608160C160BD
:103C800001612046FEF7A8FBE16D012201F01F0152
:103C900002FA01F141602046FEF72EFC206E20B1B1
:103CA00000210160D4E919014160606801380728EA
:103CB00008D82046FEF798FC04F16C02002307CADE
:103CC00003604A600020C4E91B006067C4E90F007C
:103CD000C4E91100C4E91300606584F8350084F874
:103CE000340010BD0A4611E7406D70470000000027
:103CF0002DE9F04381B00021009140F20801044613
:103D0000C2F2004140F26F49A56DC4F20209086891
:103D100048F2B511C1F64E312668A0FB01084E45A8
:103D20002F682A6815DC9F20C4F2020086422BDC33
:103D30005720C4F2020086424FDC1020C4F2020079
:103D4000864278D02820C4F20200864273D04020F8
:103D50006CE045F22F40C5F60200864227DC40F2B7
:103D6000B740C4F20200864243DC40F27040C4F225
:103D7000020086425FD040F28840C4F202008642D0
:103D800059D040F2A04051E040F22740C4F2020076
:103D900086423DDCA020C4F2020086424BD0B8200F
:103DA000C4F20200864246D040F210403EE045F2A6
:103DB0006B40C5F60200864274DC45F23040C5F621
:103DC0000200864200F0818045F24440C5F60200C0
:103DD00086427AD045F2584072E05820C4F2020080
:103DE000864228D07020C4F20200864223D0882068
:103DF0001CE040F2B840C4F2020086421BD045F2FB
:103E00000840C5F6020086425FD045F21C4057E0EC
:103E100040F22840C4F2020086420CD040F24040FA
:103E2000C4F20200864206D040F25840C4F20200BA
:103E3000864240F0ED84E06D00F01F01082000FA9A
:103E400001F23A4200F0148140F20F40C4F2020045
:103E5000864213DC6F20C4F20200864200F38E809B
:103E60003F20C4F20200864200F3CF801020C4F24B
:103E70000200864200F0ED802820E5E04E4500F388
:103E8000898040F23F40C4F20200864200F3C480C1
:103E900040F21040C4F20200864200F0DA8040F2A4
:103EA0002840D1E045F26C40C5F6020086420CD0B5
:103EB00045F28040C5F60200864206D045F29440A5
:103EC000C5F60200864240F0A3842068E16D01F04F
:103ED0001F010368580727D50420884010EA02070D
:103EE00022D01904686000F18780980600F18C8464
:103EF00040F20F40C4F20200864200F3AB836F2011
:103F0000C4F20200864200F3E6833F20C4F20200BE
:103F1000864200F350841020C4F20200864200F072
:103F20006D84282000F066BC980742D502208840A6
:103F300010EA02073DD01904686000F10E8398066C
:103F400000F1988440F20F40C4F20200864200F370
:103F5000AF836F20C4F20200864200F311843F2039
:103F6000C4F20200864200F356841020C4F202001C
:103F7000864200F07384282000F06CBC9F20C4F2BD
:103F80000200864251DC7020C4F20200864260D0FA
:103F9000882059E040F29F40C4F2020086424BDC88
:103FA00040F27040C4F20200864252D040F2884093
:103FB0004AE0180740F12C8408208840104000F0A7
:103FC000278440F20F40C4F20200864200F32C83A3
:103FD0006F20C4F20200864200F34F833F20C4F2F8
:103FE0000200864200F393831020C4F2020086424E
:103FF00000F0B1832820A9E3D80300F1B482A16CBA
:10400000002940F00C8300F003BC4020C4F2020001
:1040100086421ED0582017E040F24040C4F2020011
:10402000864216D040F258400EE0A020C4F20200B2
:1040300086420ED0B82007E040F2B840C4F2020039
:10404000864206D040F2A040C4F20200864240F010
:104050008E82206804230068184209D02068036813
:1040600023F004030360AA60606D40F00100606506
:10407000012000FA01F23A4270D040F20F40C4F23F
:104080000200864210DC6F20C4F2020086421CDC73
:104090003F20C4F20200864232DC1020C4F202004B
:1040A000864251D028204AE04E451ADC40F23F407B
:1040B000C4F2020086422ADC40F21040C4F2020040
:1040C000864241D040F2284039E09F20C4F20200ED
:1040D000864225DC7020C4F20200864234D088205B
:1040E0002DE040F29F40C4F2020086421FDC40F205
:1040F0007040C4F20200864226D040F288401EE0A2
:104100004020C4F2020086421ED0582017E040F240
:104110004040C4F20200864216D040F258400EE001
:10412000A020C4F2020086420ED0B82007E040F280
:10413000B840C4F20200864206D040F2A040C4F269
:104140000200864240F016822068406900F080003C
:1041500020B1AA60606D40F002006065042000FAA2
:1041600001F23A4270D040F20F40C4F2020086429F
:1041700010DC6F20C4F2020086421CDC3F20C4F237
:104180000200864232DC1020C4F20200864251D086
:1041900028204AE04E451ADC40F23F40C4F20200BB
:1041A00086422ADC40F21040C4F20200864241D02E
:1041B00040F2284039E09F20C4F20200864225DC0C
:1041C0007020C4F20200864234D088202DE040F2F4
:1041D0009F40C4F2020086421FDC40F27040C4F2ED
:1041E0000200864226D040F288401EE04020C4F201
:1041F000020086421ED0582017E040F24040C4F230
:104200000200864216D040F258400EE0A020C4F2D0
:10421000020086420ED0B82007E040F2B840C4F257
:104220000200864206D040F2A040C4F2020086425C
:1042300040F0A6812068006800F0020020B1AA606A
:10424000606D40F004006065102000FA01F1394211
:104250007ED040F20F40C4F20200864210DC6F2094
:10426000C4F2020086421CDC3F20C4F202008642F7
:1042700032DC1020C4F20200864251D028204AE0ED
:104280004E451ADC40F23F40C4F2020086422ADC6E
:1042900040F21040C4F20200864241D040F2284071
:1042A00039E09F20C4F20200864225DC7020C4F26F
:1042B0000200864234D088202DE040F29F40C4F2B4
:1042C000020086421FDC40F27040C4F202008642C7
:1042D00026D040F288401EE04020C4F20200864210
:1042E0001ED0582017E040F24040C4F2020086423F
:1042F00016D040F258400EE0A020C4F202008642E0
:104300000ED0B82007E040F2B840C4F20200864266
:1043100006D040F2A040C4F20200864240F036814E
:10432000266808223068104212D0A960206801680F
:104330004903016806D4C90506D4016821F00801C3
:10434000016001E008034FD4216C09B12046884781
:10435000E06D202100F01F008140394200F0AE8066
:1043600040F20F432268C4F202039A4210DC6F232A
:10437000C4F202039A421CDC3F23C4F202039A42B5
:1043800036DC1023C4F202039A4255D028234EE0B3
:104390004A451ADC40F23F43C4F202039A422EDC43
:1043A00040F21043C4F202039A4245D040F228433F
:1043B0003DE09F23C4F202039A4229DC7023C4F239
:1043C00002039A4238D0882331E040F29F43C4F27E
:1043D00002039A4223DC40F27043C4F202039A4281
:1043E0002AD040F2884322E0A16C0029AED1AFE789
:1043F0004023C4F202039A421ED0582317E040F231
:104400004043C4F202039A4216D040F258430EE0F1
:10441000A023C4F202039A420ED0B82307E040F270
:10442000B843C4F202039A4206D040F2A043C4F259
:1044300002039A4240F0AC802268102312681A42AC
:104440003CD0A96094F835202168042A0A681DD15F
:1044500022F016020A604A6922F080024A61226C48
:104460000AB9A26C1AB10A6822F008020A603F2158
:1044700001FA00F0A860012084F83500216D0020C9
:10448000002984F8340040F0CA80C1E15003086874
:104490000CD4C0050ED4086820F01000086001207C
:1044A00084F83500002084F8340003E0000301D4D0
:1044B000616C00E0E16B09B120468847606D00281F
:1044C00000F0A681606DC00700F0A580042084F88C
:1044D000350040F20F412068C4F20201884210DC2E
:1044E0006F21C4F2020188421CDC3F21C4F20201A8
:1044F00088424FDC1021C4F2020188426FD028218B
:1045000067E048451ADC40F23F41C4F202018842AC
:1045100047DC40F21041C4F2020188425FD040F211
:10452000284156E09F21C4F20201884242DC7021FA
:10453000C4F20201884252D088214AE040F29F41F1
:10454000C4F2020188423CDC40F27041C4F2020134
:10455000884244D040F288413BE0D80376D4616C75
:1045600000295CD154E1216C002958D150E1082385
:10457000304670E53068002000287FF4EAADEDE5B4
:104580003068002000287FF45AAE5DE60422C9E6B8
:10459000022353E74021C4F2020188421FD0582170
:1045A00017E040F24041C4F20201884217D040F2C5
:1045B00058410EE0A021C4F2020188420FD0B82178
:1045C00007E040F2B841C4F20201884207D040F24D
:1045D000A041C4F20201884208BF206800E02068C0
:1045E0004FEA9821026822F001020260009801302F
:1045F0000090884203D820680068C007F6D1206880
:104600000068C0074FF0030008BF012084F83500A0
:10461000002084F83400E16C002900F0F980204685
:10462000884701B0BDE8F0834E4532DC40F23F40A0
:10463000C4F20200864271DC40F21040C4F2020073
:10464000864200F0888040F228407FE0E16B00293C
:10465000E5D1DDE04E454BDC40F23F40C4F20200C4
:10466000864200F3AF8040F21040C4F2020086425E
:1046700000F0C48040F22840BCE09F20C4F2020059
:10468000864254DC7020C4F20200864263D0882047
:104690005CE040F29F40C4F2020086424EDC40F2F1
:1046A0007040C4F20200864255D040F288404DE08E
:1046B0004E4571DC40F23F40C4F20200864200F3F6
:1046C000B18040F21040C4F20200864200F0C68081
:1046D00040F22840BEE09F20C4F2020086427ADC0D
:1046E0007020C4F20200864200F08880882081E0B9
:1046F00040F29F40C4F20200864273DC40F27040F8
:10470000C4F20200864279D040F2884072E0402034
:10471000C4F2020086421ED0582017E040F240400A
:10472000C4F20200864216D040F258400EE0A020AB
:10473000C4F2020086420ED0B82007E040F2B84032
:10474000C4F20200864206D040F2A040C4F2020049
:10475000864240F0948026686FF01C02306810405A
:104760003060012000FA01F16960606584F835006D
:104770000020E16C84F8340000297FF450AF47E05A
:104780009F20C4F20200864255DC7020C4F2020071
:10479000864263D088205DE040F29F40C4F2020070
:1047A00086424FDC40F27040C4F20200864255D08F
:1047B00040F288404EE04020C4F2020086421DD004
:1047C000582017E040F24040C4F20200864215D063
:1047D00040F258400EE0A020C4F2020086420DD004
:1047E000B82007E040F2B840C4F20200864205D08B
:1047F00040F2A040C4F20200864243D126686FF026
:104800000801306808403060216C00297FF407AF50
:1048100001B0BDE8F0834020C4F2020086421DD002
:10482000582017E040F24040C4F20200864215D002
:1048300040F258400EE0A020C4F2020086420DD0A3
:10484000B82007E040F2B840C4F20200864205D02A
:1048500040F2A040C4F20200864216D126686FF0F2
:104860001401306808403060012084F835000020D1
:1048700084F83400E16B00297FF4D1AEC8E76FF013
:104880000E026BE76FF00401BBE76FF00A01E8E787
:104890002DE9F04381B0044600F0A6FF002C00F0A3
:1048A000758140F26F4805462068C4F20208404511
:1048B00015DC9F21C4F2020188422BDC5721C4F28F
:1048C0000201884251DC1021C4F2020188427AD0F0
:1048D0002821C4F20201884275D040216EE045F2E1
:1048E0002F41C5F60201884227DC40F2B741C4F2ED
:1048F0000201884245DC40F27041C4F20201884264
:1049000061D040F28841C4F2020188425BD040F29B
:10491000A04153E040F22741C4F2020188423FDC4B
:10492000A021C4F2020188424DD0B821C4F2020194
:10493000884248D040F2104140E045F26B41C5F654
:104940000201884200F3908045F23041C5F6020131
:10495000884200F09C8045F24441C5F6020188423D
:1049600000F0958045F258418CE05821C4F20201D4
:10497000884228D07021C4F20201884223D08821C5
:104980001CE040F2B841C4F2020188421BD045F25B
:104990000841C5F60201884279D045F21C4171E018
:1049A00040F22841C4F2020188420CD040F240415A
:1049B000C4F20201884206D040F25841C4F202011A
:1049C000884240F02A8240F20F420221C4F20202E1
:1049D00084F8351090424FF0000184F8341012DC56
:1049E0006F21C4F20201884220DC3F21C4F202019F
:1049F000884200F392801021C4F20201884200F044
:104A0000B1802821A8E040451EDC40F23F41C4F2BD
:104A10000201884200F3888040F21041C4F2020192
:104A2000884200F09F8040F2284195E09F21C4F227
:104A30000201884200F381807021C4F202018842A1
:104A400000F09080882187E040F29F41C4F202018B
:104A5000884279DC40F27041C4F20201884200F0E1
:104A6000818040F2884177E045F26C41C5F6020151
:104A700088420CD045F28041C5F60201884206D03A
:104A800045F29441C5F60201884240F0C68104F126
:104A9000080E022084F83500002084F834002068D5
:104AA0009EE80640A1F180034029B3FA83F34FEA60
:104AB0005313D4E90576D4E9079C05684FEA83339C
:104AC0006FF3101508BF102345EAD2014AF6F832F9
:104AD0001943CAF2FD7241EADE014CF6CD4341EAC8
:104AE000D701024441EAD601CCF6CC4341EAD901D0
:104AF000A2FB032341EA1C1101606FF0030000EAEE
:104B00009300E0652046FDF767FCE16D012201F0AE
:104B10001F0102FA01F14160B3E04021C4F2020139
:104B200088421FD0582117E040F24041C4F20201F0
:104B3000884217D040F258410EE0A021C4F2020191
:104B400088420FD0B82107E040F2B841C4F2020118
:104B5000884207D040F2A041C4F20201884208BF57
:104B6000206800E02068016821F00101016000BFB9
:104B700027683868C0070DD000F036FE401B0628B5
:104B8000F6D320206065032084F83500012001B0B1
:104B9000BDE8F08348F23F0104F108053868CFF61C
:104BA000106108402ECD0843A1691043E269184303
:104BB000236A0543606A2943042841EA020141EA65
:104BC000030103D1D4E90B23114319436268A2F115
:104BD0002903292B00F223810125DFE813F02A00A5
:104BE0002A002A002A002A002A0020012001200190
:104BF00020012001200120012001200120012001AD
:104C0000200120012001200120012A002A002A0081
:104C10002A0020012001200120012A002A00200171
:104C2000200120012001200120012A002A002A0061
:104C30002A00002D18BF41F48011042839607969D9
:104C400021F0070141EA000510D1D4E90A1045EA34
:104C5000010558B12046FDF71FFD38B140206065C1
:104C6000012084F8350001B0BDE8F08320467D6165
:104C7000FDF7B2FBE16D3F2201F01F0102FA01F1E5
:104C800081602068404519DC9F21C4F202018842FE
:104C900031DC5721C4F20201884256DC1021C4F2F3
:104CA0000201884200F091802821C4F2020188426A
:104CB00000F08B804021C4F2020184E045F22F41D4
:104CC000C5F6020188422BDC40F2B741C4F2020172
:104CD000884248DC40F27041C4F20201884274D03C
:104CE00040F28841C4F2020188426ED040F2A041F5
:104CF000C4F2020167E040F22741C4F20201884297
:104D000040DCA021C4F2020188425ED0B821C4F286
:104D10000201884259D040F21041C4F2020152E02F
:104D200045F26B41C5F6020188423CDC45F2304158
:104D3000C5F60201884248D045F24441C5F6020159
:104D4000884242D045F258413BE05821C4F202016A
:104D500088423AD07021C4F20201884235D08821BD
:104D6000C4F202012FE040F2B841C4F202018842CD
:104D70002BD045F20841C5F60201884225D045F204
:104D80001C411EE040F22841C4F2020188421CD0BE
:104D900040F24041C4F20201884216D040F258412C
:104DA000C4F202010FE045F26C41C5F602018842EF
:104DB0000BD045F29441C5F60201884205D045F278
:104DC0008041C5F6020188421FD12046FDF794FBC1
:104DD000A068802801D10020606004F16003606851
:104DE000C7B201380ECB07280F60536009D82046A0
:104DF000FDF7FAFB04F16C02002307CA03604A6066
:104E000003E00020C4E91B00606700206065012109
:104E100084F8351001B0BDE8F0834020B2E622F0FE
:104E20000302743AB2FA82F2550902E70000000068
:104E3000F0B581B0A8B3044690F83400012802D13F
:104E4000022001B0F0BD012084F8340094F8350050
:104E5000012820D1022084F835000020606540F24E
:104E60000F462068C4F2020640F26F47B042C4F217
:104E7000020719DC6F25C4F20205A84225DC3F2594
:104E8000C4F20205A8423BDC1025C4F20205A84288
:104E90005BD0282553E04FF400606065002084F863
:104EA0003400012001B0F0BDB8421ADC40F23F45A9
:104EB000C4F20205A8422ADC40F21045C4F2020501
:104EC000A84242D040F2284539E09F25C4F20205AD
:104ED000A84225DC7025C4F20205A84235D08825F9
:104EE0002DE040F29F45C4F20205A8421FDC40F2CB
:104EF0007045C4F20205A84227D040F288451EE062
:104F00004025C4F20205A8421FD0582517E040F200
:104F10004045C4F20205A84217D040F258450EE0C1
:104F2000A025C4F20205A8420FD0B82507E040F240
:104F3000B845C4F20205A84207D040F2A045C4F229
:104F40000205A84208BF206800E02068056825F037
:104F5000010505602046FDF7C7FB2068B04210DC64
:104F60006F21C4F2020188421CDC3F21C4F202011D
:104F7000884232DC1021C4F20201884251D028213B
:104F80004AE0B8421ADC40F23F41C4F202018842D2
:104F90002ADC40F21041C4F20201884241D040F2C2
:104FA000284139E09F21C4F20201884225DC7021AA
:104FB000C4F20201884234D088212DE040F29F41A2
:104FC000C4F2020188421FDC40F27041C4F20201C7
:104FD000884226D040F288411EE04021C4F20201FE
:104FE00088421ED0582117E040F24041C4F202012D
:104FF000884216D040F258410EE0A021C4F20201CE
:1050000088420ED0B82107E040F2B841C4F2020154
:10501000884206D040F2A041C4F20201884240F02A
:10502000298121680B25226C0B6865F344030B6012
:105030001AB10A6842F008020A60B84219DC9F21DE
:10504000C4F20201884231DC5721C4F202018842D5
:1050500056DC1021C4F20201884200F09180282120
:10506000C4F20201884200F08B804021C4F20201A8
:1050700084E045F22F41C5F6020188422BDC40F264
:10508000B741C4F20201884248DC40F27041C4F2E8
:105090000201884274D040F28841C4F20201884281
:1050A0006ED040F2A041C4F2020167E040F2274115
:1050B000C4F20201884240DCA021C4F2020188420D
:1050C0005ED0B821C4F20201884259D040F21041AA
:1050D000C4F2020152E045F26B41C5F6020188427A
:1050E0003CDC45F23041C5F60201884248D045F229
:1050F0004441C5F60201884242D045F258413BE0A6
:105100005821C4F2020188423AD07021C4F202014F
:10511000884235D08821C4F202012FE040F2B84124
:10512000C4F2020188422BD045F20841C5F60201C3
:10513000884225D045F21C411EE040F22841C4F2CD
:10514000020188421CD040F24041C4F20201884270
:1051500016D040F25841C4F202010FE045F26C4112
:10516000C5F6020188420BD045F29441C5F6020112
:10517000884205D045F28041C5F60201884272D1CD
:10518000216E0A68D20303D50A6842F480720A606D
:10519000E16E19B10A6842F480720A60B04210DC14
:1051A0006F21C4F2020188421CDC3F21C4F20201DB
:1051B000884232DC1021C4F20201884252D02821F8
:1051C0004AE0B8421ADC40F23F41C4F20201884290
:1051D0002ADC40F21041C4F20201884242D040F27F
:1051E000284139E09F21C4F20201884225DC702168
:1051F000C4F20201884235D088212DE040F29F415F
:10520000C4F2020188421FDC40F27041C4F2020184
:10521000884227D040F288411EE04021C4F20201BA
:1052200088421FD0582117E040F24041C4F20201E9
:10523000884217D040F258410EE0A021C4F202018A
:1052400088420FD0B82107E040F2B841C4F2020111
:10525000884207D040F2A041C4F20201884208BF50
:10526000206800E02068016841F001010160002031
:1052700001B0F0BD21680525226C0B68002A65F39A
:1052800043030B603FF4D9AE0A6842F00402D3E650
:1052900010B5C0B1044690F8210010B9204600F0C6
:1052A00047F8022084F821002068016959B181681B
:1052B00049B1616849B1A168B1F5801F03D10168A6
:1052C00041F4001104E0012010BD016821F4001137
:1052D0000160016821F48011D4E9022CB2F5801F2D
:1052E000226908BF01F5801163690160016821F03E
:1052F000FE4141EA03610160016821F4702111431C
:105300000160016821F4706141EA0C0101604169AA
:10531000A269C1EA0241416141694FF6FF729143BE
:10532000E26911434161012084F82100002010BD91
:1053300081B046F600010068C5F60001884201D040
:1053400001B0704744F2F440C5F60200016841F034
:1053500080610160006800F080600090009801B0FA
:105360007047000000000000B0B5044600F03CFAB1
:1053700040F239110546C2F20041621C097818BF9B
:105380000C4400BF00F030FA401BA042FAD3B0BD7D
:105390002DE9F047B6B040F2A4100025C2F200405B
:1053A000359534950178CDE932550029319540F095
:1053B000958002AC4FF0010A80F800A0B821204689
:1053C000FBF7CDFA4FF080700290204603951495BC
:1053D00001F00EFD38B142F6E13040F2AD31C0F6D9
:1053E000010006F0E5FB44F2D44040F60004C5F6A7
:1053F0000200C5F6020431AD4FF002080168002733
:1054000041F4805101600068294600F48050019009
:1054100001984FF63F00319004F54060CDF8C88008
:10542000032633974FF00C093496CDF8D49000F052
:1054300003F920462946CDE931A8CDE93376CDF8E8
:10544000D4A000F0F9F880202946CDE93108A4F570
:105450000060CDE93376CDF8D49000F0EDF830203F
:105460002946CDE931082046CDE93376CDF8D490F0
:1054700000F0E2F848F233102946CDE9310804F58E
:105480008050CDE93376CDF8D49000F0D5F841F6D0
:1054900083702946CDE9310804F50060CDE9337603
:1054A000CDF8D49000F0C8F84FF440402946CDE93B
:1054B0003108A4F58060CDE93376CDF8D49000F0C2
:1054C000BBF84CF203702946CDE9310804F5806041
:1054D000CDE93376CDF8D49000F0AEF836B0BDE823
:1054E000F0870000000000002DE9F04F82B0002995
:1054F00000F0818000F1264342F2004703F1FF7380
:10550000C5F602074FEAB32201920A22B84208BF49
:105510000922002400270125009229E06FF00303EF
:10552000032203EA5903066802FA04FE034446EA2A
:105530000E06066007F01C060F2202FA06FC1E6A21
:1055400026EA0C061E62C36823EA0E03C3604368A2
:1055500023EA08034360836823EA0E02826031FA7B
:1055600005F205F1010507F1040704F1020442D038
:10557000A5F10109012202FA09F818EA010EEED09C
:10558000019ADDF800C0082A4FEA990A38BF94460C
:1055900040F2084207F00C06C5F600020F2303FA9A
:1055A00006FB52F82A200CFA06F602EA0B02B24277
:1055B000B4D10423C5F60003DA6F22EA0E02DA67DB
:1055C000D3F8802022EA0E02C3F880201A6822EA6B
:1055D0000E021A604FF0B0431A6822EA0E021A60F7
:1055E00040F20843C5F6000353F82A2022EA0B02D2
:1055F00043F82A2092E702B0BDE8F08F00000000D7
:1056000080B503A2002000210CF0F1FF80BD00BF97
:10561000455854492043616C6C6261636B0D0A000C
:1056200080B58821C5F600010A68024208BF80BD26
:105630000860FFF7E5FF80BD2DE9F04F83B00C68EF
:10564000002C00F0C68000F1264242F2004702F131
:10565000FF72C5F602074FEAB22201920A22B8424F
:1056600008BF0922002500274FF0010A009209E037
:105670000C68043734FA0AF20AF1010A05F102054E
:1056800000F0A780AAF10109012202FA09FE14EA3A
:105690000E08EDD0D1F804B00BF00304A4F1010C16
:1056A000BCF1010F11D803228668AA40CB6826EA14
:1056B0000202AB401A438260CBF30013426822EA35
:1056C0000E0203FA09F31A434260032C1ED003238F
:1056D000C268AB40022C22EA03028B6803FA05F38E
:1056E00042EA0302C26011D16FF0030207F01C0608
:1056F00002EA59020F23024403FA06F4D2F820C04A
:105700000B692CEA0404B3402343136203230268A9
:10571000AB404E689A4306F00303AB4016F4403F9B
:1057200042EA03020260A3D044F2F44340F2084E7E
:10573000C5F60203C5F6000E1A6842F002021A60AE
:105740001A6807F00C0302F002020292029A29F092
:105750000302019C009E082C38BF26460F2452F8F5
:105760000EC09C402CEA040406FA03F34FF0B04C40
:10577000234342F80E30DCF800204B6842EA08066A
:10578000DC0258BF22EA08069C02CCF8006040F216
:10579000040CC5F6000CDCF8002042EA080658BFED
:1057A00022EA08069C03CCF80060DCF8802042EA7C
:1057B000080658BF22EA0806DB03CCF88060DCF854
:1057C0007C2042EA080658BF22EA0806CCF87C6032
:1057D0004EE703B0BDE8F08F002A08BF09048161DD
:1057E000704700000000000044F2F020C2F20040C8
:1057F00000687047000000004EF60000C1F6F1702E
:1058000000687047000000004EF60400C1F6F17019
:1058100000687047000000004EF60800C1F6F17005
:10582000006870470000000080B5D0F8000307F062
:10583000D7FF80BD0000000080B5D0F8000307F05E
:10584000DBFF80BD0000000080B5006809F0C4FCEB
:1058500080BD00000000000080B5006809F0C0FCB9
:1058600080BD0000000000002C2211FB020090F817
:1058700060007047000000002C2211FB0200006D48
:10588000704700000000000010B5044690F8F802D0
:10589000012801D1022010BD012084F8F8022068FF
:1058A00009F0AEFC002084F8F80210BD00000000F2
:1058B0002DE9F04184B0054690F8F802012803D1A3
:1058C000022004B0BDE8F0812C20012411FB00501F
:1058D00085F8F8424FF00008DDF830C00B9E0A9FB3
:1058E00002F07F0480F83D8080F83830A0F840C096
:1058F00080F8391080F83F6080F83A40D40980F889
:105900003B4080F83C702868CDE90076CDF808C0AF
:1059100009F0CEFC85F8F88204B0BDE8F081000003
:105920007047000000000000F0B581B02C26069FF3
:1059300011FB060404F1420584F83B2084F83F3053
:1059400017B102262E7004E003262E70099E84F8FB
:105950003D60032BDDE907EC59D8DFE803F00224B2
:10596000192B002A08BF012F51D1BCF1000F05D11E
:105970002C22012311FB020282F855302C2211FB4C
:10598000020292F855304232E3B3022313703EE034
:10599000DAB12C2211FB020292F85430423243B3A6
:1059A0000223137033E02C22002311FB020282F841
:1059B00042302CE09AB12C2211FB020292F85430B2
:1059C0004232CBB10223137021E02C2211FB0202E0
:1059D00092F85530423293B10223137017E02C2213
:1059E00011FB020292F85530423273B10223137058
:1059F0000DE0002313700AE00023137007E000237A
:105A0000137004E00023137001E0002313702C22B4
:105A100011FB0204002204F13803C4F844E0A4F8A6
:105A20006020C4E913C2027B84F83910006819466B
:105A300009F0C2FC01B0F0BDF0B581B005680446C4
:105A4000284609F0D9FB012840F09780206809F02A
:105A5000EFFD002800F09180206809F0E9FD800248
:105A600003D520684FF400114161206809F0E0FD82
:105A7000C00203D520684FF480114161206809F00D
:105A8000D7FD400103D520684FF080614161206857
:105A900009F0CEFD800702D520680221416120680F
:105AA00009F0C6FD800018D520684FF00051416113
:105AB000D5F84004C00710D11021284609F064FB36
:105AC000284609F039FBA069022803D1206801218A
:105AD00009F086FD2046FFF7AFFE206809F0A8FD1B
:105AE000C00102D5204604F063FA206809F0A0FD49
:105AF000000705D5204600F0FFF820680821416125
:105B0000206809F095FDC0060CD52068816921F058
:105B100010018161204604F09BFA2068816941F000
:105B200010018161206809F083FD800125D520687E
:105B300009F03EFCA168E1B1064605F5A065002725
:105B400009E000BF204604F0ABF80137A0688742A7
:105B500005F120050DD207F00F0026FA00F0C0076E
:105B6000F3D0F9B228680004ECD5204603F024FFF6
:105B7000EBE720684FF00071416101B0F0BD00001B
:105B8000002857D02DE9F04F8BB00446056890F8F7
:105B9000F90228B9002084F8F802204600F04CF8F9
:105BA000032084F8F902E86BC00501D40020E0600E
:105BB000206809F07DFA20680A9004F1040E04F1CF
:105BC0001C0AD4E90C509EE80E589AE8C007CDE9AB
:105BD000085003A88DE8005880E8C0070A9809F02B
:105BE000F7F92068012109F06FFD04F1080704F1BD
:105BF000240BD4E900800A908CCFD4E90565D4E960
:105C000007CE9BE8000ED4E90C01CDE9080102A8FB
:105C10000A99CDE9007680E8205005A880E8000EBA
:105C2000404609F075FC012084F8F90200200BB011
:105C3000BDE8F08F0120704710B5B0B0044602A84F
:105C4000B821FAF78CFE00212068C4F204018842D2
:105C500001D030B010BD002003904FF4802002909E
:105C60004FF44010239002A801F0C2F808B1FCF7ED
:105C7000FBFE00F075FF44F2D8400022C5F602009A
:105C8000016841F0007101600068002100F00070BF
:105C9000019001984A2000F093FA4A2000F08CFA13
:105CA0004B200021002200F08BFA4B2000F084FAF8
:105CB0004D200021002200F083FA4D2000F07CFAF4
:105CC00030B010BD0000000080B5D0F8000307F030
:105CD0002FFE80BD0000000080B5D0F8000307F063
:105CE0002BFE80BD0000000080B5006809F0CCFCF0
:105CF00080BD00000000000080B5D0F8000307F070
:105D0000CBFD80BD0000000010B5044690F8F802FD
:105D1000012801D1022010BD012084F8F80220687A
:105D2000012109F0DDF9206809F0FEF9002084F86E
:105D3000F80210BD0000000010B5044690F8F8020B
:105D4000012801D1022010BD012084F8F80220684A
:105D500009F0EEFC002084F8F80210BD00000000FD
:105D600010B5B0B10446D0F8880028B9002084F8F6
:105D70008400204603F06CFC2420C4F888002068CE
:105D8000016821F001010160204606F06DFD012847
:105D900001D1012010BDA06A10B1204606F0ACFB75
:105DA0002068416821F490414160816821F022011E
:105DB0008160816841F008018160016841F0010162
:105DC0000160204606F008FC10BD00000000000045
:105DD00040F2391044F2F021C2F20040C2F2004118
:105DE00000780A6810440860704700000000000056
:105DF00080B5032000F0F4F901F01AFF44F21841D5
:105E000042F2B073C5F60201C0F601030A680968E0
:105E100001F00F01C2F30322595C9A5C01F01F01EB
:105E200002F01F02D04040F20C02C2F2004220FAFF
:105E300001F1116040F20801C2F200410860002047
:105E400000F00AF800281CBF012080BD00F0A0F976
:105E5000002080BD00000000B0B540F23911C2F250
:105E60000041097801B3044640F20800C2F2004044
:105E70004FF47A72B2FBF1F10068B0FBF1F002F07E
:105E800097FD0F2C4FF001050CD858B94FF0FF309B
:105E900000222146002500F093F940F23C10C2F2A6
:105EA000004004602846B0BD0120B0BD00000000E5
:105EB0002DE9F041044690F8A00001284FF00200BF
:105EC00008BFBDE8F08134234FF0010884F8A080BA
:105ED00084F8A10002FB0340D1E900CED1E90267BA
:105EE000D1E90435C0E91235C0E91067C0E90ECE2A
:105EF000D1E906CED1E90865D1E90A37C0E91837FA
:105F0000C0E91665C0E914CE0B6B8366204604F029
:105F1000AFF92068C0F82480002084F8A18084F8BC
:105F2000A000BDE8F0810000704700000000000004
:105F3000B0B504460068816B426B02EA010569074F
:105F400026D4A8073AD4E8070ED02068416B21F088
:105F5000010141630121C16384F8A110002084F88C
:105F6000A000204600F0B4F8280758BFB0BD206854
:105F7000416B21F0080141630821C163012084F8CD
:105F8000A100002084F8A000204600F0FDF8B0BD7C
:105F9000416B21F0040141630421C163D4F8A400E2
:105FA00040F00100C4F8A40084F8A110002084F897
:105FB000A0002046FFF7B8FFA807C4D52068416BB2
:105FC00021F0020141630221C163D4F8A40040F032
:105FD0000200C4F8A400042084F8A100002084F882
:105FE000A0002046FFF7A0FFE807BDD0ADE7000006
:105FF000002869D010B5044690F8A10028B9002007
:1060000084F8A000204600F067F8022084F8A10080
:10601000D4E9000CD4E90223816921F07041816147
:1060200042EA0C01226919431143826911438161DB
:106030004FF600028168CFF2000211408160D4E97E
:10604000051343EA0141836819438160C168114027
:10605000C160D4E9071343EA0141C3681943C16031
:10606000016911400161D4E9091343EA014103695F
:1060700019430161416911404161D4E90B1242EABF
:10608000014142691143416194F8351094F836207A
:10609000C36A03F07F43C362120494F8343042EAC7
:1060A0000121C26A19441143C162416B41F00601EA
:1060B0004163816941F0010181610020C4F8A400BD
:1060C000012184F8A11010BD0120704700000000DC
:1060D000704700000000000010B5B0B0044602A8F0
:1060E000B821FAF73CFC41F200012068C5F200013A
:1060F000884201D030B010BD4FF00051029140F203
:1061000094010020C2F2004103900A6B0C924A6B8A
:106110000D928A6B0E92CA6B0F92096C10914FF41C
:106120004061CDE91110139002A800F061FE38B172
:1061300042F6483040F2F331C0F6010005F038FD78
:10614000FBF7DAFE44F2E4400022C5F602000168E3
:1061500041F0080101600068072100F0080001908B
:106160000198582000F02CF8582000F025F859200C
:106170000621002200F024F8592000F01DF830B06C
:1061800010BD00000000000070470000000000008B
:1061900081B044F2F440C5F60200016841F002010A
:1061A0000160006800F002000090009801B07047A4
:1061B00080B509F065FE80BD80B509F075FE80BD33
:1061C00070B514460D46064609F07EFE2946224665
:1061D00004F01AFB0146304609F07EFE70BD000057
:1061E00080B509F08DFE80BD09F09AFE0000000028
:1061F0002DE9F04F8DB0054645F20000C5F20020B4
:106200008B462A6800279146141A01AE4FF0010808
:106210004FF0080A18BF01245FFA88F0314604F0F5
:106220000BFB08F1010800281CBFC5F854A001278A
:10623000B8F1030F06F11806EED1002F40F0DB8114
:1062400045F20008C5F20028A9EB0802D8F80000C2
:10625000C00702D14FF0000E07E0D8F800004FF061
:10626000010E20F00100C8F800004AF2000C0DF108
:10627000040AC5F2002CDCF80030DB07B2FA82F326
:1062800007D0DCF800200EF1020E22F00102CCF85B
:10629000002004EB44056FF003045B090AEBC5061C
:1062A000B26804EB82044BF20442C5F20022A1580A
:1062B00021F48071A15052F8041CC90728D15AF862
:1062C0003550002D53D002EB850151F8045C25F0C8
:1062D000010541F8045C75683DB102EB850151F898
:1062E000045C25F0100541F8045CF5683DB101211E
:1062F000A94352F8215025F4803542F821503669DF
:10630000AEB30121B14352F8216026F080762CE033
:1063100052F8041CC14521F0010142F8041C26D1A9
:10632000079902EB810151F8046C46F0020641F82E
:10633000046C089E3EB102EB860151F8046C46F0F5
:10634000200641F8046C0A9E3EB10121B14352F887
:10635000216046F4802642F821600B9E3EB1012167
:10636000B14352F8216046F0806642F8216003EBA9
:106370004303DBF800505AF83360B54217D00AEBFC
:10638000C304DBF80410606881420ED0DBF808001B
:10639000A168884209D0DBF80C00E168884204D08B
:1063A000DBF81000216988424AD1B54217D10AEBC7
:1063B000C305DBF804006968884210D1DBF80C00E3
:1063C000E96888420BD1DBF810002969884206D1C0
:1063D00052F8040C40F0010042F8040C30E002EBEB
:1063E00086000AEBC30350F8041C21F0010140F8B9
:1063F000041C5E683EB102EB860050F8041C21F0DC
:10640000100140F8041C986802EB800050F8041C4E
:1064100021F4807140F8041CDE683EB10120B043D5
:1064200052F8201021F4803142F820101B693BB152
:106430000120984352F8201021F0807142F820107A
:10644000DBF808004FF44071C14502EB800050F8C2
:10645000043C08BF4FF4807123F44073194440F8A2
:10646000041CDBF8143052F8040C591EC0F307402A
:1064700081420BD9002152F8040CCFF6FF7120F4B1
:106480007F0001EB0341084342F8040C52F8040C6E
:10649000DBF800104B1EC00752F8231021F0030652
:1064A0002AD10320C14508BF0120304342F8230010
:1064B000DBF8043063B102EB83003021C14550F8B2
:1064C000043C08BF102123F02003194340F8041CAA
:1064D000DBF80C30D80329D4CBB301204FF0A066F1
:1064E0009843C14502EB800352F8200020F0E0659C
:1064F00008BF4FF0807627E046F0010042F8230005
:10650000DBF8043043B102EB8300012350F8041C94
:1065100063F3051140F8041CDBF80C30D80328D4D1
:106520009BB34FF080766FF0E06526E001204FF4DA
:10653000A0269843C14502EB800352F8200020F4C6
:10654000E02508BF4FF4803645EA06001860DBF806
:106550001030D80326D4E3B301204FF0E061984314
:10656000C14552F8203023F0E06308BF4FF040717E
:1065700024E04FF480366FF4E0250120984352F870
:1065800020102940314342F82010DBF81030D803A6
:1065900016D4F3B101209843032352F8201063F37B
:1065A0001A6114E001204FF4E0219843C14552F8EC
:1065B000203008BF4FF4403123F4E023194406E0B3
:1065C00001209843032352F8201063F3124142F84C
:1065D00020105FEACE7005D0D8F8000040F001002E
:1065E000C8F800005FEA8E7005D5DCF8000040F0C6
:1065F0000100CCF80000F8B20DB0BDE8F08F00004B
:106600002DE9F04182B015460F460446FFF7ECF83D
:10661000216D0646242912D0142909D0022920D13F
:10662000E068B0F1806F0FD1242908D0142918D167
:10663000386820F00100022806D0242911D13868DA
:1066400040F0020003280CD12021002220463346CE
:1066500000954FF0000804F097FA40B102B0BDE891
:10666000F08110206065012002B0BDE8F081204675
:106670003946C4F8548004F03FF90028EED1B96BD4
:1066800039B13968022916D001290FD00029E5D186
:1066900014E002210122204633460095022504F031
:1066A00073FA21684D6202B0BDE8F081216D2429A2
:1066B00004D0142105E0216D142901D1042100E04A
:1066C0002421216502B0BDE8F08100000000000037
:1066D00080B110B504460068016821F00101016035
:1066E000816821F002018160204600F0C1F800209D
:1066F000206510BD01207047F0B581B00446FFF75A
:1067000073F8002C49D0054600206065216D0029F2
:1067100041D1204600F0D0F841F28831204600F007
:10672000ABF9D4E9000C4FF6F4066169D4E903E350
:106730008268CFF6E00600273240CFF6FF7742EAC4
:106740000E0207EB03436FF0FF06676B1A4306EB7D
:1067500001213A43E369114319438160C168226A08
:1067600021F4E0212B461143C160216BA26B42EA68
:1067700001410161E16B4161016806EB0C2221F4EA
:10678000F85111430160A06D2021002200902046A5
:1067900004F0FAF920B101B0F0BD012001B0F0BD64
:1067A0002168676AA268013FA369CE6826F0FF06E8
:1067B000022B47EA0607CF600F6827F0400742EA3E
:1067C00007020A60D1F8082122F0A042D4E90A7633
:1067D00042EA070242EA0602C1F808210A6842F0CA
:1067E00001020A6003D18A6842F002028A60E1680D
:1067F000B1F1806F01D1012100E00221216501B0DA
:10680000F0BD000000000000B0B582B00D460446A7
:10681000FEF7EAFF216D04290AD10346A06D20216D
:1068200000220090204604F0AFF930B102B0B0BDB4
:1068300010206065012002B0B0BD88212165296863
:10684000082909D122686B68C2F8303110235362DD
:10685000136843F4801313602268136823F008035D
:10686000194341F04051116002B0B0BD000000007A
:1068700010B545F200010068C5F20021884218BF3A
:1068800010BD44F2D44040F20044C5F60200C5F603
:106890000204016821F400110160016821F48041C3
:1068A000016004F580504FF4F861FEF71DFE4021B1
:1068B0002046FEF719FE10BD2DE9F043B5B00446A1
:1068C00002A8B8210025CDE93355CDE931553095E1
:1068D000FAF745F845F200012068C5F20021884228
:1068E00002D035B0BDE8F0834FF00070029002A8EE
:1068F0000395159500F07CFA08B1FCF7B5F844F261
:10690000D44041F20044C5F60200C5F6020430ADA1
:106910004FF002080168002741F40011016001688E
:10692000032601F4001101910199016841F48041AD
:10693000016001684FF00A0901F480410191019959
:10694000C16841F02001C160C16801F020010191DE
:106950000199C16841F00201C160C068294600F098
:106960000200019001984FF4707030902046CDF8ED
:10697000C48032973396CDF8D090FEF75DFE4FF489
:1069800080602946CDE93008CDE93276092034907F
:106990002046FEF751FE40202946CDE93008A4F5F7
:1069A0008050CDE93276CDF8D090FEF745FE35B077
:1069B000BDE8F083000000002DE9F04182B01546EB
:1069C00088460446FEF710FF27680646B8F1000F18
:1069D000B86CD7F8101114D0226D042A17D13A6C74
:1069E00001230132A264A26C6264C4F840803A6858
:1069F00063F31D723A60E268B2F1806F0BD1B86444
:106A000012E008206065012002B0BDE8F08110208E
:106A10006065012026E0D7F8002112F4E06F01D074
:106A2000B86401E0C7F81011062101222046334660
:106A3000009504F0A9F8A8B997F85000216C0870E7
:106A4000206CA16C01302064481EA064A06C00285A
:106A5000EAD102210122204633460095022504F0A6
:106A600093F810B102B0BDE8F08121684D62256550
:106A700002B0BDE8F0810000024600209165704739
:106A80002DE9F04182B0154688460446FEF7ACFE7B
:106A9000B8F1000F31D006462768206D04282ED1AA
:106AA000386C0130A064A06C6064C4F84080386821
:106AB00020F04050386000BF0421012220463346B8
:106AC000009504F061F8A8B9206C007887F85000B0
:106AD000206CA16C01302064481EA064A06C0028CA
:106AE000EAD102210122204633460095022504F016
:106AF0004BF850B102B0BDE8F081082000E0102052
:106B00006065012002B0BDE8F08121684D62256515
:106B100002B0BDE8F0810000B0B544F60C05C5F642
:106B2000020529684907296805D401F00701081AF8
:106B300018BF0120B0BD21F0070108432860FEF70F
:106B400053FE044655F8080C800407D4FEF74CFEAB
:106B5000001BB0F57A7FF5D90120B0BD0020B0BD93
:106B600044F60C00C5F60200016841F08071016036
:106B7000704700000000000080B501F009F844F201
:106B8000204142F2B072C5F60201C0F60102096866
:106B9000C1F30211515C01F01F01C84080BD00002B
:106BA00080B544F2384EC5F6020E5EF8103C5EF831
:106BB000101CC1F3053C5EF80C1CBCF1000FDEF8A4
:106BC000042014D0C1F30011C2F3CC02514300EEF3
:106BD000101A03F003010229B8EE400A0CD071B973
:106BE0005EF8381C89060DD49FED341A18E0002198
:106BF000C0E90011816080BD9FED2F1A10E09FED6C
:106C00002D1A0DE05EF8381C49F20002C0F2D032B5
:106C1000C1F3C10122FA01F101EE101AB8EE411AD6
:106C2000DEF800109FED263A6FF35F2102EE101A96
:106C3000DEF80010C1F34621B8EE422A00EE032A26
:106C400000EE10CAB7EE003AB8EE400A81EE000A34
:106C500032EE031A02EE101AB8EE422A20EE010AB2
:106C600032EE031A80EE011ABCEEC11A80ED001A52
:106C7000DEF80010C1F3064101EE101AB8EE411A19
:106C800031EE031A80EE011ABCEEC11A80ED011A32
:106C9000DEF80010C1F3066101EE101AB8EE411AD9
:106CA00031EE031A80EE010ABCEEC00A10EE101A93
:106CB000816080BD0024744A20BCBE4B0024744C0B
:106CC000000000390000000080B544F2404EC5F6D7
:106CD000020E5EF8183C5EF8181CC1F3055C5EF805
:106CE000141CBCF1000FDEF8042014D0C1F3002105
:106CF000C2F3CC02514300EE101A03F00301022943
:106D0000B8EE400A0CD071B95EF8401C89060DD46B
:106D10009FED341A18E00021C0E90011816080BDA8
:106D20009FED2F1A10E09FED2D1A0DE05EF8401C2C
:106D300049F20002C0F2D032C1F3C10122FA01F1DE
:106D400001EE101AB8EE411ADEF800109FED263A57
:106D50006FF35F2102EE101ADEF80010C1F3462136
:106D6000B8EE422A00EE032A00EE10CAB7EE003A4F
:106D7000B8EE400A81EE000A32EE031A02EE101A53
:106D8000B8EE422A20EE010A32EE031A80EE011A12
:106D9000BCEEC11A80ED001ADEF80010C1F3064106
:106DA00001EE101AB8EE411A31EE031A80EE011A04
:106DB000BCEEC11A80ED011ADEF80010C1F30661C5
:106DC00001EE101AB8EE411A31EE031A80EE010AF4
:106DD000BCEEC00A10EE101A816080BD0024744A17
:106DE00020BCBE4B0024744C0000003900000000A1
:106DF0002DE9F04381B00446C07844F22C490007E5
:106E0000C5F6020901D400252EE0606E4FEA30502D
:106E100003280DD80025DFE800F0020E1714D9F87A
:106E20000000002540F40030C9F8000055B913E017
:106E300001253DB910E004F10800022104F064FAD4
:106E400005464DB1A84611E004F12800022104F0E6
:106E5000EBFA0546002DF5D1D9F82400616E20F437
:106E600040100843C9F824004FF000086078C007BC
:106E700030D0A06D042807D8DFE800F00A131C0307
:106E80000300FDB1A84625E00125002DFAD119E047
:106E9000D9F8000040F40030C9F80000002DF1D10D
:106EA00010E004F10800002104F02EFA0546002D40
:106EB000E8D107E004F12800002104F0B5FA054606
:106EC000002DDFD1D9F82400A16D20F00700084380
:106ED000C9F824006078400734D5D4F8A4004FEAFC
:106EE0007050052807D8DFE800F00A131C030303DD
:106EF000FDB1A84626E00125002DFAD119E0D9F808
:106F0000000040F40030C9F80000002DF1D110E07D
:106F100004F10800002104F0F7F90546002DE8D13E
:106F200007E004F12800002104F07EFA0546002D58
:106F3000DFD1D9F82C00D4F8A41020F46000084365
:106F4000C9F82C006078000734D5D4F8A8004FEABF
:106F50003060052807D8DFE800F00A131C0303039C
:106F6000FDB1A84626E00125002DFAD119E0D9F897
:106F7000000040F40030C9F80000002DF1D110E00D
:106F800004F10800002104F0BFF90546002DE8D106
:106F900007E004F12800002104F046FA0546002D20
:106FA000DFD1D9F82C00D4F8A81020F0E060084315
:106FB000C9F82C00E078800728D5E06C4FEA301043
:106FC000032806D8DFE800F002091202B5B1A8468E
:106FD0001CE00125002DFAD110E0D9F8000040F4A2
:106FE0000030C9F80000002DF1D107E004F10800DD
:106FF000022104F089F90546002DE8D1D9F82000D6
:10700000E16C20F030000843C9F820006078C00629
:1070100032D5E06D4FEA3030042807D8DFE800F0C1
:107020000A131C030300FDB1A84625E00125002D2D
:10703000FAD119E0D9F8000040F40030C9F8000096
:10704000002DF1D110E004F10800002104F05CF9FA
:107050000546002DE8D107E004F12800002104F0E6
:10706000E3F90546002DDFD1D9F82400E16D20F4C5
:10707000E0400843C9F824006078800626D5206ED9
:107080004FEA3040052807D8DFE800F0030A100374
:1070900003039DB1A84619E00125002DFAD10DE0AA
:1070A00004F10800012104F02FF904E004F12800A4
:1070B000012104F0B9F90546002DEBD1D9F82400DF
:1070C000216E20F4E0200843C9F8240060784006CF
:1070D00028D5D4F8AC004FEA3070052807D8DFE88F
:1070E00000F0030A100303039DB1A8461AE001252E
:1070F000002DFAD10DE004F10800012104F004F99B
:1071000004E004F12800012104F08EF90546002D69
:10711000EBD1D9F82C00D4F8AC1020F0E0400843B3
:10712000C9F82C006078000620D5E06ED8B1B0F127
:10713000005F12D0B0F1805F25D1D9F8000040F493
:107140000030C9F8000085B9D9F82400E16E20F0BC
:1071500040500843C9F8240008E004F10800012168
:1071600004F0D2F80546002DEED0A846E078C0071E
:107170002AD0A06C03280AD8DFE800F0020D16021E
:10718000D5B1A84620E00125002DEED1DCE7012590
:10719000002DF6D110E0D9F8000040F40030C9F815
:1071A0000000002DEDD107E004F10800022104F0F9
:1071B000ABF80546002DE4D1D9F82000A16C20F0F1
:1071C00003000843C9F82000A078400642D5D9F84A
:1071D000D40340F48070C9F8D403FEF705FB0646DB
:1071E000D9F8D403C00505D4FEF7FEFA801B652844
:1071F000F6D303256DBBD9F84410D4F8B000414054
:1072000011F4407F11D0D9F84410D9F8442042F449
:107210008032C9F84420D9F8442021F4407122F486
:107220008032C9F84420C9F84410B0F5807F0FD1EE
:10723000FEF7DAFA064641F2893700BFD9F8440072
:10724000800705D4FEF7D0FA801BB842F6D3032599
:1072500085B1A8462078C00742D0A06F4FEAF00061
:10726000052823D8DFE800F003262C0303037DB3B1
:10727000A84635E04FF6CF73D4F8B00059F81C2C6F
:10728000C0F2FF0300F4407122F47C5203EA1013B1
:10729000B1F5407F08BF1A436FF31F3049F81C2C2B
:1072A000D9F844100843C9F84400D3E70125002D5C
:1072B000DED10DE004F10800012104F025F804E01E
:1072C00004F12800012104F0AFF80546002DCFD1CC
:1072D000D9F82800A16F20F038000843C9F8280029
:1072E0002078800724D5606F052807D8DFE800F0F4
:1072F000030A100303039DB1A84619E00125002DE0
:10730000FAD10DE004F10800012103F0FDFF04E0D3
:1073100004F12800012104F087F80546002DEBD187
:10732000D9F82800616F20F007000843C9F8280049
:107330002078400726D5D4F89000052807D8DFE844
:1073400000F0030A100303039DB1A8461AE00125CB
:10735000002DFAD10DE004F10800012103F0D4FF63
:1073600004E004F12800012104F05EF80546002D38
:10737000EBD1D9F82C00D4F8901020F00700084386
:10738000C9F82C002078800628D5D4F88C004FEA64
:107390003070052807D8DFE800F0030A1003030364
:1073A0009DB1A8461AE00125002DFAD10DE004F1A7
:1073B0000800002103F0A8FF04E004F128000221E6
:1073C00004F032F80546002DEBD1D9F82800D4F8A6
:1073D0008C1020F0E0400843C9F8280020784006CF
:1073E00028D5D4F898004FEAB020052807D8DFE860
:1073F00000F0030A100303039DB1A8461AE001251B
:10740000002DFAD10DE004F10800002103F07CFF0B
:1074100004E004F12800022104F006F80546002DDE
:10742000EBD1D9F82C00D4F8981020F4E0500843A0
:10743000C9F82C002078000628D5D4F89C004FEA23
:107440007030052807D8DFE800F0030A10030303B3
:107450009DB1A8461AE00125002DFAD10DE004F1F6
:107460000800002103F050FF04E004F1280002218D
:1074700003F0DAFF0546002DEBD1D9F82C00D4F843
:107480009C1020F460400843C9F82C0020780007C5
:1074900016D5D4F88000B0F5805F08D104F128003B
:1074A000022103F0C1FF002818BF4FF00108D9F8EE
:1074B0002800D4F8801020F440500843C9F8280070
:1074C0002078C00616D5D4F89400B0F5807F08D196
:1074D00004F12800022103F0A7FF002818BF4FF095
:1074E0000108D9F82C00D4F8941020F44070084317
:1074F000C9F82C00A078000722D5D4F8A000B0F578
:10750000003F1AD0B0F5803F11D0C8BB04F108008D
:10751000002103F0F9FE05468DB9D9F82C00D4F806
:10752000A01020F440300843C9F82C0008E004F112
:107530002800022103F078FF0546002DEDD0A84673
:10754000A078400729D5D4F88400B0F5401F21D099
:10755000B0F5001F18D0B0F5801F40F0BB80D9F8FF
:10756000000040F40030C9F80000ADB9D9F8280097
:10757000D4F8841020F440100843C9F828000CE027
:107580000125002DDBD1C8E704F12800012103F01B
:107590004BFF0546002DE9D0A846A078C00720D0B3
:1075A000206DB0F5803F10D0B8B9D9F8000040F494
:1075B0000030C9F800009DB9D9F82000216D20F4F1
:1075C00080300843C9F820000BE004F108000221D4
:1075D00003F09AFE05461DB9EEE70125002DEBD01C
:1075E000A846E078800608D504F12800022103F0BF
:1075F0001BFF002818BF4FF00108D4E900108A03D0
:1076000077D5E26F6FF0010303EB3223022B0AD32D
:107610004FEA32233BB1012B61D1D9F8003043F45A
:107620000033C9F80030002D5CD0CA0264D48A024D
:107630006CD44A0075D4B1F1FF3F40F38380090256
:1076400000F18B80C00707D004F10800002103F08F
:107650005BFE002818BF05462079800707D504F196
:107660000800012103F050FE002818BF05462079CC
:10767000400707D504F10800022103F045FE002869
:1076800018BF05462079000707D504F1280000211E
:1076900003F0CAFE002818BF05462079C00607D5AA
:1076A00004F12800012103F0BFFE002818BF0546A1
:1076B0002079800607D504F12800022103F0B4FEEA
:1076C000002818BF0125002D18BF0125284601B04C
:1076D000BDE8F0830125002D7FF45EAF46E701256C
:1076E000002DA2D1D9F8283023F440731A43C9F8E9
:1076F00028204546CA029AD5D9F82420236F22F0C3
:1077000000421A43C9F824208A0292D5D9F82420CD
:10771000A36E22F080721A43C9F824204A007FF534
:107720008AAF59F81C2C22F4004249F81C2CD4F8DA
:10773000B42059F81C3C1A4349F81C2CB1F1FF3F06
:107740003FF77DAFD9F82020636D22F040521A43F5
:10775000C9F8202009027FF575AFD9F82810D4F8B0
:10776000882021F440011143C9F82810C0077FF494
:107770006BAF71E7000000002DE9F04381B00028F5
:1077800000F0F48042F200080446C5F20028894661
:10779000D8F8000000F00F0088420ED2D8F80000A0
:1077A00020F00F0040EA0900C8F80000D8F80000F7
:1077B00000F00F00484540F0D980206844F2184797
:1077C0004107C5F602070AD521693A6802F070023E
:1077D000914204D93A6822F07002114339600107DE
:1077E0000AD561697A6802F07002914204D97A6818
:1077F00022F0700211437960C1060AD5A1697A6846
:1078000002F4E062914204D97A6822F4E062114302
:10781000796081060AD5E169BA6802F07002914286
:1078200004D9BA6822F070021143B96081070AD501
:10783000E1683A6802F00F02914204D93A6822F0F6
:107840000F0211433960C0077ED1206881070AD535
:10785000E1683A6802F00F02914204D23A6822F0DD
:107860000F0211433960D8F8001001F00F014945AB
:107870000DD9D8F8001021F00F0141EA0901C8F82C
:107880000010D8F8001001F00F0149456ED14107F2
:107890000AD521693A6802F07002914204D23A682E
:1078A00022F070021143396001070AD561697A68D4
:1078B00002F07002914204D27A6822F07002114301
:1078C0007960C1060AD5A1697A6802F4E062914242
:1078D00004D27A6822F4E0621143796080060AD506
:1078E000E069B96801F07001884204D2B96821F0FA
:1078F00070010843B86000F09BF9396842F2B07239
:10790000C0F601023B68C1F3032103F00F03515C91
:10791000D25C01F01F01C84002F01F0140F20C02CE
:1079200020FA01F1C2F20042116040F2080140F277
:107930003C12C2F20041C2F2004208601068FEF739
:107940008BFA01B0BDE8F083386820F47061D4E9A7
:107950000102012841EA020139600BD003282BD033
:1079600002282ED157F8181C890307D4012001B032
:10797000BDE8F08357F8181CC905F7D557F8081C5F
:1079800021F00701084347F8080CFDF72DFF0646D4
:1079900041F2883557F8080C616800F03800B0EB08
:1079A000C10F3FF452AFFDF71FFF801BA842F1D972
:1079B000032001B0BDE8F08357F8181C8901D5D524
:1079C000DCE757F8181C4907D0D5D7E700000000BE
:1079D0002DE9F04142F20008C5F20028D8F8000075
:1079E00000F00F0006280CD8D8F80000072161F33A
:1079F0000300C8F80000D8F8000000F00F000728C6
:107A000031D144F20047C5F60207FDF7EDFE04460A
:107A1000386840F0010038603868400707D4FDF747
:107A2000E3FE001B0228F7D90320BDE8F081786847
:107A300049F2000140F0804078600020386140F257
:107A40000800C0F2D031C2F2004040F23C12C2F253
:107A50000042016040F20C00C2F200400160106878
:107A6000FEF7FAF910B10120BDE8F081FDF7BCFE88
:107A7000044641F2883600BF3D69FDF7B5FE15F0BA
:107A8000380F054605D0281BB042F5D90320BDE8C4
:107A9000F0814EF645513868CFF6F67108403860EF
:107AA0003C68FDF7A1FEA103044605D5601B6428D0
:107AB000F6D90320BDE8F081386820F08070386086
:107AC0003D68FDF791FEA901054605D5281B022852
:107AD0004FF00300F4D956E0386820F08060386039
:107AE0003C68FDF781FE2101044605D5601B022894
:107AF0004FF00300F4D946E0386820F08050386039
:107B00003868800007D5FDF76FFE001B02284FF094
:107B10000300F5D937E040F200210020B861C0F23F
:107B20000221F8613862B9620021C0F2FF11F962E6
:107B300040F28021C0F2011139637863B963F863C0
:107B400039647864396821F48021396038664FF0EF
:107B5000FF30B866D7F8D00040F48030C7F8D000C6
:107B6000D8F8000000070DD5D8F80000072161F310
:107B70000300C8F80000D8F8000000F00F00072844
:107B80007FF471AF0020BDE8F0810000000000002C
:107B900080B500F04DF844F2184142F2B073C5F6DA
:107BA0000201C0F601030A68096801F00F01C2F37F
:107BB0000322595C9A5C02F01F0220FA02F201F0E3
:107BC0001F0040F20C0122FA00F0C2F200410860EE
:107BD00040F20801C2F200410A6080BD00000000CE
:107BE00080B5FFF7D5FF44F21C4142F2B072C5F6F2
:107BF0000201C0F601020968C1F30211515C01F0F3
:107C00001F01C84080BD000080B5FFF7C1FF44F2EE
:107C10001C4142F2B072C5F60201C0F601020968C9
:107C2000C1F30221515C01F01F01C84080BD00007A
:107C300044F20041C5F602010869C0F3C2000328FE
:107C40000FD002282AD070BB0868800649F20000D5
:107C5000C0F2D03058BF70470968C1F3C101C840B5
:107C600070478A6A886AC0F3051CC86ABCF1000FB5
:107C70004B6B1DD0C3F3CC0300F00100584302F05E
:107C80000302022A00EE100AB8EE400A12D0A2B98E
:107C90000868800614D49FED261A1EE047F64000BF
:107CA000C0F27D10704740F60010C0F23D007047F2
:107CB000002070479FED1D1A0FE09FED1B1A0CE08E
:107CC000086849F20002C0F2D032C0F3C10022FAC3
:107CD00000F001EE100AB8EE411A086B9FED153A5C
:107CE0006FF35F2002EE100A086BC0F34620B8EE77
:107CF000422A013000EE032A00EE10CAB7EE003A25
:107D0000B8EE400A81EE000A32EE031A20EE010AB4
:107D100001EE100AB8EE411A80EE010ABCEEC00A6C
:107D200010EE100A704700BF0024744A20BCBE4BFE
:107D30000024744C000000392DE9F04381B0F8B103
:107D40008046007844F20049C007C5F602095CD0BD
:107D5000D9F8100000F03801D9F82800102905D012
:107D600018290FD100F0030002280BD1D9F8000028
:107D7000800346D5D8F80400002842D1012731E01D
:107D80000127E2E2D8F804502DB1B5F5A02F0DD0AF
:107D9000B5F5803F10D0D9F8000020F48030C9F844
:107DA0000000D9F8000020F4802009E0D9F8000094
:107DB00040F48020C9F80000D9F8000040F4803079
:107DC000C9F80000FDF710FD002D054615D000BFD5
:107DD000D9F80000800314D4FDF706FD401B642889
:107DE000F6D903270020002800F0AF820DE000BF85
:107DF000FDF7FAFC401B6428F3D8D9F80000800393
:107E0000F6D40120002800F0A08298F80000800736
:107E10006AD5D9F8100010F03801D9F828001DD023
:107E2000182908BF5FEA807018D0D8F80C00D9F87C
:107E30000010002840D021F019010843C9F80000C3
:107E4000FDF7D2FC054600BFD9F80000400727D453
:107E5000FDF7CAFC401B0228F6D91EE0D9F8000045
:107E6000400704D5D8F80C00002800F05E81D9F84E
:107E70000000D8F80C1020F019000843C9F80000E1
:107E8000FDF7B2FC054600BFD9F80000400707D453
:107E9000FDF7AAFC401B0228F6D90327002420E0A6
:107EA000D9F80400D8F8101020F0FE40012440EA70
:107EB0000160C9F8040014E021F00100C9F80000D5
:107EC000FDF792FC05460126D9F8000010F00400E9
:107ED00086EA900405D0FDF787FC401B0328F3D306
:107EE0000327002C00F0318298F80000C00656D518
:107EF000D9F8100000F03801D9F82800082905D079
:107F0000182917D100F00300012813D1D9F8000077
:107F1000C00503D5D8F81C0080283BD1D9F80C0047
:107F2000D8F8201020F07C50012440EA0160C9F804
:107F30000C0031E0D8F81C000028D9F8000012D05D
:107F400040F08000C9F80000FDF74EFC054600BF78
:107F5000D9F80000C005E1D4FDF746FC401B02281B
:107F6000F6D9032717E020F08000C9F80000FDF7DC
:107F70003BFC0546012600BFD9F8000010F48070D4
:107F800086EA102408D0FDF72FFC401B0328F3D30A
:107F9000032701E001270024002C00F0D68198F887
:107FA000000000071CD498F80000800631D498F82F
:107FB0000000400745D4D8F82440002C00F0918000
:107FC000D9F8100000F03800182840F08C80012CFF
:107FD000D9F82810D9F8300040F0A9800127B4E181
:107FE000D8F814000028D9F874003ED040F0010001
:107FF000C9F87400FDF7F8FB054600BFD9F8740016
:108000008007D0D4FDF7F0FB401B0228F6D90327E8
:108010009BE1D8F818000028D9F800004DD040F4B2
:108020008050C9F80000FDF7DFFB0546D9F80000D5
:108030008004BCD4FDF7D8FB401B0228F6D90327E7
:1080400083E1D9F8000440F48070C9F80004FDF71A
:10805000CBFB0546D9F80004C0051AD4FDF7C4FBD4
:10806000401B6428F6D903276FE120F00100C9F80E
:108070007400FDF7B9FB0546032700BFD9F874006B
:1080800080077FF590AFFDF7AFFB401B0228F5D9C5
:108090005BE1D8F808502DB1052D00F08280012D4C
:1080A00000F08580D9F8700020F00100C9F8700058
:1080B000D9F8700020F004007DE020F48050C9F869
:1080C0000000FDF791FB0546032700BFD9F800002B
:1080D00080047FF56CAFFDF787FB401B0228F5D9C4
:1080E00033E1002731E1D9F8000020F08070C9F8B1
:1080F0000000FDF779FB022C05464FF0030709D17C
:10810000D9F80000800178D5FDF76EFB401B0228EE
:10811000F6D91AE1D9F80000800140F1E780FDF7B7
:1081200063FB401B0228F5D90FE10127B6E601F0F9
:108130000302D8F828309A4240F0DA80C1F30511E2
:10814000D8F82C20914240F0D7800146D8F8302052
:108150006FF35F21013A914240F0D080C0F3462294
:10816000D8F8341001398A4240F0CA80C0F3064280
:10817000D8F8381001398A4240F0C480C0F3066054
:10818000D8F83C100139884240F0BE80D9F834005C
:10819000D8F84810C0F3CC00814240F0B7800027E7
:1081A000D3E0D9F8700040F00400C9F87000D9F8A5
:1081B000700040F00100C9F87000FDF715FB002DBC
:1081C000054641F288344FF0030711D0D9F870000A
:1081D00080073FF5F0AEFDF707FB401BA042F5D945
:1081E000B3E000BFFDF700FB401BA04200F2AD80F2
:1081F000D9F870008007F5D4DDE608F12807D9F832
:10820000280040F2F33188438ECF0843591E40EADC
:1082100002104FF47E426FF35F21C9F8280002EB91
:1082200047204FF4FE0280B2D8F83C300844D8F81A
:10823000381002EB01414FF0FE4201F4FE0102EB67
:108240000362084402F0FE410844C9F83000D9F83E
:108250002C004FF6F87120F00100C9F82C00D9F875
:108260003400D8F84820884340EAC200C9F83400F6
:10827000D9F82C00D8F8401020F00C000843C9F8B9
:108280002C00D9F82C00D8F8441020F00200084344
:10829000C9F82C00D9F82C0040F48030C9F82C0023
:1082A000D9F82C0040F40030C9F82C00D9F82C0083
:1082B00040F48020C9F82C00D9F82C0040F00100CF
:1082C000C9F82C00D9F8000040F08070C9F800000F
:1082D000FDF78AFA04460327D9F80000800109D483
:1082E000FDF782FA001B0228F6D92EE000272CE0C9
:1082F00001272AE0002728E0012726E0012724E0C3
:10830000012722E0012720E001271EE0D9F82C00F8
:1083100020F00100C9F82C00FDF766FA0546FDF7CC
:1083200063FAA842FBD0D9F834004FF6F871D8F8B8
:1083300048208843002740EAC200C9F83400D9F831
:108340002C0040F00100C9F82C00F8B201B0BDE8E3
:10835000F083000000000000B0B5D0B30446407ABE
:1083600020B900202072204600F066F802206072DA
:10837000D4E90001026822F004020260026822F0DF
:108380002002114341F08041016040F6BC21C1F25E
:108390005971016147F274210161016821F0804146
:1083A0000160FDF721FA21680A68520013D40868B9
:1083B00040F0040008604868400621D4FDF714FA34
:1083C0002168496849071FD4012060720020E060DD
:1083D000B0BD0120B0BD054604E000BF21680868BB
:1083E0004000E4D5FDF700FA401B0328F6D32068CF
:1083F00000684000F2D5012060720221E160B0BD4A
:10840000042060720120B0BD054603E0206840688A
:108410004007D9D5FDF7E8F9401B0328F6D32068BB
:1084200040684007F2D5042060720220E06001201D
:10843000B0BD00000000000010B5B0B0044602A8B6
:10844000B821F8F78CFA41F600012068C4F6020161
:10845000884201D030B010BD00200390219002A8C6
:108460004FF400310291FEF7C3FC38B142F63530CB
:1084700040F26711C0F6010003F09AFB44F2DC40C1
:10848000C5F60200016841F040010160006800F09B
:1084900040000190019830B010BD000000000000C5
:1084A000F0B581B0044690F8200001284FF002009A
:1084B0004DD00E46012184F82010CA2184F82100F5
:1084C0001546206841625321416244F20800C5F616
:1084D0000000016821F4806101604068400611D409
:1084E000FDF782F9074600BF2068C068400709D43D
:1084F000FDF77AF9C01BB0F57A7FF5D92168032220
:1085000003201DE021684FF0B0434E61886820F0E1
:108510000700284388608020C5F60000026842F406
:10852000002202601868012240F400201860886868
:1085300040F480408860886840F480608860002053
:10854000FF234B6284F82120002184F8201001B021
:10855000F0BD00000000000080B542F64420C2F2E9
:1085600000402030F9F790FE80BD000000000000C0
:1085700010B588214FF40022C5F6000104460A60B8
:108580000068C168490508D5C16861F4906121F4AB
:108590008061C1602046FFF7DFFF012084F82100E1
:1085A00010BD00000000000070B500680C46416876
:1085B0004FEA114001F03F05C1F30426E070C1F31A
:1085C00042316670A57021700AB1002070BDC0B242
:1085D00002F0BAFFE070304602F0B6FF6070284645
:1085E00002F0B2FFA070002070BD0000000000008B
:1085F00070B500680C46816A616001696FF3DF3114
:10860000A160016801F07F05A570C1F305402070ED
:10861000C1F306266670C1F38051E1700AB10020F3
:1086200070BD02F091FF2070304602F08DFF607047
:10863000284602F089FFA070002070BD00000000F5
:1086400010B5E8B1044690F8210028B9002084F85C
:108650002000204600F044F8022084F82100206821
:10866000C168C9060ED4CA21416253214162204625
:1086700002F08EFF70B128B32168FF224A6202E047
:10868000012010BD0020002818BF10BD012184F872
:10869000211010BD94E803504FF6BF738268CFF6E7
:1086A0008F731A40826022691143A2691143826864
:1086B000114381604EEA0C410161204602F090FFB7
:1086C0000028D9D12168D4F814C0E369CA6C22F01B
:1086D0000302CA644CEA0302CB6C1A43CA64CBE7B8
:1086E00010B5AEB004466846B821F8F738F944F240
:1086F00000012068C5F60001884201D02EB010BDEF
:10870000002001904FF4800000904FF400702C90F6
:108710006846FEF76DFB30B142F63530E621C0F613
:10872000010003F045FA44F270400022C5F6020051
:10873000016841F40041016003200621FDF740FD7E
:108740000320FDF739FD2EB010BD00000000000031
:10875000F0B581B0044690F8200001284FF00200E7
:1087600044D00D464FF0010184F8201084F8210018
:1087700032B16878E978AE78000240EA014715E046
:108780006878C10603D500F0EF000A306870E87819
:1087900002F0E6FE69780646084602F0E1FE0102B4
:1087A000A87841EA064702F0DBFE064620682D78ED
:1087B000CA21416253214162204602F0E9FE50B9CC
:1087C00047EA0600216820F0C00040EA45304860D2
:1087D000204602F005FF21684FF0FF024A6210B9FF
:1087E000012184F82110002184F8201001B0F0BD8F
:1087F00070B5044690F8200001284FF0020008BF31
:1088000070BD0D46012184F82010CA2184F8210092
:1088100016462068416253214162204602F0B8FEAC
:10882000B8BB2068806800F040004EB108B9002055
:10883000E87029786A78A878120242EA014610E0C6
:1088400008B90020E870287802F08AFE69780646A8
:10885000084602F085FE0102A87841EA064602F0C9
:108860007FFEE9783043226840EA815047F67F7105
:10887000C0F27F0108401060906820F48020906072
:10888000D5E903010843916808439060204602F04F
:10889000A7FE21684FF0FF024A6210B9012184F857
:1088A0002110002184F8201070BD0000000000009D
:1088B000B0B5044600684FF65F71C0F20301C160B5
:1088C000FCF792FF054600BF2068C068800607D409
:1088D000FCF78AFF401BB0F57A7FF5D90320B0BDC5
:1088E0000020B0BD0000000020B3B0B5044690F8F1
:1088F0002C000D4628B9002084F82D00204600F0F9
:108900001BF8022084F82C002068211DFAF7C0F91A
:10891000D4E900022946FAF727FA44F20000C5F22A
:108920000020016841F000410160012084F82C0022
:108930000020B0BD0120704780B5FCF729FD80BD47
:10894000B0B5054690F82C00022801D10220B0BD38
:1089500095F82C000124012808D1022085F82C006C
:108960002868FAF7DDF985F82C4000242046B0BDD0
:10897000B0B5044690F82C000D46052804D0022816
:1089800008BFB0BD01280BD1022084F82C0020685C
:108990002946FAF7D1F92868022803D1052002E018
:1089A0000120B0BD012084F82C000020B0BD0000E3
:1089B00080B503F021F880BDF0B590F83C20012A85
:1089C00001D10220F0BDCB6848F2FF7ED1E901C29F
:1089D00023F47C5322F47052CFF6F07E1A430CEA53
:1089E0000E03D1F800C042EA030E2CF477230A6983
:1089F00043EA0E0322F476228C691A434B691A4328
:108A00000B6B22F4742223F470231A43D0F800C0B5
:108A100040F2004E4CF48063C4F2010E012580F850
:108A20003C5042EA0442734502BF22F08052CC69B6
:108A30002243734514D100268D6ACFF6F04622F00A
:108A40007C720C6A06EA05552A4324F000744F6ACA
:108A500022433A43734502BF22F00052C96A0A43D7
:108A60000021CCF8442080F83C100846F0BD0000FE
:108A7000B0B590F83C20012A4FF0020266D00123E5
:108A800080F83C3080F83D2040F2004C0268C4F28F
:108A9000010C42F4806363455368D2F808E002BFDA
:108AA00023F470034C6823434DF6FF740D68C4F241
:108AB000000423F07003A24243EA0503536014DC70
:108AC00040F2FF73C4F200039A4222DD40F6000335
:108AD000C4F200039A422ED040F60043C4F20003D1
:108AE0009A4228D041F6000321E04FF6FF73C4F20A
:108AF00000039A4213DD0023C4F201039A421AD004
:108B000044F20003C4F201039A4214D0624512D029
:108B100016E0B2F1804F0ED040F2004307E04EF273
:108B20000003C4F200039A4205D04EF20043C4F29F
:108B300000039A4204D12EF08003896819439160A2
:108B40000022012180F83D1080F83C201046B0BD85
:108B500010B5044631B1082907D0042908D104F121
:108B6000450007E004F1440004E004F1460001E0A0
:108B700004F147000078012808D1022041B10829FA
:108B800009D004290AD184F8450009E0012010BD6C
:108B900084F8440004E084F8460001E084F84700CB
:108BA0002068042203F044FA21684DF6FF70C4F2F5
:108BB00000004A6C814242F40040486414DC40F2F8
:108BC000FF70C4F20000814224DD40F60000C4F2D0
:108BD0000000814230D040F60040C4F200008142E3
:108BE0002AD041F6000023E04FF6FF70C4F20000E7
:108BF000814215DD0020C4F2010081421CD044F204
:108C00000000C4F20100814216D040F20040C4F2DC
:108C100001000FE0B1F1804F0ED040F2004007E0BC
:108C20004EF20000C4F20000814205D04EF2004036
:108C3000C4F2000081420BD107228868C0F2010211
:108C400002400020062A18BFB2F5803F00D110BDB7
:108C5000086840F001000860002010BD000000001E
:108C600060B310B5044690F83D0028B9002084F8A0
:108C70003C00204600F024F8022084F83D002068E3
:108C8000211D03F029F9012084F8480084F83E00F2
:108C900084F83F0084F8400084F8410084F84200E2
:108CA00084F8430084F8440084F8450084F84600C2
:108CB00084F8470084F83D00002010BD0120704773
:108CC00081B044F200010068C4F20101884201D081
:108CD00001B0704744F2F040C5F60200016841F46B
:108CE00080310160006800F480300090009801B08D
:108CF000704700000000000010B5044690F83C00EA
:108D000001284FF0020008BF10BD0B46012184F876
:108D10003C10882284F83D00CFF6CE72206881682E
:108D20001140816019686F290BDDB1F1101F17DA4E
:108D3000B1F5005F25DA70293FD0B1F5805F5AD0D8
:108D400039E02F2916DD4F2920DC302951D0402968
:108D500031D15968DA6803F073FB2068402148E09C
:108D60002F22C0F2100291421BDCB1F1101F40D043
:108D700020221CE0002918BF10293AD0202938D021
:108D800019E025D0B1F5801F33D014E050292AD046
:108D9000602910D15968DA6803F066FB2068602109
:108DA00027E03022C0F21002914222D04022C0F2CD
:108DB000100291421DD001201EE0D3E90121DB68A1
:108DC00003F046F92068816841F07701816012E084
:108DD000D3E90121DB6803F03BF92068816841F4A5
:108DE0008041816007E05968DA6803F029FB206858
:108DF000502103F039F90020012184F83D100021B1
:108E000084F83C1010BD0000B0B5044690F83C005A
:108E1000012801D10220B0BD0D464FEAB20105295B
:108E20004FF0010084F83C0048D8DFE801F0030B64
:108E3000131B23332068294603F022F9206850F8D9
:108E4000181F1EE02068294603F07EF9206850F8BC
:108E5000181F26E02068294603F0CEF9206850F854
:108E60001C1F0EE02068294603F01EFA206850F807
:108E70001C1F16E02068294603F05AFA206850F8B3
:108E8000541F41F008010160016821F004010160F4
:108E900029690FE02068294603F08EFA206850F80F
:108EA000541F41F400610160016821F48061016098
:108EB000296909020268114301600020002184F839
:108EC0003C10B0BD0000000060B310B5044690F83F
:108ED0003D0028B9002084F83C00204600F024F82A
:108EE000022084F83D002068211D02F0F5FF0120DA
:108EF00084F8480084F83E0084F83F0084F840007D
:108F000084F8410084F8420084F8430084F8440067
:108F100084F8450084F8460084F8470084F83D0052
:108F2000002010BD012070477047000000000000C5
:108F300090F88410012901D1022070472421C0F843
:108F4000881002681368116823F0005321F00101B2
:108F500011600021416613602022C0F8882080F84B
:108F600084100846704700007047000000000000B1
:108F70007047000000000000B0B5044690F884007F
:108F8000012801D10220B0BD012084F884002420F2
:108F9000C4F8880020680568026822F001020260B7
:108FA000826822F0606211438160204603F078FA03
:108FB000206805602020C4F88800002084F8840020
:108FC000B0BD000000000000B0B5044690F8840079
:108FD000012801D10220B0BD012084F884002420A2
:108FE000C4F8880020680568026822F00102026067
:108FF000826822F0604211438160204603F050FAFB
:10900000206805602020C4F88800002084F88400CF
:10901000B0BD00000000000070470000000000002C
:109020007047000000000000B0B504460068D4F8A6
:109030008810D4F88C50212980681AD110F0800053
:1090400017D000BF206850E8020F216820F0800090
:1090500041E80202002AF5D1E06F38B1FAF7ACF826
:1090600020B1E06FFAF740FE202823D0204603F01D
:10907000E3FB2068222D81684FF0000023D111F01E
:10908000400108BFB0BD00BF206850E8020F216852
:1090900020F0400041E80202002AF5D1D4F8800017
:1090A00068B1FAF789F850B1D4F88000FAF71CFEDD
:1090B000202804D11020C4F890000320B0BD204621
:1090C00003F076FB0020B0BDB0B5D8B10446242033
:1090D0000025C4F888002068016821F001010160C2
:1090E000056045608560204600F076FA2846C4F8A1
:1090F0009050C4F88850C4F88C50E566256784F811
:109100008450B0BD0120B0BDB0B582B00546FFF7B8
:109110008BFF43F6C4702968C2F2004000688142A8
:1091200001D002B0B0BD42F6922242F66533C0F6DD
:109130000102C0F601030020022140F267140094EE
:1091400009F055FAD5F8903008A20020012109F065
:109150004EFA43F6C47043F2F051C2F20040C2F23C
:109160000041012200F068FB02B0B0BD55415254ED
:10917000204572726F72436F6465203D2025780D23
:109180000A0D0A0000000000B0B50368044640F66E
:109190002F00D9691D680840D3F808E020280CD1B9
:1091A00005F020020EF08050801806D0616F002973
:1091B00000F0B38020468847B0BD40F60F0008405D
:1091C00000F09280012040F22012C1F20000C0F2B3
:1091D00000420EEA000C05EA020010EB0C0000F061
:1091E0008380C80718BF15F4807007D0012018626B
:1091F000D4F8900040F00100C4F8900088070EF009
:10920000010208D53AB102201862D4F8900040F06B
:109210000400C4F89000480708D53AB10420186249
:10922000D4F8900040F00200C4F8900008070CD574
:1092300005F0200050EA0C0007D008201862D4F88E
:10924000900040F00800C4F8900008050BD515F018
:10925000806008D04FF400601862D4F8900040F0AD
:109260002000C4F89000D4F89000002855D011F0E8
:10927000200009D005F020000EF08051401803D0E6
:10928000616F09B1204688472068D4F89010806843
:1092900001F0280100F04000401800F0AE802046A8
:1092A00003F086FA20688068400640F1968000BF8F
:1092B000206850E8020F216820F0400041E80202D7
:1092C000002AF5D1D4F88000002800F086804CF206
:1092D0009161C0F600010165FAF74EFAE8B1D4F8E1
:1092E0008000016D8847B0BD05EA010CE26E5FEABF
:1092F000CC603ED5012A3CD1102018629868400607
:1093000043D4B4F85C00B4F85E10B4F85E20002AD0
:109310001CBF401A5FEA004100D1B0BD216851E88E
:10932000001F226821F4907142E80013002BF5D150
:109330004FF6FE71CEF6FF71226852E8022F2368C5
:109340000A4043E80225002DF6D12021C4F88C10F4
:109350000021E166616700BF216851E8001F2268B3
:1093600021F0100142E80013002BF5D10221216702
:10937000F9E0C80224D51EF4800021D04FF48010FB
:1093800018622046FFF74CFEB0BDD4F8800040F2D2
:109390000F42C4F202020168914235DC6F22C4F22E
:1093A0000202914249DC3F22C4F2020291426ADC8D
:1093B0001022C4F20202914200F08880282281E04B
:1093C00008060ED505F080000EF40002801808D0C3
:1093D000A16F00297FF4EEAE9FE72046FFF794FED1
:1093E000B0BD5FEA4C6024D4080241D515F080403E
:1093F0003ED02046FFF710FEB0BD2046FFF784FEAA
:109400000020C4F89000B0BD40F26F42C4F20202E6
:1094100091421EDC40F23F42C4F20202914239DC2A
:1094200040F21042C4F2020291424FD040F2284270
:1094300048E0204603F0ECF9B0BD9F22C4F20202DE
:10944000914230DC7022C4F2020291423ED0882266
:1094500038E040F29F42C4F2020291422ADC40F21C
:109460007042C4F20202914230D040F2884229E0B8
:10947000C8017FF552AFB5F1FF3FC8BFB0BD204670
:10948000FFF776FDB0BD4022C4F2020291421DD02A
:10949000582217E040F24042C4F20202914215D035
:1094A00040F258420EE0A022C4F2020291420DD0D6
:1094B000B82207E040F2B842C4F20202914205D05D
:1094C00040F2A042C4F20202914202D1D4F88010CC
:1094D0000968043109688AB2002A3FF41EAFB4F863
:1094E0005C309A42BFF419AFA4F85E10C069B0F5C1
:1094F000807F31D0206850E8000F216820F4807010
:1095000041E80002002AF5D1206850E8020F2168E6
:1095100020F0010041E80202002AF5D1206850E85D
:10952000020F216820F0400041E80202002AF5D134
:109530002020C4F88C000020E06600BF206850E8BE
:10954000000F216820F0100041E80002002AF5D148
:10955000D4F88000F9F730FE02202067B4F85C00F0
:10956000B4F85E10401A81B22046FFF7FDFCB0BD92
:1095700010B5B0B10446D0F8880028B9002084F8AE
:109580008400204600F064F82420C4F88800206895
:10959000016821F001010160204603F065F901280E
:1095A00001D1012010BDA06A10B1204602F0A4FF35
:1095B0002068416821F490414160816821F02A01CE
:1095C0008160016841F001010160204603F004F868
:1095D00010BD00000000000010B541F60041044637
:1095E0000068C4F20101884216D047F60001C4F2B7
:1095F0000001884218BF10BD44F2E840C5F60200E1
:10960000016821F08041016000204FF40041C5F65F
:109610000200FBF769FF10BD44F2E8400022C5F6E6
:109620000200C5F60202816821F08001816002F526
:1096300080500C21FBF758FFD4F88000FAF7F4F9BA
:10964000E06FFAF7F1F99C20FCF7B2FD10BD0000C5
:109650002DE9F047B6B0044602A8B8210025CDE9AF
:109660003455CDE932553195F7F779F941F6004196
:109670002068C4F20101884243D047F60001C4F2D9
:109680000001884240F0D5800220029002A8002408
:1096900003941F94FDF7ACFB38B142F6E1304FF470
:1096A0002071C0F6010002F083FA44F2E040C5F6F2
:1096B0000200816841F080418160816801F0804151
:1096C00001910199016841F001010160006841F2D6
:1096D000000100F001000190C5F6020101984FF46D
:1096E000004031901220CDE93204032034900B2049
:1096F0003590A1F5805031A9FBF79EFF36B0BDE84B
:10970000F0870120029002A803952095FDF770FBD9
:1097100038B142F6E13040F29621C0F6010002F085
:1097200047FA44F2E04041F20005C5F60200C5F6F2
:10973000020531AE40F2100801694FF0020941F014
:10974000800101610169002701F080010191019907
:10975000016841F0100101600068314600F010001E
:1097600001900198042031904FF0030A359028466B
:10977000CDF8C890C4F202083397CDF8D0A0FBF71B
:109780005BFF08203146CDE93109CDE9337A0B2062
:1097900035902846FBF750FF43F6F0157620C2F2CD
:1097A00000454FF48066C5F80080C5E90107EF6009
:1097B0004FF48070C5E90467AF61E8614FF4003091
:1097C000C5E908072846FBF763F838B142F6E130EF
:1097D00040F2BD21C0F6010002F0EAF9C4F8805061
:1097E00008F11800AC6343F66825C2F20045286012
:1097F000772068604020C5E902072846C5E904676C
:10980000C5E90677C5E90877FBF742F838B142F6B3
:10981000E13040F2CF21C0F6010002F0C9F99C20EE
:1098200005210022E567AC63FCF7CAFC9C20FCF72D
:10983000C3FC36B0BDE8F08780B5D0F88C30202B63
:1098400006D10123002918BF002A03D1184680BD84
:10985000022080BD0023C36640F60043D0F800C05C
:10986000C5F600039C450FD0DCF804301B020BD575
:10987000036853E800CFD0F800E04CF080634EE876
:10988000003CBCF1000FF3D103F0D2FA03461846B6
:1098900080BD00000000000080B543F6C471006880
:1098A000C2F200410968884218BF80BD4EF65C7163
:1098B00043F2F050CEF20001C2F20040BFF34F8FEE
:1098C0000860BFF34F8FBFF36F8F017842F6BC2063
:1098D000C2F20040F9F7CCF980BD000000000000A2
:1098E00070470000000000002DE9F04182B00446FE
:1098F000D0F8880020283FD10E4600294FF0010003
:109900004BD01746002A48D01D464FF00008C4F837
:1099100090802120C4F88800FBF766FFA4F85470FB
:10992000A4F856700746A168B1F5805F0FD1206991
:10993000002814BF3046B046064608E0206816F8F6
:10994000011B8162B4F856000138A4F85600B4F83F
:109950005600A8B18021002220463B46009503F026
:10996000B7FAE8B9002EE9D138F8020B21680026D1
:109970006FF35F208862E5E7022002B0BDE8F08166
:109980004021002220463B46009503F0A1FA202109
:109990000028C4F8881018BF032002B0BDE8F08189
:1099A0002020C4F88800032002B0BDE8F081000048
:1099B000704700000000000070B50668054630469C
:1099C0000C4605F02DFE40071AD42868214605F004
:1099D00027FEC00517D42868214605F021FE0007A0
:1099E00015D42868214605F01BFE400512D42868CE
:1099F000214605F015FE00061CD5072080210CE04D
:109A00000720042109E008204FF4807105E00620BA
:109A1000082102E009204FF480612C2206EB441358
:109A200014FB0252C3F80815214682F86100286829
:109A300005F0E6FB2868214605F0F2FD8005286860
:109A4000214635D405F0ECFDC0073AD128682146FF
:109A500005F0E6FD80065ED42868214605F0E0FDAD
:109A6000800700F188802868214605F0D9FD40066E
:109A700000F19B802868214605F0D2FDC00640F128
:109A80000C812C2014FB005191F83F10002918BFC5
:109A9000022940F0EF8014FB0050E96800294FF0E4
:109AA0000001C16540F0F4802C2014FB0050E8E078
:109AB00005F0A6FB06EB44104FF40071C0F8081542
:109AC00070BD06EB4410202100F5A066C0F8081513
:109AD000E96841B12C2014FB0050816C32696FF3AE
:109AE000DF42891A01652C20012114FB005000225D
:109AF00080F86110C265B16090F83F0003281FD85C
:109B0000DFE800F0020F020F2868214605F078FB1D
:109B10001020B06014E006EB44102021C0F80815B6
:109B200070BD2C20316814FB005041F000513160B1
:109B30000121012280F8601028462146FBF7F0FE43
:109B4000E868012813D12C2014FB0050B0F8401015
:109B5000026D0A44013AB2FBF1F1C90708BF70BDBA
:109B600090F8541081F0010180F8541070BD2C2041
:109B700014FB0050F4E74FF02C0E06EB441214FBDC
:109B80000E510223C2F8083511F8613F013B082B42
:109B900067D802F5A062DFE803F02E80053705499B
:109BA0001A521A00022008705BE02C2006EB4411C8
:109BB00014FB00504022C1F80825052180F86110EF
:109BC0000021C1652868214605F01AFB70BD2C23D1
:109BD0004FF0020C14FB035681F800C0334653F8D3
:109BE0005C0F01301860032835D300201860042072
:109BF00086F8600035E02C22022314FB02520B7021
:109C0000012182F860102CE02C20022314FB00506C
:109C10000B7090F83F6080F8603046F00206022E2C
:109C20001FD1106863F39F7010601AE02C2202238A
:109C300014FB02520B70052182F8601011E02C20F9
:109C4000022214FB00500A70C16D0131C16504216C
:109C500080F8601005E086F860C010686CF39F70B3
:109C6000106014FB0E50214690F860202846FBF748
:109C700057FE70BD03290BD12C20002114FB00508E
:109C8000C165042180F861102868214605F0B8FA02
:109C900006EB44101021C0F8081570BD000000004C
:109CA000F0B581B00668054630460C4605F0B8FCB4
:109CB00040075ED42868214605F0B2FC800669D4CE
:109CC0002868214605F0ACFC800500F17980286801
:109CD000214605F0A5FCC00740F0798028682146A0
:109CE00005F09EFC400600F191802868214605F0B1
:109CF00097FC000700F1A0802868214605F090FC41
:109D0000C00600F1A3802868214605F089FC000602
:109D100000F1B9802868214605F082FC400500F179
:109D2000C9802868214605F07BFC800740F1258129
:109D30002C2006EB441114FB00500222C1F8082528
:109D400010F8612F013A082A00F21781DFE812F0BB
:109D5000E5001501F80009000900FB00D30015011A
:109D6000D3002C21022214FB0151027081F86020E3
:109D7000FAE02C2006EB441114FB00500422C1F839
:109D80000825072180F861102868214605F038FA77
:109D900001B0F0BD2C2006EB441214FB005120232F
:109DA000C2F8083511F83D2F012A40F0E68014FB77
:109DB000005000220A7040F20231A0F86010E3E780
:109DC00006EB44104FF40071C0F80815DCE72C27AF
:109DD000002114FB0750C1652868214605F020FCCE
:109DE000400609D514FB075006EB4411012280F808
:109DF0003D204020C1F8080514FB075006EB441134
:109E00000122C1F8082580F86120BDE72C2005213A
:109E100014FB005080F86110012180F83D100021F2
:109E2000C1652868214605F0EBF906EB4410402196
:109E3000C0F8081501B0F0BD06EB44112C2014FB4E
:109E400000500822C1F8082506219BE72C21002399
:109E500014FB015010F83D2FC0F81F30002A4FF0BE
:109E6000040280F8242006D114FB015191F83C1023
:109E700009B9012101702868214605F0C1F906EBF6
:109E800044101021D4E7E86818B32C2014FB0050CC
:109E9000014651F85C2F01320A60032A24D30022C4
:109EA0000A60042180F86010042228462146FBF74E
:109EB00037FD1CE02C20092114FB005080F86110B4
:109EC0002868214605F09CF906EB44104FF48061A8
:109ED000AEE72C20072114FB005080F861102868A1
:109EE000214605F08DF902E0022180F8601006EBB2
:109EF000441080219CE72C22022314FB025703709C
:109F00003A4652F85C6F01361660032E24D30020C7
:109F10001060042087F8600026E02C21022314FB47
:109F200001510370012091F83F2081F8600002F098
:109F3000FE02022A18D1E868012820D068B313E095
:109F40000221017010E02C21022214FB0151027049
:109F5000052081F8600007E001F5A06087F8603017
:109F6000016863F39F7101602C20214614FB0050AF
:109F700090F860202846FBF7D3FC01B0F0BD2C2000
:109F800014FB0051C86C0028EED0B1F84010084412
:109F90000138B0FBF1F0C007E6D02C2014FB0050D4
:109FA00090F8551081F0010180F85510DCE70000B1
:109FB000B0B582B005680446D5F840040190D5F8E4
:109FC00040040090009820F02E0000900198800737
:109FD00009D50198C00702D02046FBF725FC009860
:109FE00040F0020000900198000724D5009840F04E
:109FF000080000900198400703D42046FBF764FE58
:10A0000019E0A069022808D1019800F4C020B0F539
:10A01000802F206809D1022108E02069012807D19A
:10A020004EF66020C5F8040402E0012105F0D8FADC
:10A030002046FBF751FE0198800603D5009840F0BA
:10A04000200000900098C5F8400402B0B0BD0000A8
:10A050002DE9F04381B006688146306A00F4F011C2
:10A06000B1F5802F18D1C0F30A15ADB100F00F087B
:10A070002C2018FB00973C4654F8441F61B157F858
:10A08000500F284457F8042C904208D92C20042162
:10A0900018FB009080F8601001B0BDE8F0833046F6
:10A0A0002A4605F0C9FA206839682844206006EB82
:10A0B0004810294439600022D0F81015C1F6F87212
:10A0C0001142E9D02C2118FB0191B1F840108D42CA
:10A0D000E2D12C2100F5A06018FB01910223026857
:10A0E00063F39F72026091F8540080F0010081F8E0
:10A0F000540001B0BDE8F08342F68C105F21C0F639
:10A10000010001F055FD00BFFEE700000000000067
:10A1100010B542F6DC440021C2F200444FF4C8728C
:10A12000204601F085FE20212046F8F789FE03A293
:10A130000020002108F05BFA10BD00BF496E707569
:10A140007420496E6974204F6B0D0A0000000000F6
:10A1500080B543F60860C2F20040FBF7E9FE80BD1F
:10A1600080B543F60860C2F20040FBF7E1FE80BD17
:10A170002DE9F0418EB001A83421F6F7F0FB40F252
:10A18000940443F60860C2F20044C2F2004004F1B5
:10A19000100741F2000CE169C5F2000CE0CF94E831
:10A1A0000C41C0F800C02F4442606A1E8360731ED9
:10A1B000C0F80C803144C0F810E07D1EC0E90523D2
:10A1C000D4E908364A1E3B443144C561A56AE76AB2
:10A1D000013B013902625A19436281623944C0E984
:10A1E0000B2140F26401C2F20041C96A80F83410C8
:10A1F0000A0A80F83520090C80F83610FBF7F8FEC3
:10A2000038B142F648304FF46F71C0F6010001F0EA
:10A21000CFFC00200190216A626ACDE9021004920D
:10A2200001230593FF23CDE906304FF4C063089363
:10A23000072309934FF04043CDE90A31ADF83400CC
:10A2400001A98DF8360043F608600C92C2F2004076
:10A250000022FBF72DFE38B142F6483040F2CF31F4
:10A26000C0F6010001F0A4FC0EB0BDE8F0810000D2
:10A27000F0B500680027D1E900CE00EBC212C0F6AD
:10A28000FF77D1E90234C568D2F8886006F47046D9
:10A29000C2F88860C6683D4005EB0E45C6F30B4624
:10A2A000664401363543C2F88850C568D2F88C60E0
:10A2B0006FF3DF2506F47046C2F88C602C44C0684A
:10A2C0006FF3DF201844013040EA0440C2F88C00EC
:10A2D000D2F8940020F00700C2F894000B69C2F88D
:10A2E000943091F83200072B91F831404FEA00404A
:10A2F0008D69D2F89C604FF00006C2F89C6040EA7D
:10A30000042091F8307040EA056040F20774384448
:10A31000C2F89C00D2F8980020F0FF00C2F8980024
:10A320004869C2F89800D2F8A00020EA0400C2F8F8
:10A33000A000D1E9070440EA0400C2F8A00002F13D
:10A340008400D2F8AC40C2F8AC604C6AC2F8AC40B1
:10A3500003D80FA252F8232000E00122C36AAEEB1B
:10A360000C0703F0E023C3628B6AC96A53437A4344
:10A37000073242EA0342C262026B40F2FF739A4321
:10A3800002630163016841F001010160F0BD00BF9B
:10A3900004000000030000000200000002000000B2
:10A3A00002000000010000000100000002000000A7
:10A3B0002DE9F04F81B0009143F2F1519A461546D4
:10A3C00007460A9EC2F2004108780028FCD1BAF183
:10A3D000000F4FF0010008702BD000244FF0000B4D
:10A3E00006E000BF0BF1010B1FFA8BF0504520D2A5
:10A3F000002DF7D000984FF000090BEB000800BFCC
:10A4000016FA84F0A1B242788078715C120242EAB6
:10A410000040421809EB070080B21FFA88F100F0F3
:10A4200013F809F1010903341FFA89F0A842E7D3B0
:10A43000D8E743F2F1510020C2F20041087001B0A8
:10A44000BDE8F08F0000000010B543F2F15CC2F2ED
:10A45000004C00BF9CF80030002BFBD140F2300CC8
:10A46000140AC2F2004CDCF800301B6803FB010345
:10A4700003EB430E4FF040430EF8032040F2010E71
:10A48000DCF80030CCF2000E120C1B6803FB010359
:10A4900003EB430303F80E40DCF800301B6803FBBA
:10A4A00001000221CCF2000100EB4000425410BD3B
:10A4B000704700000000000043F2F150C2F200407B
:10A4C00001780029FCD10121017000210170704741
:10A4D0004FF040410160704780B582B043F2F150C7
:10A4E0000021C2F20040017040F26400C2F200405C
:10A4F000007B03281CD1F7F7D3FC00F06DF8FFF7C1
:10A5000037FEFFF7D5FFF7F703FC40F230000021DC
:10A51000C2F200404FF01F0C0068028883880020C0
:10A52000CDF800C0FFF7C8FF15A2002000210FE002
:10A5300042F6483308A2C0F601030020022140F28F
:10A54000F72CCDF800C008F052F805A20020012138
:10A5500008F04DF802B080BD25733A25640900006B
:10A560004C636420496E746572666163652074791A
:10A570007065206D69736D617463680D0A00000079
:10A580004C636420496E6974204F6B0D0A00000013
:10A5900043F2F150C2F200400078002818BF0120B9
:10A5A000400070470000000080B5282000F040F80F
:10A5B000102000F03DF8002000F032F880BD0000CF
:10A5C00080B5112000F034F8292000F031F8502037
:10A5D00000F026F880BD000010B541F600044FF4ED
:10A5E0000071C5F6020401222046FBF7F5F832207F
:10A5F000FAF7BAFE4FF4007100222046FBF7ECF8A0
:10A600003220FAF7B1FE4FF4007101222046FBF729
:10A61000E3F87820FAF7A8FE10BD00000000000063
:10A6200080B5642828BF6420F7F75AFB80BD00007E
:10A63000704700000000000080B5B0FA80F04FF4D1
:10A640000051420940F60040C5F60200FBF7C4F88D
:10A6500080BD00000000000080B542F6681041F6A1
:10A660003401C0F60100C2F20041F8F7D1FA44F219
:10A67000EC01C2F20041087080BD00000000000043
:10A6800081B044F2E040C5F60200016841F01001DB
:10A690000160016801F0100100910099016841F02A
:10A6A00004010160016801F0040100910099016852
:10A6B00041F020010160016801F020010091009942
:10A6C000016841F080010160016801F080010091A2
:10A6D0000099016841F001010160016801F0010188
:10A6E00000910099016841F002010160016801F0E8
:10A6F000020100910099016841F040010160016888
:10A7000001F0400100910099016841F008010160E9
:10A71000006800F008000090009801B07047000049
:10A7200080B543F2F4504EF66151C2F20040C0F6DB
:10A730000001002203F02CF808B1F8F795F943F274
:10A74000F45040F21001C2F20040C2F2004104F0A5
:10A75000AFFA08B1F8F788F943F2F450C2F20040BA
:10A7600004F0F2FA002808BF80BDF8F77DF980BD3B
:10A7700080B543F2F450C2F2004004F059F980BDB4
:10A7800042F68C106621C0F6010001F011FA00BFFC
:10A79000FEE7000000000000B0B543F6B85443F6F1
:10A7A0007450C0F60104C0F60100A04209D243F67D
:10A7B0007455C0F6010500BF55F8040B8047A5424B
:10A7C000FAD306A20020002107F011FF42F6D221A1
:10A7D0000020C2F2004101220A70B0BD4D756C74B8
:10A7E000697461736B20496E6974206F6B0D0A0088
:10A7F00042F68C105821C0F6010001F0D9F900BFD3
:10A80000FEE700000000000000F007004FF0FF3CF2
:10A8100080F00703042B28BF0423033838BF00202F
:10A820000CFA03F399430CFA00F301FA00F022EA60
:10A830000301084370470000002958D010B54BF2BF
:10A84000004C00240228C5F2002CC1E90044C1E9F3
:10A8500002440C6109D1DCF800004FF40074C00719
:10A8600004BF40F22224C0F20444002305E040F07B
:10A87000807008610133022B37D00CEB83004068F5
:10A88000C20705D080EA0402920701D45A1C0A606C
:10A89000C20605D580EA0402920601D45A1C4A6019
:10A8A000C20505D580EA0402920501D45A1C8A60CB
:10A8B000C2030DD580EA0402520309D4820303F1D6
:10A8C000010E02D44EF4803201E04EF08072CA6074
:10A8D000C201CFD580EA04025201CBD4800103F13A
:10A8E0000100C4D440F48030C3E7002010BD012033
:10A8F0007047000000000000F0B5036882681E6821
:10A90000002A26F040521A6005D11A684E6822F0DB
:10A91000800232431A600A68032A0AD0022A11D13F
:10A9200003F5C07E03F5C47203F5C87C03F5D0744B
:10A9300010E003F5A07E03F5A47203F5A87C03F5EF
:10A94000B07407E003F5807E03F5847203F5887C1C
:10A9500003F59074D1E912563543CEF80050CD6A14
:10A960006DB18D6A2560DEF80040CD6A24F47C1458
:10A970004E6B2C430D6B34432C43CEF800401468CF
:10A980004D6C24F01F042C4314608A6B22B10C68B8
:10A9900014B9CC6B013C1C64CD68CC69CDB1DEF838
:10A9A000006054B3002A40D04CF2C0002A43CFF2DA
:10A9B000FF004D69224330402A430C6910434A6A24
:10A9C00020430C6A10430A6C20431043CEF8000069
:10A9D00047E0002C49D0002ADEF8000049D04CF2B4
:10A9E000C0074E6ACFF2FF0722433F373243384059
:10A9F0000F6A024301F1400041E0002A48D04CF2C6
:10AA0000C0004B69CFF2FF002A4300F57C501A4387
:10AA100030400B6910430A6C18431043CEF8000015
:10AA20008868CCF800000020F0BD43F63F724F6903
:10AA30002C4326EA02023C430D6922434C6A2A4316
:10AA40000D6A22432A43CEF80020C06AB0F1805F2D
:10AA500007D14869082804D1DEF8000040F0006002
:10AA6000B4E78868CCF800000EE0082141650120B9
:10AA7000F0BD4A6A20F47C57224301F120003A439A
:10AA800000681043CEF80000886998640020F0BD8B
:10AA90004A6926F03F032A430C691A432243CEF841
:10AAA0000020C06AB0F1805FBAD148690828B7D1E8
:10AAB000DEF8000040F00060B0E700000000000099
:10AAC0002DE9F04196B06C46502120460025CDE995
:10AAD0001455F5F744FF02200126CDE90005059540
:10AAE0003220CDE9036502904FF4807007904FF457
:10AAF000005709954FF0407808974FF000500B959C
:10AB000041F28832CDF838802146CDE91055CDE9A3
:10AB1000120543F6B060C2F20040FBF771FD10B1C0
:10AB200016B0BDE8F081CDE900650595EB20CDE9D3
:10AB3000036502904FF4407009956946CDE9070717
:10AB40004FF440300B90FF200A90CDE90C65CDF812
:10AB500038800420109541F28832CDE9110543F682
:10AB6000B0601395C2F20040FBF74AFD0028D7D130
:10AB70000020149043F6B06014A9C2F20040FBF725
:10AB800043FE16B0BDE8F0812DE9F04381B00446E4
:10AB90000068006A084018BF0120904203D10020DD
:10ABA00001B0BDE8F083DDF820800D4616469946D9
:10ABB00008F1010707E000BF2068006A284018BFBD
:10ABC0000120B042EBD0002FF6D0FAF70DFEB8F11D
:10ABD000000F03D0A0EB09004045EDD94FF4007001
:10ABE0002065606D40F001006065012001B0BDE8A6
:10ABF000F08300000000000080B542F66C60002188
:10AC0000C2F20040142201F013F9F8F729FA42F6D3
:10AC1000D84104A2C2F2004108600020002107F0E0
:10AC2000E6FC80BD4F5441204D6F64756C65204932
:10AC30006E6974204F6B0D0A0000000000000000D8
:10AC40002DE9F041D6B042F6D844C2F20044206863
:10AC500000F0EEFE40F6B93188420DD340F200001C
:10AC600045F65A21C2F20040CAF2A5510160F8F738
:10AC7000F7F92060FBF7B8FA40F2381040F2A01163
:10AC8000C2F20040C2F20041027809788A4201D142
:10AC9000002425E00229017021D141F2D03041F693
:10ACA0003401C2F20040C2F20041012205F02CFF43
:10ACB000D0B142F6922242F6FD23C0F60102C0F660
:10ACC0000103002002214FF4A277009707F08FFCC8
:10ACD000D8A200200121012407F089FC00E0002413
:10ACE000204656B0BDE8F081D6A102A806F07CF857
:10ACF00000B342F6922242F6FD23C0F60102C0F6EE
:10AD000001030020022140F24917009707F06FFC71
:10AD1000CDA200200121012407F069FC41F2D030CE
:10AD200041F63401C2F20040C2F20041002205F0B7
:10AD3000EBFED5E702AC0FAD2046294606F058F9E8
:10AD400018B99DF852000028F6D102A805F0C8FEF7
:10AD500042F626300FA9C0F6010006F071F9A0B343
:10AD600041F20460C2F2004005F0A2FE42F6133048
:10AD70000FA9C0F6010006F063F9002856D040F292
:10AD8000000045F65A21C2F20040CAF2A551016006
:10AD900041F20460C2F2004005F08AFE41F2D03078
:10ADA00041F63401C2F20040C2F200410022002408
:10ADB00005F0AAFE42F6E2220020C0F601020421BC
:10ADC00007F015FCFBF710FA8AE741F2046042F63F
:10ADD0002631C2F20040C0F60101012205F0C8FE92
:10ADE000002854D042F6922242F6FD23C0F601021A
:10ADF000C0F601030020022140F25F17009707F020
:10AE0000F6FB42F699220020C0F60102012101243E
:10AE100007F0EDFB41F2D03041F63401C2F20040C0
:10AE2000C2F20041002205F06FFE59E741F20460D2
:10AE300042F61331C2F20040C0F60101012205F0D2
:10AE400097FE00287AD042F6922242F6FD23C0F601
:10AE50000102C0F60103002002214FF4C0770097E1
:10AE600007F0C5FB42F699220020C0F6010201213D
:10AE7000012407F0BCFB41F2D03041F63401C2F2AC
:10AE80000040C2F20041002205F03EFE28E741F2F8
:10AE9000046041F63801C2F20040C2F2004155ABF5
:10AEA0004FF4805205F0E4FF38BB42F6B52841F676
:10AEB000380641F204670024C0F60108C2F20046D9
:10AEC000C2F2004755AD559B002B00F08E8000204C
:10AED0000421424607F08BFB559A00202146334659
:10AEE000F7F72AFE55984FF480520444384631460D
:10AEF0002B4605F0BDFF0028E5D042F6922242F62F
:10AF0000FD23C0F60102C0F601030020022140F239
:10AF10006917009707F06BFB50A200200121012464
:10AF200007F065FB41F2D03041F63401C2F2004037
:10AF3000C2F20041002205F0E7FDD1E641F20460D3
:10AF400041F63801C2F20040C2F2004155AB4FF465
:10AF5000805205F08DFF38BB42F6B52841F6380621
:10AF600041F204674FF48014C0F60108C2F20046B3
:10AF7000C2F2004755AD559B002B47D0002004215D
:10AF8000424607F034FB559A002021463346F7F736
:10AF9000D3FD55984FF480520444384631462B4631
:10AFA00005F066FF0028E6D042F6922242F6FD2325
:10AFB000C0F60102C0F60103002002214FF4C5775C
:10AFC000009707F014FB33A200200121012407F0B1
:10AFD0000EFB41F2D03041F63401C2F20040C2F221
:10AFE0000041002205F090FD7AE623A20020042112
:10AFF00007F0FDFA41F2D03041F63401C2F20040D0
:10B00000C2F20041002205F07FFDA9E642F6C5220A
:10B010000020C0F60102042107F0E9FA41F2D03025
:10B0200041F63401C2F20040C2F20041002205F0B4
:10B030006BFDA4E66D6F756E74206661696C210D01
:10B040000A0000002F0000006F70656E20646972B6
:10B05000206661696C210D0A000000007265616460
:10B0600020666C6173685F636F64652E6865782025
:10B070006661696C210D0A004F544120557064616E
:10B08000746120436F64652066696E6973680D0A98
:10B09000000000007265616420666C6173685F7215
:10B0A00065736F757263652E62696E206661696C87
:10B0B000210D0A000000000080B543F60430C2F202
:10B0C0000040FAF7B9FC80BD80B543F60430C2F207
:10B0D0000040FAF7B1FC80BD80B543F60430C2F2FF
:10B0E0000040FAF7A9FC80BD80B5084611461A4613
:10B0F00000F002F880BD0000F0B581B00C4645F6C6
:10B10000A52105461646218090F8FA00E07095F8D2
:10B11000FA00B02801D1002004E095F8FB000130CE
:10B1200085F8FB00207195F8FC00607195F8FD1022
:10B1300061B1681E052200BFA11810F8013F4B70D5
:10B14000131F95F8FD1001328B42F5D3CF1D204619
:10B150006FF0020151FA87F100F8027F04F058FB0A
:10B1600054FA87F1A5F8FE0001F8010C00203770B1
:10B1700001B0F0BD00000000F0B581B00C4645F60E
:10B18000A521054607272180BF21E170042190F801
:10B19000FB001646013085F8FB0004F8027FA07022
:10B1A0000020E070204604F033FBA5F8FE0020717B
:10B1B0000020377001B0F0BD80B58EB000208DF852
:10B1C000050042F644100DF10601C2F200400DF1F7
:10B1D0000502FFF7D1FF43F29C50C2F20040036822
:10B1E0002BB19DF805200DF10601002098470EB007
:10B1F00080BD00000000000010B542F644100021A0
:10B20000C2F200404FF48072002400F011FE42F6BA
:10B2100044000021C2F200404FF4807200F008FEAA
:10B2200042F6D0204BF2B913C2F20040C0F6000340
:10B23000012140F6B83200F06BFB30B142F6C43069
:10B240005F21C0F6010000F0B3FC43F29C5007A25E
:10B25000C2F200400021046042F68060C2F2004069
:10B260000460002007F0C3F910BD00BF50726F7476
:10B270006F636F6C20496E6974204F6B0D0A00007C
:10B28000F0B58FB01F461446064600208DF8090021
:10B290000DF10A020DF1090300200D46FFF724FF0E
:10B2A00010B101200FB0F0BD43F29C50C2F200403B
:10B2B000036873B19DF809200DF10A0120469847F3
:10B2C00027B130462946224600F046FA00200FB04A
:10B2D000F0BD42F6922242F6C433C0F60102C0F637
:10B2E000010300200221F027009707F080F942F6C1
:10B2F000B3320020C0F60102012107F078F90620E0
:10B300000FB0F0BD00000000F0B581B044F22C4752
:10B31000C5F6020757F8042C02F00302032A02D1F3
:10B32000012001B0F0BD054657F82C0C0C4620F06A
:10B33000806047F82C0CFAF757FA064657F82C0CA1
:10B34000000105D5FAF750FA801B0228F6D964E00F
:10B3500057F8040CEE6895E80E0020F47C30012CC0
:10B3600040EA0130A2F101016FF35F214FF47E4208
:10B3700002EB432247F8040C92B24FF0FE4302EB7B
:10B3800001004FF4FE012A6901EB064101F4FE01C0
:10B3900003EB0262084402F0FE410844F86038689A
:10B3A000696920F0C00040EA010038603868A96986
:10B3B00020F0200040EA0100386038684FF6F8714C
:10B3C00020F0100038603869EA6920EA01004FF483
:10B3D000001140EAC2003861386808BF4FF480119C
:10B3E00040F01000002C386008BF4FF4002138688E
:10B3F0000843386057F82C0C40F0806047F82C0C5C
:10B40000FAF7F2F9044600BF57F82C0C000107D4F4
:10B41000FAF7EAF9001B0328F6D3032001B0F0BDC8
:10B42000002001B0F0BD0000F0B581B044F22C471F
:10B43000C5F6020757F8042C02F00302032A02D1D2
:10B44000012001B0F0BD054657F82C0C0C4620F049
:10B45000805047F82C0CFAF7C7F9064657F82C0C21
:10B46000800005D5FAF7C0F9801B0228F6D964E000
:10B4700057F8040CEE6895E80E0020F07C70012C63
:10B4800040EA0150A2F101016FF35F214FF47E42C7
:10B4900002EB432247F8040C92B24FF0FE4302EB5A
:10B4A00001004FF4FE012A6901EB064101F4FE019F
:10B4B00003EB0262084402F0FE41084478613868F8
:10B4C000696920F4406040EA010038603868A96981
:10B4D00020F4007040EA0100386038684FF6F871D7
:10B4E00020F480703860B869EA6920EA01004FF002
:10B4F000807140EAC200B861386808BF4FF40001AB
:10B5000040F48070002C386008BF4FF48001386828
:10B510000843386057F82C0C40F0805047F82C0C4A
:10B52000FAF762F9044600BF57F82C0C800007D4E4
:10B53000FAF75AF9001B0328F6D3032001B0F0BD37
:10B54000002001B0F0BD0000010900F00F0001EB88
:10B55000810100EB4100C0B2704700000000000014
:10B560000A2810D30A384CF6CD42C1B2CCF6CC42F0
:10B57000A1FB0212D10801EB8102A0EB42001022D4
:10B5800002EB011100E000210843C0B27047000047
:10B5900070B504460068C16849061DD44FF0FF31FC
:10B5A000C160FAF721F92168C968490614D4054633
:10B5B000002600BFFAF718F9401BB0F57A7F02D9D0
:10B5C000032684F821602068032EC06802D010F0A2
:10B5D0004000EFD0F0B270BD0026F0B270BD0000A8
:10B5E000B0B544F208050446C5F60005696821F0C7
:10B5F000400169602968890607D42046FDF758F99B
:10B6000078B1032084F82100B0BD286820F0200024
:10B6100028602046FDF74CF928B1032084F821006A
:10B6200002E00020B0BD0020296841F0200129601F
:10B63000B0BD00000000000070B586B043F6207376
:10B640000C46C2F20043C4F30F251A68D66866F4AC
:10B650009061002621F48061D160010A8DF8170005
:10B66000000C8DF815108DF8160001208DF81400CF
:10B6700005A900221846FDF76BF830B142F63530C7
:10B680009F21C0F6010000F093FA43F6207069464E
:10B69000C2F2004000228DF800408DF801508DF874
:10B6A00002600196CDE90366FDF7A2F830B142F6DB
:10B6B0003530B021C0F6010000F07AFA06B070BD56
:10B6C00080B543F62070C2F20040FCF751FF80BD08
:10B6D000B0B542F684650024C2F200452819002165
:10B6E0004FF4847200F0A4FB04F58474B4F5467F33
:10B6F000F4D142F6D1204BF2E173C2F20040C0F621
:10B70000000301210A2200F003F918B104A044212A
:10B7100000F04EFA0AA20020002106F068FFB0BD3A
:10B720002E2E2F2E2E2F2E2E2F50726F746F636F92
:10B730006C2F526573706F6E73652E63000000008E
:10B74000526573706F6E736520496E6974204F6B1C
:10B750000D0A00000000000070B542F6846E00245F
:10B76000C2F2004EAEF1010304EB44150EEBC50C22
:10B770009CF802513DB1012C04F1010403F58473DE
:10B78000F2D9012070BD0025CCF804518CF803518A
:10B7900091F8FA5091F8FD408CF8FA50B1F8FB504E
:10B7A0000CF5817EACF8FB5064B14FF0FF3500BF63
:10B7B0004C19AE1C0135647803F8014F91F8FD4037
:10B7C000A642F5D38CF8000100208CF8FD40012141
:10B7D0008EF800108CF8012170BD00000000000000
:10B7E000F0B581B042F684660025C2F2004600271B
:10B7F00013E094F8FB1094F8000194F80121002361
:10B80000013984F8FB102146FFF73AFDC4F80451D2
:10B8100007F58477B7F5467F1AD0F41994F802013A
:10B820000028F5D0D4F804010A30C4F80401C8286F
:10B83000EED394F80301013084F80301C1B2032967
:10B84000D7D300214FF48472204600F0F1FADFE7ED
:10B8500001B0F0BD0000000010B582B0F6F7BCFCEE
:10B8600042F6BC240021C2F200441422204600F01B
:10B87000DFFA43F29C104FF48061C2F20040206175
:10B880002046F7F7DDFA98B142F6922242F6653388
:10B89000C0F60102C0F60103002002214C240094EE
:10B8A00006F0A5FE0BA200200121002306F09FFE5A
:10B8B00043F6C47043F2F051C2F20040C2F20041BC
:10B8C0000122FDF7B9FF0DA20020002106F08FFE36
:10B8D00002B010BD675F75617274427566665B2564
:10B8E000645D204669666F4572722053697A6520EF
:10B8F000496C6C6567616C0D0A00000053657269E4
:10B90000616C20496E6974204F6B0D0A00000000C5
:10B910002DE9F04182B043F2A0548046C2F20044C7
:10B920000020651C002700BF2E78012E1AD17E1C36
:10B93000042F05F1100500F101003746F4D3052767
:10B94000052F12D2300104EB061527540120A970EF
:10B95000C5E902236870F7F783FB0024686088F864
:10B96000007010E00646052FECD309A20AA30020C0
:10B9700002216827009706F03AFE0DA2002001215F
:10B98000012406F034FE204602B0BDE8F08100BF7D
:10B9900025733A25640900002E2E2F2E2E2F2E2ED1
:10B9A0002F53797374656D2F5377546D722E630026
:10B9B0004E6F2069646C652074696D65720D0A00B4
:10B9C000B0B543F2A0550024C2F200452819002169
:10B9D000102200F02DFA1034502CF7D102A20020D2
:10B9E000002106F004FEB0BD5377546D7220496EFD
:10B9F0006974204F6B0D0A00B0B501380024B4EB18
:10BA0000106F01D00120B0BD4EF210050F21CEF213
:10BA1000000568604FF0FF3004F05EFAAC6007206C
:10BA200028602046B0BD000080B5FAF7D1F980BD8E
:10BA300010B50446F9F7D8FE001B38BF002010BD32
:10BA4000B0B59CB044F6180409A84C21C5F6020410
:10BA5000F4F785FF02200025CDE90755CDE905550E
:10BA6000CDE90355CDE90155FBF756F8009520685F
:10BA700040F440402060206800F44040009000986E
:10BA800020688004FCD54FF610400025CFF6FF70EB
:10BA900004222023215821F0030121502A2009905B
:10BAA00001200C9040240F90CDE90D40022112910D
:10BAB00013951492CDE91530CDE917210C20CDE96D
:10BAC000190509A81B95FCF737F908B1F6F7CCFF63
:10BAD0003F20019003200321CDE902050820CDE994
:10BAE000040406944FF48060CDE9070401A8FBF735
:10BAF00043FE08B1F6F7B8FF1CB0B0BD000000006F
:10BB00004EF6885042F2000CCEF20000C5F2002C36
:10BB1000026842F470020260DCF8000000F00F00DE
:10BB2000062806D8DCF80000072262F30300CCF8F0
:10BB3000000044F200404EF67F51C5F60200CEF6FA
:10BB4000F621026842F001020260002202610368ED
:10BB500019400160DCF80010090706D5DCF8001078
:10BB6000072363F30301CCF8001040F20021826147
:10BB7000C261C0F20221026281620021C0F2FF11A3
:10BB8000C16240F28021C0F201110163426381630E
:10BB9000C26301644264016821F48021016002668D
:10BBA00044F20000C5F2002043F2D2010160704768
:10BBB00010B582B00C46034605A200200221009475
:10BBC00006F015FD0CB100BFFEE702B010BD00BFCE
:10BBD00057726F6E6720706172616D657465727304
:10BBE0002076616C75653A2066696C652025732046
:10BBF0006F6E206C696E652025640D0A00000000E0
:10BC0000F0B583B042F644240021C2F20044382249
:10BC10002046002500F00CF9F9F7EEFD2061F9F758
:10BC2000F3FD6061F9F7F8FDA0611720A07240F202
:10BC3000045020810E20A07341F61640A0811820E8
:10BC400020854FF0FF30E06242F6BC60C0F6010094
:10BC50000121C4E90C5042F649250020C0F6010537
:10BC60002A4606F0C4FC42F612260020C0F6010661
:10BC70000121324606F0BBFC42F6872327A2C0F61C
:10BC800001030020012106F0B2FC42F6802742F6B3
:10BC9000E612C0F60107C0F60102002001213B4672
:10BCA00006F0A5FC42F6FC120020C0F601020121BC
:10BCB0003B4606F09CFC1EA223A30020012106F0B7
:10BCC00096FC22A200200121012306F090FC052011
:10BCD000009024A20020012140F2E773042701977D
:10BCE00006F085FC25A22AA30020012106F07FFC96
:10BCF000D4E90430009029A200200121A76901970E
:10BD000006F075FC00200121324606F070FC002090
:10BD100001212A4606F06BFC03B0F0BD2A2A094136
:10BD200070703A09257309092A2A0D0A00000000DB
:10BD30002A2A0948617264776172653A0925730994
:10BD4000092A2A0D0A000000563100002A2A09504B
:10BD5000726F746F636F6C3A0956256409092A2A59
:10BD60000D0A00002A2A09446174653A0925642DE8
:10BD700025642D256409092A2A0D0A002A2A095456
:10BD8000696D653A09257309092A2A0D0A00000020
:10BD900031343A32383A3232000000002A2A09554A
:10BDA00049443A0925303458253034582530345820
:10BDB0002020202A2A0D0A0082B04EF210044FF0F3
:10BDC0001040CEF200040190FEF77AFE012080F3CD
:10BDD0001088FBF7FDFD00204FF0FF312060606010
:10BDE000A06000BF04EB800201300828C2F8701187
:10BDF000C2F87012F6D1002080F3108801994968CA
:10BE0000019A126882F3088880F31488884703A295
:10BE10000020022106F0EBFBFEE700BF4170704AF4
:10BE2000756D70204661696C0D0A0000000000000D
:10BE3000002A08BF704780B50B4611461A46F4F732
:10BE400064FDBDE88040704710B542F67C240020B8
:10BE5000C2F200444FF480013D222346F6F738FE3B
:10BE60002068013001D100F00FF803A2002000216A
:10BE700006F0BDFB10BD00BF506172616D20496EC0
:10BE80006974206F6B0D0A0010B542F67C24002106
:10BE9000C2F200443D222046FFF7CAFF4FF4800063
:10BEA00060604FF40100E06042F64420C2F20040BE
:10BEB000D0E90210216142F6872160612720C0F697
:10BEC000010100BF0A182318013012F8272C32286C
:10BED0005A70F7D110BD000010B540F6FF32C4F221
:10BEE0000002904202680FDCB0F1804F1DD040F29A
:10BEF0000043C4F20003984217D040F60003C4F296
:10BF00000003984211D014E040F60043C4F200034D
:10BF100098420AD040F20043C4F20103984204D090
:10BF20000023C4F20103984203D122F070024B684F
:10BF30001A434EF2FF3343F6FF7CC4F20003C4F20F
:10BF4000010C98420FDD604522DC4EF20043C4F242
:10BF50000003984238D00023C4F20103984233D042
:10BF600040F2004322E040F2FF73C4F20003984223
:10BF700021DD40F60003C4F20003984224D040F6CD
:10BF80000043C4F2000398421ED04EF2000317E0B3
:10BF900044F20003C4F20103984215D044F60003B2
:10BFA000C4F2010398420FD044F20043C4F20103EB
:10BFB000984209D00CE0B0F1804F05D040F2004328
:10BFC000C4F20003984203D122F44072CB681A43B2
:10BFD00022F080024C696045D1F800E08B6842EAAB
:10BFE00004020260C362C0F828E00EDD44F20002E1
:10BFF000C4F20102904213D044F60002C4F20102DE
:10C0000090420DD044F2004206E00022C4F2010248
:10C01000904205D040F20042C4F20102904201D1A8
:10C02000096901630121416110BD000000000000A9
:10C0300001F01F01042303FA01FC036A23EA0C0345
:10C04000036202FA01F1026A1143016270470000C3
:10C05000D0F808C011432CF47F4241EA0321114378
:10C0600081607047000000004FF688738268CFF649
:10C07000CF731A40114341F00701816070470000FF
:10C0800070B5026A43F6FF7522F001020262036A8C
:10C090004268D0F818E08C6823F00203C4F201056E
:10C0A000234344F20004D1F800C0A842C4F20104C2
:10C0B0000ADDA04213D044F60006C4F20106B042E5
:10C0C0000DD044F2004606E00026C4F20106B0425C
:10C0D00005D040F20046C4F20106B04205D1CE6858
:10C0E00023F00C0326F004063343A8420ADDA042E5
:10C0F00013D044F60004C4F20104A0420DD044F26F
:10C10000004406E00024C4F20104A04205D040F23D
:10C110000044C4F20104A04205D122F44072D1E9E6
:10C12000054522432A434FF68C744260CFF6FE74D5
:10C130000EEA040646EA0C02826149684163036222
:10C1400070BD00000000000070B5026A40F20046B9
:10C1500022F010020262036A4268D0F818C08D68AB
:10C1600040F48064C4F2010623F02003B442D1F805
:10C1700000E043EA051307D1CC686FF0400523F0D7
:10C18000C00305EA0414234343F6FF74C4F2010418
:10C19000A04212DD44F20004C4F20104A04213D014
:10C1A00044F60004C4F20104A0420DD044F200445D
:10C1B000C4F20104A04207D00EE00024C4F201043E
:10C1C000A04201D0B04207D14C6922F440628D698F
:10C1D00042EA840242EA850248F6FF444260CFF612
:10C1E000FF640CEA040646EA0E2282614968816314
:10C1F000036270BD0000000070B5026A40F20046A4
:10C2000022F480720262036A4268D0F81CC08D6812
:10C2100040F48064C4F2010623F40073B442D1F800
:10C2200000E043EA052307D1CC6840F2FF45240231
:10C2300023F44063AC43234343F6FF74C4F2010488
:10C24000A04212DD44F20004C4F20104A04213D063
:10C2500044F60004C4F20104A0420DD044F20044AC
:10C26000C4F20104A04207D00EE00024C4F201048D
:10C27000A04201D0B04207D14C6922F440528D69EE
:10C2800042EA041242EA05124FF68C744260CFF67D
:10C29000FE740CEA040646EA0E02C2614968C163F4
:10C2A000036270BD00000000B0B5026A22F4805243
:10C2B000026243F6FF72D0F820C0C4F20102436864
:10C2C000C46990420A68D1F808E00EDD44F2000526
:10C2D000C4F20105A84213D044F60005C4F20105DA
:10C2E000A8420DD044F2004506E00025C4F2010545
:10C2F000A84205D040F20045C4F20105A84204D18D
:10C300004D6923F4804343EA851348F6FF454360B3
:10C31000CFF6FF652C402CF4005544EA0222C2619E
:10C320004968016445EA0E310162B0BD00000000B9
:10C33000B0B5026A22F48032026243F6FF72D0F88E
:10C3400020C0C4F201024368446D90420A68D1F8EB
:10C3500008E00EDD44F20005C4F20105A84213D046
:10C3600044F60005C4F20105A8420DD044F2004590
:10C3700006E00025C4F20105A84205D040F20045C0
:10C38000C4F20105A84204D14D6923F4803343EA85
:10C3900005234FF68F754360CFF6FE752C402CF4C5
:10C3A0000035224342654968816545EA0E410162D4
:10C3B000B0BD000000000000B0B5026A22F4801297
:10C3C000026243F6FF72D0F820C0C4F20102436853
:10C3D000446D90420A68D1F808E00EDD44F2000591
:10C3E000C4F20105A84213D044F60005C4F20105C9
:10C3F000A8420DD044F2004506E00025C4F2010534
:10C40000A84205D040F20045C4F20105A84204D17B
:10C410004D6923F4802343EA852348F6FF75436082
:10C42000CFF6FF652C402CF4001544EA0222426549
:10C430004968C16545EA0E510162B0BD00000000C7
:10C44000D0F820C0036A23F001030362836923F05C
:10C45000F00343EA02122CF00A03826119430162DD
:10C460007047000000000000036A23F0100303621D
:10C47000836923F47043D0F820C043EA02322CF0E1
:10C48000A003826143EA01110162704700000000CD
:10C4900080B543F6C470C2F20040FCF775FE80BD63
:10C4A00010B5416E01B3016842F67C1CC0F6010C68
:10C4B00042F6841E8A68C0F6010E8968C2F34262A1
:10C4C0004C0F1CF802301EF802101A011EF804303E
:10C4D000B2FBF1F11CF80420A0F868101201B2FBC5
:10C4E000F3F2A0F86A2010BD0121A0F86A10A0F8AC
:10C4F000681010BD00000000816ACA070CD18A07CD
:10C5000015D44A071ED40A0727D4CA0630D48A068F
:10C5100039D44A0655D541E00268D0F82CC053689A
:10C5200023F4003343EA0C0353608A07E9D5026819
:10C53000D0F830C0536823F4803343EA0C035360CF
:10C540004A07E0D50268D0F834C0536823F480234A
:10C5500043EA0C0353600A07D7D50268D0F838C005
:10C56000536823F4004343EA0C035360CA06CED554
:10C570000268D0F83CC0936823F4805343EA0C036C
:10C5800093608A06C5D50268D0F840C0936823F44A
:10C59000005343EA0C0393604A0612D50268D0F8B0
:10C5A00044C0BCF5801F536823F4801343EA0C0396
:10C5B000536006D1536823F4C00C836C43EA0C0328
:10C5C0005360090658BF70470168C06C4A6822F47E
:10C5D0000022104348607047B0B582B00446002086
:10C5E000C4F89000F9F700F92168054609680907C1
:10C5F00019D54FF4001100226FF07E4000902046C4
:10C600002B4600F065FC70B1206850E8000F2168EF
:10C6100020F0800041E80002002AF5D12020C4F873
:10C62000880003202FE020680068400723D54FF4DE
:10C63000800100226FF07E40009020462B4600F0E3
:10C6400047FCC0B1206850E8000F216820F49070CA
:10C6500041E80002002AF5D1206850E8020F216865
:10C6600020F0010041E80202002AF5D12020C4F8A0
:10C670008C00032007E02020C4F88800C4F88C0058
:10C680000020E0662067002184F8841002B0B0BD6D
:10C6900080B5806B0021A0F85E10A0F85610FCF762
:10C6A00033FD80BD00000000B0B5846B2068D4F875
:10C6B0008810D4F88C502129806808D110F08000AF
:10C6C00005D00020A4F85600204600F0B5F82068F8
:10C6D000222D806808D110F0400005D00020A4F879
:10C6E0005E00204600F064F8D4F8900040F010009E
:10C6F000C4F890002046FCF707FDB0BD0000000024
:10C7000080B5C169806BB1F5807F31D00021A0F880
:10C710005E1000BF016851E8001F026821F48071BB
:10C7200042E80013002BF5D1016851E8021F0268AE
:10C7300021F0010142E80213002BF5D1016851E814
:10C74000021F026821F0400142E80213002BF5D1DC
:10C750002021C0F88C10C16E012909D1016851E86F
:10C76000001F026821F0100142E80013002BF5D1F0
:10C7700000210167C16E012904D1B0F85C10FCF7FB
:10C78000F3FB80BDFDF788F880BD000000000000CD
:10C7900080B5806B01210167C16E012905D1B0F818
:10C7A0005C104908FCF7E0FB80BDFDF799F880BDFF
:10C7B000016851E8001F026821F4907142E80013FB
:10C7C000002BF5D14FF6FE7CCEF6FF7C026852E8D6
:10C7D000022F036802EA0C0243E802210029F5D186
:10C7E000C16E01290AD100BF016851E8001F02682B
:10C7F00021F0100142E80013002BF5D12021C0F8F0
:10C800008C100021C16641677047000000000000E5
:10C8100080B500BF016851E8001F026821F04001A7
:10C8200042E80013002BF5D12021C0F88810002128
:10C830008167FDF7BDF880BD016851E8001F0268FF
:10C8400021F0C00142E80013002BF5D1016851E846
:10C85000021F026821F4000142E80213002BF5D107
:10C860002021C0F888107047F0B583B004460368F3
:10C87000806846F6F316D4E9031210436269104348
:10C88000E2691F68CCF6FF76104307EA0602104300
:10C89000186058684FF2FF4720F4405240F60040BD
:10C8A00011435960C5F60000A1698342C1F2FF1728
:10C8B0001CBF226A11439A6847F6FF363A40C4F219
:10C8C000000611439960DA6A44F2544122F00F02E3
:10C8D000676AC5F602013A43B342DA624FF080025A
:10C8E00029DD41F2FF77C4F20107BB424DDC47F678
:10C8F0000047C4F20007BB4200F07E8041F200070F
:10C90000C4F20107BB4200F0838041F20047C4F249
:10C910000107BB4240F0CA800A68C2F3C203052B7C
:10C9200000F2BB800122DFE813F0C100B600BA00BC
:10C93000BC00BE00C00044F6FF37C4F20007BB4293
:10C9400040DD44F60047C4F20007BB4200F06C80B3
:10C9500045F20007C4F20007BB4200F0708047F6C2
:10C960000007C4F20007BB4240F0A0800A6802F052
:10C970000703052B00F291800022DFE813F09700F7
:10C980008C00900092009400960041F60007C4F2DB
:10C990000107BB4200F05E8041F60047C4F2010788
:10C9A000BB4200F06280834240F080804A6802F01F
:10C9B0000703052B00F271800222DFE803F0776C99
:10C9C0007072747644F20047C4F20007BB4200F074
:10C9D000578044F60007C4F20007BB4240F066806F
:10C9E0000A6802F00703052B00F257800022DFE8F7
:10C9F00003F05D5256585A5C0A6802F00703052B93
:10CA000000F24B800022DFE803F051464A4C4E50C2
:10CA10000A68C2F3C203052B00F23F800122DFE85F
:10CA200003F0453A3E4042440A6802F00703052BF2
:10CA300033D80022DFE803F03A2F333537390A685C
:10CA400002F00703052B28D80022DFE803F02F248B
:10CA5000282A2C2E0A68C2F3C203052B1DD80122F6
:10CA6000DFE803F024191D1F21230A68C2F3C20363
:10CA7000052B12D80122DFE803F0190E1214161844
:10CA80000A6802F00703052B07D80022DFE803F04D
:10CA90000E0307090B0D042208E0802206E008229D
:10CAA00004E0102202E0202200E0402223688342BA
:10CAB00040F60010C0F23D0000F05380E369B3F58A
:10CAC000004F40F06C80402A00F211810025DFE821
:10CAD00012F0410009010E010E0112010E010E01BA
:10CAE0000E0116010E010E010E010E010E010E01C6
:10CAF0000E011D010E010E010E010E010E010E01AF
:10CB00000E010E010E010E010E010E010E010E01AD
:10CB10000E012B010E010E010E010E010E010E0180
:10CB20000E010E010E010E010E010E010E010E018D
:10CB30000E010E010E010E010E010E010E010E017D
:10CB40000E010E010E010E010E010E010E010E016D
:10CB50000E0128010025FBF743F8002840F0E6808D
:10CB600040E1931E1E2B00F268800027DFE803F0EF
:10CB7000106C706C6C6C746C6C6C6C6C6C6C7C6C35
:10CB80006C6C6C6C6C6C6C6C6C6C6C6C6C6C860037
:10CB90000027F9F7F1FF002840F0728062E0402A98
:10CBA00000F2E9800025DFE812F04100E100E60034
:10CBB000E600EA00E600E600E600EE00E600E60039
:10CBC000E600E600E600E600E600F500E600E60026
:10CBD000E600E600E600E600E600E600E600E60025
:10CBE000E600E600E600E600E6000301E600E600F7
:10CBF000E600E600E600E600E600E600E600E60005
:10CC0000E600E600E600E600E600E600E600E600F4
:10CC1000E600E600E600E600E600E600E600E600E4
:10CC2000E600E600E600E600E60000010025FAF76F
:10CC3000D7FF002840F0BD80D4E0402A04D14FF453
:10CC400000400027E0B90DE000200127C0B909E04D
:10CC50006846F9F7A5FF02E06846FAF735F80027BD
:10CC6000019868B93D46BDE051F8540C800649F280
:10CC70000000C0F2D03000F1BE8000270028F1D0C3
:10CC8000616A42F64E12C0F601026668012532F86A
:10CC9000112006EB4603B0FBF2F19942C0F0A280EE
:10CCA0003303994200F29E8000210023F3F74CFCED
:10CCB0000902002341EA10613246000210EB5600DF
:10CCC00041F10001F3F740FC4FF6FF42A0F540713F
:10CCD000C0F20F02914203D821683D46C86081E04E
:10CCE00001257FE00025FAF78FFFF8B97AE00020F0
:10CCF0000125D8B976E06846F9F752FF02E06846A8
:10CD0000F9F7E2FF0025019880B96BE051F8540C67
:10CD1000800649F20000C0F2D03076D4002528B950
:10CD200060E04FF40040002500285BD0616A42F6C5
:10CD30004E12C0F6010232F811106268B0FBF1F039
:10CD4000510801EB4000B0FBF2F0A0F110014FF6EA
:10CD5000EF72914208D84FF6F07122680140C0F39B
:10CD600042000844D0603DE001253BE00025FAF791
:10CD70004BFFF0B936E000200125D0B932E068461B
:10CD8000F9F70EFF02E06846F9F79EFF00250198CB
:10CD900078B927E051F8540C800649F20000C0F23F
:10CDA000D0303CD4002520B91CE04FF400400025D1
:10CDB000C0B1616A42F64E12C0F6010232F811109B
:10CDC0006268B0FBF1F000EB5200B0FBF2F0A0F1B2
:10CDD00010014FF6EF72914203D880B22168C8600B
:10CDE00000E001254FF00110A0660020C4E91D00FD
:10CDF000284603B0F0BD51F8541C0027C1F3C1010F
:10CE0000C84000287FF43CAF2CE751F8541C0025A3
:10CE1000C1F3C101C84000287FF488AFE2E751F8B0
:10CE2000541C0025C1F3C101C8400028C1D1D9E775
:10CE300010B504468165A0F85C200021C0F8901070
:10CE40002220C4F88C00D4F88000F0B113464CF2D4
:10CE500001724CF2917CC0F60002C0F6000CC0E9F1
:10CE60000F2C4CF2A962C0F60002C0E91321216820
:10CE7000A26D2431F7F7DCFF38B11020C4F8900020
:10CE80002020C4F88C00012010BD206950B100BFE3
:10CE9000206850E8000F216840F4807041E80002EB
:10CEA000002AF5D1206850E8020F216840F0010007
:10CEB00041E80202002AF5D1206850E8020F2168FB
:10CEC00040F0400041E80202002AF5D1002010BDE8
:10CED0002DE9F04381B004460068C0690840401A5B
:10CEE000B0FA80F04009904239D1DDF820800D463B
:10CEF0001646994608F1010709E000BF2068C0699D
:10CF00002840401BB0FA80F04009B0422BD1002FDE
:10CF1000F4D0F8F769FCB8F1000F01464FF00300B8
:10CF200022D0A1EB090141451ED8206801684907BC
:10CF3000E4D5C16909071AD4C1690905DED54FF4E2
:10CF4000006101622046FFF733FC2020C4F8900006
:10CF5000002084F88400032001B0BDE8F0830020A5
:10CF600001B0BDE8F083002001B0BDE8F0830825E2
:10CF700005622046FFF71CFCC4F89050002084F89E
:10CF80008400012001B0BDE8F08300000000000033
:10CF900080B544F25800C2F20040FCF7F5F880BDBD
:10CFA000B0B50C46054600F017F94FF6FF71884200
:10CFB00007D000F00F0104F5004205EB8101C1F834
:10CFC0008423C0B2B0BD000080B584B09C4601236C
:10CFD000CDE9003102920122022300210391614632
:10CFE00000F0DAFC002004B080BD0000000000006A
:10CFF00010B584B090F81DC3DDF818E00024BCF132
:10D00000000F9C4618BFA6460123CDE900310292CD
:10D01000002202236146CDF80CE000F0BDFC0020A8
:10D0200004B010BD0000000080B500F0D1FB00206E
:10D0300080BD00000000000080B58278012A05D183
:10D040004FF48172026181820021C182002100229D
:10D0500000F016F880BD000080B584B09C46012326
:10D06000CDE90031029201220023002103916146A3
:10D0700000F092FC002004B080BD00000000000021
:10D0800010B504468078022808D0012815D1012067
:10D09000A160A28102212076A17010BD204600F07F
:10D0A00027F9032804D0022809D0002818BF10BD92
:10D0B0000121A1700021217610BD012010BD0121A8
:10D0C000A17010BD0000000010B584B090F81DC321
:10D0D000DDF818E00024BCF1000F9C4618BFA646FE
:10D0E0000123CDE900310292002200236146CDF8F0
:10D0F0000CE000F051FC002004B010BD0000000066
:10D1000080B584B094464FF0000ECDE900E10821CF
:10D110000291002200236146CDF80CE000F03CFCB7
:10D12000002004B080BD000080B5F8F71DF980BD77
:10D1300080B500F2493E4FF0000C06E00CF1010C06
:10D140000EF11A0EBCF1020F14D0FF2903D01EF805
:10D15000020C8842F2D1FF2A03D01EF8010C904243
:10D16000ECD1FF2B1CBF9EF800009842E6D15FFA7D
:10D170008CF080BD4FF0FF0C5FFA8CF080BD00009A
:10D180000F2907D800EB8100D0F884136FF3DF314B
:10D19000C0F884130020704780B590F802C0BCF13D
:10D1A000010F9C461346029A10D141F08001017490
:10D1B0000621417423F0FF014382B1F5407F4FF017
:10D1C000000108BF40F20941C28281826146FFF737
:10D1D00057FF80BD00000000002100BF00EB81026E
:10D1E00092F88523120606D50F2901F10101F5D326
:10D1F0004FF6FF707047C8B2704700000000000093
:10D2000002780B8810441A440A807047000000001E
:10D2100070B582B0B1F5807F02D9032002B070BD35
:10D2200000F11C060C4600214FF4007233460546FF
:10D230000094FFF7B1FF08B102B070BD2846314637
:10D24000224601F045FA02B070BD00000000000067
:10D2500070B582B0B1F5007F02D9032002B070BD75
:10D2600000F58E760C4600214FF480723346054659
:10D270000094FFF791FF08B102B070BD2846314617
:10D28000224601F0EDFA02B070BD0000000000007F
:10D29000F0B581B04FF00306A2B11D46B3F5007F93
:10D2A00010D800F58E77144601F5407200213B46F8
:10D2B0000095FFF771FF064620B9384621462A46F9
:10D2C00001F096FB304601B0F0BD00000000000008
:10D2D000032808D840F20021C000C0F2012121FA41
:10D2E00000F0C0B27047022070470000000000004C
:10D2F000B0B582B00446007E01380A2811D8DFE8B4
:10D3000000F006121F2C3C4A5C6977859300627915
:10D3100004F110012046FFF7F3FE022020760125DC
:10D32000D0E00125CEE06179204600F0ADFA042876
:10D3300018BF022840F094800B2020760125C1E020
:10D34000D4F8C403E081A289A16823792046FFF7BD
:10D3500083FE042020760125B4E02179204600F0E8
:10D3600093FA052800F08980042800F088800128BD
:10D3700001D1092020760125A4E0A289A168637962
:10D38000204601250095FFF79FFED4F8C403E081F5
:10D390000620207696E06179204600F075FA013883
:10D3A0000125042800F28E80DFE800F0037F8C83E3
:10D3B000870007202076012584E0237900210022C0
:10D3C0002046FFF749FED4F8C403E0810820207608
:10D3D000012577E02179204600F056FA052852D041
:10D3E000042852D0012854D10D202076002569E070
:10D3F000637900210022204601250095FFF764FE95
:10D40000D4F8C403E0810A2020765BE061792046ED
:10D4100000F03AFA04283ED0022840D0012842D138
:10D420000D20207600254DE0607E01306076C1B28F
:10D43000022903D801252576A57043E0D4F8D4232A
:10D440000621204690476179204600256576FFF742
:10D4500097FE21792046FFF793FE2570022531E0E3
:10D4600001282ED1E18A94F9100071B3B0F1FF3F89
:10D4700032DD05202076012524E0032522E00B2063
:10D48000207601251EE003251CE00B2020760125D7
:10D4900018E0012516E00B202076012512E0092076
:10D4A000207601250EE001250CE0052020760125DF
:10D4B00008E00B202076022504E00C2020760325CE
:10D4C00000E00125284602B0B0BDB0F1FF3F07DD06
:10D4D000072020760125F5E7032020760125F1E7D6
:10D4E000092020760125EDE7F0B583B004464078A9
:10D4F00007286BD8DFE800F0046C2E795C8596A7CE
:10D5000008212046FFF7A4FE032800F0B58000287C
:10D5100040F0E88094F82D0301252179A07194F85A
:10D520001C33657094F81D230027CDE90027802265
:10D530000290204601F0BCF894F81C33002294F8C5
:10D540001D036179A679CDE900072046029601F016
:10D55000AFF80DE101212046012501F0C5FB0328AC
:10D5600000F09680002840F003810220FFF7DCFDE8
:10D5700094F81D030125217984F81C53A77903220F
:10D5800062708022009001232046002601960297B7
:10D5900001F08EF894F81C33002294F81D03617991
:10D5A000A779CDE900062046029701F081F8DFE077
:10D5B000B4F83A132046FFF72BFE03286ED000285C
:10D5C00040F09280052060700125D1E00125CFE078
:10D5D00012212046FFF73CFE03286BD0002840F0C4
:10D5E0008580022060700125C2E009212046FFF7F6
:10D5F0000FFE03286AD000287AD10420607001252C
:10D60000B6E094F8341369B304F58E72FF23204614
:10D61000FFF73EFE03286DD000286FD10620607012
:10D620000125A5E094F8351301B304F58E72FF23AC
:10D630002046FFF72DFE032862D0002864D1072082
:10D640006070012594E094F8361399B104F58E7258
:10D65000FF232046FFF71CFE002500281CBF0328DF
:10D66000012585E006206070012581E007206070BB
:10D6700001257DE000257BE094F81E03013084F84D
:10D680001E03C1B2042941D30D20207001256FE093
:10D690000D20207000206070012569E094F81E03C1
:10D6A000013084F81E03C1B204293BD30D20207041
:10D6B00001255DE094F81E03013084F81E03C1B219
:10D6C00004293CD30D202070012551E094F81E035D
:10D6D000013084F81E03C1B204293DD30D2020700F
:10D6E000012545E0012543E0012541E001253FE01A
:10D6F00001253DE006206070012539E0012537E075
:10D7000007206070012533E0012531E06179204672
:10D71000FFF736FD21792046FFF732FD002020700B
:10D72000012525E061792046FFF72AFD2179204671
:10D73000FFF726FD002060702070012518E0617958
:10D740002046FFF71DFD21792046FFF719FD002037
:10D750006070207001250BE061792046FFF710FD15
:10D7600021792046FFF70CFD002060702070012514
:10D77000284603B0F0BD000080B501780B2906D122
:10D78000D0F87C13002908BF80BD8969884780BD17
:10D79000D0B170B504460D4680F8CC230026C0E910
:10D7A000DF66F5F719F9204684F8236384F82063CF
:10D7B000002D84F8216384F8226318BFC4F8D45381
:10D7C00000F076F8002070BD0220704700000000D5
:10D7D00080B5D0F8D003F8F757F8FFF779FD80BD92
:10D7E00001460120002281F82003002081F8212336
:10D7F00081F822237047000010B50446012084F808
:10D800002103002084F8200384F82303204600F03D
:10D81000BBF821792046FFF7B3FC61792046FFF77A
:10D82000AFFC002010BD000080B590F8CC0310B90B
:10D830000846FCF701FFC820F7F796FD002080BDE1
:10D8400080B5D0F8D003F8F717F880BD00000000CD
:10D8500080B5D0F8D003F7F7FFFF02288CBF012076
:10D86000C0B280BD00000000D0F8D0032C2211FB14
:10D87000020000F1540290F83B10002908BF00F1AB
:10D88000550210787047000080B5D0F8D003F7F744
:10D89000EBFF80BD0000000080B5D0F8C41301315B
:10D8A000C0F8C413FFF768FF80BD0000000000004F
:10D8B00010B5044690F8CC0308B1002010BD43F623
:10D8C00004300021C2F20040C4F8D003C4F20401C5
:10D8D000C0F800430160102181600121C0E90311FB
:10D8E000022181610021C0E907114163F8F748F97D
:10D8F00008B1F5F7B9F843F60430C2F20040F7F783
:10D90000A3FF0146204600F023F8002010BD0000D0
:10D9100010B584B0D0F8D003089CDDE906CECDE97F
:10D9200000CE0294F7F7C4FFFFF7D2FC04B010BD9D
:10D93000002180F823137047012180F823137047DA
:10D9400080B5D0F8D003F8F7CFF9FFF7C1FC80BD60
:10D95000C0F8C41370470000D0F8D0032C2311FB8B
:10D96000030090F83B1019B180F854200020704754
:10D9700080F855200020704780B5D0F8D003F8F724
:10D98000C3F9FFF7A5FC80BD80B5D0F8D003F8F748
:10D99000D3F9FFF79DFC80BDB0B584B0D0F8D003BB
:10D9A000DDE908CEDDE90A45CDE900CECDE9024545
:10D9B000F7F7BAFFFFF78CFC04B0B0BD0000000021
:10D9C00080B5D0F87C230129D26902D031B9D11DAC
:10D9D00000E0911D0978FFF72FFB80BD022080BD7C
:10D9E000D0F87C0344F25002C2F23002C16945F221
:10D9F0005530C4F24230C1E915020020012281F8FD
:10DA0000502081F85220704770B582B00446D0F89B
:10DA10007C03C66996F8500001380A2817D8DFE859
:10DA200000F00618344056637C889EABC90006F1AE
:10DA3000540C737986F86110022086F850001F227A
:10DA40002046614601250095FFF7D2FA17E101252E
:10DA500015E171792046FFF717FF052800F0CE8009
:10DA6000022800F0D080012840F0D180F06D00281D
:10DA700000F0F78096F96000B0F1FF3F40F3FB80C3
:10DA8000052086F850000125F9E072893379D6F82F
:10DA90008C102046FFF798FA042086F850000125E4
:10DAA000EDE031792046FFF7EFFE052800F08C808D
:10DAB000012840F08E807289F06D904240F2B5806E
:10DAC000D6F88C10801A1144C6F88C10AEE032895A
:10DAD0007379D6F88C10204601250095FFF788FA57
:10DAE000062086F85000CAE071792046FFF7CCFE88
:10DAF000052800F08E80022800F09080012840F078
:10DB000092803289F06D904240F29A80D6F88C1063
:10DB1000801A1144C6F88C1093E0337906F178012D
:10DB20000D222046FFF750FA082086F85000012504
:10DB3000A5E031792046FFF7A7FE05284BD0012844
:10DB40004ED1012086F8500086F85200204600F0A1
:10DB5000EFF8002818BF0120400002B070BD00217E
:10DB60002046FFF72DFF04283CD000283FD1072096
:10DB700086F85000012582E0012120460125FFF7AB
:10DB80001FFF042835D0002879D171792046FFF78E
:10DB90006BFE7179C0F10100C2B22046FFF7DCFED6
:10DBA000317900222046FFF7D7FE092086F8500081
:10DBB000012564E0204600F077F8054600285ED194
:10DBC000012086F850005AE0092086F8500001250F
:10DBD00055E0012553E0092086F8500001254EE06C
:10DBE00001254CE00B2086F85000012547E0012577
:10DBF00045E00B2086F85000012540E00A2086F819
:10DC0000500001253BE0012586F8505037E0012502
:10DC100035E00A2086F85000012530E0052086F81E
:10DC2000500001252BE0012529E00020F06598B186
:10DC300033792046D6F88C10FFF7C6F901251EE08F
:10DC40000020F06590B173792046D6F88C1001253C
:10DC50000095FFF7CDF912E0072086F85000012566
:10DC60000DE0072086F85000012508E0072086F81F
:10DC70005000012503E0032086F8500001252846C6
:10DC800002B070BD0000000080B54FF6A1620282B4
:10DC90000022C0F812200122C2820122FFF7F0F90F
:10DCA00080BD00000000000080B54FF621710182A8
:10DCB0000021C0F81210C18200210022FFF7E0F914
:10DCC00080BD00000000000010B5D0F87C13CC69C6
:10DCD000A17B19B103290AD002290CD12146FFF7F3
:10DCE000D3FF032801D10020207030B110BD0021E6
:10DCF000FFF7A2F9B8B1012010BD2278511C022A09
:10DD000088BF02210A06217008BF10BDC9B204F104
:10DD10005E020223002400BF02F8343F013982F87A
:10DD20002F40F9D1E2E7E07BA073012010BD000095
:10DD300010B5D0F87C13CC692179FFF781FD0D284F
:10DD400013D145F25531A06FC5F2423188420CD152
:10DD5000A06DE16F81424FF0010018BF10BD94F833
:10DD60008410032938BF084610BD022010BD0000F2
:10DD7000B0B5D0F87C33DB6900780B281DD1342096
:10DD800002F1080711FB003000F198053ACDD0E907
:10DD900024CE3AC7C2E900CED0E92ACED0E92C542D
:10DDA000D0E92E13C2E90A13C2E90854C2E906CE2B
:10DDB000D0F8C00010630020B0BD0220B0BD00004C
:10DDC000B0B50446D0F87C03C569697941B12046F5
:10DDD000FFF72AF969792046FFF7D2F90020687128
:10DDE000297941B12046FFF71FF929792046FFF72D
:10DDF000C7F900202871D4F87C03C06928B1F2F774
:10DE00007CFBD4F87C030021C1610020B0BD000080
:10DE100070B584B00446D0F87C0306225023017903
:10DE20002046FFF785F9012801D9022606E00646BB
:10DE30002046314600F04CFF18B10226304604B0AF
:10DE400070BD4FF48070F2F729FBD4F87C13C861E1
:10DE500088B14FF480710546F2F781FD1A2016FB58
:10DE6000004090F94E13B1F1FF3F06DDB0F85003CA
:10DE7000A971288105E00226E0E7B0F85003E971B6
:10DE800068811A2016FB004090F95613B1F1FF3F4C
:10DE900004DDB0F85803A971288103E0B0F85803F5
:10DEA000E9716881A9790020A881A8732046FFF74D
:10DEB00077F8E97968712046FFF772F828712046F3
:10DEC000FFF78EFDAA794AB3288948B3697994F897
:10DED0001C3394F81D6300960226CDE901602046AC
:10DEE00000F0E6FBEA79EAB16889E8B1297994F8AB
:10DEF0001C3394F81D6300960226CDE9016020468C
:10DF000000F0D6FB2979002220460026FFF724FDE9
:10DF1000697900222046FFF71FFD8FE703268DE772
:10DF200003268BE7032689E7032687E70000000026
:10DF3000F0B581B00546D0F87C03C669307B012876
:10DF40001DD0F0B9B6F8F800317888421BD23421E0
:10DF5000012400FB016111F8902F4C70082A1CD895
:10DF6000DFE802F0051B1E3F5D781B1BA4000420A8
:10DF70000870D5F8C403C6F8FC0001240DE00024A5
:10DF80000BE0012409E00020A6F8F800D5F8D4231E
:10DF900002212846012434739047204601B0F0BD89
:10DFA000C1B2284600F0B8FA042800F084800228A4
:10DFB00000F08C80002840F09E80B6F8F8003421F4
:10DFC000012400FB016090F89210002918BF012184
:10DFD00080F8C1100321A0F89010002180F8921061
:10DFE000DBE7342400FB046101F19402C1B228464E
:10DFF00000F012FA042800F08080022800F08780E8
:10E00000002840F08E80B6F8F8003421012400FB8F
:10E0100001610130A1F89040A6F8F800BDE7342472
:10E0200000FB046101F19F02C1B2284600F050F9E3
:10E03000042878D0022800F08080002840F08780F3
:10E04000B6F8F8003421012400FB0160022180F8B9
:10E050009010A2E7342700FB076101F19C02C1B2D6
:10E06000284600F015FA042800F08B8002287ED0A4
:10E0700000286ED1B6F8F810342201FB026292F843
:10E080009C3043F00403062B65D1D5F8C433D6F891
:10E09000FC505B1B42F20F75AB425CD8342001246C
:10E0A00001FB0060022180F8901076E70130A6F8AD
:10E0B000F800012471E7B6F8F8003421012400FBD0
:10E0C000016040F20121A0F8901066E7B6F8F80070
:10E0D0003421012400FB016090F89210023918BF2E
:10E0E000012180F8C11040F20511A0F89010022122
:10E0F00080F8921051E701244FE7B6F8F80040F29B
:10E10000012100FB04600124A0F8901045E7B6F857
:10E11000F8003421012400FB0160052180F89010F3
:10E120003BE7012439E7B6F8F80040F2012100FB93
:10E1300004600124A0F890102FE7B6F8F80034210D
:10E14000012400FB0160052180F8901025E70124DF
:10E1500023E7012421E70124042882F8904001F1FB
:10E160000101A6F8F8100CD002287FF416AFB6F81B
:10E17000F8003421012400FB0160082180F8901090
:10E180000BE7B6F8F80040F20121012400FB07601C
:10E19000A0F8901001E7000070B582B0D0F87C23A1
:10E1A0000C46D669342211FB0262154615F8901F01
:10E1B000052910D007291AD006292BD100220023C7
:10E1C00000210091214600F0E3F804282ED0022817
:10E1D0001ED0F8B917E09C32214600F059F90146EB
:10E1E00000284FF0010018D004291FD023E000229E
:10E1F000002300210091214600F0B6F9042815D033
:10E20000022805D030B901202870002002B070BD6E
:10E2100005202870012002B070BD3422287014FB44
:10E220000262022082F89100042904D1082028709B
:10E23000022002B070BD02B070BD000000000000FE
:10E240002DE9F04182B00446D0F87C03D0F81C8060
:10E2500094F8200370B320780B282BD134200D467E
:10E2600011FB008010F8901F012923D1062188F8A6
:10E270000C10017020462946089EA8F8FA50009616
:10E2800000F086F842F2107006FB00F7D4F8C46381
:10E2900020462946FFF780FF01280FD1D4F8C40398
:10E2A000801BB84203D894F820030028F0D1012045
:10E2B00088F80C00022002B0BDE8F081012088F847
:10E2C0000C00002002B0BDE8F0810000000000005A
:10E2D00070B5D0F87C33DE6996F85230022B26D028
:10E2E000012B2BD101242420F065802286F86020A8
:10E2F0000A2286F862200022C6F867201223A6F8B8
:10E300006B204901A6F86700022086F8520006F14A
:10E310001000C6F88C002046C6F8632086F86330EB
:10E3200086F86410A6F8652086F8504070BD154642
:10E33000FFF76AFB044620B1204670BD0224204648
:10E3400070BD22212846F2F7E8FAD6F88C00017851
:10E3500001F01F0169700178490929704178C909E4
:10E36000A9708168C068C5F80700C5F80310D6F821
:10E370008C00016942698369C069A8616B612A6187
:10E38000E960D6F88C00006AC5F81D00204670BD13
:10E3900080B5D0F87CC3DCF81CC09CF852E0BEF11C
:10E3A000020F33D0BEF1010F33D10298BCF89810A0
:10E3B000CCF88C304143CCF85C1080218CF8601094
:10E3C0000A218CF862100021CCF86310CCF8671099
:10E3D000CCF86B10CCF86F1028218CF86310110E5C
:10E3E0008CF86510110C8CF86610110A8CF8671007
:10E3F000010A8CF86B0001208CF868208CF86A10F8
:10E4000002218CF850008CF8521080BDFFF7FCFA06
:10E4100080BD022080BD0000B0B5D0F87C33DD693E
:10E4200095F85230022B20D0012B2ED10820E86520
:10E43000802085F860000A2085F862000020C5F879
:10E440006300C5F867000221C5F86B00C5F86F00CE
:10E45000252085F86300012085F8500085F85210CA
:10E4600005F11001C5F88C10B0BD1446FFF7CCFAC9
:10E47000002818BFB0BDD5F88C100A6812BA226007
:10E48000C98809BA090CA180B0BD0120B0BD000047
:10E49000B0B5D0F87C33DD6995F85230022B27D027
:10E4A000012B36D10E20E865802285F860200A22F3
:10E4B00085F862200022C5F86720C5F86B20032389
:10E4C000C5F86F204901A5F867000120C5F8632051
:10E4D00085F8633085F864100221A5F8652085F879
:10E4E000500085F8521005F11001C5F88C10B0BD30
:10E4F0001446FFF789FA002818BFB0BDD5F88C1074
:10E500008A7802F00F0222700A7B6270497BA17048
:10E51000B0BD0220B0BD000080B5D0F87C23D26928
:10E5200092F85230022B17D0012B18D10020D06561
:10E5300082F860000A21C2F86300C2F86700C2F8DE
:10E540006B00C2F86F00012082F86210022182F88D
:10E55000500082F8521080BDFFF756FA80BD0220AD
:10E5600080BD00000000000080B5D0F87CC3DCF85E
:10E570001CC09CF852E0BEF1020F35D0BEF1010F75
:10E5800035D1DDF808E0BCF898100A208CF862005C
:10E5900001FB0EF12A20CCF85C100021CCF86310AE
:10E5A000CCF86710CCF86B10CCF86F108CF86300C7
:10E5B000100E8CF86500100C8CF86600100A8CF8B0
:10E5C00067004FEA1E208CF86A0001208CF860106A
:10E5D00002218CF868208CF86BE08CF850008CF8E5
:10E5E0005210CCF88C3080BDFFF70EFA80BD0220AF
:10E5F00080BD000000000000002070470000000007
:10E60000D0F87C23D26900780B2805D1342011FB87
:10E61000002090F8910008B1002070470120704759
:10E620002DE9F04182B00446D0F87C03D0F81C807C
:10E6300094F8200370B320780B282BD134200D469A
:10E6400011FB008010F8901F012923D1072188F8C1
:10E650000C10017020462946089EA8F8FA50009632
:10E66000FFF782FF42F2107006FB00F7D4F8C46394
:10E6700020462946FFF790FD01280FD1D4F8C403A6
:10E68000801BB84203D894F820030028F0D1012061
:10E6900088F80C00022002B0BDE8F081012088F863
:10E6A0000C00002002B0BDE8F08100000000000076
:10E6B00010B584B0DDE906CE089CCDE900CE029409
:10E6C000FFF726F9002004B010BD00000000000094
:10E6D0002DE9F04F85B0002900F0AD8004460878A0
:10E6E0000D4684F83803497884F839136988B1F500
:10E6F000807F28BF4FF480710928A4F83A13297944
:10E7000084F83C13697984F83D13A97984F83E13A1
:10E71000E97984F83F13297A84F8401302D009205C
:10E7200084F838030A2A4FF00000C0F090804FF0C0
:10E730001A0800270026002003900920ADF81200D7
:10E7400007E000BF002840F086800136F7B2022FB4
:10E7500073D2BDF81200B4F83A1388426DD228463D
:10E760000DF11201FEF74CFD054640780428EDD16D
:10E770002878092801D00920287007FB0849294674
:10E7800009F2423000F020F999F84603002818BF3A
:10E790000120DAD0BDF81210B4F83A239142D1D258
:10E7A00009F2463A09F2473B4FF00008002709F505
:10E7B0005270029009F24930019000BF28460DF1D5
:10E7C0001201FEF71DFD0546407805281DD19BF876
:10E7D000000001280CD102980078022808D1019885
:10E7E000007838B92878092804D0092001E000BF52
:10E7F0000720287009EBC7002A4600F55371204610
:10E8000000F07EF808F1010803905FFA88F79AF8A3
:10E81000000087424FF0000038BF012008D2BDF849
:10E820001210B4F83A239142C8D34FF01A0889E77E
:10E830004FF01A0889E7022009E0F1B294F83C038E
:10E84000022828BF02208842039888BF0320C0B254
:10E8500005B0BDE8F08F0320F9E7000000000000DC
:10E8600000293FD00B7890F81DC380F826334B78F1
:10E87000BCF1020F80F827334B88A0F828330B79BE
:10E8800080F82A334B7980F82B338B7980F82C333E
:10E89000CB7980F82D3327D2083B4FEAF30CBCF13B
:10E8A000070F24D8012303FA0CF313F08B0F1ED0AB
:10E8B0000023092A14D30A89A0F82E234A89A0F834
:10E8C00030238A89A0F832238A7B80F83423CA7BDC
:10E8D00080F835230A7C80F83623497C80F837138A
:10E8E000184670470220704705D1082BE0D0082356
:10E8F00080F82D33DCE70323092AF1D3DBE700009E
:10E9000010B5137800240B7053784B7093788B708C
:10E9100092F803E081F803E0B2F804C0A1F804C063
:10E92000ACF10103B4EB932F4FEA932318BF0323F9
:10E9300090F81D439079BCF5007F88BF0323022C1B
:10E9400088710CD0012C18D0A4B90EF003010FF27D
:10E950000602DFE801F01A022202013825E00EF07B
:10E960000301032914D029B9BCF1080F18BF0323F0
:10E97000D8B210BD0323D8B210BD0EF003010FF2C0
:10E980000602DFE801F0020D0217BCF1400F0DE0B6
:10E99000BCF1080F88BF032311E0BCF5007F05E040
:10E9A0000138BCF1400F88BF03230F2888BF032321
:10E9B000D8B210BD0021B1EB9C2F18BF0323002853
:10E9C00008BF0323D8B210BD0A7802704A7842709B
:10E9D0008A788270CA78C2700A7902714A79427163
:10E9E0008A798271CA79C271097A0172704700000E
:10E9F0004378032B18BF704710F8023B023B934249
:10EA000088BF13461FFA83FCBCF1000F0AD00139FE
:10EA1000002300BFC25C02339BB201F8012F6345A3
:10EA2000F8D301310020087070470000000000009A
:10EA300070B584B002218DF80F10044690F82103C0
:10EA4000012801D10320207020780B2800F22C81AE
:10EA5000DFE810F00C00A8001F0055002A01740028
:10EA60008A00B200BC00C600CD009F0094F82003CD
:10EA7000002800F0198101202070C820FEF754FB07
:10EA80002046FEF75DFF002084F81C03C4F8C8038D
:10EA90000AE1D4F8D42312B104212046904764201F
:10EAA000FEF742FB2046FEF7D3FE84F81D03052047
:10EAB0002070002120460026FEF772FA6071802146
:10EAC0002046FEF76DFA94F81C33014694F81D2396
:10EAD0002071A5792046CDE9002680220295FFF716
:10EAE000E7FD94F81C33002294F81D036179A579A1
:10EAF000CDE9000620460295FFF7DAFDD4E0204676
:10EB0000002584F82153F3F767FFD4F87C0320B184
:10EB1000C16820468847C4F87C53D4F8D42312B186
:10EB200005212046904794F82203012878D100203F
:10EB300084F82203204600F007F9B5E02046FEF7EE
:10EB4000D3FC8DF80F009DF80F00002840F0AC803A
:10EB500094F8370301284FF0000084F8240340F0B4
:10EB60009380082020709FE0D4F87C0300287BD09D
:10EB70000169204688478DF80F009DF80F00002896
:10EB80007CD09DF80F00022840F08E800D20207070
:10EB90008AE0D4F87C03002800F086804169204692
:10EBA000884781E094F8230301283DD1002084F8B0
:10EBB0001F030220207077E0D4F8D423002A73D0FA
:10EBC000012120469047082020706DE094F83D1305
:10EBD000204600F099F8002866D10920207063E0F3
:10EBE00094F83F0380062FD40A2020705CE0D4F80C
:10EBF0008003002858D0D4F8781394F847330020C5
:10EC0000C4F87C030A799A4208BF0846C4F87C031A
:10EC1000B8B3816820468847E0B30D20207043E0F8
:10EC20002046FEF7A9FE3FE0D4F8C803B0F57A7F8E
:10EC30001DD994F81F03013084F81F03C1B20429C1
:10EC400030D30D2020702FE00121204600F06CF819
:10EC50008DF80F009DF80F00C8B19DF80F00032834
:10EC600022D10A2020701FE00D2020701CE00A3005
:10EC7000C4F8C8030A20FEF757FA15E00B202070ED
:10EC800012E00D2020700FE0072020700CE00A2019
:10EC9000207009E006202070D4F8D42303212046F8
:10ECA000904701E000202070002004B070BD0000FB
:10ECB00011B1D0F880230AB1022070470122C0F8B8
:10ECC0008023C0F878130020704700000000000087
:10ECD00090F83C238A4203D980F82413002070471F
:10ECE000022070470000000080B58278012A05D11B
:10ECF0004FF4A06202824182002141610021002282
:10ED0000FEF7BEF980BD000080B58278012A05D1EA
:10ED10004FF41062028241820021416100210022F1
:10ED2000FEF7AEF980BD000080B58278012A05D1DA
:10ED30004FF4407202824182002141610021002291
:10ED4000FEF79EF980BD000010B50446FEF714FEE4
:10ED500001212046FEF768FD002010BD00000000E4
:10ED6000052906D0042906D0022918BF70470220C1
:10ED700002E0032000E0012040F2A011C2F20041B5
:10ED8000087070470000000000207047000000007D
:10ED900010B58EB0032910D803461446DFE801F001
:10EDA00033020F1A43F2F45001AAC2F2004019468E
:10EDB000FEF7DEFFC8B1012125E0042123E043F284
:10EDC000F45001AAC2F200401946FEF7D1FF80B10B
:10EDD000012118E043F2F45001AAC2F200401946A2
:10EDE000FEF7C6FF50B101210DE00298206000211E
:10EDF00009E0BDF80C000021206004E0BDF80C0023
:10EE00000021400A206008460EB010BD000000003E
:10EE10002DE9F04F8FB00F4689071D46814630D04F
:10EE200043F2F450C2F20040D0F8D003C06840B3BF
:10EE3000002D49D007EB452043F2F45844F2F00787
:10EE4000A0F50076A2F1010A4FF0010BC2F20048D2
:10EE5000C2F200470AEB0502404649463B46CDF860
:10EE600000B0FFF7EDF90446A8B94FF40072304640
:10EE70003946013DF1F704FD002DA6F50076E9D1F4
:10EE800009E043F2F4504946C2F200403B46009587
:10EE9000FFF7D6F90446D4B143F2F45002AAC2F205
:10EEA00000404946FEF764FF9DF815100320042931
:10EEB00018BF282902D10FB0BDE8F08F3A2918BF3A
:10EEC00001200FB0BDE8F08F0024002CE4D1002019
:10EED0000FB0BDE8F08F000080B5014643F2F4505A
:10EEE000C2F20040FFF78CFBB0FA80F0400980BD11
:10EEF0002DE9F04F8FB00F468907824636D043F296
:10EF0000F450C2F20040D0F8D003C06870B3002BB8
:10EF10004FF0000955D007EB432044F2F007A0F56D
:10EF20000075981843F2F4585C42461EC2F200473E
:10EF30004FF0010BC2F200484FF4007238462946E8
:10EF4000F1F79EFC4046514632463B46CDF800B0B4
:10EF5000FFF766FB013449F1000102280FD00029B8
:10EF6000A5F50075A6F10106E6D008E043F2F450DD
:10EF70000093C2F2004051463B46FFF751FB18B3E5
:10EF800043F2F45002AAC2F200405146FEF7F0FEEE
:10EF90009DF81500272808DC04280AD0272802BF7E
:10EFA00002200FB0BDE8F08F07E03A2801D02828F2
:10EFB00003D103200FB0BDE8F08F01200FB0BDE8F2
:10EFC000F08F00200028DBD100200FB0BDE8F08FCB
:10EFD00070B506991D460129044619D1A16B4FF65B
:10EFE000BF7221F48031A163E168CFF6BD720D9844
:10EFF0001140E1600128E16821F44010E06003D194
:10F00000E06840F48010E060204600F029F80FE04E
:10F01000E0680A9E40F04000E060204600F020F8E2
:10F02000A16B16B121F4803101E041F48031A1637C
:10F03000012D18BF70BDE16D89B2E165E16D41F050
:10F04000007141F0F771E165A16841F00601A1602E
:10F05000A16841F02001A16070BD00000000000027
:10F0600081B040F640510022C0F20301009200BF7F
:10F07000009A01320092009A8A4215D80269B2F1D0
:10F08000FF3FF5DC00220092026942F001020261BA
:10F09000009A01320092009A8A4205D80269D2078A
:10F0A000F6D1002001B07047032001B07047000086
:10F0B00001468268002022F001028A607047000049
:10F0C00000EB41110020C8F208000223C1F810052E
:10F0D0000020D1F8002563F39F72C1F80025704726
:10F0E00081B000220092D0F840240092009A0129B9
:10F0F00022F02E020092009A01BF12F48052009A70
:10F1000042F48052C0F840240029009907D111F43C
:10F1100080511EBF009921F48051C0F84014002096
:10F1200001B070470000000001468268002042F0F4
:10F1300001028A607047000081B040F64051002211
:10F14000C0F20301009200BF009A01320092009ABF
:10F150008A4213D80269B2F1FF3FF5DC0022009227
:10F1600010220261009A01320092009A8A4205D868
:10F170000269D206F6D4002001B07047032001B026
:10F18000704700000000000081B040F640520023AC
:10F19000C0F20302009300BF009B01330093009B69
:10F1A000934215D80369B3F1FF3FF5DC89010023D1
:10F1B00000932031016100BF009901310091009955
:10F1C000914205D801698906F6D4002001B0704744
:10F1D000032001B070470000D0F8080480B27047E7
:10F1E00081B000210091D0F8400400900098C0F355
:10F1F000414001B070470000406900F001007047D5
:10F2000080B581B000F5A06249010023009352F857
:10F2100001C05358002B836802D413F0200341D15E
:10F2200051F802E05FEA4C334EF080438B500BD430
:10F2300083689B0636D4C06A10F47F0F885820D0AC
:10F2400040F0004088502DE0D0F8100410F47F0FFB
:10F25000885803D040F00040885023E020F0004060
:10F260008850885840F00040885000BF0098013016
:10F2700000900098B0F57A7F14D888580028F5D40B
:10F2800010E020F000408850885840F0004088503E
:10F290000098013000900098B0F57A7F02D8885825
:10F2A0000028F5D4002001B080BD0000000000005F
:10F2B0002DE9F04F81B0144600EB4112DDE90BA5BA
:10F2C0009846DDF8289002F5A0674FF0FF33BAF1B9
:10F2D000030FC2F808354FF0010211D8DFE80AF039
:10F2E0000213021E63B2B3F1FF3F40F29D43FB6085
:10F2F0001BDDC36BDB051CD5FB6843F0600317E027
:10F300004FF0010B17E063B2B3F1FF3F40F225234A
:10F31000FB600EDCFB6843F4C07309E063B2B3F139
:10F32000FF3F40F29D63FB6003DCFB6843F48073A6
:10F33000FB604FF0000BFB6801F00F0143F002038C
:10F34000FB6002FA01F1D0F818241143C0F8181438
:10F3500081694FF4004241F00071816102EA0426A4
:10F36000FFF73EFF08F07F010AF0030264F3CE26A8
:10F37000022846EA81516FF3DF2541EA82412944A0
:10F38000084618BF00F50030B9F1020F18BF084653
:10F390004AF0020140F480103860032902BF386847
:10F3A00040F000503860584601B0BDE8F08F0000D2
:10F3B000D0F8140480B27047F0B583B091F801C062
:10F3C000C36BDB0503D50B79002B00F08580D1F8EA
:10F3D00014E0BEF1000F0ED00B890EEB0304013CCC
:10F3E000B4FBF3F4A5B2B5F5807F05D94FF4807472
:10F3F0001B020B6100E00124CB78754613B1A6B265
:10F400000D89754300268F7AC1F6F8760D6106EAFC
:10F41000C44407F003066FF3DF45002A2C4400EBD9
:10F420004C1544EA467605F5A064C5F810651CBF86
:10F43000CD686561D0F80854266826F0005626602D
:10F440004FF00056002B26EA4575266845EA06056A
:10F45000256025680295029D25F080450295029D54
:10F460000CBF25F4004545F40045BEF1000F0295A0
:10F47000029D45F000450295029D256029D01A4362
:10F4800027D1CA79032A1CD8DFE802F0020E020E47
:10F490000EF10302C36A9BB2C2F38F029A4210D9E3
:10F4A000826942F020020BE00EF10302D0F8103422
:10F4B0009BB2C2F38F029A4203D9826942F0806202
:10F4C00082611FFA8EF3C96800220092624600F042
:10F4D00077F9002003B0F0BD92B1012A7FF477AF35
:10F4E000CB7943F00203022B07D100EB4C13D3F886
:10F4F0000C5525F07005C3F80C55002A7FF467AF52
:10F500004B79012B7FF463AF6146FFF7D9FDE0E74C
:10F51000F0B581B0044600201D461646C4F8000E22
:10F52000A06B20F40010A063A06B20F40030A06357
:10F53000E06BC00502D4D4F8000407E00698012867
:10F54000D4F8000402D140F0040001E020F00400EF
:10F55000C4F8000410212046FFF716FE0746204697
:10F56000FFF7EAFD56B104F5A0614FF0FF3200232A
:10F570008A60013ECB6001F12001F9D10021A16137
:10F580004FF0FF316161E16B40F2002240F2003345
:10F5900011F480714FF40071C0F20012C0F2E00368
:10F5A00008BF802104BF8022C0F2600204BFE023B4
:10F5B000C0F240036162A262C4F800311DB9A169C2
:10F5C00041F01001A161384340F2080218BF012048
:10F5D000A169CAF220321143A16101B0F0BD00005F
:10F5E000D0F80024012922F00302C0F8002401F021
:10F5F0000302D0F8003442EA0302C0F8002404D029
:10F60000022908D141F2707101E04BF68031C0F857
:10F610000414002070470120704700000000000023
:10F6200000EB4110D0F80815D0F80C0508407047E1
:10F63000416980690840704780B5002302F0030EDD
:10F64000B3EB920F0BD0920804394FF4805C00BFEB
:10F65000013A50F80C3041F8043FF9D10431BEF1C1
:10F66000000F0ED04FF4805280580022AEF1010EF0
:10F6700020FA02F301F8013B5FEA0E4302F10802AF
:10F68000F4D1084680BD000010B582B004460020C9
:10F690000190D4F840040190019820F02E000190D0
:10F6A000019840F48070C4F840046420F5F75CFED3
:10F6B000019820F48070C4F840040A20F5F754FE45
:10F6C000002002B010BD000070B50446C06820F0F4
:10F6D000C040E06099B1012928D1E068002540F0E0
:10F6E0000050E06001202E46F5F73EFE2046013531
:10F6F000FFF782FD302E13D80128F3D110E0E06827
:10F70000002540F08040E06001202E46F5F72CFEF9
:10F7100020460135FFF770FD302E01D80028F3D1C7
:10F72000A5F13200B0FA80F0400970BD012070BD33
:10F73000F0B581B047F6FF760446C3F6FF760027A2
:10F740000097FFF7B5FC10212046FFF71DFD054689
:10F750002046FFF7F1FC04F5A06100BFCA59324012
:10F7600002F18042CA512037B7F5007FF6D100225E
:10F7700003E000BF0132102A11D05301CF583740A7
:10F7800007F14047CF5000BF009F01370097009F0F
:10F79000B7F57A7FEED85F58002FF5D4EAE7054336
:10F7A0004FF0FF30C4F8140418BF012560612046F3
:10F7B000FFF7BAFC284601B0F0BD000000000000D1
:10F7C000DDF800C0BCF1000F12D103F1030C0023DF
:10F7D000B3EB9C0F0CD04FEA9C0300F5805C120346
:10F7E000043900BF013B51F8040F42F80C00F9D175
:10F7F000002070470000000042F68C107421C0F613
:10F800000100FCF7D5F900BFFEE700000000000092
:10F8100081B180B5002300224FF0000E10F803C024
:10F820000132D3B2F4448B425FFA8CFEF6D3BDE8CA
:10F83000804001E04FF0000CCCF10000C0B27047F6
:10F8400070B586B015460E46044600F01DFA2EB17E
:10F85000204600F069F9002006B070BD94F8300031
:10F8600002281AD00028F3D1A18820680022F5F7D9
:10F87000B3FFE16B20208847C5F30740E16B884761
:10F88000C5F30720E16B8847E8B2E16B8847A188A0
:10F8900020680122F5F7A0FFDAE7002100914FF47C
:10F8A000807001904FF400500022CDE90201202029
:10F8B000012304912946F3F717F9C9E70000000076
:10F8C00010B5044690F83000022802D1204600F01E
:10F8D00017F84FF08070A0604FF4803020614FF433
:10F8E000807161614FF48052C4E90622C4E90822A4
:10F8F000C4E90A10204600F087F8002010BD00007F
:10F90000B0B50446022000F0D7F8054642F6A6320C
:10F91000C0F60102002000212B4602F068FEA80775
:10F9200007D4204600F0B0F945F00201022000F0B3
:10F9300033FA022000F0C0F842F6A6320346C0F6C1
:10F9400001020020002102F052FEB0BD00000000C4
:10F950002DE9F04186B0044690F8300098461546EF
:10F9600002280F464FF0000627D0002847D1A18873
:10F9700020680022F5F730FFE16B03208847C7F3CA
:10F980000740E16B8847C7F30720E16B8847F8B26F
:10F99000E16B884755B1A8F1010600BFE16BFF207C
:10F9A000013D8847002D06F8010FF7D1A188206896
:10F9B0000122F5F711FF002621E04FF0407000967C
:10F9C0004FF4407101914FF400510622CDE902102D
:10F9D000EB20012339460495F3F786F8636C002089
:10F9E00029464246984750B198F8003042F67B329B
:10F9F000C0F601020020002102F0F9FD0126304688
:10FA000006B0BDE8F0810000B0B586B0054690F8BC
:10FA1000300002281ED0002841D1A9882868002281
:10FA2000F5F7DAFEE96B9F208847E96BFF208847EE
:10FA30008DF81400E96BFF2088478DF81500E96BFD
:10FA4000FF208847A9888DF8160028680122F5F75D
:10FA5000C3FE24E0002000904FF4407001904FF46A
:10FA6000005002904FF04070039094200021062235
:10FA7000012302240494F3F737F86B6C05AA0020E5
:10FA80000221984758B19DF8143042F67B32C0F6F7
:10FA900001020020002102F0AAFD06B0B0BD9DF8D1
:10FAA00014009DF815109DF81620090241EA004047
:10FAB0001044E86006B0B0BD80B586B04FF0050CCC
:10FAC000022808BF4FF0350C002103288DF81710CD
:10FAD0004FF0807008BF4FF0150CCDE90011CDE953
:10FAE0000210002100220123012004906046F2F759
:10FAF000FBFF43F6B0600DF11701C2F2004041F286
:10FB00008832F6F759FF9DF8173040B142F67B3244
:10FB10000020C0F60102002102F069FDFF23184613
:10FB200006B080BD000000002DE9F04387B0044618
:10FB300000264FF001084FF080794FF400570DF187
:10FB40001B058DF81B6015E0052000210022012314
:10FB5000CDE90066CDE90279CDF81080F2F7C4FF57
:10FB6000636C002001212A469847E0B99DF81B00EC
:10FB7000C00722D094F830000228E5D00028F5D143
:10FB8000A18820680022F5F727FEE16B0520884751
:10FB9000E16BFF208847A1888DF81B0020680122B7
:10FBA000F5F71AFEE2E79DF81B3042F67B32C0F60D
:10FBB00001020020002102F01AFD07B0BDE8F08329
:10FBC0002DE9F04F83B0894640F2CC176FF31F390F
:10FBD0009A46C9F5805690460D0BC2F20047029036
:10FBE0009642019128BF16462C034FF4805202988A
:10FBF00021463B46FFF7ACFE1FFA86FBBBF1000F28
:10FC000009D0002019FA80F1795CFF290CD101306C
:10FC100081B25945F6D3DDE901402146524600F054
:10FC2000F3F8D8451AD129E0002102982246FFF7BF
:10FC300007FE07EB0901AAF1010001395A4600BF8E
:10FC400010F8013F013A01F8013FF9D1029821462D
:10FC50003A4600F0D9F8019CD8450FD0A8EB0B0824
:10FC60004FF4805046460135DA445C440194B8F5BF
:10FC7000805F28BF06464FF00009B5E7002003B0BB
:10FC8000BDE8F08F0000000010B586B0044690F883
:10FC9000300002280ED0E8B9A18820680022F5F7CC
:10FCA0009BFDE16B06208847A18820680122F5F7BB
:10FCB00093FD0FE04FF0000C4FF40050CDE900CC65
:10FCC000CDE9020C0620002100220123CDF810C04E
:10FCD000F2F70AFF2046FFF727FF06B010BD00002D
:10FCE000F0B585B01E4615460F460446FFF7CCFF1B
:10FCF00094F83000022823D0002845D1A18820683C
:10FD00000022F5F769FDE16B02208847C7F3074041
:10FD1000E16B8847C7F30720E16B8847F8B2E16BD6
:10FD200088473DB1013E00BF16F8010FE16B8847DF
:10FD3000013DF9D1A18820680122F5F74DFD23E0AE
:10FD40004FF04070002100914FF4807101914FF409
:10FD50000051CDE9021032200022012339460495DA
:10FD6000F2F7C2FE236C002029463246984758B16C
:10FD7000337842F69032C0F601020020002102F0F2
:10FD800036FC012005B0F0BD2046FFF7CDFE002077
:10FD900005B0F0BD0000000080B586B04FF0010C4A
:10FDA0008DF8171002284FF0000108BF4FF0310CFA
:10FDB00003284FF0010008BF4FF0110CCDE90011EE
:10FDC0004FF080720123CDE902120021002204903D
:10FDD0006046F2F789FE43F6B0600DF11701C2F2FA
:10FDE000004041F28832F6F74BFE48B19DF81730DB
:10FDF00042F69032C0F601020020002102F0F7FB2B
:10FE000006B080BD000000002DE9F0410C4615460B
:10FE1000C9B22B46C1F5807721463A468046FFF7A6
:10FE20005FFFA8B94FF48056BE4217D0F61B3D4481
:10FE30003046B6F5807F28BF4FF480703C442B4697
:10FE400087B2404621463A46FFF74AFF0028EBD0EA
:10FE500003A200200021234602F0C9FBBDE8F08187
:10FE6000577269746550616765204572726F7220C0
:10FE70005F61646472203D2025780D0A0000000057
:10FE8000002848BF70474EF2801300F01F01400960
:10FE9000CEF20003012202FA01F143F82010BFF371
:10FEA0004F8FBFF36F8F7047002848BF704700F037
:10FEB0001F01012202FA01F14EF200124009CEF2B6
:10FEC000000242F8201070474EF60C50CEF20000AF
:10FED0000068C0F3022070474EF6145300F00F0282
:10FEE000CEF20003B0F1FF3F1A4400F16043C8BFF7
:10FEF00003F5644208011070704700000000000024
:10FF00004EF60C514FF6FF03CEF200010A681A407C
:10FF100060F30A2242F0806040F0FD700860704794
:10FF20004EF60C500422CEF20000C0F2FA52BFF39B
:10FF30004F8F016801F4E06111430160BFF34F8FFF
:10FF400000BFFDE700000000B0B504460020E070EF
:10FF50004FF0FF302063204601F03AFD00281CBF1F
:10FF60000420B0BD04F2322001F0E2FC4AF6552133
:10FF700088421FD194F83400E92805D0EB281BD122
:10FF800094F83600902817D144F2461504F16A001F
:10FF9000C0F2540501F0C8FC20F07F40A84207D011
:10FFA00004F1860001F0C0FC05F14C51884203D1F8
:10FFB0000020B0BD0320B0BD0220B0BD0000000095
:10FFC000421E00BF12F8010F002818BF8842F9D165
:10FFD0007047000000000000B0B540F2AC1C4FF0CC
:10FFE000000EC2F2004C00220CF1040306E000BF38
:10FFF0004FF0010E01321033022A1AD053F8044C8C
:020000040801F1
:10000000002CF5D00568AC42F4D11C688568AC4280
:10001000F0D15C684569AC42ECD1022A0CD11222C5
:10002000BEF1000F18BF0022881E18BF1046C0B2D4
:10003000B0BD0222022AF2D011B11020C0B2B0BD70
:100040000CEB02108089A0F58070B0FA80F04009B6
:100050000001C0B2B0BD000040F2AC124FF0000C85
:10006000C2F20042002300BFD158814208BF42F8CB
:1000700003C01033202BF7D17047000000000000B0
:10008000C36A5A6872B10068490A4089B1FBF0F04E
:1000900003F10801904207D3801A4A68002A01F14F
:1000A0000801F7D100207047096808447047000034
:1000B00082690239023A914204D24289C06A01FB44
:1000C00002007047002070472DE9F04F81B0804654
:1000D00001F11A00894601F02BFC18B1002001B093
:1000E000BDE8F08F99F800000D2142F6400A002586
:1000F00000F03F0001264843C0F6010A4FF6FF7B9F
:10010000A0F10D0409E000BF5E454FF000004FF084
:10011000000621D101350D2D16D01AF805004844EE
:1001200001F006FC002E0646EED0FE2CD6D8304656
:1001300001F01EF838F814100746084601F018F8C8
:100140008742CBD10134E5E7002E1CBF99F80000AF
:1001500010F0400003D1012001B0BDE8F08F38F865
:1001600014000028BAD1F6E72DE9F0418846074689
:10017000046841B13846414601F05EFA022809D2CE
:100180000120BDE8F081256915B1A069854209D338
:10019000012507E0411C1DD0A1694546884238BFB2
:1001A000BDE8F0812E4600BF0136A069864228BF17
:1001B000022601D3022D0AD33846314601F03CFA1B
:1001C000411C22D050B101281FD0AE42ECD10020FA
:1001D000BDE8F0814FF0FF30BDE8F0814FF0FF3215
:1001E0002046314601F058FCB8F1000F014606D018
:1001F00029B920464146324601F04EFC014631B154
:100200000120012908BF4FF0FF30BDE8F081D4E99B
:10021000050102392661884201D8013860612079E0
:1002200040F0010020713046BDE8F0810000000080
:100230002DE9F04F85B00C6889468046006821782A
:10024000D0F80CB0202945D2012004260025002D2D
:100250002044C9F800005FD0B5FA85F00BEB4502E9
:1002600041096842002507E0431CA2F1020245F162
:100270000001834218464FD332F8023C2E2BF3D0B4
:10028000202BF1D0C9074FF00001118047D108F1B0
:100290002407444220210B22384601F091FB00251F
:1002A00001E000BF01353BF815002E28FAD02028C8
:1002B000F8D0ABF10200002D18BF46F003060297FC
:1002C000002C3FD030F81420611E0C462E2AF7D1A6
:1002D000481C38E0661C00250FF28C1A07E000BFAE
:1002E0002BF815706A1C715D1546202926D35C29F0
:1002F00018BF2F2917D0FF2D11D0C8B2012100F04F
:100300000FFF60B107467F28EAD850463946FFF70D
:1003100057FE0028E4D002E000202BF8150006204C
:1003200005B0BDE8F08F681C01E000BF0130215C22
:100330005C29FBD02F29F9D0002688E7501C042621
:10034000154684E70020A0F1010900244FF0000ABF
:10035000009008200490012003900020019003E009
:1003600081450BD046F003063BF815702846013551
:10037000202FF7D02E2FF3D0002F4ED004998A458E
:1003800034D2814532D0802F0FD30021384600F07F
:10039000C7FE38B142F2C071C0F60101084410F83E
:1003A000807C00E0002746F0020627B131A03946E4
:1003B000FFF706FE48B146F003065F2708EB0A0088
:1003C0000AF1010A80F82470CEE7A7F1410080B25B
:1003D000192802D844F00204F0E7A7F1610080B2C6
:1003E00019289CBF44F00104203FE7E70199C907A1
:1003F00046F0030110D1814518BF0E4600998D4289
:100400000BD8A4000B200490002003900120019041
:100410004FF0080A0D46A7E70E4602990878E5282E
:1004200001D105200870039846F00202C00718BFEA
:10043000A40004F0030104F00C00032908BF1646D1
:100440000C2808BF1646B20707D4012908BF46F09A
:100450001006042808BF46F0080688F82F60002020
:1004600005B0BDE8F08F00BF222A3A3C3E3F7C7FBA
:10047000000000002B2C3B3D5B5D000000000000F5
:10048000411E012917D840F2AC1CC2F2004C0CEB03
:1004900001108389B3F5807218BF1A46002A18BF6D
:1004A000013A130482814FF0000018BF7047090120
:1004B0004CF8010070470220704700000000000067
:1004C000F0B581B00C4600210546066800F02CFA14
:1004D00020B1042808BF072001B0F0BD002706E0C6
:1004E00000270121284600F083F80028F1D1E969AE
:1004F000304601F06DFA0028EBD1296A0978E52928
:1005000018BF0029ECD10137A742EAD1E1E700008A
:100510002DE9F04F81B000210446D0F800B000F082
:1005200003FA074618B1384601B0BDE8F08F4FF026
:10053000FF3904F12408FF254FF0FF0AC4F830907A
:10054000E169584601F044FA07460028EBD1266AD3
:100550003078002846D0F27AE52802F03F01A171F8
:1005600003D012070CD50F290AD0C4F83090FF250C
:100570000021204600F03CF80028E1D034E000BF24
:100580000F291DD194F82F104906F1D4410606D544
:1005900096F80DA000F0BF00054661692163E9B23D
:1005A0008842E4D1707B8245E1D1DBF80C00314612
:1005B000FFF78AFD013D002808BF4FF0FF35D7E760
:1005C000280604D1304601F09BFB8245ABD094F85D
:1005D0002F00C007C9D13046414601F0D1F90028AB
:1005E000C3D1A0E704279EE707469CE70000000070
:1005F0002DE9F0470446C0694FF00406A8B18A46C9
:1006000061694FF6FF7201F12005C0F21F029542A9
:100610000BD82F46D4F800906FF35F2747B109EB52
:10062000070000266561343020623046BDE8F0875F
:10063000A1690130E06179B1B9F80A00104400F510
:10064000C00010EA552FEAD1204600F0F5FF02283D
:100650000CD20220BDE8F087B9F80800B0EB551FB6
:10066000DDD80020E0610420BDE8F087804601303D
:1006700029D0D9F81800804507D248464146C4F829
:100680001880FFF715FDE061C9E7BAF1000FE8D067
:10069000A1692046FFF768FD8046013003280ED28D
:1006A0004FF6F871C0F2FF0101EAC00040F201719B
:1006B000C0F2020121FA00F0C0B2BDE8F08748465E
:1006C00001F07EFB10B10120BDE8F08709F1340094
:1006D00000214FF400724FF0000A01F071F9484612
:1006E0004146FFF7E5FCB9F80A10C9F83000A9B196
:1006F0004FF0000A0126484689F8036001F060FBCC
:10070000002892D1B9F80A000AF1010AD9F830108C
:10071000824501F10100C9F83000ECD3A0EB0A00DA
:10072000C9F83000A9E700002DE9F041C16904468D
:1007300000293CD025684FF0FF08FF27284601F02C
:1007400047F90646B0BB216A087890B3CA7A2E28CA
:1007500002F03F03A3711FD0E5281DD002F01F0255
:10076000082A19D00F2B2CD1420606D591F80D80FE
:1007700000F0BF00074662692263FAB290420BD1D3
:10078000487B804508D1E86801F042F9013F002824
:1007900008BF4FF0FF3700E0FF2700212046FFF79A
:1007A00027FF064630B9E1690029C7D102E00426D7
:1007B00000E00426002E1CBF0020E0613046BDE8AA
:1007C000F081380604D1084601F09AFA8045F1D04C
:1007D0004FF0FF302063EDE72DE9F04F83B0834603
:1007E00090F82F0010F0A00F04D00627384603B071
:1007F000BDE8F08FDBF800A00B24DAF80C0002381B
:1008000030F8021F01340029FAD10BF1240968469F
:100810000C22494601F0C8F89DF80B805FEAC870C9
:1008200034D15FEA88704FF0010507D54EF64F408E
:10083000C4F6C460A4FB000105EB910558462946A7
:10084000FFF73EFE074600283FD0002FCED1DBF851
:100850001C10504601F0BCF807460028C6D1DBF852
:1008600020000021202201F0ABF8DBF820000B2251
:10087000494601F099F89BF82F00DBF8201000F0B2
:100880001800087301208AF80300AFE701266D46BF
:1008900040208BF82F0000BFDAF80C20484629468C
:1008A000334600F075FE5846FFF732FE074618B98A
:1008B0000136642EF0D16426642E01D1072795E716
:1008C000042F93D18BF82F80ABE76C1EBDD0DBF8E3
:1008D0001400A0EB4411584600F026F80746002803
:1008E000B3D1484601F00CFA80460125DBF81C1014
:1008F000504601F06DF898B9DAF80C00DBF82010DA
:10090000E2B2434601F050F9002158468AF80350FC
:10091000FFF76EFE0746002897D1013CE6D194E729
:10092000074692E7000000002DE9F0411F22CFF6B4
:10093000E072114202D00220BDE8F08187680D46C6
:100940000446D0F80080416157B13FB3B8F80A00BF
:10095000B5EB402F0DD240463946FFF7A9FB25E005
:1009600098F80000032816D3D8F82870002FEDD18E
:1009700014E046022046394600F05EFE074601308C
:1009800024D0022FD7D3D8F818008742D3D2AD1B7A
:10099000B542EFD2DFE70027002FD7D1B8F8080023
:1009A000B0EB551FC7D9D8F8280000270028A76149
:1009B000E061C0D000EB55206FF35F2508EB050127
:1009C0003431C4E907010020BDE8F0810120BDE811
:1009D000F08100000000000080B542F63801C2F24C
:1009E00000410A5C002A1CBF002080BD01EB80038F
:1009F00001EB000C01220A5459689CF808000968B0
:100A0000884780BD0000000080B542F6380CC2F275
:100A1000004C0CEB800360445B68007A1B699847CC
:100A200080BD00000000000080B542F6380CC2F224
:100A3000004C0CEB800E6044DEF804C0007ADCF859
:100A400008C0E04780BD000080B542F63801C2F220
:100A5000004101EB800208445168007A49688847E8
:100A600080BD00000000000080B542F6380CC2F2E4
:100A7000004C0CEB800E6044DEF804C0007ADCF819
:100A80000CC0E04780BD000040F2AC110020C2F273
:100A9000004100BF0A6822B1013010310228F9D1AB
:100AA0000220023818BF012070470000000000003B
:100AB00010B582B0044600F0E7FA08B102B010BDEC
:100AC00001A9204601F0ACF90028F7D12069FFF711
:100AD000D7FC0028F2D10021216002B010BD000037
:100AE00010B582B001A9044601F09AF908B102B02C
:100AF00010BD216911B10846FFF7C2FC0028F6D1EC
:100B00000021216002B010BD2DE9F04184B00546FE
:100B10001446CDE9021001A8019100F07DFE0028E5
:100B200020D440F2A8180646C2F2004858F82070B7
:100B300027B13846FFF790FA00203870002D1CBF0F
:100B4000002028700399012C4FF0000048F826106F
:100B500005D121B102A803A9002200F06DFB04B069
:100B6000BDE8F0810B2004B0BDE8F081000000007A
:100B70002DE9F04F8FB00E9130B302F03F06814661
:100B800017460EA86946324600F056FB0546002877
:100B900040F00A810E9901A8DDF800B0CDF804B04C
:100BA00000F0AAFC054688B116F01C0F1DD055B305
:100BB000042D06D1FFF768FF88B301A8FFF70CFEEC
:100BC000054646F0080631E00925F2E09DF93300BC
:100BD00000281FD417F03E0101A818BF0121FFF71C
:100BE000FBF9054616F01C0FE1D1002D60D19DF8F0
:100BF0000A00C1065BD4C007284618BF0720B1070A
:100C000048BF054654E09DF80A0010F0110F0AD0C5
:100C100007250BE0062516F01C0FC8D1E5E71225C5
:100C200046F0080602E0700748BF0825002D3FD1B6
:100C300016F008003CD000F05FFD099F804607F1E8
:100C40000E00414601F054F807F11600414601F04C
:100C50004FF8DDF800A02020F8725046394600F029
:100C60004FFE804600225046394601F02DF807F12C
:100C70001C00002101F03CF8B8F1000F4FF001001A
:100C80008AF8030014D001A800224146DAF8304067
:100C900000F0D2FF08B105460AE05046214600F0B8
:100CA00097FE0546A8F10100CAF8100000E00425EF
:100CB00015B1002D78D118E006F008000099099AC6
:100CC00046EAC006086BC9F82400002101A8012EDD
:100CD000C9F8282088BF012100F0C2FD002808BF04
:100CE0000225C9F81000002D5ED1DDF800A0099F93
:100CF0005046394600F004FEC9F8080007F11C0010
:100D000000F012FEC9F80C000020C9F82C0009F10F
:100D10003008C9F800B04FF40072BBF8061089F82B
:100D20001500A9F804100021C9F82000C9F818001E
:100D3000404689F8146000F043FEB00634D5D9F877
:100D40000C608EB3B5FA85F0D9F808104FEA501050
:100D5000C9F818600DBBBAF80A205402A6421CD983
:100D60000020A0EB422B00BF484600F065FC0228A3
:100D7000014638BF02250130A6EB040708BF012554
:100D8000E8B2B0FA80F200284FEA521006D10BEB1D
:100D900006023E46A242E7D800E03746FA05C9F807
:100DA0001C1018BF002808D128061CBF0020C9F855
:100DB0000000E8B20FB0BDE8F08F5046FFF778F9B9
:100DC00070B100EB5722C9F820209AF801000123E6
:100DD00041460124FFF728FE002818BF2546E3E717
:100DE0000225E1E700000000B0B582B00191C0B17A
:100DF000044601A86946002200F01EFA054680BBA1
:100E0000009820600199204600F076FB054628BB3B
:100E100094F92F0000280BD4A079C00603D405252F
:100E200006E0092521E00098216A00F069FDA06034
:100E3000A5B900980021C088A0802046FFF774FD66
:100E4000054658B9A06838B10021204600F008FDD9
:100E5000002808BF122500E000202061042D08BFF3
:100E60000525002D1CBF00202060284602B0B0BD23
:100E70002DE9F04F83B004460F460020186002A908
:100E800020469B46164600F0CBFF08B9607D10B1A6
:100E900003B0BDE8F08F207DC00703D1072003B069
:100EA000BDE8F08FE068A169401AB04238BF06463D
:100EB000002E00F0928004F13000019028E099F8B3
:100EC0000100012301995246FFF7AEFD002840F0D2
:100ED0008A80C4F820A000BFA0696FF35F20C0F52E
:100EE00000752044B54200F1300188BF35463846D0
:100EF0002A4600F059FDA0692F442844A061DBF880
:100F00000000761B2844CBF800004FF00000BFD053
:100F1000A169C805E0D1DDF80890B9F80A000138E8
:100F200000EA5128B8F1000F11D129B1E06A28B1C7
:100F30002046FFF7A5F805E0A06803E0E169204638
:100F400000F07AFB01284CD9411C4CD0E061E169EA
:100F50004846FFF7ADF8002843D0002100EB080A0F
:100F6000B1EB562F23D0750AB9F80A1008EB05002B
:100F70005246884299F8010088BFA1EB080539461E
:100F80002B46FFF751FD70BB94F91400B0F1FF3F01
:100F90000BDC206AA0EB0A00A84206D207EB402037
:100FA0004FF40072019900F0FFFC6D02A3E7226A82
:100FB00052453FF48EAF94F91400B0F1FF3F3FF774
:100FC0007EAF99F8010001230199FFF74DFD50B95B
:100FD000207D00F07F00207571E7002003B0BDE8A0
:100FE000F08F022000E00120607503B0BDE8F08FB3
:100FF000B0B582B00D4601A9044600F011FF08B15A
:1010000002B0B0BDB5B12046FFF78EFB01460438F3
:1010100018BF08460028F3D12046294600F070FB8F
:1010200000212046FFF7E4FA0146043818BF0846BD
:1010300002B0B0BD00212046FFF776FC02B0B0BD83
:10104000B0B58EB00C460D900DA86946002200F098
:10105000F3F8054628B90D99684600F04DFA0546A3
:1010600010B128460EB0B0BD9DF92F00002806D45F
:10107000002CF6D06846214600F042FBF1E7062539
:10108000EFE7000000000000F0B581B069460446BB
:1010900000F0C6FE074600283FD1207D41063CD522
:1010A00000060DD5009804F13001226A0123407832
:1010B0000127FFF7D9FC80BB207D00F07F00207561
:1010C00000F01AFB009D0646616A284600F080FC8D
:1010D000074610BBA76A3946F87A40F02000F8723C
:1010E0002068A26800F0F0FD07F11C00E16800F044
:1010F000FFFD07F11600314600F0FAFD07F112007E
:10110000002100F0F9FD0120E870284600F00CFEF7
:10111000217D074601F0BF002075384601B0F0BDC3
:10112000802838BF704719B1FF2814D900207047B4
:1011300042F64E020021C0F6010200BF32F8113023
:10114000834204D07F2901F10101F7D3802101F10D
:101150008000C0B2704742F64E01C0F6010101EBBB
:1011600040006FF0FF01405A70470000000000008F
:1011700010B542F60E4142F6CA43C0F60101C0F670
:1011800001030A46B0F5805F38BF1A46B2F800C0C6
:10119000BCF1000F20D00231B0F5805F38BF991C40
:1011A0001FFA8CF4844217D8098804324FEA112EB2
:1011B00054FA81F3834211D8C9B2BEF1000F0B4635
:1011C00018BF002332F813C008BF02EB4102BCF184
:1011D000000F02F10201E3D180B210BDBEF1080F91
:1011E000FAD8DFE80EF0050A1114171A1D202300A3
:1011F000001B32F8100080B210BDA0EB0C0101F012
:101200000101401A80B210BD103880B210BD2038E4
:1012100080B210BD303880B210BD1A3880B210BD17
:10122000083080B210BD503880B210BDA0F5E35038
:1012300080B210BD000000002DE9F04784B00F46D9
:1012400015460021396000F0E7FA002818D4064658
:1012500040F2A810C2F2004050F82640D4B33C60DF
:1012600005F0FE05207868B16078FFF7EDFBC10757
:1012700008D140070A21002D18BF01EAE07580E07F
:101280000B257EE000202070F0B26670FFF7A4FB13
:10129000C10721D1002D18BF10F004001ED100217C
:1012A00020460025FEF750FE02282BD16E46002571
:1012B000374608E000F5FD7000F036FB103547F8C2
:1012C000040B402D0CD0601990F8F6110029F1D1D3
:1012D0000020F3E70C2554E0032552E00A2550E0F6
:1012E000002700BF56F8275035B120462946FEF7A3
:1012F0002BFE022803D205E00320022802D3013787
:10130000042FEFD1042801D101253AE0012801D9A9
:101310000D2536E004F13F0000F00AFBB0F5007F38
:101320002AD104F14A0000F003FB824620B904F1FF
:10133000580000F0F9FA824694F84460C4F81CA002
:10134000A670701E012819D894F84170B7FA87F179
:10135000781E38404FEA511118BF012067810843B9
:101360000ED104F1450000F0E3FA81460007A4F82D
:1013700008900AD00D2504E00D2502E00D2500E0BF
:101380000D25284604B0BDE8F08704F1470000F0C1
:10139000CFFA804620B904F1540000F0C5FA804627
:1013A00004F1420000F0C4FA40B10AFB06F101EB7F
:1013B00019120244904503D20D25E2E70D25E0E71E
:1013C000A8EB0203BB4201D20D25DAE7B3FBF7F32A
:1013D0004FF6F6774FF00308BB4240F6F67738BF7A
:1013E0004FF00208BB4203F1020638BF4FF001087C
:1013F0002844A661B8F1030F2A44C4E90850E26208
:1014000008D104F15E0000F093FA50EA09000BD015
:101410000D25B6E7B9F1000F0DD0B8F1020F084461
:10142000A0620AD170000EE004F1600000F07CFAC6
:10143000A062B00007E00D25A3E706EB460006F02A
:10144000010101EB500000F2FF10BAEB502F01D266
:101450000D2596E7B8F1030F4FF0FF30C4E9040003
:101460004FF08000207132D104F1640000F060FA86
:1014700001282CD1691C204600F0AAFA38BB0020B4
:10148000207104F2322000F053FA4AF655218842C6
:101490001DD104F1340000F047FA45F25221C4F2A4
:1014A0006111884213D104F5067000F03DFA47F24D
:1014B0007221C6F24111884209D104F5077000F08B
:1014C00033FA606104F5087000F02EFA206141F2F1
:1014D000CC1084F80080C2F2004001880131018004
:1014E00041F2CE10E180C2F20040E0602046FEF7FB
:1014F000B3FD002545E7000070B582B004460568DD
:10150000019100E0013108785C28FBD02F28F9D048
:101510000020A06008780191202808D2802084F85B
:101520002F0000212046FFF7FFF902B070BD01A98E
:101530002046FEF77DFE08B102B070BD01AE00BFCF
:101540002046FEF7E5FF94F82F10A8B94907F3D419
:10155000A079C00617D560696FF35F20284400F1B9
:101560003401284600F0CCF9A06020463146FEF751
:101570005FFE0028E4D0DFE70428DDD1490758BF2B
:10158000052002B070BD052002B070BD0000000053
:10159000F0B583B016460B221D46074600F004FA4C
:1015A000052D16D93088A0B141F22101C0F2010108
:1015B000102200BF00F001032C0443EA450548BF98
:1015C0004D40013A4FEA5000F4D136F8020F00289E
:1015D000EED1072101A8002205F00F0303F1300628
:1015E000392E88BF03F13706B2EB151F4FEA1515E8
:1015F0004654A1F10101EFD14FF000054FF07E02FA
:10160000425491B10B4600BF7E5D202E0DD0013BB0
:1016100005F10105F8D10D4607E000BF435C01313B
:101620006A1C7B55082A154603D20729F6D92023C0
:10163000F6E703B0F0BD0000F0B581B0022930D369
:1016400005680C46A86988422BD9287803282BD036
:1016500002283BD0012824D104EB5407686A00EB30
:101660005721284600F0B4F9B8BB7E1C696A6FF3B5
:101670005F27E81901EB562190F83470284600F0F6
:10168000A7F950BB6FF35F26A819E20790F8340062
:1016900047EA002108466FF31F3018BF080901B060
:1016A000F0BD012001B0F0BD686A00EBD4112846FE
:1016B00000F08EF988B904F07F0005EB800034302B
:1016C00000F032F920F0704001B0F0BD686A00EB24
:1016D0001421284600F07CF918B14FF0FF3001B01A
:1016E000F0BDE0B205EB4000343000F021F901B06C
:1016F000F0BD000000000000002070470000000066
:101700002DE9F0470546D0F800A000208875E8696B
:10171000002808BFBDE8F087286B8946013021D03A
:10172000DAF80C004FF000080088B0B109F1160794
:10173000002600BF80B200210024FFF7F1FCFE2E3E
:101740000CD858B1B855741CDAF80C0000EB460000
:10175000264640880028EDD100E0002409EB040073
:1017600080F8168099F8161000204FF02E0C0027F4
:101770003E463B460B2F98BF0B2600BF9E4229D00A
:101780002A6A5F1CD25C3B46202AF7D0052A08BF94
:10179000E522092F09D119B909EB000383F816C016
:1017A00009EB0003013083F809C009EB00035A720A
:1017B00071B9A2F14106F6B2192E08D82E6A082492
:1017C000082F367B88BF1024344218BF20329A7508
:1017D0000130CDE741B909EB000100228A75296A81
:1017E000097B002908BF08464844002141722C6A41
:1017F000E07A89F8080004F11C0000F095F8C9F8B7
:10180000000004F1160000F08FF84FEA3040C9F8EC
:101810000400BDE8F08700000268D2B1002300BFD9
:10182000D15C0133202901D33A29F9D13A2913D1C6
:101830001178A1F1300CBCF1090F0AD84FF0FF313B
:10184000022B01BFBCF1000FD11801600021084636
:1018500070474FF0FF3070470020704700000000D5
:1018600070B540F2AC1CD0F800E0C2F2004C00238E
:101870000CF1040204E000BF01331032022B0ED041
:1018800052F8044C7445F7D114688568AC42F3D122
:1018900054684569AC42EFD1022B03D01EE002230D
:1018A000022B1BD140F2AC1E0023C2F2004E724646
:1018B000146824B101331032022BF9D10223022B18
:1018C0004FF0000218D01C0106680EEB03154EF80D
:1018D000046086686E604069A860AA810CEB031002
:1018E000828931B1002A1CBF002070BD4FF4807185
:1018F00000E0511C5A1C8181104670BD00000000A0
:10190000B0B5044601F11A000D4600F011F8217837
:101910000446032905D105F1140000F009F844EA52
:1019200000442046B0BD0000006870470000000081
:101930000088704700000000F4F75AFAFAF780F8C0
:1019400040F2000045F65A21C2F20040CAF2A55109
:101950000068884205D1F1F78FF8F9F7B1F8FAF786
:101960002BFAF8F78DFEF8F717FFF8F775FEF8F782
:10197000D7FE00BFF8F7FCFEF9F762F9FAE70000BE
:1019800080B5A0F1010C01390A2200BF1CF801EF5B
:1019900011F8010F531E9342AEEB000002D2002853
:1019A0001A46F3D080BD00000138013911F8013F1B
:1019B000013A00F8013FF9D1704700000000000033
:1019C00080B51346CAB21946EEF79FFF80BD0000EE
:1019D000F0B581B00446006B884201D1002513E0C8
:1019E00020460E4600F0ECF9054668B9607804F12F
:1019F0003401012332460127FFF716F800281CBFE7
:101A00004FF0FF363D462663284601B0F0BD00008A
:101A10002DE9F047804601F11A000D46FFF788FFD7
:101A200010B10020BDE8F08728780D2142F640096A
:101A3000002400F0BF0001264843C0F601094FF61C
:101A4000FF7AA0F10D0706E050454FF000061ED1C9
:101A500001340D2C0ED019F804002844FFF768FF5C
:101A6000002EF1D0FE2FDCD8791C28F817000F4685
:101A70000646EDE72878400602D40120BDE8F0874D
:101A8000FE2F4FF0000602D828F8176001263046D6
:101A9000BDE8F087000000002DE9F04381B0022985
:101AA00023D3044680690F46884220D92078154602
:101AB000032821D002283AD001284BD107EB57093F
:101AC000606A00EB59212046FFF782FF064678B98D
:101AD00009F1010817F001076FF35F2904EB090012
:101AE00000F1340038D1E9B23BE0022600E00226E2
:101AF000304601B0BDE8F083606A00EBD7112046A4
:101B0000FFF766FF06460028F2D107F07F0004EBDE
:101B1000800000F134073846FFF706FF01463846DB
:101B200065F31B0100F0E4F80120E070E0E7606A73
:101B300000EB17212046FFF74BFF06460028D7D1C0
:101B4000F8B2A9B204EB4000343000F0D5F801201F
:101B5000E070CDE70226CBE7017801F00F0165F3D5
:101B60000B11626A01700120E07002EB58212046DF
:101B7000FFF72EFF06460028BAD16FF35F2804EB6B
:101B8000080000F1340037B9C5F30322017801F0F1
:101B9000F001114401E0C5F3071101700120E0706C
:101BA000A6E70000000000002DE9F04F81B08A4652
:101BB00081464B730F20A1F80B0001F11A000021A0
:101BC00015464FF6FF74002600F096F80D2042F6F9
:101BD000400B68430095C0F6010B4FF00008A0F1E0
:101BE0000D0500BF1FFA88F0A0421BF806001CBFBD
:101BF00039F81580013550441FFA88F7394600F04E
