:0200000490006A
:1000000090B200245504009019BB00905F0400904A
:1000100001BB00903126009051E2009000000000EA
:1000200000000000000000000000000099040090A3
:10003000292C0090000000009D05009055050090BF
:10004000A1040090A1040090A1040090B1C500900B
:10005000A1040090A1040090A1040090A1040090CC
:10006000A1040090A1040090A1040090E927009051
:10007000A1040090A1040090A1040090A1040090AC
:10008000A1040090A1040090A1040090A10400909C
:10009000A1040090A1040090A1040090812C009084
:1000A000A1040090A1040090A1040090A10400907C
:1000B000A1040090A1040090A1040090A10400906C
:1000C000A1040090A1040090A1040090A10400905C
:1000D000A1040090A1040090A1040090A10400904C
:1000E000A1040090A104009000000000A104009071
:1000F000A1040090A1040090A1040090A10400902C
:10010000A1040090A1040090A1040090A10400901B
:10011000A1040090A104009001D20090A1040090DD
:10012000A1040090A1040090A1040090A1040090FB
:10013000A1040090A1040090A1040090A1040090EB
:1001400000000000000000000000000000000000AF
:10015000A1040090A1040090A1040090A1040090CB
:10016000A1040090A1040090A1040090A1040090BB
:10017000A1040090A1040090A1040090A1040090AB
:10018000A1040090A1040090A1040090A10400909B
:10019000A1040090A1040090A1040090A10400908B
:1001A00031B2009021B20090F927009000000000C9
:1001B000A1040090A1040090A1040090A10400906B
:1001C000A1040090A10400900000000000000000C5
:1001D0000000000000000000A104009000000000EA
:1001E000000000000000000000000000000000000F
:1001F0000000000000000000A1040090A104009095
:10020000A1040090A104009000000000A10400904F
:10021000A1040090A1040090A1040090A10400900A
:10022000A104009000000000A10400900000000064
:10023000A1040090A104009000000000A10400901F
:10024000A1040090A1040090A1040090A1040090DA
:10025000A1040090A1040090A1040090A1040090CA
:10026000A1040090A1040090A1040090A1040090BA
:10027000A1040090A1040090A104009000000000DF
:10028000A1040090A1040090A1040090A10400909A
:1002900000000000A1040090A1040090A1040090BF
:1002A000A1040090A1040090A1040090A10400907A
:1002B00041E20090A1040090A1040090A1040090EC
:1002C000A1040090A1040090A104009000F002F8A5
:1002D00000F0B0F80AA090E8000C82448344AAF130
:1002E0000107DA4501D100F0A5F8AFF2090EBAE82E
:1002F0000F0013F0010F18BFFB1A43F0010318475A
:1003000090190100C01901000A4410F8014B14F0C3
:100310000F0508BF10F8015B240908BF10F8014B56
:100320006D1E05D010F8013B6D1E01F8013BF9D19F
:10033000641E03D0641E01F8015BFBD19142E4D33B
:1003400070470000103A24BF78C878C1FAD8520725
:1003500024BF30C830C144BF04680C60704700003F
:100360000023002400250026103A28BF78C1FBD8BE
:10037000520728BF30C148BF0B6070476E2900F09C
:100380007B84702900F0DB85662910F040836529A5
:1003900010F03D83672910F03A83612910F039830A
:1003A00003681B0A28BF41F08001692900F02884F6
:1003B000642900F02584752900F022846F2900F05B
:1003C0006985782900F0A785E92900F00385E429EB
:1003D00000F00085F52900F0FD84EF2900F0668526
:1003E000F82900F0A6850368DB0928BF41F08001E9
:1003F000632900F08484732900F08984E32901F0E3
:10040000E381F32901F0E881002070471FB510F067
:10041000F1FA01F037FA04000020002110F0D4FABC
:10042000401C60600020002110F0B8FAE0601FBDA1
:1004300010B510BD01F0F9F91146FFF7E7FF0FF015
:10044000F7FD01F0D5FA03B4FFF7F2FF03BC00F0AB
:1004500081FD00001648804716480047FEE71EF061
:10046000040F0CBFEFF30880EFF3098020E9F00FD1
:1004700040F804ED1EF0040F0CBF80F3088880F3F1
:10048000098800B50CF0D4FC5DF804EB4EF0040EC6
:100490007047FEE7FEE7FEE7FEE7FEE7FEE7FEE762
:1004A000FEE7000004480549054A064B7047000076
:1004B00041CD0090CD02009090A6002490B200247F
:1004C00090AE002490AE0024000000000000000068
:1004D00000000090D066002400000090001000E0B2
:1004E000FFCF07000000FF4000BF00BF00BF00BFFC
:1004F00072B64FF0E0205FF82810C0F8081D5FF8D2
:100500002C005FF82C10096801605FF8300001686A
:1005100041F0010101604FF0E0205FF83C104161C3
:100520004FF0070101614FF00001C0F8181D4FF0B6
:100530007F41C0F81C1D5FF85410C0F8201D7047A3
:10054000FFF7FEBFFFF7FEBFFFF7FEBF01B5BDE837
:100550000140704701B500F093F8BDE801407047D5
:10056000FFF7FEBFFFF7FEBF000000000000000025
:100570004FF000002A4A1060EFF3148020F00400CE
:1005800080F3148862B64FF080504FF0E021C1F83C
:10059000040DBFF34F8FBFF36F8FFEE72148224A50
:1005A0004FF00003016891B10360EFF3098C2CE96F
:1005B000F00F1EF0100F01D12CED108A1B4C4CF8DF
:1005C00004ED2568C1F808C00DB18D61236072B6D5
:1005D0001168B1B1016062B64F68154C8D6907F1C1
:1005E00001074F602560D1F808C05CF804EB1EF0ED
:1005F000100F01D1BCEC108ABCE8F00F8CF3098815
:10060000704772B61168016009B962B6F9E74FF038
:1006100000674FF0E028C8F8047D62B6DCE7704759
:10062000E8020024D0020024D4020024F8020024AE
:10063000F80200240000000000000000000000009C
:10064000026922F00702A2F144026FF00203136074
:100650004FF0000353609360D36013615361936163
:10066000D361136253629362D362136353634FF097
:10067000FF339363D1634FF08073136482607047DC
:100680002249086800F101000860214B1A683AB15C
:10069000A2F101021A601AB91E4B4FF00100186056
:1006A0001D490868026822B11C4B4FF001021A6014
:1006B00008E000F104001A4B1A68904201D1194B6E
:1006C00018680860184B1A6812B918490868D0B140
:1006D0002DE901401649086808B10EF02DFF154BB1
:1006E0001A6872B10EF094FE1348016849B91348B4
:1006F0000168134A136813484FF08052994200D0A2
:100700000260BDE80140BFF34F8F7047F402002440
:10071000F8020024FC0200240C030024000300243F
:100720001003002408030024FC020024000300241A
:1007300000030024FC020024E8020024D00200246C
:10074000D402002404ED00E053EA020C00F06980BA
:100750002DE9F04B4FF00006002B1FBFB3FA83F5D5
:1007600003FA05F424FA05F65E4012BF1643B2FA06
:1007700082F502FA05F4C5F120051EBF22FA05FC38
:1007800044EA0C04203556EA044C4FEA144418BFDE
:10079000641C4FF000084FF00009904271EB030C0D
:1007A00039D3002919BFB1FA81F701FA07F6B0FA77
:1007B00080F700FA07F6C7F120071EBF20FA07FCF2
:1007C00046EA0C062037B6FBF4FCA7EB0507103F02
:1007D00007F01F0BCBF120062CFA06F60CFA0BFBE8
:1007E00044BFB3460026202FA4BF5E464FF0000B47
:1007F0005BEA060C08BF4FF0010B19EB0B0948EB45
:100800000608ABFB027C06FB02CC0BFB03CCC01B37
:1008100071EB0C01C1E70B46024641464846BDE874
:10082000F08B13B5084318BF4FF0FF300146AFF30C
:100830000080BDE81C4070477CB51D4616460C0084
:10084000009001D02044401E074B7B442A46694655
:100850000190304600F029FA05461CB10020694697
:1008600000F036FA28467CBD8D0400000FB47CB53C
:100870000C0009AA009001D02044401E084B7B4484
:1008800069460190089800F010FA05461CB1002056
:10089000694600F01DFA28467CBC5DF814FB000098
:1008A0005904000070B50C460546012A05D0287889
:1008B000800600D5EA69002302E0012305E05B1C05
:1008C000934202D2E05C0028F9D1A869E618C01A68
:1008D000A861286A18442862284600F057F904E005
:1008E000D5E9012114F8010B9047B442F8D328460A
:1008F00000F062F970BD00002DE9F05F8946044602
:100900004FF0000ADFF874B1FB44C0F820A0204685
:10091000E1688847002874D0252806D0D4E9012151
:100920009047206A401C2062F1E700265F4620467F
:10093000E16888472028054607DB312D05D2781964
:1009400010F8200C08B10643F1E7B00701D526F0F6
:100950000406C4F81CA00027C4F818A02A2D09D04A
:10096000284610F014F838B304EB8708303DC8F877
:10097000185019E059F8041B204604EB87029161D6
:10098000E1688847012F054618D1E069002820DA80
:1009900026F020061DE0D8F8180000EB800005EBDB
:1009A00040003038C8F818002046E16888470546FE
:1009B0000FF0EDFF0028EED1012F0AD02E2D08D127
:1009C0002046E16888477F1C0546022F46F0200636
:1009D000C4DBA069002803DA404246F00106A061AA
:1009E000F00701D026F010066C2D0BD0682D09D031
:1009F0004C2D39D06A2D35D0742D35D07A2D33D089
:100A000016E038E0E1682F4620468847B8420546A0
:100A100009D16C2F26D04FF48060E1680643204650
:100A20008847054604E06C2F1AD04FF480700643C7
:100A30000DB3A5F14100192802D8203546F400660F
:100A40004A462946204626604E46FFF797FC80B16D
:100A500001280BD0F61D26F0070000F1080956E723
:100A60004020E4E78020D8E70020D6E706F104091B
:100A70004DE7284652E7206ABDE8F09F0A010100D1
:100A800010B5203AC0F00B80B1E81850A0E818501B
:100A9000B1E81850A0E81850203ABFF4F5AF5FEA6B
:100AA000027C24BFB1E81850A0E8185044BF18C910
:100AB00018C0BDE810405FEA827C24BF51F8043BB7
:100AC00040F8043B08BF7047D20728BF31F8023B0B
:100AD00048BF11F8012B28BF20F8023B48BF00F89F
:100AE000012B704702F0FF0343EA032242EA02426D
:100AF00000F002B84FF000020429C0F0128010F09C
:100B0000030C00F01B80CCF1040CBCF1020F18BFE9
:100B100000F8012BA8BF20F8022BA1EB0C0100F07C
:100B20000DB85FEAC17C24BF00F8012B00F8012B4F
:100B300048BF00F8012B70474FF0000200B5134684
:100B400094469646203922BFA0E80C50A0E80C50ED
:100B5000B1F12001BFF4F7AF090728BFA0E80C509E
:100B600048BF0CC05DF804EB890028BF40F8042B97
:100B700008BF704748BF20F8022B11F0804F18BF04
:100B800000F8012B704770477047704770B50446F6
:100B900085690068C10601D5302600E02026C0071F
:100BA00007D070BDD4E9012130469047206A401C2F
:100BB00020626D1EF6D570BD70B50446856900785B
:100BC000C00707D170BDD4E9012120209047206AD9
:100BD000401C20626D1EF6D570BD09684A0501D51E
:100BE00040B27047C905FCD500B2704709684A0594
:100BF00001D5C0B27047C905FCD580B2704700006E
:100C00002DE9F0410646002410687529314616A5E5
:100C100010D0FFF7E2FF002802DA404213A507E0F8
:100C200031688A0701D512A502E0490704D511A54C
:100C3000012401E0FFF7DAFF00210A2206F1240770
:100C400009E0B0FBF2FCB0FBF2F302FB1C00303019
:100C500078541846491C0028F3D123462A463046CA
:100C6000BDE8F04100F0C1B9000000002D00000017
:100C70002B0000002000000011680268006A530584
:100C800001D508700AE0D30501D5088006E01306F7
:100C900003D5C217C1E9000200E0086001207047D7
:100CA00001694A1C02610878704700B58FB0CDE930
:100CB00001310021059105497944CDE90310114620
:100CC0006846FFF719FE0FB000BD0000E5FFFFFF0B
:100CD0000A6802F8010B0A607047D1E900239A42C2
:100CE00002D2531C0B601070704710B5436913B1EA
:100CF000AFF3008001E0FFF7D5FD012010BD1278B1
:100D000000F124010A7000224A700122EDE7116807
:100D10004FF0FF32E9E700002DE9FF5F15468A46F4
:100D20000446DFF8AC80F8440027D8E900103E46BE
:100D3000CDE9001010E03AF816106A4602A800F05B
:100D40004FFD411C07D02178890603D5E269391887
:100D500091420DD80744761C2078800602D5E069C0
:100D6000B84205DDAE42E6DB3AF816000028E2D1D3
:100D7000A069C01BA0612046FFF708FFD8E900105A
:100D8000CDE90010002017E03AF818106A4602A8D2
:100D900000F026FDB0F1FF3F81460BD000250DF19C
:100DA000080B05E0D4E901211BF8050090476D1CF4
:100DB0004D45F7D308F10100B0428046E4DB206ADC
:100DC000384420622046FFF7F7FEBDE8FF9F000091
:100DD000FEFC00002DE9F0418046D21D22F0070202
:100DE0000025D2E90002F52915A614D0011E72F1E2
:100DF000000106DA0023D0EB030063EB020211A628
:100E000008E0D8F800108B0701D50FA602E04907CB
:100E100001D50EA601251146002408F1240704E09F
:100E200000F09EF830323A55641C50EA0102F7D1C6
:100E30002B46324621464046BDE8F04100F0D5B889
:100E4000000000002D0000002B000000200000002A
:100E500030B4002100F1240408E002F00705D208B4
:100E6000303542EA4372DB086554491C52EA0305F7
:100E7000F3D10468002310A2250708D504F020044C
:100E80000C4304D0C46901230CA2641EC46130BCAD
:100E900000F0ABB810B5044621461068FFF7A6FE77
:100EA00002462046BDE810400023D1E7D21D22F0C3
:100EB0000701D1E90023CBE700000000300000006B
:100EC000F0B40D460188090502D5214C7C4402E0AE
:100ED0001F4C7C440E34002100F1240608E002F08F
:100EE0000F071209E75D42EA03721B097754491C98
:100EF00052EA0307F3D102780023120704D5702DBC
:100F000006D009B1022311342246F0BC00F06DB8BE
:100F100001231034F8E770B504460D4621461068E9
:100F2000FFF764FE024629462046BDE870400023D4
:100F3000C6E7D21D22F00703D3E90023C0E7036808
:100F4000126843F0200303600823C3610023B7E75E
:100F500060FB000001491820ABBEFEE7260002003E
:100F600030B5B0F10A0271F100034FEA900E4EEA7B
:100F7000817EB0EB0E0061EB91014FEA101E4EEA4C
:100F8000017E10EB0E0041EB11114FEA102E4EEADC
:100F9000016E10EB0E0041EB11214FEA104E4EEAAC
:100FA000014E10EB0E0041EB1141401841F10001E0
:100FB0004FEAD00040EA41704FEAD1014FEA810484
:100FC00044EA907410EB800544EB01046D1944EB86
:100FD0000404521BA3414FF0000348BF0A3200D55E
:100FE00030BD401C41F1000130BD2DE9F0470D46F8
:100FF00099469246044600F124080168880604D503
:10100000E06921F01001216000E00120A84201DD2B
:10101000471B00E00027A1697A1902EB0900081AB2
:10102000A0612078C00602D42046FFF7AFFD00265D
:1010300008E0D4E901211AF806009047206A401C14
:10104000761C20624E45F4DB2078C0060AD5204687
:10105000FFF79CFD06E0D4E9012130209047206A8B
:10106000401C2062381EA7F10107F4DC07E0D4E938
:10107000012118F805009047206A401C2062281EB4
:10108000A5F10105F3DC2046FFF796FD2078000668
:1010900002D50220BDE8F0870120FBE72DE9FF4FD4
:1010A0000C461E464FF0FF378BB0D2E90001DDF849
:1010B00060800A908A46C1F30A5505B93D46002171
:1010C00008464FF00000BAF1000F00F4400005DAC6
:1010D00000EB80004FF4400101EA50004FEA9059C4
:1010E000B9F1010F00DDB9460A9850EA4A000ED066
:1010F00044F61050A5F2FF3545432F14B8F1000F08
:101100001ED07542291E1EDDC9F100021CE0B8F197
:10111000010F4FF0000001D0302103E0F24305E061
:101120002154401CB042FBDB3046002200212154F8
:101130000B99C1F80880C1E900200FB0BDE8F08F1D
:10114000BD1B6D1CDEE74A4600DA694206A800F0C6
:10115000DDFB06AB93E8070003AB83E807005046CE
:101160000A990FF02FF88DE80700A0F500501F38FE
:1011700000900398002D0ADD42F21F014A46084400
:10118000002303A9039068460FF098FA09E0A0F540
:1011900000504A461F38002303A9039068460FF009
:1011A000A2FA8DE807000004000C03D04FF0FF30D6
:1011B000410800E01046B8F1000F03D00022009271
:1011C00015461EE0751E05D4FFF7CAFE3032625583
:1011D0006D1EF9D5B3460122084302D000227F1CC0
:1011E00004E02078302801D100227F1E002A0997D0
:1011F00084D01DE0112D07DAFFF7B2FE30326255C0
:101200006D1C50EA0102F5D1084302D00098C8B124
:101210000EE00021681E05E0235C625C63542254EA
:10122000401E491C8142F7DBAB46A81B401E0990BB
:10123000002004F80B000B98099AC0F80880C0E958
:10124000002B7AE711264FF0000857E72DE9F04F01
:1012500088460446D21D22F0070191B0D1E9000171
:10126000CDE90A010FF07BFB02460B98C00F01D0BD
:101270002D2007E02068810701D52B2002E02021E6
:1012800001EAC000032A099001D0072A05DB0346C2
:101290004146204600F0FAFA0BE12078800601D59D
:1012A000E06900E00620B8F1650F814606D0B8F18C
:1012B000660F18D0B8F1670F70D131E00020B9F196
:1012C000110F009001DB112301E009F101030AAACB
:1012D00001A90CA8FFF7E2FEDDE90C70002609F178
:1012E0000105834647E001204B4600904FF0004740
:1012F0000AAA01A90CA8FFF7D1FEDDE90DB00C99EF
:101300005D46002610B909F101000D18B9EB050082
:1013100003D4C0F1FF3609F10105A5EB09002BE06C
:10132000B9F1010F01DA4FF001090020B9F1110FF5
:101330000090484601DD112300E003460AAA01A9F6
:101340000CA8FFF7ABFEDDE90C704D460026834686
:10135000207800070AD4AB4500DA5D4601A8012DCC
:1013600004DD411911F8011C302907D04F4502DA7C
:1013700017F1040F04DA012082460FE06D1EEEE73C
:10138000002F02DCED1B3E4403E0781CA84200DD88
:101390007D1CB81B00F1010A4FF0004720780007C0
:1013A00003D4AA4501DB4FF0FF3A0021B7F1004F0B
:1013B0000DF143088DF8431024D002202B23002F79
:1013C00001DA7F422D230A21021EA0F1010000DC78
:1013D0005FB197FBF1FC97FBF1F201FB1C7C174618
:1013E0000CF1300C08F801CDEEE7A8F10100037014
:1013F0002188090501D5452100E06521A0F10108FA
:1014000000F8011C09980FA9A1EB0807FF1D00B106
:101410000120411901EBEA70A1693844081A401E05
:10142000A0612078C00602D42046FFF7AFFB0998E0
:1014300028B1D4E901219047206A401C206220781D
:10144000C00622D52046FFF7A1FB1EE0002E04DBDC
:10145000B34502DD01A8805D00E03020D4E9012120
:101460009047206A401C2062761CAAF101005FEAC6
:10147000000A0AD100F006FAC0680168405CD4E9AD
:1014800001219047206A401C2062281EA5F1010519
:10149000DCDC07E0D4E9012118F8010B9047206A51
:1014A000401C2062381EA7F10107F3DC2046FFF73D
:1014B00083FB032011B041E62DE9F04F04460D46B1
:1014C000D21D22F0070089B0D0E90097484639467E
:1014D0000FF045FA0246F80F01D02D2307E02068EF
:1014E000810701D52B2302E0202101EAC0038DF8FA
:1014F00020300BB1012000E00020032A824601D0F9
:10150000072A04DB2946204600F0C0F93FE1207895
:10151000800601D40D2500E0E569C7F30A560D2DBC
:1015200049DA00214FEA175B08464FF00000002F10
:1015300000F4400007DA00EB80004FF4400100EBBC
:10154000D07001EA60008115012901DD4FF0FF3103
:1015500000224FEA850CBCF1180F06D31346ACF1FC
:1015600018004FF08052C24003E04FF4801323FA7A
:101570000CF30CF10C0CBCF1200F04D3ACF1200CDB
:1015800009FA0CF001E007FA0CF000294FF00048CE
:1015900001DD18B90FE00ED140450CD319EB02095B
:1015A0005F4121B9404502D19F4329EA0209BBEBC3
:1015B000175F00D0761C2088000502D57B48784450
:1015C00002E07A487844193808AA302302F80A3031
:1015D000037C0AF10101002E0AF1020A53546A4603
:1015E00002DC4FF0300101E04FF031014FF0010813
:1015F0008DF8001002D0A6F2FF3603E059EA470149
:1016000000D06B4E002D02DC2178090704D54FF085
:1016100002082E218DF80110C44600210BE0C7F30B
:1016200003433F01C35C491C6D1E02F808300529C5
:1016300008F1010801DA002DF1DC00210CE000EBDB
:101640001973491C1B786D1E082902F808304FEAEF
:10165000091908F1010801DA002DF0DC21688B0678
:1016600002D516E0A8F10108E04505DD02EB08030C
:1016700013F8013C302BF5D0B8F1000F09DD02EB77
:10168000080313F8013C2E2B03D1090701D4A8F15C
:101690000108002D05DD3E2102F808106D1E08F13D
:1016A0000108407C002E02F8080008F1010804DA65
:1016B0002D20764202F8080002E02B2002F80800F4
:1016C0000A214FF47A70864208F101080BDB96FB81
:1016D000F0F3303302F8083096FBF0F308F101081C
:1016E00000FB136601E0642E0CDB642096FBF0F334
:1016F000303302F8083096FBF0F308F1010800FBE4
:10170000136601E00A2E06DB96FBF1F0303002F89A
:10171000080008F1010896FBF1F001FB1060303081
:1017200002F80800A16908F1010808EB050202EBC4
:101730000A00081AA0612078C00602D42046FFF7EC
:1017400025FA216A08AE01EB0A00206204E0D4E920
:10175000012116F8010B9047BAF1010AF7D220785F
:10176000C00602D52046FFF711FA6E4609E016F8CA
:10177000010B3E280FD0D4E901219047206A401C7C
:101780002062B8F10108F2D22046FFF715FA09B03D
:101790000320BDE8F08F206A2844206203E0D4E9EA
:1017A0000121302090476D1EEBD3F8E7A9F400002B
:1017B00002FCFFFF10B5436913B1AFF3008001E0F5
:1017C000FFF7AAFA012010BD128800F124018284DB
:1017D0000022C2840122EDE711684FF0FF32E9E7F1
:1017E0002DE9F04116460C46054600F043F8036823
:1017F00093F80101012807D0FF2C12D8185D80B1A1
:1018000001202C70BDE8F081D3F807013246214653
:1018100003F20713C7182846BC46BDE8F041002371
:1018200060474FF0FF30EDE77047754600F0EAF88B
:10183000AE4605006946534620F00700854618B0BD
:1018400020B5FEF72FFEBDE820404FF000064FF018
:1018500000074FF000084FF0000BAC46ACE8C009A1
:10186000ACE8C009ACE8C009ACE8C00921F0070148
:101870008D46704710B500F005F8001D10BD00BF83
:1018800049F1000000487047B80100242DE9F041FB
:101890001F46044603260168072A01F4006004DBA2
:1018A00008B116A505E016A503E008B115A500E0EE
:1018B00015A521F010002060A069C01EA0610FB125
:1018C000401EA0612046FFF761F94FB1D4E9012124
:1018D00038469047206A401C2062C01C206206E007
:1018E000206AFAE7D4E9012115F8010B9047761E2A
:1018F000F8D22046FFF760F9BDE8F0814E414E0076
:101900006E616E00494E4600696E66002DE9F04733
:10191000814616468AB0354878440DC88DE80D00DA
:1019200032487844801C03AC0DC884E80D0041F6B1
:101930009B300844372190FBF1F290FBF1F5A5F1C3
:10194000800501FB12041B3C02D56442012000E02B
:101950000020DFF898A080460027FA44AAF1BE0ACA
:101960000EE0E0070AD03246684607EB4701012344
:101970000AEB81010EF0B7FE8DE8070064107F1CB2
:10198000002CEED1194F7F44AE3F19E0E80715D087
:1019900007EB04100DF1180A90E80E008AE80E001B
:1019A000C068F04201D1981908903246012306A977
:1019B00003A80EF098FE03AB83E807006D10641CCB
:1019C000002DE3D14FF0010332466946B8F1000F14
:1019D00003A802D00EF072FE01E00EF084FEC9E909
:1019E0000001C9F808200AB0BDE8F087E0F1000066
:1019F00010B50446AFF300802046BDE81040FEF766
:101A000022BD00000048704798010024000000003B
:101A100030B44FF0013C50F8042BCCFA52F451F89A
:101A2000043BD51A20D1FCB950F8042BCCFA52F45F
:101A300051F8043BD51A17D1B4B950F8042BCCFA9D
:101A400052F451F8043BD51A0ED16CB950F8042B5E
:101A5000CCFA52F451F8043BD51A05D1002CDAD057
:101A600030BC4FF00000704729BAB1FA81F111F093
:101A70001801D1F120008440F2D1CA40CB4012F0CD
:101A8000FF0213F0FF0330BCD01A704700000000C3
:101A900084B041F6306441F6EC50C9F20104C9F259
:101AA0000100A0424FF00000039008D241F6EC552F
:101AB000C9F2010555F8040B8047A542FAD340F658
:101AC00064420020C9F2010200210EF043FF46F6F5
:101AD00074700121C2F2004021A201700020002197
:101AE0000EF038FF40F20C0445F2B040C2F2004460
:101AF000C2F2004004F148010AF072F843F20040DB
:101B00002146C2F200400AF06BF842F2503004F174
:101B10002401C2F200400AF063F846F6286603ACDE
:101B2000C2F2004611A513E0039AF26196F8243040
:101B300096F8250096F82610CDE900010220042130
:101B400002922A460EF006FF42F210700AF064F884
:101B5000204600F079FC0028E6D0F269E6E700BFF5
:101B6000496E6974204F6B0D0A0000005B2530320E
:101B7000643A253032643A253032645D09436F722D
:101B80006554656D7065723A256C640949646C65CD
:101B90000D0A000000000000B0B582B040F27020D5
:101BA0000021C2F2004040F8041B40F2DC01C2F206
:101BB000004109F0FDFF18B11BA046210BF018F9F8
:101BC00040F28805C2F20045E868804778B11DA45C
:101BD000142003F0F9FFE86880470346022005213E
:101BE00022460EF0B7FEE86880470028F0D1542066
:101BF00068219622182319A4009401F0CDFD68698C
:101C000080470A200A214FF4C872202315A40094AB
:101C100001F0C2FD6869804718A20020002102B0CF
:101C2000BDE8B0400EF096BE2E2E2F2E2E2F2E2E5B
:101C30002F4170702F4170706C69636174696F6EB1
:101C40002E63000069735472616E736D69747469F8
:101C50006E67203D2025580D0A0000004C6364206B
:101C60004F6E000053746172742064657465637410
:101C7000696E67205553422E2E2E00004170702051
:101C8000496E6974204F6B0D0A00000000000000CF
:101C900080B588B045F2605041F69122C2F2004012
:101CA00000904FF48050019010200BA1CDE902006C
:101CB000002004900120059046F26050C9F2000215
:101CC000C2F2004000234FF0B00CCDF818C00EF067
:101CD00043F8002008B080BD417070207072696EBA
:101CE000746600000000000080B547F6C45047F657
:101CF0000001C2F20040C4F20001082201604FF46A
:101D0000E13141600021C0E902110161C0E9052112
:101D1000C0E90711C0E9091104F096F930B140F6A5
:101D2000EC607021C9F201000BF062F847F6C45074
:101D30000021C2F2004007F017FF30B140F6EC601E
:101D40007421C9F201000BF053F847F6C45000218A
:101D5000C2F2004007F0C0FE30B140F6EC607821DE
:101D6000C9F201000BF044F847F6C450C2F200403B
:101D700007F08EFE002808BF80BD40F6EC607C2195
:101D8000C9F20100BDE880400BF032B8000000004D
:101D900000EE100A47F69C409FED071BC2F2004080
:101DA000B8EE400B006820EE010BBCEEC00B80EDDE
:101DB0000D0A704700BF00BF66666666666604402F
:101DC00010B5A2B002A8342100242194CDE91F440B
:101DD000CDE91D44CDE91B44CDE91944CDE91744B3
:101DE000CDE91544CDE91344CDE91144CDE90F44C3
:101DF000FEF7A2FE47F69C4044F20001C2F200400A
:101E0000C4F20101016040F2FF11C0E90114FF2199
:101E1000C0E9031444618021816107F029F938B1D8
:101E200040F6EC604FF4A971C9F201000AF0E0FF3E
:101E30004FF48050199047F69C4019A9C2F2004017
:101E400007F0C6F938B140F6EC6040F25711C9F21C
:101E500001000AF0CDFF47F69C40C2F2004007F0B7
:101E6000CFFD38B140F6EC6040F25B11C9F20100E1
:101E70000AF0BEFF47F69C4016A9C2F200400024BB
:101E80001694189406F0F0FF38B140F6EC6040F27A
:101E90006111C9F201000AF0ABFF60200FA9CDE982
:101EA0000F0447F69C400022C2F20040CDE91144E5
:101EB000CDE91344159407F04FFB38B140F6EC60C0
:101EC0004FF4B671C9F201000AF092FF00240694A3
:101ED000CDE90444CDE902444FF4005002A9CDE914
:101EE000070447F69C400E94C2F2004006F060FFE3
:101EF00038B140F6EC604FF4BC71C9F201000AF051
:101F000077FF44F2E040C5F60200016841F010019D
:101F1000016000681DA900F01000019001981020D8
:101F20001D900220CDE91E04032020900420219062
:101F300041F20000C5F6020003F06AFF47F69C403C
:101F40000021C2F2004006F0FFFF22B010BD0000E9
:101F5000F0B587B044F2E0400025C5F602000695D2
:101F600041F6000401220168C5F6020441F0400177
:101F7000016000684FF4007100F04000019001988A
:101F800020464FF40076012704F036F802A92046D7
:101F9000CDE90267CDE9047503F03AFF07B0F0BD63
:101FA0002DE9F04F85B044F2E04040F20048C5F61C
:101FB0000200C5F602086D464FF0020901684FF0B5
:101FC000000A41F0100101600168032401F01001D2
:101FD00000910099016841F00101016001684FF032
:101FE0000E0B01F0010100910099016841F002011E
:101FF0000160016801F0020100910099016841F05F
:1020000040010160016801F0400100910099016800
:1020100041F004010160016801F0040100910099A0
:10202000016841F0080101600068294600F00800DD
:102030000090009842F26000009008F54060CDF8F2
:102040000490CDF808A00394CDF810B003F0E0FEA2
:1020500040F2762029468DE80106A8F58060CDE99A
:10206000034B03F0D5FE012029468DE80106092027
:1020700004904046039403F0CBFE4FF47060294671
:102080008DE801064046CDE9034B03F0C1FE46F65C
:10209000C00008F5A0568DE8010630462946CDE976
:1020A000034B03F0B5FE4FF4C65008F580678DE88A
:1020B000010638462946CDE9034B03F0A9FE4FF44B
:1020C000806029468DE801060A2004903846039472
:1020D00003F09EFE482029468DE8010608F50060C1
:1020E000CDE9034B03F094FE4FF4806029468DE860
:1020F0000106092004903046039403F089FE202055
:1021000029468DE801064046CDE9034403F080FEF0
:1021100058200021002204F003FD582004F0F0FCB8
:1021200059200021002204F0FBFC592004F0E8FCB7
:1021300005B0BDE8F08F000080B588B047F6684074
:1021400044F24011C2F20040C5F2002104220160B5
:102150000021C0E90111C2601022026140224261E7
:102160004FF48072C0E906214FF4006101624FF420
:10217000805141624FF40051816202210522CDE974
:1021800001110392062204920322CDE90521079151
:1021900001A906F0F5FC38B140F6EC6040F2A72149
:1021A000C9F201000AF024FE08B080BD0000000062
:1021B0002DE9F04786B047F6503045F60041C2F2AF
:1021C00000404CF2DF42C4F20001C2F2A002C0E9BA
:1021D0000012702181600121C1600021C0E9041159
:1021E000C0E90611016203F0E3FF38B140F6EC608C
:1021F0004FF4EF71C9F201000AF0FAFD47F65030D2
:102200000021C2F2004003F087FF38B140F6EC60D5
:1022100040F2E311C9F201000AF0EAFD47F650303E
:102220000021C2F200404FF0000803F09DFF38B1DA
:1022300040F6EC604FF4F471C9F201000AF0D8FDE9
:1022400044F2E0400025C5F60200C5F60205CDE9DE
:1022500004880168012241F00401016001684FF423
:10226000806901F0040100910099016841F00101C9
:10227000016000684FF4806100F001000090009858
:102280002846012703F0B8FE05F54064202101220D
:1022900020464FF0200A03F0AFFE01AE4FF48070ED
:1022A00001904FF40410CDE9020805F500603146B5
:1022B00003F0AEFD28463146CDE90197CDE903781C
:1022C00003F0A6FD20463146CDE901A7CDE903780C
:1022D00003F09EFD17200621002204F021FC1720A8
:1022E00004F00EFC06B0BDE8F0870000000000001E
:1022F000B0B547F6345441F60045C2F20044C4F28A
:1023000001052046256007F0E3FD25604FF4E1302C
:1023100060600020C4E9020020610C21C4E90510BE
:10232000C4E90700C4E90900204608F065F938B19E
:1023300040F6EC6040F26621C9F201000AF058FD57
:1023400047F634500021C2F2004007F00DFC38B1CE
:1023500040F6EC6040F26A21C9F201000AF048FD43
:1023600047F634500021C2F2004007F0B5FB38B107
:1023700040F6EC6040F26E21C9F201000AF038FD2F
:1023800047F63450C2F2004007F082FB002808BF35
:10239000B0BD40F6EC6040F27221C9F20100BDE828
:1023A000B0400AF025BD0000FFF7A2BF000000000A
:1023B00080B540F2F81044F60041C2F20040C5F684
:1023C000020140F8481F00218180C0E90511012168
:1023D000016201F095FA08B100F05EFC40F6E352AC
:1023E0000020C9F201020021BDE880400EF0B2BA1F
:1023F00080B540F2F81046F60001C2F20040C5F682
:1024000000014FF4702240F8241F0021C0E901119F
:10241000C160C0E90421C0E9061103F00DFB38B129
:1024200040F60D604FF48571C9F201000AF0E0FC3E
:1024300040F6FF520020C9F201020021BDE88040B1
:102440000EF088BA00000000B0B5054640F2F81062
:10245000C2F2004000F12404204603F05DFB38B1D5
:1024600040F60D604FF49571C9F201000AF0C0FC0E
:102470002046294603F098FA38B140F60D604FF433
:102480009771C9F201000AF0B3FC204603F07CFB0F
:1024900038B140F60D604FF49971C9F201000AF0AD
:1024A000A7FC0020B0BD000040F2F810C2F20040CE
:1024B00004F0A6B80000000080B5014640F2F81014
:1024C000C2F20040103005F04FFF38B140F60D6009
:1024D00040F26F11C9F201000AF08AFC002080BDB1
:1024E00080B540F2F81041F60001C2F20040C4F697
:1024F000020140F8101F0021416005F08DFF38B146
:1025000040F60D604FF4A471C9F201000AF070FCAE
:1025100040F6F1520020C9F201020021BDE88040DE
:102520000EF018BA00000000F0B587B047F644403E
:1025300044F20001C2F20040C5F600017F220160B2
:10254000002141608260F922C0E90321C0E9051140
:10255000C16106F009F930B140F60D607621C9F28B
:1025600001000AF045FC47F644440021C2F2004451
:102570000422204605F0ECFF30B140F60D607C21CE
:10258000C9F201000AF034FC46F628602268C2F263
:10259000004090F82610838C006AD76843EA014512
:1025A00067F4906121F48061D160010A8DF81B000D
:1025B000000C8DF819108DF81A0001208DF8180004
:1025C00006A9002220462E0A002706F06DF930B138
:1025D00040F60D609C21C9F201000AF009FC47F6A3
:1025E000444001A9C2F2004000228DF804508DF849
:1025F00005608DF806700297CDE9047706F004FABD
:1026000030B140F60D60AD21C9F201000AF0F0FBD7
:1026100003A2002000210EF09DF907B0F0BD00BF1D
:1026200052544320496E6974204F6B0D0A0000001C
:1026300040F688305221C9F201000AF0D9FB00BFF0
:10264000FEE70000000000002DE9F04F87B04EF6D5
:1026500060750026CEF20005039604F00DFA012005
:10266000ADF80C004FF040400490162003ACC0F2CF
:10267000003005904FF001100690204604F0CCF990
:1026800040F20110ADF80C004FF0105004901220F1
:10269000C0F2013005900120C0F2011006902046E2
:1026A00004F0BAF902208DF80D004FF0405004906C
:1026B0000F208DF81400204604F0AEF903208DF8A9
:1026C0000D004FF01040049017208DF814000420E6
:1026D00004F0E2F94FF6B451CFF6FF716858800369
:1026E00005D56858C00317D507B0BDE8F08FBFF314
:1026F0004F8FBFF36F8F45F8106CBFF34F8FBFF351
:102700006F8F685840F400306850BFF34F8FBFF3AD
:102710006F8F6858C003E7D44FF624600021CFF6CE
:10272000FF70012343F6E07B29504FF62060CFF67F
:10273000FF70BFF34F8F2858C208C0F3C907C0F31A
:102740004E317C1E03EBD000A7F1020A930700F084
:1027500003064FEA847E4FEA8A700290F81E0190C9
:1027600004E000BF0029A1F1010129D00BEA4110CA
:102770003A467EB1012E43EA00022A60224609D081
:10278000022E4EEA00022A60524603D0029A024309
:102790002A60019A032FE5D340EA8270013200F1EA
:1027A000404C80F0004800F1804900BF043A2860A6
:1027B000C5F800C0C5F80080C5F80090F6D1D1E793
:1027C0004FF6B451CFF6FF71BFF34F8F685840F406
:1027D00080306850BFF34F8FBFF36F8F07B0BDE8F5
:1027E000F08F00000000000047F6D820C2F2004041
:1027F00001F0EABF0000000047F67020C2F200407E
:1028000001F042B90000000040F20F42D0F800C0D1
:10281000C4F20202944510DC6F22C4F20202944515
:1028200020DC3F22C4F20202944536DC1022C4F2BE
:102830000202944554D028224EE040F26F42C4F286
:10284000020294451ADC40F23F42C4F2020294456F
:102850002ADC40F21042C4F20202944540D040F219
:10286000284239E09F22C4F20202944525DC7022FE
:10287000C4F20202944533D088222DE040F29F42F8
:10288000C4F2020294451FDC40F27042C4F202021C
:10289000944525D040F288421EE04022C4F2020254
:1028A00094451DD0582217E040F24042C4F2020283
:1028B000944515D040F258420EE0A022C4F2020224
:1028C00094450DD0B82207E040F2B842C4F20202AB
:1028D000944505D040F2A042C4F2020294451BD1B7
:1028E0006FF00F024AF6AB2352FA8CF2CAF6AA2313
:1028F000A2FB033140F67033C9F201035F2AC1F332
:1029000002115B5C40F2FF312CEA0101C36588BF14
:1029100004318165084670472CF0FF018165084647
:10292000704700000000000070B540F26F44D0F81E
:1029300000C0C4F20204D0F858E0A44519DC9F2579
:10294000C4F20205AC4531DC5725C4F20205AC45A2
:1029500056DC1025C4F20205AC4500F09280282513
:10296000C4F20205AC4500F08C804025C4F202059B
:1029700084E045F22F45C5F60205AC452BDC40F25C
:10298000B745C4F20205AC4548DC40F27045C4F2DC
:102990000205AC4575D040F28845C4F20205AC454D
:1029A0006FD040F2A045C4F2020567E040F227452F
:1029B000C4F20205AC4540DCA025C4F20205AC45DA
:1029C0005FD0B825C4F20205AC455AD040F210459C
:1029D000C4F2020552E045F26B45C5F60205AC456E
:1029E0003CDC45F23045C5F60205AC4549D045F220
:1029F0004445C5F60205AC4543D045F258453BE099
:102A00005825C4F20205AC453BD07025C4F202053E
:102A1000AC4536D08825C4F202052FE040F2B84517
:102A2000C4F20205AC452CD045F20845C5F60205B6
:102A3000AC4526D045F21C451EE040F22845C4F2C4
:102A40000205AC451DD040F24045C4F20205AC453C
:102A500017D040F25845C4F202050FE045F26C452C
:102A6000C5F60205AC450CD045F29445C5F6020505
:102A7000AC4506D045F28045C5F60205AC4540F0B0
:102A8000D180456EC66E002E866E6E601CBFD0E98A
:102A90001C566E60A44515DC9F24C4F20204A445B4
:102AA0002BDC5724C4F20204A4454EDC1024C4F2EB
:102AB0000204A44576D02824C4F20204A44571D0AF
:102AC00040246BE045F22F44C5F60204A44527DC00
:102AD00040F2B744C4F20204A44542DC40F2704420
:102AE000C4F20204A4455DD040F28844C4F202045A
:102AF000A44557D040F2A04450E040F22744C4F22D
:102B00000204A4453CDCA024C4F20204A44549D03C
:102B1000B824C4F20204A44544D040F210443DE07D
:102B200045F26B44C5F60204A44553DC45F230443B
:102B3000C5F60204A4455FD045F24444C5F602043C
:102B4000A44559D045F2584452E05824C4F2020436
:102B5000A44527D07024C4F20204A44522D08824BE
:102B60001CE040F2B844C4F20204A4451AD045F275
:102B70000844C5F60204A4453ED045F21C4437E0A3
:102B800040F22844C4F20204A4450BD040F2404471
:102B9000C4F20204A44505D040F25844C4F2020431
:102BA000A4453FD18468C06D00F01F003F2505FAA1
:102BB00000F0CEF80800DCF80000402C20F4802063
:102BC000CCF80000CCF8043023D0CCF80810CCF8B6
:102BD0000C2070BD45F26C44C5F60204A4450BD030
:102BE00045F28044C5F60204A44505D045F294445C
:102BF000C5F60204A44515D1C46D806804F01F0415
:102C00000125402805FA04F4CEF80440CCF804303D
:102C100004D1CCF80820CCF80C1070BDCCF808100A
:102C2000CCF80C2070BD000040F688306021C9F25D
:102C300001000AF0DDB8000080B5FFF755F846F254
:102C4000146040F2CC01C2F20040C2F2004108F030
:102C500093FF48B140F6A3320020C9F201020221DD
:102C6000BDE880400DF076BE40F6BD320020C9F2CE
:102C700001020021BDE880400DF06CBE00000000A4
:102C800080B54FF4807003F0B7F84FF40070BDE8E2
:102C9000804003F0B1B80000EFF3108072B600BFBF
:102CA000FEE70000000000002DE9F04186B000269C
:102CB0000196FFF741FA47F6684402ADC2F20044BC
:102CC0004FF6FF72204629464FF00108CDF80880E4
:102CD0001027CDE90378059606F03AF8012002F0B6
:102CE00073FF02A902204FF6FF7281E8810120469E
:102CF0002946059606F02CF803204FF6FF72CDE921
:102D0000020708202946CDE90406204606F020F8EF
:102D100002A940F222200190042081E8810101985B
:102D200005904FF6FF722046294606F011F840F252
:102D30001F41204605F0F4FF0A2002F045FF0A205B
:102D400002F042FF03A2002000210DF003FE06B0B6
:102D5000BDE8F08145787452414D20496E69742078
:102D60004F6B0D0A00000000026843689A4201D1CF
:102D7000022070474268D0E9033C134001324260B0
:102D80001CF80300087000207047000000000000DD
:102D900001684068081A70474268C36811440069B6
:102DA0001940405C7047000080B5D0F800C08368CF
:102DB0004268ACEB02029A4202D1426801324260A0
:102DC0000268D0E903EC531C02EA0E020360002003
:102DD0000CF8021080BD000070B50A68002A024697
:102DE00000681CD020F4F84001F1080CD1E9073646
:102DF00018434B6A304301F10C0E1843106052F82F
:102E0000040F47F6FF7320EA03054E6801F1100036
:102E100001F1140301F1180445EA060113E00E1D47
:102E200047F6FF73984301F1140C78CE034301F188
:102E3000180E1C4301F11C00254301F1200301F190
:102E4000240445EA0601DCF80060DEF80050314356
:102E5000006829431B680843246840EA03010020F6
:102E60002143116070BD00000246406943F6FE73C5
:102E700020EA0303002043EA41015161704700004A
:102E800010B5024600696FF315006FF01F04D1E919
:102E900000ECD1E9023140EA0E0004EB431340EAB2
:102EA0000C000343002043EA4121116110BD0000E2
:102EB0002DE9F043002A024652F8083F2ED040F692
:102EC000FF724FF20006CFF60F72CFF6FF761A4070
:102ED000CB684F6906EB03330026CFF6F0761A4332
:102EE00006EB07573A43826050F80C2F8E68D1E901
:102EF00000375D1E6FF00F0303EB071C6FF0FF033D
:102F00000C6903EB062E002302F07042CFF6FF732C
:102F100003EB044345EA0204024624E001F10809F8
:102F200003F07048D1E9003499E861026FF00F07AF
:102F3000013B07EB04146FF0FF0707EB00204FF293
:102F40000007CFF6FF7743EA080307EB053C0027AD
:102F50000025CFF6FF77CFF6F0751C4307EB064E42
:102F6000044305EB0953886944EA0C01471E41EA12
:102F70000E0040EA0301002041EA07611160BDE84C
:102F8000F0830000000000002DE9F04784B0064601
:102F900000208DF80F0047F6503091468A46C2F265
:102FA000004004220123314601250DF10F07CDE930
:102FB00000754FF47A74029403F04AF958B140F660
:102FC0003D6240F66A63C9F20102C9F201030020C2
:102FD0000221532764E046F24A689DF80F00C2F2CE
:102FE0000048032201233146A8F8000047F650307C
:102FF000C2F20040CDE90075029403F029F958B1FE
:1030000040F63D6240F66A63C9F20102C9F201036B
:10301000002002215D2743E09DF80F00B8F8001062
:103020000622012300F00F0001244FF47A7541EAD3
:103030000020A8F80000AAF8000047F65030C2F2BD
:1030400000403146CDE90074029503F001F958B112
:1030500040F63D6240F66A63C9F20102C9F201031B
:103060000020022169271BE09DF80F000522A8F827
:10307000000047F65030C2F2004001233146CDE94E
:103080000074029503F0E4F8D0B140F63D6240F6DA
:103090006A63C9F20102C9F201030020022172270A
:1030A00000970DF057FC40F65A620020C9F2010269
:1030B000012101240DF04EFC204604B0BDE8F0874C
:1030C0009DF80F00B8F80010002200F00F0041EA50
:1030D0000020A8F80000A9F80000BAF80010B1F527
:1030E000806F4FF0000188BF0121B0F5167F88BFC7
:1030F000012241EA0204204604B0BDE8F087000046
:10310000026843689A4201D1022070474268D0F8B1
:103110000CC0531C436002EA0C000860002070479A
:10312000844600284FF0010020D04FF055334FF077
:10313000333203EA5103CB1A02EA930223F0CC3371
:103140001A444FF0013302EB121222F0F0325A43CC
:10315000120E012A18BF7047481ECCF80C00002040
:10316000CCF80810CCF80000CCF804007047000040
:10317000D0F800C083684268ACEB02029A4202D1E8
:103180004268013242600268D0F80CC0531C0360F0
:10319000002002EA0C020A607047000000000000F4
:1031A0002DE9F04F83B08A4603211546A1EB420476
:1031B0004FF0060900264FF000080293019012E03C
:1031C000002C00F1B180A8EB05010A22013D02EBC1
:1031D000810108F101080C44A84509F10409A6F190
:1031E000010600F2A38040F28801AAEB0507C2F2B3
:1031F00000410B6859688F4222D200EB080219681F
:103200008A420DD290B240F2880BB9B2C2F2004BA2
:10321000029ADBF820309847DBF8003001981968F3
:1032200082198A420CD290B240F2880BB9B2C2F233
:10323000004B029ADBF8203098470198DBF8003009
:103240000AEB060B59688B451FD22A1819688A4267
:103250000CD290B240F288071FFA8BF1C2F20047FD
:10326000029A3B6A98473B6801981968421B8A4258
:103270000BD290B240F288071FFA8BF1C2F20047DE
:10328000029A3B6A984701983B6805EB0A07596820
:103290008F4222D200EB080219688A420DD290B206
:1032A00040F2880BB9B2C2F2004B029ADBF8203030
:1032B0009847DBF800300198196882198A420CD2CD
:1032C00090B240F2880BB9B2C2F2004B029ADBF81E
:1032D000203098470198DBF800300AEB080759685E
:1032E0008F42BFF46DAF29181A6891420DD288B28F
:1032F00040F2880BB9B2C2F2004B029ADBF82030E0
:103300009847DBF8001001980A68411B9142BFF40E
:1033100057AF40F28800029AC2F20040036A88B2B6
:10332000B9B2984701984BE7494652E703B0BDE868
:10333000F08F0000000000002DE9F04782B040F25D
:10334000880A9846C2F2004A91460D460A9CDAF86D
:103350000060F77A002F074601D020460FE0C4F343
:10336000C4004FF4FC6101EA54114FF47842084460
:1033700002EA14214418C108600961F304003168AD
:10338000012301394A46A94288BF2946DAF8286054
:10339000009089B23846B047DAF8002005EB080102
:1033A0000139D07A002820460BD1C4F3C4004FF471
:1033B000FC6303EA54134FF47846184406EA1423D6
:1033C00018448BB21268013A9A424FF0010388BF49
:1033D0000A46DAF82860009091B238464A46B0476B
:1033E000DAF80000C07A002820460BD1C4F3C400EC
:1033F0004FF4FC6101EA54114FF47842084402EAA8
:1034000014210844DAF82860012200903846294641
:103410004346B047DAF80000C07A58B9C4F3C40094
:103420004FF4FC6101EA54114FF47842084402EA77
:103430001421441807EB0900DAF82870013801223A
:1034400080B2294643460094B84702B0BDE8F087F1
:103450002DE9F04381B040F288049846C2F200445E
:1034600091460E46089D2768FF7A002F07460BD12C
:10347000C5F3C4004FF4FC6101EA55114FF47842E2
:10348000084402EA15214518E06880470028FBD16E
:10349000A46A384631464A4643460095A04701B0E3
:1034A000BDE8F083000000002DE9F04F81B046F642
:1034B00028640127C2F2004440F2880B8A46054680
:1034C00094F82890C2F2004B4FEAD9035FEA49769C
:1034D000164618BF07EBD9034FEA5907646B5F43E1
:1034E000DBF80C0080470028FAD1380600F04E8146
:1034F0005FFA87F8A6F12000C0B2574600EBC00083
:1035000004EB800494F90060B6F1FF3F0EDD46F64F
:103510002860C2F2004090F8290088B146F6286081
:10352000DBF82030C2F20040026B06E046F628606D
:10353000DBF82030C2F20040C26AA8B2B9B29847A4
:10354000DBF80000791C89B242688A4240F21E8191
:10355000A1EB0A024A4500F00D81F6B270060FD4C5
:1035600046F62860C2F2004090F8290088B146F67D
:103570002860DBF82030C2F20040026B07E000BF99
:1035800046F62860DBF82030C2F20040C26AA8B2DA
:103590009847DBF80000B91C89B242688A4240F2C1
:1035A000F580A1EB0A024A4500F0E480B0060ED493
:1035B00046F62860C2F2004090F8290080B146F635
:1035C0002860DBF82030C2F20040026B06E046F6CD
:1035D0002860DBF82030C2F20040C26AA8B29847E7
:1035E000DBF80000F91C89B242688A4240F2CE80C2
:1035F000A1EB0A024A4500F0BD80F0060ED446F663
:103600002860C2F2004090F8290080B146F6286098
:10361000DBF82030C2F20040026B06E046F628607C
:10362000DBF82030C2F20040C26AA8B29847DBF84B
:103630000000391D89B242688A4240F2A780A1EB9E
:103640000A024A4500F0968030070ED446F62860FC
:10365000C2F2004090F8290080B146F62860DBF8FD
:103660002030C2F20040026B06E046F62860DBF82C
:103670002030C2F20040C26AA8B29847DBF80000CE
:10368000791D89B242688A4240F28080A1EB0A0229
:103690004A456FD070070ED446F62860C2F200404B
:1036A00090F8290080B146F62860DBF82030C2F29D
:1036B0000040026B06E046F62860DBF82030C2F2DC
:1036C0000040C26AA8B29847DBF80000B91D89B271
:1036D00042688A425AD9A1EB0A024A454AD0B00749
:1036E0000ED446F62860C2F2004090F8290080B15E
:1036F00046F62860DBF82030C2F20040026B06E09C
:1037000046F62860DBF82030C2F20040C26AA8B258
:103710009847DBF80000F91D89B242688A4235D922
:10372000A1EB0A024A4525D0F0070ED146F62860E3
:10373000C2F2004090F8290080B146F62860DBF81C
:103740002030C2F20040026B06E046F62860DBF84B
:103750002030C2F20040C26AA8B29847DBF80000ED
:103760000837B9B242688A4210D9A1EB0A0149452B
:1037700006D100BF01350068A9B25746884205D975
:10378000B8F1010804F101047FF4BCAE01B0BDE85A
:10379000F08F0000000000002DE9F04F81B040F2F2
:1037A00088070C46C2F200478046DDF828B03F6823
:1037B000FE7A46F62867C2F2004797F8285000952F
:1037C0001EB19BF80060DEB944E0D7E90B164FF458
:1037D000FC6C4FF47849C1F3C40E0CEA511509EAA8
:1037E000112A7544C6F3C40055440CEA5611FD6213
:1037F000084409EA1621084438639BF800604EB378
:1038000002EB08001919009A0BF101051FFA80FB61
:103810004FEA520A8FB2C146A6F12000C0B25F281B
:1038200002D32A2605F8016C1FFA89F05845009842
:1038300028BF044428BF5FFA88F9A1B2B94209D26F
:103840001FFA89F0F2B2FFF72FFE15F8016BD14491
:10385000002EE1D101B0BDE8F08F000000000000B3
:1038600002F0D2BB0000000080B54FF01B0C0CF141
:10387000030E21FA0EF3DB071ED10CF1020E21FA22
:103880000EF3DB0701BF0CF1010E0EF01F0321FA4E
:1038900003F35FEAC3730FD1BEF1000F0AD00CF03F
:1038A0001F03ACF1040C21FA03F3DB07DFD00CF1AA
:1038B000040E01E04FF0FF3E4FEAF20CBCF1030FA3
:1038C00006D8DFE80CF01102070CBEF10F0F0BD980
:1038D000012080BDBEF1070F06D9012080BDBEF1D9
:1038E000060F01D9012080BD00684161816821F087
:1038F000180111438160002080BD0000000000001D
:1039000010B5C0B10446407F20B900202077204682
:1039100000F036F802206077207970B1D4E9021205
:103920002046FFF7A1FF00281CBF012010BD6079D1
:1039300080B1206910E0012010BD206841F6B75128
:10394000C0F2C1414161816821F018018160607954
:103950000028EED14FF0FF302168D4E9052308613B
:10396000886820F0600010438860886820F080003C
:103970001843886001206077002010BD000000001F
:1039800081B044F2E0410068C5F6020101F5E4624D
:10399000904201D001B07047086840F400200860F0
:1039A000086800F400200090009801B07047000003
:1039B00070470000000000002DE9F04190F8602001
:1039C000012A4FF0020259D0C1EBC103012480F853
:1039D000604000EB830380F8612003F1280CD3E9F9
:1039E0000B42D3E90D85DE6B44EA0242A4F1090ED5
:1039F0004FEA0867BEF1020F42EA055238BF08F0ED
:103A00007F4742EA4652002942EA07011BD00B2CAD
:103A10004FF6F074C0F2CC0404D11A6CA4F5402423
:103A200041EA82410368BEF1010FDA6902EA040249
:103A300041EA0201D961DCF80010196118D828F0B8
:103A40007F41196214E002684FF6F074C0F2CC04B2
:103A5000BEF1010F536A03EA040341EA0301516214
:103A6000DCF80010916103D8416B21F07F41916235
:103A70000022012180F8611080F860201046BDE826
:103A8000F08100000000000070B504460068466840
:103A90000568F10718BF15F480717DD1B0061AD5FD
:103AA00015F4005017D02068616A026822F40052B1
:103AB00002604FF020028260606E40F0020060669B
:103AC0004FF0040084F861004FF0000084F86000BB
:103AD00009B12046884730071AD515F4006017D081
:103AE0002068616A026822F4006202604FF00802F6
:103AF0008260606E40F0040060664FF0040084F85D
:103B000061004FF0000084F8600009B1204688474A
:103B100070070CD515F4806009D02068016821F485
:103B20008061016004218160204600F08DF8B007BB
:103B300018D515F4007015D02068216A026822F4A7
:103B4000007202604FF002028260606E60664FF0A9
:103B5000010084F861004FF0000084F8600009B1B2
:103B600020468847F0062ED515F4805008BF70BD5A
:103B70002068016821F48051016010218160606E2D
:103B80006066012084F86100002084F8600020460F
:103B9000BDE87040FFF70CBF016821F4807101603F
:103BA000616E41F00101616601218160042084F8A9
:103BB0006100616A0020002984F860003FF46EAF64
:103BC000204688476AE770BDD8B310B5044690F820
:103BD000610028B9002084F86000204600F038F821
:103BE000022084F8610094E803404FF6BF72D4F8D5
:103BF0000CC00368CFF6F8721A40E369114340F233
:103C0000071219430160416B9143A26941EA0E0119
:103C100011434163016C4FF6FF72914341EA0C017D
:103C20000164416B226921F44011636941EA025148
:103C300041EA4351416300206066012184F861102C
:103C400010BD012070470000704700000000000018
:103C500080B582B041F200010068C5F200218842BF
:103C60001CBF02B080BD44F2D4400022C5F6020061
:103C7000016841F0100101600068092100F01000A6
:103C8000019001985A2002F04BFF5A2002B0BDE883
:103C9000804002F035BF00002DE9F041044602F0FB
:103CA000B3F904B3054694F8350002281ED140F25A
:103CB0000F472668C4F2020740F26F48BE42C4F2C2
:103CC00002081BDC6F20C4F20200864227DC3F2082
:103CD000C4F2020086423DDC1020C4F2020086429B
:103CE0005CD0282055E00120BDE8F081802060658F
:103CF0000120002184F83410BDE8F08146451ADC2B
:103D000040F23F40C4F2020086422ADC40F21040FA
:103D1000C4F20200864241D040F2284039E09F20A0
:103D2000C4F20200864225DC7020C4F20200864202
:103D300034D088202DE040F29F40C4F20200864239
:103D40001FDC40F27040C4F20200864226D040F2EE
:103D500088401EE04020C4F2020086421ED0582057
:103D600017E040F24040C4F20200864216D040F212
:103D700058400EE0A020C4F2020086420ED0B820C7
:103D800007E040F2B840C4F20200864206D040F29A
:103D9000A040C4F20200864240F08881314630687B
:103DA00020F01E0041F8140B6FF080000A684645B1
:103DB00000EA0200086019DC9F20C4F2020086427B
:103DC00031DC5720C4F20200864256DC1020C4F2D7
:103DD0000200864200F091802820C4F20200864250
:103DE00000F08B804020C4F2020084E045F22F40B6
:103DF000C5F6020086422BDC40F2B740C4F2020056
:103E0000864248DC40F27040C4F20200864274D020
:103E100040F28840C4F2020086426ED040F2A040D8
:103E2000C4F2020067E040F22740C4F2020086427A
:103E300040DCA020C4F2020086425ED0B820C4F26A
:103E40000200864259D040F21040C4F2020052E013
:103E500045F26B40C5F6020086423CDC45F230403C
:103E6000C5F60200864248D045F24440C5F602003D
:103E7000864242D045F258403BE05820C4F202004E
:103E800086423AD07020C4F20200864235D08820A3
:103E9000C4F202002FE040F2B840C4F202008642B1
:103EA0002BD045F20840C5F60200864225D045F2E7
:103EB0001C401EE040F22840C4F2020086421CD0A2
:103EC00040F24040C4F20200864216D040F2584010
:103ED000C4F202000FE045F26C40C5F602008642D3
:103EE0000BD045F29440C5F60200864205D045F25B
:103EF0008040C5F60200864204D1206E016821F49C
:103F000080710160306820F0010030603068C007C7
:103F10000FD002F079F8401B0628F7D32020606507
:103F2000032084F835000120002184F83410BDE816
:103F3000F0812068B84210DC6F21C4F2020188428F
:103F40001CDC3F21C4F20201884232DC1021C4F2A1
:103F50000201884250D028214AE040451ADC40F254
:103F60003F41C4F2020188422ADC40F21041C4F20F
:103F70000201884240D040F2284139E09F21C4F23A
:103F80000201884225DC7021C4F20201884233D04C
:103F900088212DE040F29F41C4F2020188421FDCDB
:103FA00040F27041C4F20201884225D040F28841BB
:103FB0001EE04021C4F2020188421DD0582117E0C2
:103FC00040F24041C4F20201884215D040F258410B
:103FD0000EE0A021C4F2020188420DD0B82107E012
:103FE00040F2B841C4F20201884205D040F2A0413B
:103FF000C4F2020188425DD1D4E9161202F01F0218
:104000003F2303FA02F28A6040455DDC9F21C4F23F
:104010000201884214DC5721C4F20201884226DCE6
:104020001021C4F20201884200F0A1802821C4F2CC
:104030000201884200F09B804021C4F2020194E01A
:1040400040F22741C4F2020188421EDCA021C4F2E2
:104050000201884200F08B80B821C4F2020188423C
:1040600000F0858040F21041C4F202017DE0582149
:10407000C4F2020188427AD07021C4F2020188425F
:1040800075D08821C4F202016FE040F22841C4F2E9
:10409000020188426BD040F24041C4F202018842E2
:1040A00065D040F25841C4F202015EE06FF00E00AC
:1040B00031467BE6D4E9161202F01F02012303FA0F
:1040C00002F24A604045A1DD45F22F41C5F60201EA
:1040D000884216DC40F2B741C4F20201884225DC76
:1040E00040F27041C4F20201884240D040F288415F
:1040F000C4F2020188423AD040F2A041C4F2020167
:1041000033E045F26B41C5F6020188421DDC45F201
:104110003041C5F60201884229D045F24441C5F636
:104120000201884223D045F258411CE040F2B841D8
:10413000C4F2020188421AD045F20841C5F60201D4
:10414000884214D045F21C410DE045F26C41C5F6A1
:10415000020188420BD045F29441C5F60201884223
:1041600005D045F28041C5F6020188420BD1616E4F
:10417000A26EE06E4A6030B1016821F48071016086
:10418000D4E91C014160012084F8350000200021A1
:1041900084F83410BDE8F08180B5D8B190F83510BE
:1041A000022919D140F20F420168C4F20202914281
:1041B00016DC6F23C4F20203994226DC3F23C4F2CB
:1041C000020399423CDC1023C4F2020399425AD004
:1041D000282354E0012080BD80214165012080BD5D
:1041E00040F26F43C4F2020399421ADC40F23F43AB
:1041F000C4F2020399422ADC40F21043C4F20203E3
:10420000994240D040F2284339E09F23C4F2020390
:10421000994225DC7023C4F20203994233D08823EB
:104220002DE040F29F43C4F2020399421FDC40F2AA
:104230007043C4F20203994225D040F288431EE045
:104240004023C4F2020399421DD0582317E040F2E4
:104250004043C4F20203994215D040F258430EE0A5
:10426000A023C4F2020399420DD0B82307E040F224
:10427000B843C4F20203994205D040F2A043C4F20D
:10428000020399426ED191424FF0040280F835202A
:1042900010DC6F20C4F20200814220DC3F20C4F217
:1042A0000200814236DC1020C4F20200814253D069
:1042B00028204EE040F26F40C4F2020081421ADC36
:1042C00040F23F40C4F2020081422ADC40F210403A
:1042D000C4F2020081423FD040F2284039E09F20E2
:1042E000C4F20200814225DC7020C4F20200814247
:1042F00032D088202DE040F29F40C4F2020081427B
:104300001FDC40F27040C4F20200814224D040F22F
:1043100088401EE04020C4F2020081421CD0582098
:1043200017E040F24040C4F20200814214D040F253
:1043300058400EE0A020C4F2020081420CD0B82008
:1043400007E040F2B840C4F20200814204D040F2DB
:10435000A040C4F202008142086820F00100086019
:10436000002080BD0A6822F00E020A6045F2574222
:10437000C5F6020291420A6822F001020A600EDCD0
:1043800045F22F42C5F60202914217DC45F208427F
:10439000C5F60202914226D045F21C421FE045F2CA
:1043A0007F42C5F60202914211DC45F25842C5F641
:1043B0000202914217D045F26C4210E045F23042C1
:1043C000C5F6020291420ED045F2444207E045F2A2
:1043D0009442C5F60202914205D045F28042C5F6EC
:1043E000020291421AD1D0E9181CD0E916E30A68FA
:1043F00022F480720A6003F01F01012202FA01F127
:10440000CEF80410816ECCF80410C16E31B10A6888
:1044100022F480720A60D0E91C124A60012180F8FF
:104420003510026D002180F834100AB19047002148
:10443000084680BD0000000070B518B3016840F266
:104440006F420446C4F202020868914220F0010063
:1044500008604FF0010017DC9F22C4F20202914273
:104460002DDC5722C4F20202914250DC1022C4F229
:104470000202914279D02822C4F20202914274D001
:1044800040226DE0012070BD45F22F42C5F60202C8
:10449000914227DC40F2B742C4F20202914242DC70
:1044A00040F27042C4F2020291425ED040F2884271
:1044B000C4F20202914258D040F2A04250E040F2D1
:1044C0002742C4F2020291423CDCA022C4F2020262
:1044D00091424AD0B822C4F20202914245D040F241
:1044E00010423DE045F26B42C5F6020291424FDCBC
:1044F00045F23042C5F6020291425CD045F2444298
:10450000C5F60202914256D045F258424EE058227A
:10451000C4F20202914228D07022C4F202029142F7
:1045200023D088221CE040F2B842C4F20202914239
:104530001BD045F20842C5F6020291423BD045F23B
:104540001C4233E040F22842C4F2020291420CD0F5
:1045500040F24042C4F20202914206D040F2584278
:10456000C4F20202914240F00981002008604860D4
:104570008860C8600861212048612046FEF744F940
:10458000E16D3F2201F01F0102FA01F1816022E09A
:1045900045F26C42C5F6020291420CD045F28042CF
:1045A000C5F60202914206D045F29442C5F60202D7
:1045B000914240F0E3800020086048608860C86055
:1045C00008612046FEF720F9E16D012201F01F018C
:1045D00002FA01F1416045F2574C2268C5F6020C1F
:1045E00045F6FC0E6245C5F6020E12DC45F22F4080
:1045F000C5F6020082421FDC45F20840C5F6020003
:10460000824233D045F21C40C5F6020082422DD0D2
:10461000B5E045F27F40C5F60200824219DC45F262
:104620005840C5F60200824220D045F26C40C5F6E3
:10463000020082421AD0A2E045F23040C5F60200E4
:10464000824213D045F24440C5F6020082420DD0AA
:1046500095E045F29440C5F60200824206D045F24C
:104660008040C5F60200824240F089806FF007006A
:104670004CF6CD4150FA82F0CCF6CC41A0FB0101C2
:10468000AEF1FC03AEF17C05090903EB810001F0FA
:104690001F0620660120656600FA06F6A666002061
:1046A00043F821006E606368591E072958D8624597
:1046B0000EF1440C12DC45F22F45C5F60205AA4264
:1046C0001FDC45F20845C5F60205AA423AD045F27C
:1046D0001C45C5F60205AA4234D02BE045F27F45C1
:1046E000C5F60205AA4219DC45F25845C5F6020591
:1046F000AA4227D045F26C45C5F60205AA4221D050
:1047000018E045F23045C5F60205AA421AD045F236
:104710004445C5F60205AA4214D00BE045F2804597
:10472000C5F60205AA420DD045F29445C5F602052C
:10473000AA4207D040F60002C4F2020202F1FC0EC7
:1047400002F5A07C0EEB8302E2660122C4F870C081
:1047500002FA01F1616700224EF82320CCF8041020
:10476000C4E91B006067C4E90F00C4E91100C4E993
:104770001300606584F8350084F8340070BD6FF074
:104780000F004AF6AB2150FA82F0CAF6AA21A0FB2C
:10479000010340F20F41C4F20201082518098A42C0
:1047A00001F1AA06014688BF05EB131140F600038C
:1047B000B242C4F2020303F1800528BF014664E758
:1047C000406D7047000000002DE9F04782B00021E5
:1047D000019140F2BC010446C2F2004148F2B51218
:1047E000C1F64E32A56D096840F26F490068C4F207
:1047F0000209A1FB021848452E68296815DC9F2193
:10480000C4F2020188422BDC5721C4F20201884223
:104810004EDC1021C4F20201884276D02821C4F275
:104820000201884271D040216BE045F22F42C5F66B
:104830000202904227DC40F2B742C4F202029042E8
:1048400042DC40F27041C4F2020188425DD040F285
:104850008841C4F20201884257D040F2A04150E0A2
:1048600040F22741C4F2020188423CDCA021C4F29C
:104870000201884249D0B821C4F20201884244D0E2
:1048800040F210413DE045F26B42C5F60202904213
:1048900071DC45F23042C5F6020290427DD045F20D
:1048A0004442C5F60202904277D045F2584270E089
:1048B0005821C4F20201884227D07021C4F20201BB
:1048C000884222D088211CE040F2B842C4F20202A1
:1048D00090421AD045F20842C5F6020290425CD0DE
:1048E00045F21C4255E040F22841C4F202018842E0
:1048F0000BD040F24041C4F20201884205D040F2A0
:104900005841C4F2020188425FD1E16D082201F0F2
:104910001F0140F20F4A8A40C4F2020A324200F0FC
:10492000E28050454FF0040312DC6F27C4F2020707
:10493000B84269DC3F27C4F20207B84200F3A38003
:104940001027C4F20207B84200F0C1802827B9E05E
:10495000484565DC40F23F47C4F20207B84200F325
:10496000998040F21047C4F20207B84200F0AF80CD
:1049700040F22847A6E045F26C42C5F6020290429A
:104980000BD045F28042C5F60202904205D045F2B6
:104990009442C5F60202904217D10268E36D5707B0
:1049A00003F01F0314D504279F4017EA01060FD018
:1049B00011046F6043D4910603D4016821F004010F
:1049C0000160216C002940F0DC8202B0BDE8F08774
:1049D00097073CD502279F4017EA010637D01104FC
:1049E0006F6000F1D382910609D4016821F00A01B9
:1049F0000160012084F83500002084F83400E16B68
:104A0000002940F0BE82E0E79F27C4F20207B842C7
:104A100049DC7027C4F20207B84258D0882751E019
:104A200040F29F47C4F20207B84243DC40F27047AD
:104A3000C4F20207B8424AD040F2884742E0D003AD
:104A400000F1AA82A16C002940F09B82BDE7120709
:104A5000BBD508229A401140B7D0016821F00E0161
:104A60000160012000FA03F16960606584F8350097
:104A70000020E16C84F834000029A6D02046884745
:104A800002B0BDE8F0874027C4F20207B8421ED04A
:104A9000582717E040F24047C4F20207B84216D048
:104AA00040F258470EE0A027C4F20207B8420ED0E9
:104AB000B82707E040F2A047C4F20207B84206D088
:104AC00040F2B847C4F20207B84218BF082307688B
:104AD0001F4208D0036823F004030360AA60626DDC
:104AE00042F00102626501228A4032426AD050459A
:104AF00010DC6F23C4F2020398421CDC3F23C4F293
:104B00000203984232DC1023C4F20203984251D0CF
:104B100028234AE048451ADC40F23F43C4F202032E
:104B200098422ADC40F21043C4F20203984241D07A
:104B300040F2284339E09F23C4F20203984225DC67
:104B40007023C4F20203984234D088232DE040F24F
:104B50009F43C4F2020398421FDC40F27043C4F248
:104B60000203984226D040F288431EE04023C4F25C
:104B7000020398421ED0582317E040F24043C4F28B
:104B80000203984216D040F258430EE0A023C4F22C
:104B9000020398420ED0B82307E040F2A043C4F2CB
:104BA0000203984206D040F2B843C4F2020398428E
:104BB00040F0FA8143691B0604D5AA60626D42F099
:104BC0000202626504228A4032426AD0504510DCFB
:104BD0006F23C4F2020398421CDC3F23C4F2020399
:104BE000984232DC1023C4F20203984251D02823A9
:104BF0004AE048451ADC40F23F43C4F202039842BF
:104C00002ADC40F21043C4F20203984241D040F241
:104C1000284339E09F23C4F20203984225DC702325
:104C2000C4F20203984234D088232DE040F29F431F
:104C3000C4F2020398421FDC40F27043C4F2020344
:104C4000984226D040F288431EE04023C4F202037B
:104C500098421ED0582317E040F24043C4F20203AA
:104C6000984216D040F258430EE0A023C4F202034B
:104C700098420ED0B82307E040F2A043C4F20203EA
:104C8000984206D040F2B843C4F20203984240F082
:104C9000928103689B0704D5AA60626D42F004020A
:104CA0006265102202FA01F131427BD050454FF08B
:104CB000080210DC6F23C4F2020398421CDC3F237D
:104CC000C4F20203984232DC1023C4F20203984279
:104CD00051D028234AE048451ADC40F23F43C4F251
:104CE000020398422ADC40F21043C4F202039842C5
:104CF00041D040F2284339E09F23C4F20203984296
:104D000025DC7023C4F20203984234D088232DE0BE
:104D100040F29F43C4F2020398421FDC40F270430A
:104D2000C4F20203984226D040F288431EE040239A
:104D3000C4F2020398421ED0582317E040F24043C9
:104D4000C4F20203984216D040F258430EE0A0236A
:104D5000C4F2020398420ED0B82307E040F2A04309
:104D6000C4F20203984206D040F2B843C4F20203F0
:104D7000984218BF04220368134213D0A960016847
:104D80004903016808D4C90508D4016821F0080165
:104D90000160216C21B905E008034DD4216C09B1F3
:104DA00020468847E06D00F01F01202000FA01F244
:104DB000324200F0A68020681023504510DC6F2797
:104DC000C4F20207B8421CDC3F27C4F20207B84213
:104DD00036DC1027C4F20207B84255D028274EE02F
:104DE00048451ADC40F23F47C4F20207B8422EDCC5
:104DF00040F21047C4F20207B84245D040F22847BB
:104E00003DE09F27C4F20207B84229DC7027C4F2B4
:104E10000207B84238D0882731E040F29F47C4F2F9
:104E20000207B84223DC40F27047C4F20207B842DE
:104E30002AD040F2884722E0A16C0029B0D1B1E726
:104E40004027C4F20207B8421ED0582717E040F2AC
:104E50004047C4F20207B84216D040F258470EE06D
:104E6000A027C4F20207B8420ED0B82707E040F2EC
:104E7000A047C4F20207B84206D040F2B847C4F2D5
:104E80000207B84218BF022307681F4239D0AA6040
:104E900094F83520042A02681BD122F01602026021
:104EA000426922F080024261226C0AB9A26C1AB1F6
:104EB000026822F0080202603F208840A8600120BA
:104EC00084F83500216D0020002984F8340058D181
:104ED0007BE5510301680CD4C9050ED4016821F0AB
:104EE00010010160012084F83500002084F83400AE
:104EF00003E0080301D4616C00E0E16B09B12046D6
:104F00008847606D00283FF460AD606DC00734D005
:104F1000042084F8350020684FEA9821026822F0C6
:104F200001020260019A013201928A421AD8026893
:104F3000D20717D0019A013201928A4212D8026830
:104F4000D2070FD0019A013201928A420AD8026830
:104F5000D20707D0019A013201928A4202D8026830
:104F6000D207DFD10068C0074FF0030008BF01205F
:104F700084F83500002084F83400E16C00293FF407
:104F800024AD2046884702B0BDE8F087D00307D49F
:104F9000616C0029F5D118E5216C0029F1D114E5E7
:104FA000E16B0029EDD110E5026804228A4032420B
:104FB0007FF40CAE75E6026873E6000000000000A6
:104FC0002DE9F04381B0044601F01EF8002C00F0FA
:104FD0000F8140F26F4805462068C4F20208404540
:104FE00015DC9F21C4F2020188422BDC5721C4F258
:104FF0000201884251DC1021C4F2020188427BD0B8
:105000002821C4F20201884276D040216FE045F2A7
:105010002F41C5F60201884227DC40F2B741C4F2B5
:105020000201884245DC40F27041C4F2020188422C
:1050300062D040F28841C4F2020188425CD040F262
:10504000A04154E040F22741C4F20201884240DC12
:10505000A021C4F2020188424ED0B821C4F202015C
:10506000884249D040F2104141E045F26B41C5F61B
:105070000201884200F3C08045F23041C5F60201CA
:10508000884200F0CC8045F24441C5F602018842D6
:1050900000F0C58045F25841BCE05821C4F202013D
:1050A000884229D07021C4F20201884224D088218C
:1050B0001DE040F2B841C4F2020188421CD045F222
:1050C0000841C5F60201884200F0A98045F21C4162
:1050D000A0E040F22841C4F2020188420CD040F224
:1050E0004041C4F20201884206D040F25841C4F265
:1050F0000201884240F08682022184F835100021A6
:1051000084F83410016821F0010101600168C907C9
:1051100009D000BF00F078FF401B052863D8206845
:105120000168C907F6D148F23F0204F10806016898
:10513000CFF610621140D4F818C06CCE1143D4F8E9
:1051400024901943E3692943256A0E43B9F1040FFA
:1051500046EA0C0643EA060343EA050303D1D4E911
:105160000B6533432B43666843F48011A6F13F0778
:10517000A6F12905042FA6F1470238BF0B46062DDC
:10518000A6F14F0E38BF0B46022A26F0030238BFA5
:105190000B46BEF1040F38BF0B46742A08BF0B46FE
:1051A000B9F1040F0360416921F0070141EA0901E7
:1051B00040F0EB80D4E90A53002B41EA050100F0EE
:1051C000E480BCF5005F00F0C680BCF1000F40F049
:1051D000CE80022D00F0CE80012D00F0C280002D87
:1051E00000F0C880D1E020206065032084F83500FD
:1051F000012001B0BDE8F08345F26C41C5F6020123
:1052000088420CD045F28041C5F60201884206D0A2
:1052100045F29441C5F60201884240F0F381022133
:1052200084F83510002184F834100168A268A2F1D6
:105230008003E768B3FA83F3402A4FEA53134FEA37
:1052400083336FF3101108BF1023226941EAD7019D
:1052500067691943A36941EAD201E26941EAD701CA
:10526000276A41EAD30141EAD20141EA171140F825
:105270000819C0B24CF6CD41CCF6CC41A0FB0101DF
:105280006FF0030000EA9100E0652046FDF7BCFAEC
:10529000E16D012201F01F0102FA01F14160206875
:1052A000404540F3818045F22F41C5F60201884216
:1052B00016DC40F2B741C4F20201884227DC40F21A
:1052C0007041C4F20201884200F0B68040F2884189
:1052D000C4F20201884200F0AF8040F2A041A6E093
:1052E00045F26B41C5F60201884221DC45F23041AE
:1052F000C5F60201884200F09F8045F24441C5F6A0
:105300000201884200F0988045F2584120E040F2C6
:10531000B841C4F20201884200F08E8045F2084193
:10532000C5F60201884200F0878045F21C410FE07B
:1053300045F26C41C5F60201884200F07D8045F2DD
:105340009441C5F60201884200F0768045F2804122
:10535000C5F602016DE0032D17D8DFE805F00E0B4E
:105360000E02A3F1C072B2FA82F2520904E0032DD8
:1053700003D30AD1C3F300623AB140206065012033
:1053800084F8350001B0BDE8F08341612046FDF7A7
:105390003BFAE16D3F2201F01F0102FA01F1816049
:1053A000206840453FF77FAF9F21C4F20201884249
:1053B00010DC5721C4F2020188421EDC1021C4F225
:1053C0000201884238D02821C4F20201884233D039
:1053D00040212CE040F22741C4F20201884218DC4F
:1053E000A021C4F20201884226D0B821C4F20201F1
:1053F000884221D040F2104119E05821C4F2020144
:10540000884219D07021C4F20201884214D0882148
:105410000DE040F22841C4F2020188420CD040F273
:105420004041C4F20201884206D040F25841C4F221
:105430000201884240F0DE8045F2574C45F6FC0EF2
:10544000C5F6020CC5F6020E604512DC45F22F418E
:10545000C5F6020188421FDC45F20841C5F602018B
:10546000884232D045F21C41C5F6020188422CD058
:1054700080E045F27F41C5F60201884219DC45F221
:105480005841C5F6020188421FD045F26C41C5F66D
:105490000201884219D06DE045F23041C5F60201A3
:1054A000884212D045F24441C5F6020188420CD030
:1054B00060E045F29441C5F60201884205D045F20C
:1054C0008041C5F60201884254D16FF007014CF6C5
:1054D000CD4251FA80F1CCF6CC42A1FB0212AEF1E2
:1054E000FC05AEF17C061309A26803F01F01802AB7
:1054F0004FF0010205EB8305256602FA01F26666AC
:10550000A26602D10021616000E06168CBB201397E
:1055100007292B60726015D85E1E082E17D26045D1
:105520000EF1440217DC45F22F41C5F60201884214
:1055300041DC45F20841C5F60201884250D045F2EF
:105540001C4149E00020C4E91B00606752E0D4E937
:105550001B02616F4BE045F27F41C5F602018842B4
:1055600032DC45F25841C5F60201884238D045F296
:105570006C4131E06FF00F014AF6AB2251FA80F135
:10558000CAF6AA22A1FB021240F20F43C4F20203A0
:1055900008251109984203F1AA060B4688BF05EBBE
:1055A000121340F60005B042C4F2020505F1800670
:1055B00028BF0B4698E745F23041C5F60201884204
:1055C0000ED045F2444107E045F28041C5F60201A4
:1055D000884205D045F29441C5F60201884213D1B4
:1055E00001210EEB8300B140E06622676167002372
:1055F0000360516000206065012184F8351001B01E
:10560000BDE8F0834020EFE540F60000C4F2020060
:1056100000F1FC0E00F5A072E2E7000000000000BF
:10562000B0B5E0B3054690F83400012801D102205E
:10563000B0BD012085F8340095F83500012828D147
:10564000022085F83500002068652868046824F089
:10565000010404602846FDF767F940F20F4228680C
:10566000C4F2020240F26F419042C4F2020118DC1F
:105670006F23C4F20203984224DC3F23C4F20203E6
:1056800098423ADC1023C4F20203984259D02823EE
:1056900052E04FF400606865002085F83400012076
:1056A000B0BD88421ADC40F23F43C4F20203984284
:1056B0002ADC40F21043C4F20203984241D040F287
:1056C000284339E09F23C4F20203984225DC70236B
:1056D000C4F20203984234D088232DE040F29F4365
:1056E000C4F2020398421FDC40F27043C4F202038A
:1056F000984226D040F288431EE04023C4F20203C1
:1057000098421ED0582317E040F24043C4F20203EF
:10571000984216D040F258430EE0A023C4F2020390
:1057200098420ED0B82307E040F2B843C4F2020317
:10573000984206D040F2A043C4F20203984240F0DF
:10574000238103680B2464F3440303602B6C1BB1B7
:10575000036843F008030360884219DC9F23C4F206
:105760000203984231DC5723C4F20203984256DC0C
:105770001023C4F20203984200F091802823C4F25F
:105780000203984200F08B804023C4F2020384E0BD
:1057900045F22F43C5F6020398422BDC40F2B74393
:1057A000C4F20203984248DC40F27043C4F20203A0
:1057B000984274D040F28843C4F2020398426ED0FB
:1057C00040F2A043C4F2020367E040F22743C4F270
:1057D0000203984240DCA023C4F2020398425ED048
:1057E000B823C4F20203984259D040F21043C4F2E5
:1057F000020352E045F26B43C5F6020398423CDCDB
:1058000045F23043C5F60203984248D045F244437E
:10581000C5F60203984242D045F258433BE0582374
:10582000C4F2020398423AD07023C4F202039842B1
:1058300035D08823C4F202032FE040F2B843C4F20B
:10584000020398422BD045F20843C5F60203984262
:1058500025D045F21C431EE040F22843C4F2020367
:1058600098421CD040F24043C4F20203984216D042
:1058700040F25843C4F202030FE045F26C43C5F610
:10588000020398420BD045F29443C5F602039842B6
:1058900005D045F28043C5F6020398426ED12B6EC7
:1058A0001C68E40303D51C6844F480741C60EB6E30
:1058B0001BB11D6845F480751D60904210DC6F219E
:1058C000C4F2020188421CDC3F21C4F2020188427A
:1058D00032DC1021C4F2020188424FD028214AE074
:1058E00088421ADC40F23F41C4F2020188422ADCBD
:1058F00040F21041C4F2020188423FD040F22841F8
:1059000039E09F21C4F20201884225DC7021C4F2F3
:105910000201884232D088212DE040F29F41C4F23A
:10592000020188421FDC40F27041C4F20201884249
:1059300024D040F288411EE04021C4F20201884296
:105940001CD0582117E040F24041C4F202018842C5
:1059500014D040F258410EE0A021C4F20201884266
:105960000CD0B82107E040F2B841C4F202018842ED
:1059700004D040F2A041C4F202018842016841F023
:10598000010101600020B0BD0368052464F34303F6
:1059900003602B6C002B3FF4DFAE036843F004037D
:1059A000D9E6000000000000F0B581B0044690F890
:1059B000210001284FF002003BD184F821000D4660
:1059C000216801262269C86982B387B2012077B3B2
:1059D000A068B0F5801F0DD1F803120CB0FBF2F0F7
:1059E0008A680023B3EB124F10D0120C012A1DD18C
:1059F0006E220CE001F0F8F8618A48432168B0FBA0
:105A0000F7F08A680023B3EB124FEED11E228B68A9
:105A1000096989B251B19BB26FF0630703FB0700BC
:105A200090FBF1F010442860002000E0012084F891
:105A3000216001B0F0BD000010B5C8B1044690F877
:105A4000210010B9204600F04BF8022084F8210014
:105A50002068016961B1816851B1616851B1A16883
:105A6000B1F5801F04D1016841F40011016009E023
:105A7000012010BD016821F400110160A168B1F599
:105A8000801F03D1016841F4801102E0016821F414
:105A9000801101600168D4E9053E21F0FE41D4E99E
:105AA00003C241EA03610160016821F470211143DE
:105AB000016001684FF6FF7221F4706141EA0C0148
:105AC00001604169C1EA0E41416141699143E26966
:105AD00011434161012084F82100002010BD000025
:105AE00081B046F600010068C5F60001884201D089
:105AF00001B0704744F2F440C5F60200016841F07D
:105B000080610160006800F080600090009801B042
:105B10007047000000000000B0B5E0B1044690F806
:105B2000210001284FF0020018BFB0BD84F8210009
:105B30002068016841F00101016000F065FA054646
:105B40002068016A090408D400F05EFA401B0128AD
:105B5000F6D90320B0BD0120B0BD016811F4706F0B
:105B600004D0012084F821000020B0BD016841F07C
:105B700010010160052000F027F8012084F82100C1
:105B80000020B0BD00000000D0B190F82110012924
:105B90004FF0020112D180F8211001680A6812F456
:105BA000706F03D10A6822F010020A600A6822F0BE
:105BB00001020A60012180F8211000210846704787
:105BC0000120704700000000B0B5044600F01CFA48
:105BD00040F2C4010546C2F20041621C097818BFB8
:105BE0000C4400BF00F010FA401BA042FAD3B0BD35
:105BF0002DE9F04F002908BFBDE8F08F00F12642E3
:105C000042F2004302F1FF77C5F602030A259842EB
:105C10004FF0000308BF0925B3EBB72F74D04FEA4C
:105C2000B72700247E1E072E4FF0010638BF3D46E1
:105C300000272BE00322036802FA04F96FF0030245
:105C400002EA580543EA09030544036007F01C0310
:105C50000F2202FA03FE2B6A23EA0E032B62C368AB
:105C60005D4623EA0903C360436823EA0C034360EB
:105C7000836823EA0902826031FA06F206F101061E
:105C800007F1040704F1020400F0A480A6F1010862
:105C9000012202FA08FC1CEA010AEDD040F2084297
:105CA0004FEA9809C5F6000207F00C0352F829B034
:105CB0000F2202FA03FE0BEA0E0205FA03F3AB46CB
:105CC0009A42B7D10423C5F60003DA6F22EA0A022A
:105CD000DA67D3F8802022EA0A02C3F880201A6823
:105CE00022EA0A021A604FF0B0431A6822EA0A0256
:105CF0001A6040F20843C5F6000353F8292022EA4F
:105D00000E0243F8292095E70025002401264FF0D4
:105D10000F0C27E00322D0F800E002FA04F36FF042
:105D2000030202EA57074EEA03020744026005F045
:105D30001C020CFA02FE3A6A22EA0E023A62C268B9
:105D40009A43C260426822EA0B02426082689A4328
:105D5000826031FA06F206F1010604F1020405F14F
:105D6000040537D0771E012202FA07FB1BEA01085F
:105D7000EFD040F208424FEA970EC5F6000205F058
:105D80000C030CFA03F952F82EA01AEA090FC1D13C
:105D90000422C5F60002D36F23EA0803D367D2F8C2
:105DA000803023EA0803C2F88030136823EA08032E
:105DB00013604FF0B042136823EA0803136040F207
:105DC0000842C5F6000252F82E3023EA090342F8D1
:105DD0002E309FE7BDE8F08FB0F5807F09D146F601
:105DE0007470C2F200400078002808BF704707F0C6
:105DF00013BB7047000000008821C5F600010A6847
:105E0000024208BF70470860FFF7E6BF00000000CD
:105E10002DE9F04F85B00D680290002D00F0E6806E
:105E200002988E4600F126420A2102F1FF7342F2E7
:105E30000042C5F60202002490424FEAB32208BF96
:105E40000921082A4FF0010738BF4FEAB321002685
:105E50004FF000080091CDF80CE00DE0DEF80050A6
:105E600008F1010835FA07F006F1020607F101070B
:105E700004F1040400F0BA80A7F1010A012000FA3D
:105E80000AF315EA0309E9D0DEF804B00BF00305C4
:105E90006A1E012A22D802984FEA4801D0F808C0A9
:105EA0000191032101FA06F203992CEA020CD1F8C0
:105EB0000CE00EFA06F1DDF80CE041EA0C0181601D
:105EC00041686FEA020CCBF3001299430346019834
:105ED00002FA0AF2114359600CE000BF0320032DBF
:105EE00000FA06F0029B6FEA000C304602D1304601
:105EF000032526E0D968DEF8082001EA0C0182407B
:105F0000022D41EA0201D9601BD102466FF0030065
:105F100000EA5A010F20194404F01C0300FA03F5AB
:105F20001046D1F820E0039A2EEA0505DDF80CE0D2
:105F300012699A40029B2A430A62DEF804B00BF011
:105F40000305196805FA00F001EA0C011BF4403F53
:105F500040EA010018603FF481AF44F2F44140F29E
:105F60000845C5F60201C5F600050F23086840F094
:105F700002000860086800F0020004902AF00300A4
:105F8000049904F00C0142598B409A43009B03FA98
:105F900001F1114341514FF0B0452868DEF804107B
:105FA00040EA0902CB0258BF20EA09028B022A60AC
:105FB00040F20405C5F60005286840EA090258BF0A
:105FC00020EA09028B032A60D5F8800040EA090222
:105FD00058BF20EA0902C903C5F88020E86F40EAEB
:105FE000090258BF20EA0902EA6737E705B0BDE8B1
:105FF000F08F000000000000002A08BF0904816142
:1060000070470000000000004AF28860C2F20040C1
:1060100000687047000000004EF60000C1F6F17005
:1060200000687047000000004EF60400C1F6F170F1
:1060300000687047000000004EF60800C1F6F170DD
:106040000068704700000000B0B582B0B0B10446EF
:10605000D0F8840028B9002084F88000204604F09D
:106060006BFB2420C4F884002068016821F0010142
:106070000160204607F0C0FC012802D1012002B0D7
:10608000B0BDA06A10B1204607F06AFA20684168E6
:1060900021F490414160816821F022018160816892
:1060A00041F008018160016841F0010101600020B8
:1060B000C4F88C00FFF7A8FF216805460A6812079C
:1060C0000BD54FF4001100226FF07E400090204667
:1060D0002B4607F0A1FF70B92168086840070DD56D
:1060E0004FF4800100226FF07E40009020462B4646
:1060F00007F092FF10B1032002B0B0BD2020C4F819
:106100008400C4F888000020E06684F8800002B0B3
:10611000B0BD00000000000090F84120202A03D10B
:1061200090F84020012A01D102207047242280F8F3
:1061300041200268136823F001031360136823F4FD
:1061400080531360136819431160116841F0010115
:106150001160202180F84110002180F8401008468D
:10616000704700000000000090F84120202A03D171
:1061700090F84020012A01D102207047242280F8A3
:1061800041200268136823F001031360136823F4AD
:10619000706343EA01211160116841F0010111604F
:1061A000202180F84110002180F8401008467047F7
:1061B00008B310B5044690F8410028B9002084F8CF
:1061C0004000204600F0B4F9242084F8410094E80F
:1061D0000910E2680168012A21F00101016023F041
:1061E00070610161816821F40041816005D14CF446
:1061F0000041816009E001207047022A4CF404410B
:10620000816002D14FF400614160416804F1100CDB
:1062100041F0007141F400414160C16821F4004146
:10622000C1609CE80E10114341EA0321C160216A5C
:1062300041EA0C010160016841F0010101600020A8
:106240006064202184F84110206384F8420010BD6E
:106250002DE9F04F83B0044690F8410020280DD17D
:10626000DDF83080B8F1000F0CD0DDF834A0BAF1C1
:10627000000F07D094F8400001280AD1022003B093
:10628000BDE8F08F4FF400706064012003B0BDE8FA
:10629000F08F1E4615460F46012084F84000FFF798
:1062A000B3FE21688146896909040AD5FFF7ACFE6F
:1062B000A0EB0900192800F2188120688069000409
:1062C000F4D4222084F84100402084F84200204683
:1062D00039462A4633464FF0000BC4F844B0C4F8A0
:1062E0002480DDF83880A4F82AA0C4F834B0CDE9C1
:1062F000008904F035FD28B184F840B0012003B0D6
:10630000BDE8F08F608D49F6004BCFF6004BB0F53D
:10631000807F40F20000C0F2FF100CD32168ABF583
:1063200080636FF39F2700F510564A681A4042EACF
:106330000703FF220DE06FF39F27628D2168ABF505
:106340008065D3B24E682E4047EA0343334300F5DD
:10635000923633434B60228518F1010207F1007633
:1063600047EA000756D04FF0FF0A886940070ED46D
:10637000B8F1000F00F0B780FFF746FEA0EB090070
:10638000404500F2B280216888694007F4D5486A28
:10639000616A0870218D606A01306062013921856F
:1063A000608D0904A0F101006085608D2AD148B399
:1063B0002068816909060ED4B8F1000F00F09380BF
:1063C000FFF722FEA0EB0900404500F28E80206816
:1063D00081690906F4D5618DB1F5807F07D3A4F8F2
:1063E00028A050F8041F01EA0B01394309E0618D30
:1063F0002185C9B250F8042F02EA0B0246EA014196
:1064000011430160608D00284BD0216888694007E6
:10641000AED5BCE7FF2002E08A69520709D48A6939
:1064200052075FBF8A695FEA42728A695FEA427215
:10643000F2D5496A626A1170228D616A0131616226
:10644000013A2285618D1204A1F101016185618DFE
:1064500023D111B321688A6912065FBF8A695FEA96
:1064600002628A695FEA026202D48A691206F2D580
:10647000628DFF2A06D9208551F8042F02EA0B020B
:106480003A4309E0628D2285D2B251F8043F03EA13
:106490000B0346EA02421A430A60618D09B1216882
:1064A000BDE7B8F1000F12D02068816989062CD4AD
:1064B000204641464A4604F0A7FB00287FF4E5AE9B
:1064C000FFF7A2FDA0EB09004045EDD90DE02068E3
:1064D0008169890619D4002120464A4604F094FBBC
:1064E00000287FF4D2AEFFF78FFD606C40F02000F3
:1064F0006064202084F84100002084F8420084F881
:106500004000012003B0BDE8F08F2021C1614EF6AC
:1065100000034268CFF600631A40426084F84110DD
:10652000002084F8420084F8400003B0BDE8F08FFA
:106530002DE9F047B4B0044602A8B4210025CDE906
:106540003255CDE930552F95FAF7F6FA45F6004168
:106550002068C4F20001884202D034B0BDE8F08760
:106560000820029002A8219500F07AFC08B1FCF7FF
:1065700093FB44F2E0460024C5F60206C5F6020489
:106580002FAD4FF012083068294640F0040030600B
:1065900030684FF0010900F0040001900198306864
:1065A00040F00100306030684FF0030A00F0010055
:1065B000019001984FF400702F9004F50060CDF821
:1065C000C0800427CDF8C490CDF8C8A03397FFF75A
:1065D0001FFC2FA94FF4807081E80107204629464F
:1065E0003397FFF715FCB06840F40000B060B06866
:1065F00000F400000190019834B0BDE8F08700007D
:10660000016800204AF6AA220A60704700000000D4
:1066100040F2C4004AF28861C2F20040C2F2004176
:1066200000780A681044086070470000000000000D
:1066300080B5032000F0A4FA01F0AAFB44F218414F
:1066400040F62833C5F60201C9F201030A68096859
:1066500001F00F01C2F30322595C9A5C01F01F01A3
:1066600002F01F02D04040F2C002C2F2004220FA03
:1066700001F1116040F2BC01C2F2004108600F203C
:1066800000F00AF800281CBF012080BD00F014FAB9
:10669000002080BD00000000B0B58AB00F2842D8AD
:1066A0000446362000222146002500F039FA362023
:1066B00000F026FA40F2C800C2F20040046044F242
:1066C000E840C5F60200016841F010010160006871
:1066D00001A900F010000290029802A801F0A4FAAB
:1066E000079C002C18BF012401F0F2FA4DF68361DB
:1066F000A040C4F21B3141F20002A0FB010147F6A9
:10670000E840C2F200404FF0FF33C4F200020260E2
:1067100003EB9141C0E9011540F2E731C0E90315EF
:1067200002F0A6FC10B101200AB0B0BD47F6E84067
:10673000C2F2004002F0E8FC0AB0B0BD0000000068
:106740002DE9F041044690F8A00001284FF0020026
:1067500008BFBDE8F08134234FF0010884F8A08021
:1067600084F8A10002FB0340D1E900CED1E9026721
:10677000D1E90435C0E91235C0E91067C0E90ECE91
:10678000D1E906CED1E90865D1E90A37C0E9183761
:10679000C0E91665C0E914CE0B6B8366204604F091
:1067A000CFFD2068C0F82480002084F8A18084F800
:1067B000A000BDE8F081000070470000000000006C
:1067C000B0B504460068816B426B02EA01056907B7
:1067D00027D4A8073BD4E8070ED02068416B21F0EE
:1067E000010141630121C16384F8A110002084F8F4
:1067F000A000204600F0B4F8280758BFB0BD2068BC
:10680000416B21F0080141630821C163012084F834
:10681000A100002084F8A0002046BDE8B04000F0B0
:10682000F7B8416B21F0040141630421C163D4F83E
:10683000A40040F00100C4F8A40084F8A1100020D6
:1068400084F8A0002046FFF7B7FFA807C3D520684B
:10685000416B21F0020141630221C163D4F8A4001D
:1068600040F00200C4F8A400042084F8A100002035
:1068700084F8A0002046FFF79FFFE807BCD0ACE7F4
:10688000002869D010B5044690F8A10028B900206E
:1068900084F8A000204600F067F8022084F8A100E8
:1068A000D4E9000CD4E90223816921F070418161AF
:1068B00042EA0C0122691943114382691143816143
:1068C0004FF600028168CFF2000211408160D4E9E6
:1068D000051343EA0141836819438160C16811408F
:1068E000C160D4E9071343EA0141C3681943C16099
:1068F000016911400161D4E9091343EA01410369C7
:1069000019430161416911404161D4E90B1242EA26
:10691000014142691143416194F8351094F83620E1
:10692000C36A03F07F43C362120494F8343042EA2E
:106930000121C26A19441143C162416B41F0060151
:106940004163816941F0010181610020C4F8A40024
:10695000012184F8A11010BD012070470000000043
:10696000704700000000000010B5AEB0044601A85A
:10697000B421FAF7E1F841F200012068C5F2000104
:10698000884201D02EB010BD4FF00050019040F26F
:106990002410C2F20040016B0A91416B0B91816B94
:1069A0000C91C16B0D91006C0E904FF440600F90F4
:1069B0000020CDE9100001A800F052FA38B140F6ED
:1069C000206040F26F21C9F2010006F011FAFBF7D6
:1069D000E7FA44F2E4400022C5F60200016841F003
:1069E000080101600068072100F00800009000988D
:1069F000582000F095F8582000F082F85920062120
:106A0000002200F08DF8592000F07AF82EB010BD69
:106A10007047000000000000B0B502784EF69C5CA4
:106A2000CEF2000C43784CF8043CF2B14368CCF849
:106A30000030037BC17A90F80AE0457B447A42EA51
:106A40000372837B42EA0161C27B41EACE41007A54
:106A500041EA854141EA434141EA024141EA0421D8
:106A600041EA4000CCF80400B0BD0020CCF80000A2
:106A7000CCF80400B0BD00004EF62450CEF2000069
:106A8000BFF35F8F016821F480310160002101674D
:106A900070470000000000004EF6245140F0010055
:106AA000CEF200010867086840F480300860BFF348
:106AB0004F8FBFF36F8F704781B044F2F440C5F63B
:106AC0000200016841F002010160006800F002006C
:106AD0000090009801B07047002848BF70474EF200
:106AE000801300F01F014009CEF20003012202FAD8
:106AF00001F143F82010BFF34F8FBFF36F8F704742
:106B0000002848BF704700F01F01012202FA01F17E
:106B10004EF200124009CEF2000242F820107047F7
:106B200070B54EF60C5C4FF0FF36CEF2000C00F163
:106B30006045DCF80030C3F3022E8EF00703042B0F
:106B400028BF0423BEF1030406FA03F321EA03017C
:106B500000F00F0338BF0024043BB0F1FF3F634453
:106B600006FA04F003F10C0301FA04F1C8BF05F5BD
:106B7000644322EA000008430001187070BD000061
:106B80004EF60C514FF6FF03CEF200010A681A4090
:106B900060F30A2242F0806040F0FD7008607047A8
:106BA000B0B544F60C05C5F6020529684907296801
:106BB00005D401F00701081A18BF0120B0BD21F06B
:106BC000070108432860FFF71FFA044655F8080C30
:106BD000800407D4FFF718FA001BB0F57A7FF5D9C7
:106BE0000120B0BD0020B0BD80B501F049F844F2ED
:106BF000204140F62832C5F60201C9F201020968B7
:106C0000C1F30211515C01F01F01C84080BD0000BA
:106C100080B544F2384EC5F6020E5EF8103C5EF8C0
:106C2000101CC1F3053C5EF80C1CBCF1000FDEF833
:106C3000042014D0C1F30011C2F3CC02514300EE82
:106C4000101A03F003010229B8EE400A0CD071B902
:106C50005EF8381C89060DD49FED341A18E0002127
:106C6000C0E90011816080BD9FED2F1A10E09FEDFB
:106C70002D1A0DE05EF8381C49F20002C0F2D03245
:106C8000C1F3C10122FA01F101EE101AB8EE411A66
:106C9000DEF800109FED263A6FF35F2102EE101A26
:106CA000DEF80010C1F34621B8EE422A00EE032AB6
:106CB00000EE10CAB7EE003AB8EE400A81EE000AC4
:106CC00032EE031A02EE101AB8EE422A20EE010A42
:106CD00032EE031A80EE011ABCEEC11A80ED001AE2
:106CE000DEF80010C1F3064101EE101AB8EE411AA9
:106CF00031EE031A80EE011ABCEEC11A80ED011AC2
:106D0000DEF80010C1F3066101EE101AB8EE411A68
:106D100031EE031A80EE010ABCEEC00A10EE101A22
:106D2000816080BD0024744A20BCBE4B0024744C9A
:106D3000000000390000000080B544F2404EC5F666
:106D4000020E5EF8183C5EF8181CC1F3055C5EF894
:106D5000141CBCF1000FDEF8042014D0C1F3002194
:106D6000C2F3CC02514300EE101A03F003010229D2
:106D7000B8EE400A0CD071B95EF8401C89060DD4FB
:106D80009FED341A18E00021C0E90011816080BD38
:106D90009FED2F1A10E09FED2D1A0DE05EF8401CBC
:106DA00049F20002C0F2D032C1F3C10122FA01F16E
:106DB00001EE101AB8EE411ADEF800109FED263AE7
:106DC0006FF35F2102EE101ADEF80010C1F34621C6
:106DD000B8EE422A00EE032A00EE10CAB7EE003ADF
:106DE000B8EE400A81EE000A32EE031A02EE101AE3
:106DF000B8EE422A20EE010A32EE031A80EE011AA2
:106E0000BCEEC11A80ED001ADEF80010C1F3064195
:106E100001EE101AB8EE411A31EE031A80EE011A93
:106E2000BCEEC11A80ED011ADEF80010C1F3066154
:106E300001EE101AB8EE411A31EE031A80EE010A83
:106E4000BCEEC00A10EE101A816080BD0024744AA6
:106E500020BCBE4B0024744C000000390000000030
:106E60002DE9F0470446C07844F22C480007C5F6E7
:106E700002083CD5206E4FEA305103290AD8DFE8DA
:106E800001F0020E262FD8F8001041F40031C8F8A6
:106E9000001025E001266078C00709D02BE0201DF6
:106EA000022105F0A1F90646C8B16078C00722D1D9
:106EB000354637466078400735D43E46607800074F
:106EC0004AD43746E078800740F112815EE004F151
:106ED0002400022105F018FA06460028E5D1206EAC
:106EE000D8F8241021F440110843C8F824000026E3
:106EF0006078C007DCD0606D042800F289803546D8
:106F0000DFE800F0038D920A0A00D8F80000354649
:106F100040F40030C8F80000002D2F4600F08E80AD
:106F200060784007C9D5D4F8A0004FEA7050052812
:106F300000F29380DFE800F003989D090909D8F872
:106F4000000040F40030C8F80000002D2E4600F08C
:106F50009A8060780007B4D5D4F8A4004FEA306076
:106F6000052800F2A080DFE800F003A5AA090909BE
:106F7000D8F8000040F40030C8F80000002D2F467B
:106F800000F0A780E078800740F1B280A06C4FEA63
:106F90003010032819D8DFE800F0021F29022E461E
:106FA00065B36078C00600F1A88037466078800637
:106FB00000F1BC803E466078400600F1CA8037464A
:106FC0006078000640F17E81D7E0012501266078D7
:106FD000C00600F19280E8E7D8F8000040F40030E5
:106FE000C8F80000002D2E46DBD107E0201D02214D
:106FF00005F0FAF80546002D2E46D2D1D8F820002B
:10700000A16C20F0300000250843C8F820006FE094
:1070100001250127607840073FF585AF4DE7201D2A
:10702000002105F0E1F804E004F12400002105F05E
:107030006BF90546002D2F467FF472AFD8F8240077
:10704000616D20F0070000250843C8F8240037468A
:10705000607840077FF531AF65E70125012660784C
:1070600000073FF579AF2CE7201D002105F0BCF8A3
:1070700004E004F12400002105F046F90546002D46
:107080002E467FF466AFD8F82C00D4F8A01020F478
:10709000600000250843C8F82C003E4660780007D1
:1070A0007FF50FAF58E701250127E07880073FF50E
:1070B0006DAF1DE0201D002105F096F804E004F1FD
:1070C0002400002105F020F90546002D2F467FF40D
:1070D00059AFD8F82C00D4F8A41020F0E0600025B7
:1070E0000843C8F82C003746E07880073FF54EAFDC
:1070F0003E466078C0067FF558AFA06D4FEA30304D
:10710000042800F26780DFE800F0036B70090900D3
:10711000D8F8000040F40030C8F80000002D2F46D9
:1071200000F06D80607880067FF544AFE06D4FEA37
:107130003040052800F27280DFE800F00377810319
:107140000303002D2E4600F08480607840067FF512
:1071500036AFD4F8A8004FEA3070052800F28880D6
:10716000DFE800F0038D97030303002D2F4600F0A6
:107170009A806078000640F1A580A06E58B1B0F109
:10718000005F0FD0B0F1805F1ED1D8F8000040F44E
:107190000030C8F800002E4665B1E078C00700F066
:1071A000C48093E0201D012105F01EF80546002D46
:1071B0002E46F2D1D8F82400A16E20F040500025D0
:1071C0000843C8F824007DE001250126E078C007C7
:1071D0007CD1AAE00125012760788006A6D4E9E6E3
:1071E000201D002105F000F804E004F12400002136
:1071F00005F08AF80546002D2F467FF493AFD8F8A6
:107200002400A16D20F4E04000250843C8F82400C4
:107210003746607880067FF5CDAE87E701250126E9
:10722000607840063FF595AFC9E6201D012104F0C6
:10723000DBFF0546002D2E467FF487AF09E004F101
:107240002400012105F060F80546002D2E467FF44C
:107250007CAFD8F82400E16D20F4E020002508433D
:10726000C8F824003E46607840067FF5A8AE70E777
:1072700001250127607800063FF57FAF22E0201D41
:10728000012104F0B1FF0546002D2F467FF471AFB8
:1072900009E004F12400012105F036F80546002D2F
:1072A0002F467FF466AFD8F82C00D4F8A81020F051
:1072B000E04000250843C8F82C00374660780006F7
:1072C0003FF55BAF3E46E078C0072ED0606C0328E8
:1072D00009D8DFE800F0020F1902A946E5B1A0784D
:1072E000400628D425E001254FF00109A07840068A
:1072F0001FD520E0D8F8000040F40030C8F80000A6
:10730000002DA946EBD107E0201D022104F06CFFFF
:107310000546002DA946E2D1D8F82000616C20F086
:10732000030000250843C8F82000B146A0784006B5
:1073300001D44F4617E0D8F8D40340F48070C8F861
:10734000D403FEF761FE0646D8F8D403C00507D47F
:10735000FEF75AFE801B6428F6D90325032702E0B6
:10736000002D2F4664D02078C00700F0B580606FF4
:107370004FEAF000052800F28C80DFE800F003906F
:107380009A030303002D2E4600F09D80207880078D
:1073900000F1A78037462078400700F1B6803E46CE
:1073A0002078800600F1C680B1462078400600F1C2
:1073B000D8804F462078000600F1EA80B946206860
:1073C000010740F1FC80E16FB1F5805F0AD104F163
:1073D0002400022104F098FF002818BF4FF0010993
:1073E0002068E16FD8F8282022F440521143C8F8F1
:1073F0002810C10640F1E680D4F89010B1F5807FE6
:107400000BD104F12400022104F07EFF002818BFF4
:107410004FF001092068D4F89010D8F82C2022F4FD
:1074200040721143C8F82C10000340F1F180CBE00A
:10743000D8F84410D4F8AC00414011F4407F11D08A
:10744000D8F84410D8F8442042F48032C8F84420D8
:10745000D8F8442021F4407122F48032C8F8442046
:10746000C8F84410B0F5807F40F08E82FEF7CCFD66
:10747000064641F2883A0325032700BFD8F84400A6
:10748000800700F17F82FEF7BFFD801B5045F5D9D4
:1074900069E7012501262078800722D47AE7201D9C
:1074A000012104F0A1FE0546002D2E467FF46EAFAB
:1074B00009E004F12400012104F026FF0546002D17
:1074C0002E467FF463AFD8F82800616F20F03800B3
:1074D00000250843C8F828003E46207880077FF53D
:1074E00059AF206F052800F27581DFE810F0060023
:1074F0007A018401060006000600002D2F4600F0E8
:107500008481207840077FF54AAFD4F88C000528A5
:1075100000F28A81DFE810F006008F019901060071
:1075200006000600002D2E4600F099812078800686
:107530007FF53AAFD4F888004FEA3070052800F2A2
:107540009E81DFE810F00600A401AE0106000600EF
:107550000600002DA94600F0AE81207840067FF598
:1075600028AFD4F894004FEAB020052800F2B38188
:10757000DFE810F00600B801C201060006000600B0
:10758000002D2F4600F0C281207800067FF516AF4F
:10759000D4F898004FEA7030052800F2C781DFE880
:1075A00010F00600CD01D701060006000600002DF0
:1075B000A94600F0D781206801073FF504AFC10656
:1075C0003FF51AAF000323D5D4F89C00B0F5003F77
:1075D0000ED0B0F5803F05D0A8BB201D002104F0DF
:1075E00003FE04E004F12400022104F08DFE0546B0
:1075F0002E461DB1A07840073ED50DE0D8F82C00EE
:10760000D4F89C1020F4403000250843C8F82C0022
:107610004E46A07840072FD5D4F88000B0F5401F23
:107620000BD0B0F5001F14D0B0F5801F6CD1D8F886
:10763000000040F40030C8F800002F4695B1A07853
:10764000C0071DD165E001260125A0784007E3D4DD
:1076500012E004F12400012104F056FE0546002D3D
:107660002F46ECD1D8F82800D4F8801020F4401030
:1076700000250843C8F828003746A078C00748D03E
:10768000E06CB0F5803F27D0C0BBD8F8000040F4D4
:107690000030C8F800002E4635B3206881003CD485
:1076A000810345D4C10259D4810261D4410069D417
:1076B000B0F1FF3F77DD000208D5D8F82800D4F8F4
:1076C000841020F440000843C8F82800002E18BF9A
:1076D00001263046BDE8F087201D022104F084FD1C
:1076E0000546002D2E46D8D1D8F82000E16C20F4B4
:1076F000803000250843C8F820000AE00126012553
:1077000020688100CCD508E001270125A078C007BA
:10771000B6D13E4620688100C2D504F12400022182
:1077200004F0F2FD002818BF012620688103B9D5B6
:10773000A16F6FF0010202EB3122022A0AD34FEA55
:1077400031223AB1012A06D1D8F8002042F40032A1
:10775000C8F800209DB30126C102A5D5D8F8241091
:10776000E26E21F000411143C8F8241081029DD53A
:10777000D8F82410626E21F080711143C8F82410EB
:10778000410095D558F81C1C21F4004148F81C1CF8
:10779000D4F8B01058F81C2C114348F81C1CB0F158
:1077A000FF3F3FF788AFD8F82010226D21F04051FD
:1077B0001143C8F8201000027FF588AF7DE7D8F8A4
:1077C000282022F440721143C8F82810C1027FF526
:1077D0006BAFC3E701250127207840073FF595AE41
:1077E000DDE5201D012104F0FFFC0546002D2F469C
:1077F0007FF487AE09E004F12400012104F084FD48
:107800000546002D2F467FF47CAED8F82800216F66
:1078100020F0070000250843C8F8280037462078E4
:1078200040077FF5BCAD70E6012501262078800673
:107830003FF580AEB8E5201D012104F0D5FC0546DA
:10784000002D2E467FF472AE09E004F124000121E0
:1078500004F05AFD0546002D2E467FF467AED8F899
:107860002C00D4F88C1020F0070000250843C8F83D
:107870002C003E46207880067FF596AD5AE64FF004
:1078800001090125207840063FF56BAE91E5201DEA
:10789000002104F0A9FC0546002DA9467FF45DAE49
:1078A00009E004F12400022104F02EFD0546002D1C
:1078B000A9467FF452AED8F82800D4F8881020F0FA
:1078C000E04000250843C8F82800B146207840066B
:1078D0007FF56FAD45E601270125207800063FF5CD
:1078E00057AE6BE5201D002104F07EFC0546002DFF
:1078F0002F467FF449AE09E004F12400022104F090
:1079000003FD0546002D2F467FF43EAED8F82C002F
:10791000D4F8941020F4E05000250843C8F82C0057
:107920004F46207800067FF549AD31E64FF001095A
:107930000125206801077FF542AE44E5201D0021A6
:1079400004F052FC0546002DA9467FF434AE09E050
:1079500004F12400022104F0D7FC0546002DA946BD
:107960007FF429AED8F82C00D4F8981020F46040A9
:1079700000250843C8F82C00B946206801077FF5A8
:107980001EAE20E5D4F8AC004FF6CF7358F81C2C8F
:10799000C0F2FF0300F4407122F47C5203EA10139A
:1079A0006FF31F30B1F5407F08BF1A43002548F838
:1079B0001C2CD8F844100843C8F84400B9E400006F
:1079C0002DE9F04381B0002800F0288142F2000840
:1079D0000446C5F200288946D8F8000000F00F00E0
:1079E00088420ED2D8F8000020F00F0040EA0900CB
:1079F000C8F80000D8F8000000F00F00484540F03B
:107A00000D81206844F218474107C5F602070AD5E0
:107A100021693A6802F07002914204D93A6822F072
:107A200070021143396001070AD561697A6802F072
:107A30007002914204D97A6822F070021143796091
:107A4000C1060AD5A1697A6802F4E062914204D9BC
:107A50007A6822F4E0621143796081060AD5E1690F
:107A6000BA6802F07002914204D9BA6822F070023A
:107A70001143B96010F002010AD0E2683B6803F0DC
:107A80000F039A4204D93B6823F00F031A433A606C
:107A9000C20745D0386820F47061D4E9010201289A
:107AA00041EA0201396009D003280DD0022811D122
:107AB00057F8181C890340F1B18010E057F8181CE2
:107AC000C90540F1AB800AE057F8181C890140F164
:107AD000A58004E057F8181C490740F19F8057F82B
:107AE000081C21F00701084347F8080CFEF78CFA40
:107AF000064641F2883500BF57F8080C616800F06F
:107B00003800B0EBC10F08D0FEF77EFA801BA84208
:107B1000F2D9032001B0BDE8F083206800F0020133
:107B200051B1E1683A6802F00F02914204D23A681A
:107B300022F00F0211433960D8F8001001F00F0154
:107B400049450DD9D8F8001021F00F0141EA09018B
:107B5000C8F80010D8F8001001F00F0149455DD1B8
:107B600041070AD521693A6802F07002914204D2B5
:107B70003A6822F070021143396001070AD5616941
:107B80007A6802F07002914204D27A6822F07002A0
:107B900011437960C1060AD5A1697A6802F4E062EE
:107BA000914204D27A6822F4E0621143796080063F
:107BB0000AD5E069B96801F07001884204D2B96859
:107BC00021F070010843B86000F0E2F8396840F62F
:107BD00028333A68C9F20103C1F3032102F00F020E
:107BE000595C9A5C01F01F0120FA01F102F01F00BC
:107BF00040F2C00221FA00F0C2F20042106040F2EE
:107C0000C80040F2BC02C2F20040C2F2004200686A
:107C1000116001B0BDE8F043FEF73EBD012001B0A8
:107C2000BDE8F083000000003F22026044F21842E9
:107C3000C5F6020252F8083C03F0070343601368DC
:107C400003F470638360136803F00F03C360136869
:107C500003F070030361536803F0700343615368DA
:107C600003F4E0638361926802F07002C26142F241
:107C70000000C5F20020006800F00F0008607047A7
:107C800080B500F085F844F2184140F62833C5F677
:107C90000201C9F201030A68096801F00F01C2F389
:107CA0000322595C9A5C02F01F0220FA02F201F0F2
:107CB0001F0040F2C00122FA00F0C2F20041086049
:107CC00040F2BC01C2F200410A6080BD0000000029
:107CD00080B500F05DF844F2184C40F62831C5F646
:107CE000020CC9F20101DCF80020DCF8003003F0DE
:107CF0000F03C2F30322CB5C8A5C02F01F02D04068
:107D000003F01F0240F2C00320FA02F2C2F2004365
:107D10001A6040F2BC03C2F200431860DCF80400B1
:107D2000C0F30210085C00F01F0022FA00F080BDD2
:107D300080B500F02DF844F2184C40F62831C5F615
:107D4000020CC9F20101DCF80020DCF8003003F07D
:107D50000F03C2F30322CB5C8A5C02F01F02D04007
:107D600003F01F0240F2C00320FA02F2C2F2004305
:107D70001A6040F2BC03C2F200431860DCF8040051
:107D8000C0F30220085C00F01F0022FA00F080BD62
:107D900044F20041C5F602010869C0F3C20003289D
:107DA0000FD002282AD070BB0868800649F2000074
:107DB000C0F2D03058BF70470968C1F3C101C84054
:107DC00070478A6A886AC0F3051CC86ABCF1000F54
:107DD0004B6B1DD0C3F3CC0300F00100584302F0FD
:107DE0000302022A00EE100AB8EE400A12D0A2B92D
:107DF0000868800614D49FED261A1EE047F640005E
:107E0000C0F27D10704740F60010C0F23D00704790
:107E1000002070479FED1D1A0FE09FED1B1A0CE02C
:107E2000086849F20002C0F2D032C0F3C10022FA61
:107E300000F001EE100AB8EE411A086B9FED153AFA
:107E40006FF35F2002EE100A086BC0F34620B8EE15
:107E5000422A013000EE032A00EE10CAB7EE003AC3
:107E6000B8EE400A81EE000A32EE031A20EE010A53
:107E700001EE100AB8EE411A80EE010ABCEEC00A0B
:107E800010EE100A704700BF0024744A20BCBE4B9D
:107E90000024744C00000039F0B581B0002800F0D7
:107EA000CB800446007844F20046C007C5F60206BF
:107EB00012D0306900F03801B06A102905D01829B5
:107EC0002DD100F00300022829D13068800303D5AA
:107ED0006068002800F0B0802078800755D53069B0
:107EE00010F03801B06A2ED0182908BF5FEA807000
:107EF00029D0E0683168002800F0068121F01901DE
:107F000008433060FEF780F8054600BF3068400740
:107F100034D4FEF779F8401B0228F7D957E160689E
:107F2000002800F02781B0F5A02F00F03B81B0F5CC
:107F3000803F00F03B81306820F480303060306852
:107F400020F4802035E130684007E06801D5002842
:107F500072D0316821F0190108433060FEF754F8FF
:107F6000054600BF3068400708D4FEF74DF8401BB7
:107F700002284FF00300F5D901B0F0BD7068216907
:107F800020F0FE4040EA016070602078C00618D5FD
:107F9000306900F03801B06A082905D0182976D177
:107FA00000F00300012872D13068C00502D5E069F5
:107FB000802841D1F068216A20F07C5040EA0160BD
:107FC000F060207800073AD4207880064BD42078DF
:107FD000400773D4656A65B3306900F0380018282B
:107FE00040F00A81012DB16A306B25D001F0030207
:107FF000A36A9A4220D1C1F30511E26A91421BD1D2
:108000000146226B6FF35F21013A914214D1C0F314
:108010004622616B01398A420ED1C0F30642A16B40
:1080200001398A4208D1C0F30660E16B0139884208
:1080300002D1002001B0F0BD012001B0F0BD6069A7
:108040000028706F4ED040F001007067FDF7DCFF34
:10805000054600BF706F8007B6D4FDF7D5FF401B03
:108060000228F7D9B3E0A0690028306870D040F446
:1080700080503060FDF7C8FF054600BF30688004BF
:10808000A5D4FDF7C1FF401B0228F7D99FE0E069A6
:108090000028306800F09E8040F080003060FDF7DE
:1080A000B3FF05463068C0053FF584AFFDF7ACFF70
:1080B000401B02284FF00300F4D95DE7D6F8000416
:1080C00040F48070C6F80004FDF79EFF054600BF2F
:1080D000D6F80004C00529D4FDF796FF401B64289C
:1080E000F6D974E020F001007067FDF78DFF0546BA
:1080F000706F80077FF568AFFDF786FF401B022891
:108100004FF00300F4D937E721F001003060FDF7AC
:108110007BFF0546306840077FF537AFFDF774FFFA
:10812000401B02284FF00300F4D925E7A06800287F
:1081300000F08480052800F09A80012800F09B80E0
:10814000306F20F001003067306F20F0040095E0C0
:1081500020F480503060FDF757FF054630688004FA
:108160007FF535AFFDF750FF401B02284FF00300AD
:10817000F4D901E7306820F480303060306820F4B2
:1081800080203060FDF740FF054600BF3068800367
:108190007FF5A2AEFDF738FF401B64284FF00300C7
:1081A000F4D9E9E6306840F480203060306840F46B
:1081B00080303060FDF728FF054600BF306880033F
:1081C0003FF58AAEFDF720FF401B6428F6D9032057
:1081D00001B0F0BD20F080003060FDF715FF0546CE
:1081E0003068C0057FF5EDAEFDF70EFF401B02289D
:1081F0004FF00300F4D9BFE6306820F080703060A3
:10820000FDF702FF022D05460CD100BF306880014A
:1082100046D5FDF7F9FE401B02284FF00300F5D9C3
:10822000AAE600BF306880017FF503AFFDF7ECFEE2
:10823000401B02284FF00300F4D99DE6306F20F078
:1082400001003067306F20F004003067FDF7DCFE7E
:10825000054641F28837306F80077FF5BBAEFDF7EA
:10826000D3FE401BB8424FF00300F4D984E6306FD0
:1082700040F004003067306F40F001003067FDF7D8
:10828000C3FE054641F28837306F80073FF5A2AE46
:10829000FDF7BAFE401BB8424FF00300F4D96BE67D
:1082A00004F12807B06A40F2F33188438ECF0843C7
:1082B000591E40EA02104FF47E426FF35F21B06214
:1082C00002EB47204FF4FE0280B2E36B0844A16B3F
:1082D00002EB01414FF0FE4201F4FE0102EB0362AA
:1082E000084402F0FE4108443063F06A4FF6F8712A
:1082F00020F00100F062706BA26C884340EAC2007B
:108300007063F06A216C20F00C000843F062F06AA0
:10831000616C20F002000843F062F06A40F48030A3
:10832000F062F06A40F40030F062F06A40F48020BD
:10833000F062F06A40F00100F062306840F0807056
:108340003060FDF761FE0446306880013FF571AE94
:10835000FDF75AFE001B02284FF00300F4D90BE68C
:108360007047000000000000F0B581B00446007ABC
:10837000012803D10225284601B0F0BD012020725A
:10838000607A012808D10220607220680E46406899
:10839000400605D400250FE001250420E06036E00A
:1083A0000820E060204604F03FF80546012803D18C
:1083B0000125284601B0F0BDFDF726FE21680A46DA
:1083C00052F8043FDB0713D1074602E04868C007B4
:1083D0000DD1FDF719FEC01B21680328F6D34868AC
:1083E000C007F3D1012565720220E0600FE00A1D8D
:1083F000886820614968490601D4306005E008209A
:10840000E060106820F00100106001206072002020
:108410002072284601B0F0BDB0B5D0B30446407A12
:1084200020B900202072204600F062F8022060721D
:10843000D4E90001026822F004020260026822F01E
:108440002002114341F08041016040F6BC21C1F29D
:108450005971016147F274210161016821F0804185
:108460000160FDF7D1FD21680A68520013D4086845
:1084700040F0040008604868400620D4FDF7C4FDC1
:108480002168496849071ED4012060720020E0601D
:10849000B0BD0120B0BD054603E000BF0868400044
:1084A000E5D5FDF7B1FD401B21680328F6D3086828
:1084B0004000F3D5012060720221E160B0BD0420CC
:1084C00060720120B0BD054603E000BF4068400770
:1084D000DAD5FDF799FD401B03282068F6D34168E3
:1084E0004907F3D5042060720220E0600120B0BD8E
:1084F00010B5AEB0044601A8B421F8F71DFB41F653
:1085000000012068C4F60201884201D02EB010BDDF
:108510004FF40030019000201F9001A8FEF7A0FC4E
:1085200038B140F60D604FF4AB71C9F2010004F0B0
:108530005FFC44F2DC40C5F60200016841F04001F6
:108540000160006800F04000009000982EB010BD5F
:10855000F0B581B0044690F8200001284FF00200E9
:108560004CD00E46012184F82010154684F82100D5
:10857000CA20216848625320486244F20800C5F6C8
:108580000000026822F4806202604068400611D454
:10859000FDF73AFD074600BF2168C868400709D4C7
:1085A000FDF732FDC01BB0F57A7FF5D921680322B3
:1085B00003201CE04E614FF0B043886820F00700B4
:1085C000284388608020C5F60000026842F400223B
:1085D00002601868012240F400201860886840F4A6
:1085E00080408860886840F4806088600020FF23B5
:1085F0004B6284F82120002184F8201001B0F0BDE6
:1086000010B586B047F644446946C2F200440022E1
:10861000204600F06DF805A90022204600F034F84D
:1086200046F628619DF81700C2F2004181F820004B
:10863000BDF81500A1F821009DF8000081F8240084
:10864000BDF80100A1F8250006B010BD0000000033
:1086500010B588214FF40022C5F6000104460A60D7
:108660000068C168490508D5C16861F4906121F4CA
:108670008061C1602046FFF7C3FF012084F821001C
:1086800010BD000000000000B0B50068002A40687E
:108690004FEA104300F03F0CC0F3042ECB70C0F340
:1086A000423281F801E081F802C00A7001D0002056
:1086B000B0BDC0F3035203F00F034FEA1E1402EBE8
:1086C0008202050A00F00F0003EB4202CA7044EA7E
:1086D000840305F00F054FEA1C1405EB43034B70B0
:1086E00044EA840200EB420088700020B0BD000024
:1086F000B0B50068002A836A4B6003696FF3DF330B
:108700008B60006800F07F0C81F802C0C0F3054365
:108710000B70C0F3062E81F801E0C0F38052CA70DE
:1087200001D00020B0BD1B09020C43EA830302F014
:108730000F024FEA1E1402EB43020A7004EB84039B
:108740004FEA1C14050A00F00F0004EB840205F048
:108750000F0505EB43034B7000EB420088700020CF
:10876000B0BD00000000000070B5002851D00446E4
:1087700090F8210028B9002084F82000204600F05D
:108780005FF8022084F821002168CA204862532043
:108790004862C868400620D44FF0FF30C860FDF73B
:1087A00033FC2168CA68520617D40646002500BF6C
:1087B000FDF72AFC801BB0F57A7F02D9032584F8E7
:1087C00021502168032DC86802D010F04000EFD07E
:1087D0001DB1FF204862E8B270BD4FF6BF728868D5
:1087E000CFF68F72261D104088604DCE3043A669AB
:1087F00030438E683043886043EA02400861204677
:1088000003F08AFE216838B10546FF204862E8B2CD
:1088100070BD0125E8B270BDC86C002520F00300D2
:10882000C8646069E2691043CA6C1043C864FF20E1
:108830004862012084F82100E8B270BD0000000009
:1088400010B5AEB0044601A8B421F8F775F944F2AA
:1088500000012068C5F60001884201D02EB010BD8D
:108860004FF4800001904FF400702C9001A8FEF7A7
:10887000F7FA30B140F60D60DD21C9F2010004F0D5
:10888000B7FA44F270400022C5F60200016841F4D4
:108890000041016003200621FEF742F90320FEF7A4
:1088A0002FF92EB010BD00002DE9F04381B0044631
:1088B00090F820000225012800F0A0804FF0010070
:1088C00084F8200084F821503AB14878CA7891F8A9
:1088D0000290000240EA02484EE04878C20603D502
:1088E00000F0EF000A304870CA780A2A10D30A3A1A
:1088F0004CF6CD47D3B2CCF6CC47A3FB0737FB08E9
:1089000003EB8307A2EB4702102707EB031300E0FA
:1089100000231A430A28D2B24FEA024210D30A387F
:108920004CF6CD47C3B2CCF6CC47A3FB0737FB08C8
:1089300003EB8307A0EB4700102707EB031300E0CE
:10894000002303438878DBB20A2842EA032810D3C5
:108950000A384CF6CD43C2B2CCF6CC43A2FB03237B
:10896000DA0802EB8203A0EB4300102303EB0212B0
:1089700000E0002240EA020922680F78CA20506213
:1089800053205062D06840061ED44FF0FF30D060B4
:10899000FDF73AFB2268D168490615D40646002542
:1089A000FDF732FB801BB0F57A7F02D9032584F8EE
:1089B00021502268032DD06802D010F04000EFD083
:1089C00015B1FF20506216E05FFA89F0790340EAA2
:1089D000080020F0C00008435060204603F09CFDD2
:1089E0002168054600284FF0FF00486203D10025AA
:1089F000012084F82100002084F82000E8B201B0B2
:108A0000BDE8F083000000002DE9F041044690F835
:108A100020000227012800F0AD80012084F820000A
:108A200084F821700D462168CA2090464862532080
:108A30004862C86840061FD44FF0FF30C860FDF799
:108A4000E3FA2168CA68520616D40646002700BF1A
:108A5000FDF7DAFA801BB0F57A7F02D9032784F894
:108A600021702168032FC86802D010F04000EFD0B9
:108A700017B1FF2048627AE08868B8F1000F00F073
:108A8000400003D0C8B90020E87018E008B9002001
:108A9000E8702A784CF6CD40CCF6CC400A2A17D3A1
:108AA0000A3AD3B2A3FB0037FB0803EB8307A2EB20
:108AB0004702102707EB03170BE0E87880052A78B8
:108AC0006B78AF781B0243EA02423A44104330E02D
:108AD00000276B783A43D2B20A2B4FEA02420CD3FA
:108AE0000A3BDFB2A7FB0076F70807EB8706A3EB8C
:108AF0004603102606EB071700E000271F43AB785C
:108B0000FFB20A2B42EA07220CD30A3BDFB2A7FBD3
:108B10000007F80800EB8007A3EB4703102707EBDB
:108B2000001000E000201843EB78C0B2104340EA88
:108B3000835047F67F72C0F27F0210400860886859
:108B400020F480208860D5E9030210438A6810432E
:108B50008860204603F0E0FC2168074600284FF0BB
:108B6000FF00486203D10027012084F82100002083
:108B700084F82000F8B2BDE8F08100000000000099
:108B800020B3B0B5044690F82C000D4628B900205B
:108B900084F82D00204600F01BF8022084F82C00F9
:108BA0002068211DFAF718F9D4E900022946FAF7DE
:108BB0007FF944F20000C5F20020016841F0004155
:108BC0000160012084F82C000020B0BD0120704716
:108BD0002DE9F047B4B046F248600025C2F20040EB
:108BE000339532950178CDE9305500292F9540F025
:108BF000948002AC4FF0010A80F800A0201DB02143
:108C0000F7F79AFF4FF08070029020461395FEF719
:108C100027F938B140F6EC6040F2ED31C9F20100BD
:108C200004F0E6F844F2D44040F60004C5F6020031
:108C3000C5F602042FAD4FF002080168002741F489
:108C4000805101600068294600F48050019001982D
:108C50004FF63F002F9004F54060CDF8C08003260A
:108C600031974FF00C093296CDF8CC90FDF7D0F843
:108C700020462946CDE92FA8CDE93176CDF8CCA004
:108C8000FDF7C6F880202946CDE92F08A4F500603D
:108C9000CDE93176CDF8CC90FDF7BAF830202946F1
:108CA000CDE92F082046CDE93176CDF8CC90FDF7FF
:108CB000AFF848F233102946CDE92F0804F580506B
:108CC000CDE93176CDF8CC90FDF7A2F841F683706E
:108CD0002946CDE92F0804F50060CDE93176CDF8BD
:108CE000CC90FDF795F84FF440402946CDE92F0888
:108CF000A4F58060CDE93176CDF8CC90FDF788F809
:108D00004CF203702946CDE92F0804F58060CDE9C7
:108D10003176CDF8CC90FDF77BF834B0BDE8F08724
:108D2000B0B5054690F82C00022801D10220B0BD54
:108D300095F82C000124012808D1022085F82C0088
:108D40002868FAF791F885F82C4000242046B0BD39
:108D5000B0B590F82C3004460D460220052B04D007
:108D6000022B08BFB0BD012B0DD184F82C00294681
:108D70002068FAF785F82868022806D1052084F8CB
:108D80002C000020B0BD0120B0BD012084F82C00D3
:108D90000020B0BD0000000070470000000000008F
:108DA0007047000000000000704700000000000055
:108DB000F0B590F83C20012A01D10220F0BDCB682B
:108DC00048F2FF7ED1E901C223F47C5322F47052B1
:108DD000CFF6F07E1A430CEA0E03D1F800C042EA47
:108DE000030E2CF477230A6943EA0E0322F4762259
:108DF0008C691A434B691A430B6B22F4742223F4D7
:108E000070231A43D0F800C040F2004E4CF4806347
:108E1000C4F2010E012580F83C5042EA0442734539
:108E200002BF22F08052CC692243734514D1002640
:108E30008D6ACFF6F04622F07C720C6A06EA055580
:108E40002A4324F000744F6A22433A43734502BF19
:108E500022F00052C96A0A430021CCF8442080F86D
:108E60003C100846F0BD0000B0B590F83C20012A47
:108E70004FF0020266D0012380F83C3080F83D209C
:108E800040F2004C0268C4F2010C42F48063634576
:108E90005368D2F808E002BF23F470034C68234300
:108EA0004DF6FF740D68C4F2000423F07003A24273
:108EB00043EA0503536014DC40F2FF73C4F200037D
:108EC0009A4222DD40F60003C4F200039A422ED0FB
:108ED00040F60043C4F200039A4228D041F6000352
:108EE00021E04FF6FF73C4F200039A4213DD002322
:108EF000C4F201039A421AD044F20003C4F20103FF
:108F00009A4214D0624512D016E0B2F1804F0ED0D2
:108F100040F2004307E04EF20003C4F200039A421D
:108F200005D04EF20043C4F200039A4204D12EF061
:108F300080038968194391600022012180F83D1067
:108F400080F83C201046B0BD49B108290FD0042953
:108F500014D100F145021278012A0DD113E090F8E6
:108F60004420012A08D1022280F8442018E000F1B0
:108F700046021278012A06D00120704700F147020C
:108F80001278012AF8D10222082904D0042905D137
:108F900080F8452004E080F8462001E080F8472072
:108FA000026801F01F00042101FA00F0116A8143F8
:108FB0001162116A084310624DF6FF70516CC4F2E1
:108FC0000000824241F40040506414DC40F2FF7023
:108FD000C4F20000824224DD40F60000C4F200002A
:108FE000824230D040F60040C4F2000082422AD0D3
:108FF00041F6000023E04FF6FF70C4F20000824209
:1090000015DD0020C4F2010082421CD044F20000B1
:10901000C4F20100824216D040F20040C4F20100C6
:109020000FE0B2F1804F0ED040F2004007E04EF268
:109030000000C4F20000824205D04EF20040C4F2AB
:10904000000082420BD107219068C0F2010101406B
:109050000020062918BFB1F5803F00D17047106885
:1090600040F0010010600020704700000000000088
:1090700060B310B5044690F83D0028B9002084F88C
:109080003C00204600F024F8022084F83D002068CF
:10909000211D04F0BDF8012084F8480084F83E004A
:1090A00084F83F0084F8400084F8410084F84200CE
:1090B00084F8430084F8440084F8450084F84600AE
:1090C00084F8470084F83D00002010BD012070475F
:1090D00081B044F200010068C4F20101884201D06D
:1090E00001B0704744F2F040C5F60200016841F457
:1090F00080310160006800F480300090009801B079
:10910000704700000000000090F83D10012922D1B6
:10911000022180F83D1001684DF6FF70C4F2000096
:109120008142C86840F00100C86016DC40F2FF7060
:10913000C4F20000814226DD40F60000C4F20000C7
:10914000814232D040F60040C4F2000081422CD06F
:1091500041F6000025E0012070474FF6FF70C4F291
:109160000000814215DD0020C4F2010081421CD0C4
:1091700044F20000C4F20100814216D040F20040E7
:10918000C4F201000FE0B1F1804F0ED040F2004078
:1091900007E04EF20000C4F20000814205D04EF21A
:1091A0000040C4F2000081420BD107228868C0F25F
:1091B000010202400020062A18BFB2F5803F00D10C
:1091C0007047086840F00100086000207047000008
:1091D00080B590F83C20012A4FF0020200F0A480F4
:1091E000012380F83C3080F83D208822D0F800C070
:1091F000CFF6CE72DCF808301A40CCF808200B68A5
:109200006F2B0CDDB3F1101F34DAB3F5005F42DAD7
:10921000702B00F08B80B3F5805F7ED0CEE02F2BDB
:1092200032DD4F2B3CDC302B6BD0402B40F0C68026
:10923000D1F804E0C968DCF82030DCF8202022F006
:109240000102CCF82020DCF8182022F0F00242EADB
:10925000011123F00A02CCF8181042EA0E01CCF8F2
:1092600020104FF68872DCF80810CFF6CF7211404C
:10927000473150E02F21C0F210018B4237DCB3F1AF
:10928000101F3ED0202138E0002B18BF102B38D003
:10929000202B36D092E05CD0B3F5801F31D08DE02A
:1092A000502B69D0602B40F08980D1F804E0C96868
:1092B000DCF8203023F01003CCF82030DCF8183034
:1092C000DCF8202023F4704322F0A00243EA0131AD
:1092D000CCF8181042EA0E11CCF820104FF6887224
:1092E000DCF80810CFF6CF721140673113E030215F
:1092F000C0F210018B4204D04021C0F210018B4219
:109300005CD14FF68872DCF80810CFF6CF721140AE
:10931000194341F00701CCF808100022012180F820
:109320003D10002180F83C10104680BDD1E901E3DA
:10933000C968DCF8082043EA0E0322F47F4243EABE
:1093400001211143CCF80810DCF8081041F0770136
:10935000E1E7D1E901E3C968DCF8082043EA0E033C
:1093600022F47F4243EA01211143CCF80810DCF8D3
:10937000081041F48041CEE7D1F804E0C968DCF878
:109380002030DCF8202022F00102CCF82020DCF88C
:10939000182022F0F00242EA011123F00A02CCF870
:1093A000181042EA0E01CCF820104FF68872DCF853
:1093B0000810CFF6CF7211405731ACE70122ADE76C
:1093C000704700000000000010B504460068016905
:1093D000890744BFC1685FEA81713FD401694907C9
:1093E00044BFC1685FEA417144D40169090744BFC1
:1093F000C1685FEA01714AD40169C90644BFC16806
:109400005FEAC1614FD40169C9071CBFC1685FEA47
:10941000C17155D10169090644BFC1685FEA0161A4
:1094200056D40169C90544BFC1685FEA016157D4D8
:109430000169490644BFC1685FEA416158D40169C6
:10944000890646BFC1685FEA816110BD6FF02001E7
:1094500001612046BDE81040FFF7A6BC6FF0020195
:109460000161012121778069800749D02046FFF7FB
:10947000A7FF4BE06FF004010161022121778069B1
:1094800010F4407F46D02046FFF79AFF48E06FF087
:109490000801016104212177C069800744D020467A
:1094A000FFF78EFF46E06FF0100101610821217780
:1094B000C06910F4407F41D02046FFF781FF43E0B0
:1094C0006FF001010161204600F0D2FA2068A1E7A7
:1094D0006FF0800101612046FFF762FC2068A0E781
:1094E0006FF4807101612046FFF756FC20689FE70A
:1094F0006FF040010161204600F0C6FA20689EE747
:10950000204600F025F8204600F0AEFA0020207733
:10951000206863E7204600F01BF8204600F0A4FA1C
:1095200000202077206860E7204600F011F82046F0
:1095300000F09AFA0020207720685DE7204600F0CE
:1095400007F8204600F090FA0020207720685AE7BC
:1095500070470000000000002DE9F04190F83C3019
:10956000012B02D10220BDE8F0814FEAB2030122B3
:10957000052B80F83C2000F23D82DFE803F0032D4C
:109580006BA9CFF5036843F6FF76C4F201061A6AA9
:10959000B34222F001021A621A461C6AD3F804E0B0
:1095A00024F0020452F818CF8D6844EA0504D1F87B
:1095B000008040F3FF8044F20007C4F20107BB4281
:1095C00000F0038144F60007C4F20107BB4200F03B
:1095D000FC8044F20047F4E0036840F2004843F4A2
:1095E0008066C4F201081A6A464522F010021A6227
:1095F0001A461F6A5D6827F0200752F818CF8C685A
:10960000D1F800E047EA041407D1CE686FF04007B4
:1096100024F0C00407EA0616344343F6FF76C4F28A
:109620000106B34240F3EB8044F20006C4F20106A7
:10963000B34200F0EB8044F60006C4F20106B342E8
:1096400000F0E48044F20046C4F20106B34200F0A8
:10965000DD80E3E0036840F2004843F48066C4F232
:1096600001081A6A464522F480721A621A461F6A75
:109670005D6827F4007752F81CCF8C68D1F800E0C1
:1096800047EA042407D1CE6840F2FF47360224F4AB
:109690004064BE43344343F6FF76C4F20106B3424E
:1096A00040F3D38044F20006C4F20106B34200F056
:1096B000D38044F60006C4F20106B34200F0CC8029
:1096C00044F20046C4F20106B34200F0C580CBE08C
:1096D000036843F6FF77C4F201071A6ABB4222F41B
:1096E00080521A621A46D3F820C05C6852F81C6F88
:1096F0000D68D1F808E040F3CE8044F20007C4F2D0
:109700000107BB4200F0D28044F60007C4F2010713
:10971000BB4200F0CB8044F20047C3E0036843F64D
:10972000FF77C4F201071A6ABB4222F480321A6240
:109730001A46D3F820C05C6852F8546F0D68D1F80F
:1097400008E040F3D28044F20007C4F20107BB42B4
:1097500000F0D68044F60007C4F20107BB4200F0D7
:10976000CF8044F20047C7E0036843F6FF77C4F2B6
:1097700001071A6ABB4222F480121A621A46D3F811
:1097800020C05C6852F8546F0D68D1F808E040F3CF
:10979000D78044F20007C4F20107BB4200F0DB802F
:1097A00044F60007C4F20107BB4200F0D48044F243
:1097B0000047CCE00027C4F20107BB4205D040F2CD
:1097C0000047C4F20107BB4205D1CF6824F00C0466
:1097D00027F004073C43B34240F3DF8044F2000625
:1097E000C4F20106B34200F0E38044F60006C4F27E
:1097F0000106B34200F0DC8044F20046D4E00026CB
:10980000C4F20106B34201D0434507D14E6925F4A5
:1098100040658F6945EA860545EA870548F6FF46B3
:109820005D60CFF6FF660CEA060747EA0E279F61E8
:109830004F6809699F631C629F6947F400679F61D5
:109840009F6927F480679F61A5E00026C4F20106A6
:10985000B34201D0434507D14E6925F440558F6985
:1098600045EA061545EA07154FF68C765D60CFF69A
:10987000FE760CEA060747EA0E07DF614F680969C2
:10988000DF631C62DF6947F00807DF61DF6927F0EB
:109890000407DF61AAE00027C4F20107BB4205D03C
:1098A00040F20047C4F20107BB4204D14F6924F4DF
:1098B000804444EA871448F6FF475C60CFF6FF67B0
:1098C0003E402CF4005746EA0524DC614E680969E5
:1098D0001E6447EA0E371F62DF6947F40067DF61E5
:1098E000DF6927F48067DF6155E00027C4F20107D4
:1098F000BB4205D040F20047C4F20107BB4204D18D
:109900004F6924F4803444EA07244FF68C775C6076
:10991000CFF6FE7703373E402CF4003746EA0504C5
:109920005C654E6809699E6547EA0E471F625F6D78
:1099300047F008075F655F6D27F004075F6555E036
:109940000027C4F20107BB4205D040F20047C4F231
:109950000107BB4204D14F6924F4802444EA8724E0
:1099600048F6FF475C60CFF6FF6707F540773E405B
:109970002CF4001746EA05245C654E680969DE652B
:1099800047EA0E571F625F6D47F400675F655F6DC2
:1099900027F480675F65090228E00026C4F201060B
:1099A000B34205D040F20046C4F20106B34206D1EC
:1099B0002EF44077D1E90565374347EA050E4FF6A7
:1099C0008C75C3F804E0CFF6FE750CEA050747EA8C
:1099D00008079F614F6809695F631C629F6947F0D0
:1099E00008079F619F6927F004079F611368194367
:1099F00011600022002180F83C101046BDE8F08183
:109A000060B310B5044690F83D0028B9002084F8F2
:109A10003C00204600F024F8022084F83D00206835
:109A2000211D03F0F5FB012084F8480084F83E0076
:109A300084F83F0084F8400084F8410084F8420034
:109A400084F8430084F8440084F8450084F8460014
:109A500084F8470084F83D00002010BD01207047C5
:109A60007047000000000000704700000000000088
:109A700041F200010068C4F20001884218BF70473B
:109A8000FCF7C6BD000000007047000000000000A9
:109A900090F88010012901D1022070472421C0F8DC
:109AA000841002681368116823F0005321F001014B
:109AB00011600021416613602022C0F8842080F8E4
:109AC000801008467047000070470000000000004A
:109AD0007047000000000000B0B590F88020012A17
:109AE00001D10220B0BD012380F880302422C0F8CB
:109AF00084200268D0F864E0BEF1000FD2F800C004
:109B0000146824F001041460946824F0606441EA4D
:109B10000401916019D0916840F6783E9368C9F2CB
:109B2000010E5B0F40F68035C1F34261C9F20105B9
:109B30001EF80340EB5C2401B4FBF3F31EF8014074
:109B4000695C2501B5FBF1F100E00121A0F86A3064
:109B5000A0F868102021C2F800C0C0F884100021CD
:109B600080F880100846B0BDB0B590F88020012A7A
:109B700001D10220B0BD012380F880302422C0F83A
:109B800084200268D0F864E0BEF1000FD2F800C073
:109B9000146824F001041460946824F0604441EADD
:109BA0000401916019D0916840F6783E9368C9F23B
:109BB000010E5B0F40F68035C1F34261C9F2010529
:109BC0001EF80340EB5C2401B4FBF3F31EF80140E4
:109BD000695C2501B5FBF1F100E00121A0F86A30D4
:109BE000A0F868102021C2F800C0C0F8841000213D
:109BF00080F880100846B0BD7047000000000000EB
:109C00007047000000000000B0B504460168D0F8BD
:109C100084002128D4F88850886840F0908010F0A3
:109C2000800000F08C8051E8020F00BF216820F016
:109C3000800041E802020AB3206850E8020F216860
:109C400020F0800041E80202002A1FBF206850E88F
:109C5000020F216820F080001CBF41E80202002AA8
:109C60000CD0206850E8020F216820F0800041E805
:109C700002021AB1206850E8020FD7E7A06F48B17E
:109C8000FAF70AF830B1A06FFAF79AFD202800F031
:109C9000958000BF206850E8000F216820F0C000C8
:109CA00041E80002002A1FBF206850E8000F216829
:109CB00020F0C0001CBF41E80002002A26D0206826
:109CC00050E8000F216820F0C00041E80002EAB12E
:109CD000206850E8000F216820F0C00041E8000231
:109CE000002AD7D112E000BF206850E8020F216897
:109CF00020F4000041E80202EAB1206850E8020FB7
:109D0000216820F4000041E80202A2B1206850E876
:109D1000020F216820F4000041E80202002A1FBF60
:109D2000206850E8020F216820F400001CBF41E8C1
:109D30000202002AD8D12020C4F884002168222DF4
:109D40008A684FF0000040F0C18012F0400208BF66
:109D5000B0BD51E8020F00BF216820F0400041E88B
:109D600002020AB3206850E8020F216820F0400088
:109D700041E80202002A1FBF206850E8020F216854
:109D800020F040001CBF41E80202002A0CD02068ED
:109D900050E8020F216820F0400041E802021AB1A9
:109DA000206850E8020FD7E7E06F68B1F9F774FF59
:109DB00050B1E06FFAF704FD202805D11020C4F857
:109DC0008C000320B0BD00BF206850E8000F216860
:109DD00020F4907041E80002002A1FBF206850E87C
:109DE000000F216820F490701CBF41E80002002A97
:109DF00012D0206850E8000F216820F4907041E8EC
:109E000000024AB1206850E8000F216820F49070E9
:109E100041E80002002AD7D14FF6FE70CEF6FF705F
:109E2000216851E8021F2268014042E80213002B1A
:109E30001FBF216851E8021F226801401CBF42E891
:109E40000213002B10D0216851E8021F2268014044
:109E500042E8021343B1216851E8021F2268014021
:109E600042E80213002BDBD1E06E012828D100BFAD
:109E7000206850E8000F216820F0100041E800023F
:109E8000002A1FBF206850E8000F216820F0100052
:109E90001CBF41E80002002A12D0206850E8000FE1
:109EA000216820F0100041E800024AB1206850E823
:109EB000000F216820F0100041E80002002AD7D1ED
:109EC0002020C4F888000020E0662067B0BD0000B4
:109ED000B0B5D0B1044624200025C4F88400206821
:109EE000016821F001010160056045608560204640
:109EF00000F0E6FB2846C4F88C50C4F88450C4F83F
:109F00008850E56684F88050B0BD0120B0BD0000E7
:109F1000B0B582B00546FFF777FE47F634502968A2
:109F2000C2F20040006881421CBF02B0B0BD40F6E2
:109F30003D6240F64463C9F20102C9F20103002008
:109F400002218924009406F005FDD5F88C3009A281
:109F50000020012106F0FEFC47F6345040F20801D3
:109F6000C2F20040C2F20041012202B0BDE8B0409E
:109F700000F0AEBC55415254204572726F72436F6F
:109F80006465203D2025780D0A0D0A0000000000C0
:109F9000B0B50446006840F62F01C269056811405B
:109FA000D0F808E020290BD105F020010EF08053F5
:109FB000C91823D0216FD1B32046BDE8B04008476F
:109FC00040F60F010A4219D0012140F22013C1F2DC
:109FD0000001C0F200430EEA010C05EA030111EB97
:109FE0000C010BD0D10718BF15F4807140F0C5816A
:109FF00091070EF0010300F1CC81D3E105EA0203E1
:10A00000D906E16E14D5012912D1102101628168AF
:10A01000490600F1A180B4F85C10B4F85E20B4F8F1
:10A020005E30002B1CBF891A5FEA01422FD1B0BD00
:10A03000D10240F158811EF4800100F054814FF4A8
:10A04000801101622046BDE8B040FFF7D9BD00BFD6
:10A05000206850E8000F226820F4907042E8000366
:10A06000002B1FBF206850E8000F226820F490707A
:10A070001CBF42E80003002B12D0206850E8000FFC
:10A08000226820F4907042E800034BB1206850E849
:10A09000000F226820F4907042E80003002BD7D113
:10A0A0004FF6FE70CEF6FF70226852E8022F23684A
:10A0B000024043E80225002D1FBF226852E8022F0C
:10A0C000236802401CBF43E80225002D10D02268FF
:10A0D00052E8022F2368024043E8022545B1226876
:10A0E00052E8022F2368024043E80225002DDBD10D
:10A0F0002020C4F888000020E0662067206850E82F
:10A10000000F226820F0100042E80003002B1FBF60
:10A11000206850E8000F226820F010001CBF42E8C1
:10A120000003002B12D0206850E8000F226820F0B6
:10A13000100042E800034BB1206850E8000F22688D
:10A1400020F0100042E80003002BD7D189B220464E
:10A15000BDE8B040FFF7B8BCE26F11684B6899B238
:10A1600000293FF464AFB4F85CC06145BFF45FAF51
:10A17000A4F85E30D169B1F5807F00F0AA8050E884
:10A18000000F216820F4807041E80002FAB12068D5
:10A1900050E8000F216820F4807041E80002002A96
:10A1A0001FBF206850E8000F216820F480701CBF9A
:10A1B00041E80002002A0AD0206850E8000F216818
:10A1C00020F4807041E800020AB12068D7E72068D7
:10A1D00050E8020F216820F0010041E80202002A45
:10A1E0001FBF206850E8020F216820F001001CBF4B
:10A1F00041E80202002A25D0206850E8020F2168B9
:10A2000020F0010041E80202E2B1206850E8020FAC
:10A21000216820F0010041E80202002AD7D111E0B4
:10A22000206850E8020F216820F0400041E8020257
:10A23000EAB1206850E8020F216820F0400041E8B0
:10A240000202A2B1206850E8020F216820F040000D
:10A2500041E80202002A1FBF206850E8020F21686F
:10A2600020F040001CBF41E80202002AD8D1202083
:10A27000C4F888000020E066206850E8000F2168DC
:10A2800020F0100041E80002002A1FBF206850E8BB
:10A29000000F216820F010001CBF41E80002002AD6
:10A2A00012D0206850E8000F216820F0100041E82B
:10A2B00000024AB1206850E8000F216820F0100029
:10A2C00041E80002002AD7D1E06FF9F7E5FCB4F8C5
:10A2D0005CC0B4F85E00ACEB000081B22046BDE883
:10A2E000B040FFF7F1BB11060BD505F0800C0EF462
:10A2F000000111EB0C0104D0616F00297FF45CAE0A
:10A3000095E659060CD4100240F1678115F08040A3
:10A3100000F063812046BDE8B040FFF76DBC00BF90
:10A3200050E8000F216820F0400041E80002002AB8
:10A3300000F03381206850E8000F216820F04000D1
:10A3400041E80002002A1FBF206850E8000F216882
:10A3500020F040001CBF41E80002002A00F01D81EF
:10A36000206850E8000F216820F0400041E800021A
:10A37000002A00F012812068D2E701210162D4F89E
:10A380008C1041F00101C4F88C1091070EF001030C
:10A3900008D53BB102210162D4F88C1041F00401D0
:10A3A000C4F88C10510708D53BB104210162D4F8E0
:10A3B0008C1041F00201C4F88C1011070CD505F087
:10A3C000200151EA0C0107D008210162D4F88C1059
:10A3D00041F00801C4F88C1011050BD515F080610F
:10A3E00008D04FF400610162D4F88C1041F02001D4
:10A3F000C4F88C10D4F88C1000293FF418AE12F079
:10A4000020010AD005F020010EF08052891804D0F6
:10A41000216F11B1204688472068D4F88C108268DB
:10A4200002F0400201F02801891800F0AF8000BF5F
:10A4300050E8000F216820F4907041E80002FAB162
:10A44000206850E8000F216820F4907041E8000275
:10A45000002A1FBF206850E8000F216820F4907088
:10A460001CBF41E80002002A0AD0206850E8000F13
:10A47000216820F4907041E800020AB12068D7E713
:10A480004FF6FE70CEF6FF70216851E8021F226879
:10A49000014042E80213002B1FBF216851E8021F50
:10A4A000226801401CBF42E80213002B10D0216833
:10A4B00051E8021F2268014042E8021343B12168BB
:10A4C00051E8021F2268014042E80213002BDBD151
:10A4D000E06E012828D100BF206850E8000F2168F5
:10A4E00020F0100041E80002002A1FBF206850E859
:10A4F000000F216820F010001CBF41E80002002A74
:10A5000012D0206850E8000F216820F0100041E8C8
:10A5100000024AB1206850E8000F216820F01000C6
:10A5200041E80002002AD7D12020C4F88800002189
:10A53000E166206821678168490649D550E8020F25
:10A54000216820F0400041E8020282B3206850E810
:10A55000020F216820F0400041E80202002A1FBFDC
:10A56000206850E8020F216820F040001CBF41E83D
:10A570000202002A1BD0206850E8020F216820F058
:10A58000400041E8020292B12068D7E72046FFF779
:10A59000BFFC0020C4F88C00B0BD2020C4F88400AB
:10A5A000002060672046BDE8B04000F029BBE06FA6
:10A5B00070B14DF24161C9F200010165F9F7ECFD9E
:10A5C00000283FF434ADE06F016DBDE8B0400847AE
:10A5D0002046BDE8B040FFF79BBCD0017FF527AD1A
:10A5E000B5F1FF3FC8BFB0BD2046BDE8B040FFF7A2
:10A5F0006FBA000000000000B0B582B0B0B10446F0
:10A60000D0F8840028B9002084F88000204600F0AB
:10A6100093F82420C4F884002068016821F0010127
:10A620000160204603F0E8F9012802D1012002B0C0
:10A63000B0BDA06A10B1204602F092FF20684168C8
:10A6400021F490414160816821F02A018160016814
:10A6500041F0010101600020C4F88C00FBF7D4FC3C
:10A66000216805460A6812070BD54FF40011002235
:10A670006FF07E40009020462B4603F0CDFC70B971
:10A680002168086840070DD54FF4800100226FF063
:10A690007E40009020462B4603F0BEFC10B1032004
:10A6A00002B0B0BD2020C4F88400C4F888000020A7
:10A6B000E06684F8800002B0B0BD00000000000039
:10A6C00010B541F6004104460068C4F20101884219
:10A6D00017D047F60001C4F20001884218BF10BD30
:10A6E00044F2E8420020C5F60202C5F602004FF42B
:10A6F0000041136823F080431360BDE81040FBF76E
:10A7000077BA44F2E8400022C5F60200C5F602021C
:10A71000816821F08001816002F580500C21FBF7F7
:10A7200067FAE06FF9F788FEA06FF9F785FE9C20C5
:10A73000BDE81040FCF7D0B92DE9F041B4B00446B3
:10A7400002A8B4210025CDE93255CDE930552F9529
:10A75000F6F7F2F941F600412068C4F2010188429F
:10A7600042D047F60001C4F20001884240F0AD80BB
:10A770000220029002A800241E94FCF771FB38B15D
:10A7800040F6EC6040F2C121C9F2010002F030FB5A
:10A7900044F2E040C5F60200816841F080418160EA
:10A7A000816801F0804101910199016841F0010146
:10A7B0000160006841F2000100F001000190C5F65F
:10A7C000020101984FF400402F901220CDE930048F
:10A7D000032032900B203390A1F580502FA9FBF776
:10A7E00017FB34B0BDE8F08102A84FF00108CDF8A6
:10A7F00008801F95FCF734FB38B140F6EC6040F25E
:10A80000D721C9F2010002F0F3FA44F2E04041F22C
:10A810000005C5F60200C5F602052FAE0227016944
:10A8200041F080010161016901F08001019101990C
:10A83000016841F0100101600068314600F010002D
:10A840000190019804202F90CDE93078CDE9328035
:10A850002846FBF7DDFA08203146CDE92F0700270F
:10A860000B20CDE9317833902846FBF7D1FA47F633
:10A87000D8251020C2F20045C4F2020028607620DC
:10A88000C5E90107EF604FF48060C5E90407AF61D7
:10A890004FF48070E8614FF40030C5E9080728469E
:10A8A000FAF78EFB38B140F6EC6040F2FE21C9F2B7
:10A8B000010002F09DFA9C2005210022E567AC63AF
:10A8C000FCF72EF99C20FCF71BF934B0BDE8F081B1
:10A8D000B0B50446D0F8880020280BD113460A46AC
:10A8E0000120002918BF002B00D1B0BD94F88000D2
:10A8F000012801D10220B0BD012084F880004FF072
:10A90000000CC4F86CC040F600452168C5F600058F
:10A91000A94232D04D682D022FD551E8001F25687D
:10A9200041F0806145E8001038B3206850E8000F1E
:10A93000216840F0806041E80005002D1FBF2068BD
:10A9400050E8000F216840F080601CBF41E800051E
:10A95000002D12D0206850E8000F216840F0806080
:10A9600041E800054DB1206850E8000F216840F033
:10A97000806041E80005002DD7D1A2652220A4F80F
:10A980005C30C4F88CC0C4F88800E06FF8B14DF6B4
:10A9900069014DF6E115C9F20001C9F20005C0E9EF
:10A9A0000F154DF251610025C9F20001C164216803
:10A9B00005652431FAF734FE48B11020C4F88C0044
:10A9C00084F880502020C4F888000120B0BD2069A0
:10A9D00000284FF0000084F8800027D0206850E85D
:10A9E000000F216840F4807041E80002002A1FBF78
:10A9F000206850E8000F216840F480701CBF41E8D7
:10AA00000002002A12D0206850E8000F216840F4AC
:10AA1000807041E800024AB1206850E8000F2168C8
:10AA200040F4807041E80002002AD7D1206850E845
:10AA3000020F216840F0010041E80202002A1FBF16
:10AA4000206850E8020F216840F001001CBF41E877
:10AA50000202002A1FD0206850E8020F216840F04F
:10AA6000010041E80202B2B1206850E8020F2168FB
:10AA700040F0010041E80202002AD7D10BE0206833
:10AA800050E8020F216840F0400041E80202002037
:10AA9000002A3FF42AAF206850E8020F216840F0F6
:10AAA000400041E80202A2B1206850E8020F21688C
:10AAB00040F0400041E80202002A1FBF206850E831
:10AAC000020F216840F040001CBF41E80202002A4A
:10AAD000D5D10020B0BD000047F634510068C2F265
:10AAE00000410968884218BF70474EF65C7140F219
:10AAF0000800CEF20001C2F20040BFF34F8F0860A1
:10AB0000BFF34F8FBFF36F8F017846F66460C2F2D8
:10AB10000040F8F749B9000070470000000000004D
:10AB20002DE9F04381B00446D0F8840020280BD1F1
:10AB30000E4600294FF001005CD01746002A59D07C
:10AB400094F88000012803D1022001B0BDE8F08311
:10AB50001D46012084F880004FF00009C4F88C9055
:10AB60002120C4F88400FBF74FFAA4F85470A4F82D
:10AB700056700746A168B1F5805F07D120690028AB
:10AB80001CBF30464E46B046064601E04FF0000876
:10AB900084F8809009E000BF206816F8011B8162EC
:10ABA000B4F856000138A4F85600B4F8560088B13D
:10ABB0008021002220463B46009503F02DFA88B9FB
:10ABC000002EE9D138F8020B216800266FF35F20D0
:10ABD0008862E5E74021002220463B46009503F0CD
:10ABE0001BFA18B1032001B0BDE8F0832020C4F89F
:10ABF0008400002001B0BDE8F083000000000000E8
:10AC000070470000000000002DE9F04381B00368A8
:10AC100004469869C00605D4002000219A69D7052A
:10AC20005FD464E01020D8619869800652D48846C9
:10AC3000481C45D016464FF02009002506E000BF0D
:10AC40000027986900F02000384334D1FBF7DCF985
:10AC5000B8F1000F236802D0801B4045F0D9586836
:10AC600094F84210202999690DD010F480400AD13F
:10AC700011F4004007D0586840F480405860FBF75A
:10AC8000C3F9064623689869002701E0236898699C
:10AC90008006D6D4FBF7B8F9801B1A28F6D3606C6F
:10ACA000012740F02000606484F8419084F842500D
:10ACB00084F84050EAE77FB90CE09869800609D42F
:10ACC0009869800606D4986980065CBF98695FEA37
:10ACD0008060F2D52020D861012104209A69D7052F
:10ACE00005D540F001004FF48071D961012157056D
:10ACF00006D492050AD471B9002001B0BDE8F083F2
:10AD0000083091054FF48061D96104D540F002000C
:10AD10004FF40071D9619969890701D500219962C1
:10AD20009969C90703D1996941F0010199614EF60A
:10AD300000025968CFF6006211405960616C084307
:10AD40006064202084F84100002084F8420084F8E8
:10AD50004000012001B0BDE8F083000000000000C9
:10AD60002DE9F04381B00446006808261746DAB2A0
:10AD70001D4666F39F2149F600064368CFF600465C
:10AD8000DDE90898334041EA024119434160204619
:10AD90004946424600F054F818B1012001B0BDE820
:10ADA000F083012D09D02068390A4246816220468D
:10ADB000494600F045F80028EFD1F8B221688862D2
:10ADC0008869400623D4B9F1000F24D019F101009D
:10ADD00016D1886940061AD4886940065CBF886924
:10ADE0005FEA406013D4886940064FF00000F0D558
:10ADF00020E000BF2068806940064FF0000019D4B1
:10AE0000FBF702F9A0EB08004845F3D905E0002064
:10AE100001B0BDE8F083FBF7F7F8606C40F020006C
:10AE20006064202084F84100002084F8420084F807
:10AE30004000012001B0BDE8F083000000000000E8
:10AE400070B5044600688069800710D415460E4628
:10AE500009B3701C17D100BF4FF0FF3120462A46BE
:10AE6000FFF7D2FEE8B9206880698007F4D500209A
:10AE700070BD00BFFBF7C8F8401BB04215D8206872
:10AE800080698007F3D4204631462A46FFF7BCFE8E
:10AE90000028EFD005E0002120462A46FFF7B4FE47
:10AEA00008B1012070BDFBF7AFF8606C40F02000E6
:10AEB0006064202084F84100002084F8420084F877
:10AEC0004000012070BD000084B046F6046447F2E3
:10AED0007815C2F200440026C2F200450DF10C0ABA
:10AEE00009E046F675710520C2F20041487000265F
:10AEF0000A2000F091FE032101224FF0FF3320468B
:10AF000000F022FE0130F6D0284651460396F8F7AD
:10AF1000F7F80028ECD1039840F619420521C9F250
:10AF2000010200EB400005EB8000067C477C90F8B6
:10AF300012800097D0E905B902203346CDF804808D
:10AF400005F008FD032E14D0022E20D0012E4FF064
:10AF50000006CDD1012FCBD1B8F1020F2DD0B8F121
:10AF6000010FC5D146F675710120C2F2004148704B
:10AF7000BEE740F6404202200521C9F201023B46ED
:10AF8000CDE9008BCDF8089005F0E4FCAFE7052F84
:10AF9000A7D0082F4FF0000608D0062FA8D146F6FC
:10AFA00075700621C2F200404170A1E746F6757047
:10AFB0000821C2F2004041709AE746F675700721F9
:10AFC000C2F20040417093E710B547F278140021B7
:10AFD000C2F200444FF4C872204602F0F5F8202176
:10AFE0002046F8F79DF846F6046040F28811C2F258
:10AFF0000040C2F2004100F09BFD28B108A20020F1
:10B00000022105F0A7FC04E00CA20020002105F0BD
:10B01000A1FC12A200200021BDE8104005F09ABC5E
:10B02000496E707574204576656E74204372656153
:10B030007465204661696C0D0A000000496E7075E8
:10B0400074204576656E7420437265617465205383
:10B050007563636573730D0A00000000496E7075B7
:10B060007420496E6974204F6B0D0A0000000000C7
:10B07000F0B581B047F278170D46C2F20047064698
:10B0800000200090694638461446F8F771F810B170
:10B09000002001B0F0BD0098310A00EB400007EB42
:10B0A000800006744174310C8174C0E9055400209D
:10B0B00001B0F0BD0000000080B54BF21120C9F2D4
:10B0C000000001F009F84BF2F900C9F2000000F0AD
:10B0D000B3FF03A200200021BDE8804005F03ABC88
:10B0E000496E73747275637420496E6974204F6B76
:10B0F0000D0A000000000000B0B582B091F8FC30ED
:10B100000C4605462AA20220052105F023FC94F8EE
:10B11000FA302BA20220052105F01CFC94F8FA005D
:10B12000B0380F2833D801214CF20F028140114270
:10B1300003D00024204602B0B0BD042827D194F8E3
:10B14000FC00E028F5D10120C0F2001020600020B2
:10B15000C0F20110606046F62860C2F20040817AB9
:10B160002172417A027A6172A2722A46817BE1726F
:10B17000417B21732146007B60730E2084F8FD0023
:10B18000284600F0F5FF0024204602B0B0BD0FA213
:10B1900010A3002002219C25009505F0DBFB14A2E2
:10B1A00000200121012405F0D5FB204602B0B0BDEE
:10B1B000636D644944203D2025580D0A00000000BD
:10B1C00066756E203D2025780D0A000025733A250E
:10B1D000640900002E2E2F2E2E2F2E2E2F41707040
:10B1E0002F496E737472756374696F6E732E63008A
:10B1F00070726F746F636F6C20494420496C6C658A
:10B2000067616C6974790D0A00000000000000009D
:10B2100040F28013C2F200435B6818470000000050
:10B2200047F69C30C2F20040FBF7CABA00000000AB
:10B2300047F69C30C2F20040FBF7C2BA00000000A3
:10B240002DE9F0418EB001A83421F5F775FC40F2EC
:10B25000241447F69C30C2F20044C2F2004004F1CC
:10B26000100741F2000CE169C5F2000CE0CF94E850
:10B270000C41C0F800C02F4442606A1E8360731EF8
:10B28000C0F80C803144C0F810E07D1EC0E90523F1
:10B29000D4E908364A1E3B443144C561A56AE76AD1
:10B2A000013B013902625A19436281623944C0E9A3
:10B2B0000B2140F2F401C2F20041C96A80F8341057
:10B2C0000A0A80F83520090C80F83610FBF7D8FA06
:10B2D00038B140F620604FF40E71C9F2010001F060
:10B2E00087FD00200190216A626ACDE90210049274
:10B2F00001230593FF23CDE906304FF4C063089383
:10B30000072309934FF04043CDE90A31ADF83400EB
:10B3100001A98DF8360047F69C300C92C2F200402D
:10B320000022FBF70DFA38B140F6206040F24B21C5
:10B33000C9F2010001F05CFD0EB0BDE8F081000033
:10B34000F0B500680027D1E900CE00EBC212C0F6CC
:10B35000FF77D1E90234C568D2F8886006F47046F8
:10B36000C2F88860C6683D4005EB0E45C6F30B4643
:10B37000664401363543C2F88850C568D2F88C60FF
:10B380006FF3DF2506F47046C2F88C602C44C06869
:10B390006FF3DF201844013040EA0440C2F88C000B
:10B3A000D2F8940020F00700C2F894000B69C2F8AC
:10B3B000943091F83200072B91F831404FEA004069
:10B3C0008D69D2F89C604FF00006C2F89C6040EA9C
:10B3D000042091F8307040EA056040F20774384468
:10B3E000C2F89C00D2F8980020F0FF00C2F8980044
:10B3F0004869C2F89800D2F8A00020EA0400C2F818
:10B40000A000D1E9070440EA0400C2F8A00002F15C
:10B410008400D2F8AC40C2F8AC604C6AC2F8AC40D0
:10B4200006D840F65032C9F2010252F8232000E05B
:10B430000122C36AAEEB0C0703F0E023C3628B6A00
:10B44000C96A53437A43073242EA0342C262026B3B
:10B4500040F2FF739A4302630163016841F0010106
:10B460000160F0BD000000002DE9F04F84B040F213
:10B47000283E03920D9AC2F2004ECDE9001300BFA0
:10B480009EF8001000291FBF9EF8001000299EF8AA
:10B490000010002903D09EF800100029F0D141F2DD
:10B4A000000540F2780AC5F2002540F20023C2F2FE
:10B4B000004A01218EF80010C0F202032B60EA60FE
:10B4C000DAF81030009C1B6803FB040606EB460606
:10B4D00006F140466E61EE6300262E61039FDB1B82
:10B4E000AB612B64E96169626963696B41F40011C6
:10B4F0006963019941EA07416964296841F00101E2
:10B50000296000BF2968C9071FBF29685FEAC171A8
:10B5100029685FEAC17102D02968C907F2D101998F
:10B5200000295BD00399002958D0002300264FF052
:10B53000404704E0029B019901338B424ED00099B1
:10B540000025194402931FFA81FC2CE0DAF8104020
:10B55000291801350336246804FB0CF414FA81F42D
:10B5600004EB4404E3550124DAF81030CCF2000473
:10B570001B6803FB0CF313FA81F303EB430303F89B
:10B5800004B0DAF810301B6803FB0CF313FA81F1F6
:10B59000039B9D4240F2020301EB4101CCF2000308
:10B5A00001F80380C6D012FA86F31FFA86F993F8E1
:10B5B00001B093F8028012F8093000BF9EF80040F5
:10B5C000002C1FBF9EF8001000299EF800100029D3
:10B5D000BCD09EF800100029F0D1B7E700208EF80B
:10B5E000000004B0BDE8F08F10B540F2283CC2F274
:10B5F000004C9CF800305BB19CF80030002B1CBF65
:10B600009CF80030002B03D09CF80030002BF0D1C8
:10B6100040F2780C140AC2F2004CDCF810301B68BF
:10B6200003FB010303EB430E4FF040430EF80320EE
:10B6300040F2010EDCF81030CCF2000E120C1B6848
:10B6400003FB010303EB430303F80E40DCF8103067
:10B650001B6803FB01000221CCF2000100EB40005B
:10B66000425410BD000000007047000000000000C0
:10B670002DE9F04F83B040F228360C9CC2F2004610
:10B680003778002F1FBF3778002F3778002F02D070
:10B690003778002FF4D141F2000E0127C5F2002EB9
:10B6A000377040F2002643F6E075C0F20306CEF88C
:10B6B000006040F27806CEF83840C2F200463669A3
:10B6C000366806FB01014EF67470CEF2000001EB05
:10B6D000410101F14041CEF83C10B11ACEF84010C2
:10B6E000CEF8347043EA0241CEF844104FF61061B0
:10B6F000CFF6FF71002242504FF60C61CFF6FF717A
:10B70000BFF34F8F4258D308C2F3C908C2F34E317A
:10B71000A8F1010407EBD202A8F1020B9B07A707CF
:10B72000029702F003074FEA8B720192A8F103021D
:10B73000009203E00029A1F101012BD005EA411696
:10B7400042468FB1012F43EA0602026022460BD027
:10B75000029A022F42EA060202605A4604D0019A77
:10B7600032430260009A00BFB8F1030FE2D346EA09
:10B770008276013206F1404986F0004C06F1804A9B
:10B78000043A0660C0F80090C0F800C0C0F800A0FD
:10B79000F6D1CFE7BFF34F8FBFF36F8FDEF8000016
:10B7A00040F00100CEF80000DEF80000C0070CD029
:10B7B000DEF80000C0071CBFDEF800005FEAC070C2
:10B7C00003D0DEF80000C007EED140F2283100209F
:10B7D000C2F20041087003B0BDE8F08F0000000025
:10B7E0004FF04041016070472DE9F04F83B040F2C7
:10B7F000283440F27808C2F20044C2F200482046E1
:10B80000002100F8041B414600F092F918B190A203
:10B810000020022102E094A20020002105F09AF805
:10B8200040F2F400C2F20040007B032840F0D480D4
:10B8300041F20006C5F20026F6F78AFB41F6000544
:10B840004FF40071C5F60205012228464FF00109A8
:10B85000FAF7D2FB3220FAF7B7F94FF40071002261
:10B8600028460027FAF7C8FB3220FAF7ADF94FF463
:10B87000007101222846FAF7BFFB7820FAF7A4F9F5
:10B88000FFF7DEFCFFF7F0FE47F67020C2F2004043
:10B8900080E8C002C760C0E91179C0E91377C0E948
:10B8A0001577C765F8F790F938B140F6206040F297
:10B8B000A221C9F2010001F09BFA47F67020012194
:10B8C000C2F20040F8F778F838B140F6206040F254
:10B8D000A621C9F2010001F08BFAF6F771FAD8F847
:10B8E00010008188026800BF207800281FBF2078E0
:10B8F00000282078002802D020780028F4D140F2D7
:10B90000002701232370C0F2030737601F27B763A6
:10B910004FF04047F7634FF6FF774EF6747022EA18
:10B920000707376441EA02417363CEF20000716495
:10B930004FF61061CFF6FF71002243F6E0744250DB
:10B940004FF60C61CFF6FF71BFF34F8F4258D70807
:10B95000C2F3C908C2F34E31A8F1010503EBD202CC
:10B96000A8F1020BBB0702F003074FEA857A4FEA02
:10B970008B720292A8F10302019203E00029A1F167
:10B9800001013DD004EA411642467FB1012F43EA4E
:10B99000060202602A4609D0022F4AEA0602026025
:10B9A0005A4603D0029A32430260019AB8F1030F5B
:10B9B000E4D346EA8276013206F1404C86F0004E2E
:10B9C00006F18049043A0660C0F800C0C0F800E003
:10B9D000C0F80090F6D1D1E740F6206329A2C9F261
:10B9E00001030020022140F28117009704F0B2FF0A
:10B9F00026A20020012103B0BDE8F04F04F0AABF49
:10BA000041F20001BFF34F8FC5F20021BFF36F8FEA
:10BA1000086840F0010008600868C0071FBF086898
:10BA20005FEAC07008685FEAC07002D00868C007AB
:10BA3000F2D140F228371DA2C2F2004700200021B7
:10BA400000233B7003B0BDE8F04F04F083BF00BF9C
:10BA50004C6364204576656E74204372656174653D
:10BA6000204661696C0D0A004C6364204576656E62
:10BA700074204372656174652053756363657373E5
:10BA80000D0A000025733A25640900004C63642008
:10BA9000496E746572666163652074797065206DA6
:10BAA00069736D617463680D0A0000004C63642063
:10BAB000496E6974204F6B0D0A0000000000000001
:10BAC00040F22830C2F200400078002818BF012060
:10BAD00040007047000000000020F6F759B9000050
:10BAE0005020F6F755B90000642828BF6420F6F707
:10BAF0004FB900000000000002F08EBE0000000000
:10BB000040F688304B21C9F2010001F071F900BF05
:10BB1000FEE700000000000040F688303D21C9F239
:10BB2000010001F065F900BFFEE700000000000021
:10BB300080B5242203F014FF80B2002818BF012032
:10BB400080BD00000000000080B582B00DF1040C43
:10BB50000093634603F09CFF0199002818BF4FF043
:10BB6000FF31084602B080BD80B503F0E9FF80B226
:10BB7000002818BF012080BD80B50122342303F0C6
:10BB8000F3FF80B2002818BF012080BD0000000034
:10BB900080B504F085F880B2002818BF012080BD70
:10BBA00080B504F0B9F880B2002818BF012080BD2C
:10BBB00010B584B0D1E900C2D1E9023ED1E9044117
:10BBC000CDE900E402912C210391614604F084F94F
:10BBD00080B2002818BF012004B010BD0000000092
:10BBE000F0B587B001F11007D1E900C2D1E9023EFA
:10BBF000F0CF096ACDE900E40DF1080E8EE8E0000F
:10BC00000591B0210691614604F0A6F880B20028A3
:10BC100018BF012007B0F0BD46F67471C2F20041B2
:10BC2000097859B14FF47A71484344F6D351C1F2BF
:10BC30006201A0FB0101880903F01EBAF9F7C4BF35
:10BC40002DE9F04383B0054600208DF80B0028460F
:10BC50008846F7F79DF887B2052F21D3064658A2EC
:10BC6000022005213B4604F075FE052F18D30DF187
:10BC70000B0700BF00212846F7F78EF80446012184
:10BC80002846F7F789F8A52C01D15A280CD0284668
:10BC90003946F7F769F818B9013EB0B20428E9D877
:10BCA000012003B0BDE8F08302212846F7F774F8BD
:10BCB00004460138F828F3D8B0B2A042F0D346F6D3
:10BCC00078692746C2F200494E4600BF28463146F1
:10BCD000F7F74AF8C8B9013F06F10106F6D1A11EEF
:10BCE00009F1020002F0F4FA30B340F63D6240F68A
:10BCF000C063C9F20102C9F20103002002215227E8
:10BD0000009704F027FE38A20EE040F63D6240F6B0
:10BD1000C063C9F20102C9F20103002002214B27CE
:10BD2000009704F017FE2BA20020012104F012FE60
:10BD3000012003B0BDE8F08399F8020099F80310E0
:10BD400088F8FA10C11F88F8FD10B9F80410A8F897
:10BD5000FB102CD3811F0023002203EB090742F0C4
:10BD60000100C0B2BF79814208F8037023DD00EB07
:10BD7000090742F00203DBB2BF79994208F800706C
:10BD800015DD03EB090742F00300C0B2BF79814221
:10BD900008F803700BDD00EB09070432D3B2BF795A
:10BDA000994208F800704FF00000D6DC04E0002053
:10BDB00003B0BDE8F083002003B0BDE8F08300BF0E
:10BDC00043697242756666204C656E203D2025648D
:10BDD0000D0A000050726F746F636F6C4572724E83
:10BDE0006F446174610D0A00437263436865636B5D
:10BDF000204661696C0D0A00F0B581B00C4645F62D
:10BE0000A52105461646218090F8FA00E07095F8C5
:10BE1000FA00B02801D1002004E095F8FB000130C1
:10BE200085F8FB00207195F8FC00607195F8FD0025
:10BE300008B300202218295C431C917195F8FD106D
:10BE40008B423FBF2B185978D17195F8FD103CBF3C
:10BE5000871C8F420DD29978C71C117295F8FD107E
:10BE60008F4206D2D9780430517295F8FD1088427D
:10BE7000E0D3CF1D00E0072720466FF0020151FA02
:10BE800087F100F8027F02F0EFF954FA87F1A5F884
:10BE9000FE0001F8010C0020377001B0F0BD000079
:10BEA000F0B581B00C4645F6A52105461646218021
:10BEB000B021A4F8031090F8FC00607195F8FB0025
:10BEC000A07195F8FD0018B3002000BF2218295C6E
:10BED000431CD17195F8FD108B423FBF2B18597848
:10BEE000117295F8FD103CBF871C8F420DD29978D6
:10BEF000C71C517295F8FD108F4206D2D9780430D4
:10BF0000917295F8FD108842E0D301F1080700E036
:10BF1000082720466FF0020151FA87F100F8027FEE
:10BF200002F0A2F954FA87F1A5F8FE0001F8010C1D
:10BF30000020377001B0F0BDF0B581B00C4645F679
:10BF4000A521054607272180BF21E170042190F833
:10BF5000FB001646013085F8FB0004F8027FA07054
:10BF60000020E070204602F07FF9A5F8FE00207165
:10BF70000020377001B0F0BD80B58EB000208DF884
:10BF8000050046F604500DF10601C2F200400DF125
:10BF90000502FFF7D1FF40F26420C2F2004043687F
:10BFA0002BB19DF805200DF10601002098470EB039
:10BFB00080BD000000000000B0B546F6045000212E
:10BFC000C2F200404FF48072002501F0FDF846F601
:10BFD00004400021C2F200404FF4807201F0F4F8F6
:10BFE00040F264244BF67973C2F20044C9F20003B4
:10BFF00001214FF49672204600F0CEFC30B140F69D
:10C00000A3605B21C9F2010000F0F2FE656004A2AA
:10C0100000200021A560BDE8B04004F09BBC00BF3B
:10C0200050726F746F636F6C20496E6974204F6B30
:10C030000D0A00000000000040F26421C2F200413D
:10C04000886070470000000010B582B046F664605A
:10C0500046F60441C2F20040C2F20041FFF7F0FD93
:10C0600018B10024204602B010BD40F26424C2F290
:10C070000044207800F0D0FDA2684AB146F60441A1
:10C080000020C2F2004100249047204602B010BDBB
:10C0900040F63D6240F6A363C9F20102C9F2010312
:10C0A000002002217B24009404F054FC04A2002010
:10C0B000012104F04FFC0724204602B010BD00BF50
:10C0C00070617273652043616C6C204E554C4C0D51
:10C0D0000A0000000000000040F26421C2F20041AA
:10C0E0004860704700000000F0B58FB00D46144660
:10C0F000064600208DF809000DF10A010DF1090234
:10C1000028461F46FFF778FE10B101200FB0F0BDA2
:10C1100040F26420C2F20040436873B19DF80920E8
:10C120000DF10A012046984727B13046294622469C
:10C1300000F092FA00200FB0F0BD40F63D6240F6EC
:10C14000A363C9F20102C9F2010300200221EC2716
:10C15000009704F0FFFB40F692620020C9F2010252
:10C16000012104F0F7FB06200FB0F0BD0000000035
:10C1700010B58EB01446084600218DF805100DF15B
:10C1800006010DF10502FFF78BFE08B10EB010BDE0
:10C1900040F26420C2F20040436843B19DF805209C
:10C1A0000DF106012046984700200EB010BD40F664
:10C1B0003D6240F6A363C9F20102C9F20103002007
:10C1C000022140F21B14009404F0C4FB40F692627A
:10C1D0000020C9F20102012104F0BCFB06200EB0D0
:10C1E00010BD000000000000F0B581B044F22C4703
:10C1F000C5F6020757F8042C02F00302032A02D105
:10C20000012001B0F0BD054657F82C0C0C4620F07B
:10C21000806047F82C0CF9F7F7FE064657F82C0C0F
:10C22000000105D5F9F7F0FE801B0228F6D964E07D
:10C2300057F8040CEE6895E80E0020F47C30012CD1
:10C2400040EA0130A2F101016FF35F214FF47E4219
:10C2500002EB432247F8040C92B24FF0FE4302EB8C
:10C2600001004FF4FE012A6901EB064101F4FE01D1
:10C2700003EB0262084402F0FE410844F8603868AB
:10C28000696920F0C00040EA010038603868A96997
:10C2900020F0200040EA0100386038684FF6F8715D
:10C2A00020F0100038603869EA6920EA01004FF494
:10C2B000001140EAC2003861386808BF4FF48011AD
:10C2C00040F01000002C386008BF4FF4002138689F
:10C2D0000843386057F82C0C40F0806047F82C0C6D
:10C2E000F9F792FE044600BF57F82C0C000107D462
:10C2F000F9F78AFE001B0328F6D3032001B0F0BD36
:10C30000002001B0F0BD0000F0B581B044F22C4730
:10C31000C5F6020757F8042C02F00302032A02D1E3
:10C32000012001B0F0BD054657F82C0C0C4620F05A
:10C33000805047F82C0CF9F767FE064657F82C0C8E
:10C34000800005D5F9F760FE801B0228F6D964E06D
:10C3500057F8040CEE6895E80E0020F07C70012C74
:10C3600040EA0150A2F101016FF35F214FF47E42D8
:10C3700002EB432247F8040C92B24FF0FE4302EB6B
:10C3800001004FF4FE012A6901EB064101F4FE01B0
:10C3900003EB0262084402F0FE4108447861386809
:10C3A000696920F4406040EA010038603868A96992
:10C3B00020F4007040EA0100386038684FF6F871E8
:10C3C00020F480703860B869EA6920EA01004FF013
:10C3D000807140EAC200B861386808BF4FF40001BC
:10C3E00040F48070002C386008BF4FF4800138683A
:10C3F0000843386057F82C0C40F0805047F82C0C5C
:10C40000F9F702FE044600BF57F82C0C800007D451
:10C41000F9F7FAFD001B0328F6D3032001B0F0BDA5
:10C42000002001B0F0BD000010B582B000210191E4
:10C4300001684A6852070BD44A6822F040024A60F9
:10C44000C168002421F00801C160204602B010BD7F
:10C450000A6842F080420A600A6822F080420A605C
:10C4600002220192019A013A0192019A002A44D0D3
:10C470000A68520017D5019A013A0192019AE2B373
:10C480000A6852000FD5019A013A0192019AA2B3AB
:10C490000A68520007D5019A013A0192019A62B3E3
:10C4A0000A685200DED44A68520603D54A6822F070
:10C4B00040024A6002220192019A013A0192019AD5
:10C4C000DAB14A685207BBD5019A013A0192019A42
:10C4D0009AB14A685207B3D5019A013A0192019A7A
:10C4E0005AB14A685207ABD5019A013A0192019AB2
:10C4F0001AB14A685207DFD4A2E701244472C16826
:10C5000041F00201C16000210172FBF729FF2046C2
:10C5100002B010BD0000000070B544F208060446E9
:10C52000C5F60006716821F0400171603168890626
:10C5300016D42068C16821F0A001C160F9F764FD3C
:10C54000054600BF2068C068800627D4F9F75CFD67
:10C55000401BB0F57A7FF5D9032084F8210070BD27
:10C56000306820F0200030602068C16821F0A00110
:10C57000C160F9F749FD05462068C06880060FD400
:10C58000F9F742FD401BB0F57A7FF5D9032084F816
:10C590002100316841F02001316070BD002070BD84
:10C5A0000020316841F02001316070BD00000000C2
:10C5B00047F64440C2F20040FCF74AB800000000D1
:10C5C00010B547F208340021C2F200444FF48472DF
:10C5D000204600F0F9FD04F5847000214FF48472C8
:10C5E00000F0F2FD04F5047000214FF4847200F0B5
:10C5F000EBFD46F673704CF23173C2F20040C9F2A3
:10C60000000301210A2200F0C7F918B105A03F215B
:10C6100000F0EEFB0BA200200021BDE8104004F06A
:10C6200099B900BF2E2E2F2E2E2F2E2E2F50726F27
:10C63000746F636F6C2F526573706F6E73652E63CA
:10C6400000000000526573706F6E736520496E695B
:10C6500074204F6B0D0A00002DE9F04147F20834B9
:10C66000C2F2004494F80231002B4FF000030DD0C9
:10C6700094F80A7277B194F81273002F1CBF01204E
:10C68000BDE8F08104F2123C022506E004F5817C4D
:10C69000002502E004F20A2C012545EA451791F82D
:10C6A000FA6004EBC70E91F8FD70CEF804318EF8F5
:10C6B00003318EF8FA60B1F8FB60AEF8FB6047B367
:10C6C00005EB4513012504EBC30800BF4E1908EB29
:10C6D000050716F8013C07F8013C91F8FD309D4232
:10C6E0003FBF4B5D08F8053091F8FD306C1C38BF3A
:10C6F0009C420ED27378AC1C7B7091F8FD309C424A
:10C7000007D2B378EC1CBB70043591F8FD309C4225
:10C71000DCD38EF8000100208EF8FD3001218CF86A
:10C7200000108EF80121BDE8F0810000000000003B
:10C73000B0B547F20834C2F2004494F80201B8B12F
:10C74000D4F804010A30C4F80401C82810D394F8BE
:10C750000301013084F80301C1B2032922D347F257
:10C7600008300021C2F200404FF4847200F02CFD2A
:10C7700094F80A02E0B3D4F80C020A30C4F80C02B0
:10C78000C82835D394F80B02013084F80B02C1B2EB
:10C7900002291CD904F5847000214FF4847200F042
:10C7A00013FD25E094F8FB10002394F80001002508
:10C7B00094F80121013984F8FB102146FFF794FC1D
:10C7C000C4F8045194F80A020028D4D110E094F877
:10C7D000033204F5847194F80802002594F80922C4
:10C7E000013B84F803320023FFF77EFCC4F80C52AF
:10C7F00094F8120348B3D4F814030A30C4F81403AD
:10C80000C82838BFB0BD94F81303013084F813036F
:10C81000C1B2022908D904F5047000214FF48472D2
:10C82000BDE8B04000F0D0BC94F80B3304F50471BF
:10C8300094F81003002594F81123013B84F80B337E
:10C840000023FFF751FCC4F81453B0BD00000000F2
:10C8500010B582B0F5F7A8FD46F664640021C2F277
:10C8600000441422204600F0AFFC47F220604FF451
:10C870008061C2F2004020612046F6F751FC98B179
:10C8800040F63D6240F64463C9F20102C9F2010379
:10C89000002002213F24009404F05CF80CA2002048
:10C8A0000121002304F056F847F6345040F2080105
:10C8B000C2F20040C2F200410122FEF709F80EA2C6
:10C8C0000020002102B0BDE8104004F043B800BFD2
:10C8D000675F75617274427566665B25645D2046AC
:10C8E00069666F4572722053697A6520496C6C6580
:10C8F00067616C0D0A00000053657269616C204924
:10C900006E6974204F6B0D0A0000000000000000EB
:10C9100010B582B0B0B140F63D6240F64463C9F252
:10C920000102C9F2010300200221532400940024D3
:10C9300004F010F813A20020012104F00BF82046A7
:10C9400002B010BDC2B147F63450C2F200400068D8
:10C9500004E0013A11F8013B83620DD0C3695B0624
:10C960005FBFC3695FEA4363C3695FEA4363F0D4AF
:10C97000C3695B06F2D5ECE74FF0FF34204602B006
:10C9800010BD00BF5F70726F7420496C6C65676189
:10C990006C0D0A0000000000F0B581B047F62024BD
:10C9A0000546C2F200446678012E1FD1607C012842
:10C9B0001ED194F8210001281CD194F831000128DF
:10C9C0001AD194F84100012818D115A216A300200D
:10C9D00002216627009703F0BDFF19A20020012164
:10C9E000012403F0B7FF204601B0F0BD002606E0A9
:10C9F000012604E0022602E0032600E004263001BE
:10CA000004EB061726540120B970C7E90223787099
:10CA1000F6F726FF002478602E70204601B0F0BDA6
:10CA200025733A25640900002E2E2F2E2E2F2E2E30
:10CA30002F53797374656D2F5377546D722E630085
:10CA40004E6F2069646C652074696D65720D0A0013
:10CA500010B547F620240021C2F2004410222046DF
:10CA600000F0B2FB04F110000021102200F0ACFB3A
:10CA700004F120000021102200F0A6FB04F1300098
:10CA80000021102200F0A0FB04F140000021102240
:10CA900000F09AFB03A200200021BDE8104003F043
:10CAA00059BF00BF5377546D7220496E6974204F8F
:10CAB0006B0D0A0000000000B0B547F62024C2F25A
:10CAC0000044607801281BD1606800F0BDF8A168BF
:10CAD000884215D3E568F6F7C3FEA847A078012879
:10CAE00003D1F6F7BDFE60600AE02078042807D87D
:10CAF00004EB0010417819B10021102200F064FB12
:10CB0000607C01281BD1606900F09EF8A169884211
:10CB100015D3E569F6F7A4FEA847A07C012803D148
:10CB2000F6F79EFE60610AE0207C042807D804EB3B
:10CB30000010417819B10021102200F045FB94F853
:10CB4000210001281DD1606A00F07EF8A16A8842A8
:10CB500017D3E56AF6F784FEA84794F82200012867
:10CB600003D1F6F77DFE60620BE094F82000042804
:10CB700007D804EB0010417819B10021102200F011
:10CB800023FB94F8310001281DD1606B00F05CF8A4
:10CB9000A16B884217D3E56BF6F762FEA84794F8BD
:10CBA0003200012803D1F6F75BFE60630BE094F8D6
:10CBB0003000042807D804EB0010417819B1002197
:10CBC000102200F001FB94F84100012810D1606CA4
:10CBD00000F03AF8A16C88420AD3E56CF6F740FE03
:10CBE000A84794F84200012804D1F6F739FE6064A2
:10CBF0000020B0BD94F840000428F9D804EB0010E0
:10CC000041780029F4D00021102200F0DDFA002044
:10CC1000B0BD000000000000B0B5042810D847F6F1
:10CC200020250446C2F2004505EB0010407801289B
:10CC300006D1F6F715FE05EB041148600020B0BDE3
:10CC40000120B0BD0000000010B50446F9F7DCF982
:10CC5000001B38BF002010BDB0B59CB044F61804CE
:10CC600009A84C21C5F60204F3F766FF022000254F
:10CC7000CDE90755CDE90555CDE90355CDE9015578
:10CC8000F9F78EFF0095206840F44040206020684E
:10CC900000F4404000900098206880045FBF206846
:10CCA0005FEA804020685FEA804002D42068800408
:10CCB000F2D54FF610400025CFF6FF70042219235D
:10CCC000215821F0030121502A20099001200C90C5
:10CCD00040240F90CDE90D4002211291139514923A
:10CCE000CDE91530CDE917210C20CDE9190509A8AA
:10CCF0001B95FBF7D1F830B140F6EC604321C9F247
:10CD0000010000F075F83F20019003200321CDE9D8
:10CD100002050820CDE9040406944FF48060CDE9B3
:10CD2000070401A8FAF74CFE30B140F6EC6054213C
:10CD3000C9F2010000F05CF81CB0B0BD00000000BA
:10CD40004EF6885042F2000CCEF20000C5F2002CE4
:10CD5000026842F470020260DCF8000000F00F008C
:10CD6000062806D8DCF80000072262F30300CCF89E
:10CD7000000044F200404EF67F51C5F60200CEF6A8
:10CD8000F621026842F0010202600022026103689B
:10CD900019400160DCF80010090706D5DCF8001026
:10CDA000072363F30301CCF8001040F200218261F5
:10CDB000C261C0F20221026281620021C0F2FF1151
:10CDC000C16240F28021C0F20111016342638163BC
:10CDD000C26301644264016821F48021016002663B
:10CDE00044F20000C5F2002043F2D2010160704716
:10CDF00070B582B0054640F64D520C46C9F20102AC
:10CE0000002002212B46009403F0A4FD64B140F6FB
:10CE10004D56C9F2010600BF0020022132462B46C2
:10CE2000009403F097FDF7E702B070BD000000002A
:10CE300040F6CE520446036CC9F2010200200121E3
:10CE4000002603F087FD40F67A52636AC9F20102B8
:10CE50000020012103F07EFD40F68852A36AC9F24A
:10CE600001020020012103F075FD40F69652E36AAD
:10CE7000C9F201020020012103F06CFD40F6A4522A
:10CE8000236BC9F201020020012103F063FD40F68B
:10CE9000B2526368C9F201020020012103F05AFD79
:10CEA00040F6C052A368C9F201020020012103F03C
:10CEB00051FDE3682EA20020012103F04BFD236900
:10CEC0002FA20020012103F045FD636930A200205C
:10CED000012103F03FFDA36931A20020012103F0ED
:10CEE00039FDE36932A20020012103F033FD236AFA
:10CEF00033A20020012103F02DFD636B34A200203A
:10CF0000012103F027FDA36B35A20020012103F0CE
:10CF100021FDE36B36A20020012103F01BFD38A2A6
:10CF20000020012103F016FD40F6D95504F1440715
:10CF300036A4C9F2010501E0802E0FD057F8263043
:10CF400000200121224603F005FD01363007F3D110
:10CF5000002001212A4603F0FDFCEDE740F6D952FE
:10CF60000020C9F20102012103F0F4FCFEE700BF3A
:10CF70007230363A203078253038780D0A000000BB
:10CF80007230373A203078253038780D0A000000AA
:10CF90007230383A203078253038780D0A00000099
:10CFA0007230393A203078253038780D0A00000088
:10CFB0007231303A203078253038780D0A00000080
:10CFC0007231313A203078253038780D0A0000006F
:10CFD0007231323A203078253038780D0A0000005E
:10CFE000206C723A203078253038780D0A00000025
:10CFF0002070633A203078253038780D0A00000020
:10D00000737461636B733A200D0A00002530387821
:10D010002000000000000000F0B583B046F6286450
:10D020003821C2F200442046F3F786FDF8F7F4FFFA
:10D030002061F8F7F9FF6061F8F7FEFF40F616553A
:10D04000A0611720A07240F2055020811220A07329
:10D0500043F20F70A081182020854FF0FF30E0626E
:10D0600040F63270C9F201050021C9F20100C4E99D
:10D070000C10022001212A4603F06CFC40F6DF462A
:10D080000220C9F201060121324603F063FC40F69A
:10D09000CE4228A3C9F201020220012103F05AFC6A
:10D0A00040F6DC5740F6A242C9F20107C9F201027C
:10D0B000022001213B4603F04DFC40F6B84202201D
:10D0C000C9F2010201213B4603F044FC1CA222A349
:10D0D0000220012103F03EFC20A2022001210123B5
:10D0E00003F038FC23A20220012140F2E773052758
:10D0F0000097019703F02EFC24A229A3022001210E
:10D1000003F028FCD4E90430A769009027A202208C
:10D110000121019703F01EFC02200121324603F099
:10D1200019FC022001212A4603B0BDE8F04003F0BB
:10D1300011BC00BF73746D3332683733307A6200CC
:10D140002A2A0948617264776172653A0925730970
:10D15000092A2A0D0A000000563100002A2A095027
:10D16000726F746F636F6C3A0956256409092A2A35
:10D170000D0A00002A2A09446174653A0925642DC4
:10D1800025642D256409092A2A0D0A002A2A095432
:10D19000696D653A09257309092A2A0D0A000000FC
:10D1A00031383A35353A3135000000002A2A095520
:10D1B00049443A09253034582530345825303458FC
:10D1C0002020202A2A0D0A00002A08BF704780B5B7
:10D1D0000B4611461A46F3F785FCBDE880407047C0
:10D1E00002A20020002103F0B5BB00BF50617261B4
:10D1F0006D20496E6974206F6B0D0A0000000000FD
:10D2000047F6E840C2F20040FCF7DEB8000000003C
:10D2100010B540F6FF32C4F20002904202680FDC03
:10D22000B0F1804F1DD040F20043C4F20003984299
:10D2300017D040F60003C4F20003984211D014E066
:10D2400040F60043C4F2000398420AD040F2004383
:10D25000C4F20103984204D00023C4F201039842AF
:10D2600003D122F070024B681A434EF2FF3343F6AB
:10D27000FF7CC4F20003C4F2010C984213DD604548
:10D280002ADC4EF20043C4F20003984240D000234F
:10D29000C4F2010398423BD040F20043C4F20103C0
:10D2A000984235D038E040F2FF73C4F20003984250
:10D2B00025DD40F60003C4F20003984228D040F672
:10D2C0000043C4F20003984222D04EF20003C4F29D
:10D2D000000398421CD01FE044F20003C4F2010393
:10D2E000984215D044F60003C4F2010398420FD0CF
:10D2F00044F20043C4F20103984209D00CE0B0F1BB
:10D30000804F05D040F20043C4F20003984203D19D
:10D3100022F44072CB681A4322F080024C696045C7
:10D32000D1F800E08B6842EA04020260C362C0F8F0
:10D3300028E014DD44F20002C4F20102904219D048
:10D3400044F60002C4F20102904213D044F20042BB
:10D35000C4F2010290420DD00121416110BD0022B2
:10D36000C4F20102904205D040F20042C4F2010230
:10D370009042F1D1096901630121416110BD0000B2
:10D38000F5F792F8FFF798FBFEF75EFE0A20FEF72E
:10D3900043FCF5E70000000010B5F4F709FF00F0CA
:10D3A000C3F800F071F800F083F846F66064C2F24A
:10D3B0000044208000F0B4F82388A07008A2022066
:10D3C000042103F0C7FAA37809A20220042103F084
:10D3D000C1FA0BA200200021BDE8104003F0BABA48
:10D3E000546F7563682049443D2025780D0A00007C
:10D3F000546F756368205665723D2025780D0A00CC
:10D40000546F7563682053637265656E20496E6959
:10D4100074204F6B0D0A000080B582B015A2002069
:10D42000052103F097FA46F67470C2F200400078C6
:10D4300018B1684600F02CF810B1002002B080BD91
:10D440009DF80000BDF804209DF801300002BDF8F1
:10D45000021040EA03400330FDF70AFE46F604607E
:10D460000121C2F200400022FEF77EFB002002B044
:10D4700080BD00BF546F75636820526561640D0AFA
:10D4800000000000000000007047000000000000E5
:10D4900010B50446811C021D7020F5F775FD0028AB
:10D4A0001CBF012010BD0020208010BD0000000026
:10D4B00010B584B000208DF80F000DF10F00009022
:10D4C0000120019047F650307021C2F20040A8229E
:10D4D00001234FF47A740294F8F7BAFEC8B140F60B
:10D4E0003D6240F66A63C9F20102C9F201030020FD
:10D4F00002213024009403F02DFA40F65A620020F5
:10D50000C9F201020121012403F024FA204604B0EB
:10D5100010BD9DF80F40204604B010BD0000000073
:10D52000012070470000000010B500244FF4806116
:10D53000C5F6020400222046F8F75EFD6420F8F7E5
:10D5400043FB4FF4806101222046F8F755FD4FF46C
:10D550007A70BDE81040F8F737BB0000000000000B
:10D56000816ACA070CD18A0715D44A071ED40A0754
:10D5700027D4CA0630D48A0639D44A0655D541E0A4
:10D580000268D0F82CC0536823F4003343EA0C033C
:10D5900053608A07E9D50268D0F830C0536823F495
:10D5A000803343EA0C0353604A07E0D50268D0F8A1
:10D5B00034C0536823F4802343EA0C0353600A0702
:10D5C000D7D50268D0F838C0536823F4004343EA43
:10D5D0000C035360CA06CED50268D0F83CC09368ED
:10D5E00023F4805343EA0C0393608A06C5D502688E
:10D5F000D0F840C0936823F4005343EA0C039360CF
:10D600004A0612D50268D0F844C0BCF5801F5368A2
:10D6100023F4801343EA0C03536006D1536823F4C8
:10D62000C00C836C43EA0C035360090658BF704773
:10D630000168C06C4A6822F40022104348607047B9
:10D64000806B0021A0F85E10A0F85610FCF760BCBB
:10D65000806B0268D0F884102129D0F888C09368C4
:10D6600063D113F0800360D00023A0F8563052E855
:10D67000002F036822F0C00243E80021E1B300BF9D
:10D68000016851E8001F026821F0C00142E8001360
:10D69000002B1FBF016851E8001F026821F0C00184
:10D6A0001CBF42E80013002B26D0016851E8001F80
:10D6B000026821F0C00142E80013EBB1016851E8B3
:10D6C000001F026821F0C00142E80013002BD7D1EF
:10D6D00012E000BF016851E8021F026821F4000156
:10D6E00042E80213EBB1016851E8021F026821F41D
:10D6F000000142E80213A3B1016851E8021F026869
:10D7000021F4000142E80213002B1FBF016851E819
:10D71000021F026821F400011CBF42E80213002B23
:10D72000D8D12021C0F884100268BCF1220F916882
:10D7300040F0908011F0400100F08C800021A0F8B2
:10D740005E1052E8001F00BF026821F4907142E8A9
:10D7500000130BB3016851E8001F026821F49071B7
:10D7600042E80013002B1FBF016851E8001F026848
:10D7700021F490711CBF42E80013002B0CD001680B
:10D7800051E8001F026821F4907142E800131BB1B8
:10D79000016851E8001FD7E74FF6FE7CCEF6FF7C0C
:10D7A000026852E8022F036802EA0C0243E80221F1
:10D7B00000291FBF016851E8021F026801EA0C013D
:10D7C0001CBF42E80213002B12D0016851E8021F6F
:10D7D000026801EA0C0142E802134BB1016851E80A
:10D7E000021F026801EA0C0142E80213002BD7D1A4
:10D7F000C16E012928D100BF016851E8001F0268ED
:10D8000021F0100142E80013002B1FBF016851E80E
:10D81000001F026821F010011CBF42E80013002B1A
:10D8200012D0016851E8001F026821F0100142E89F
:10D8300000134BB1016851E8001F026821F010018C
:10D8400042E80013002BD7D12021C0F88810002116
:10D85000C1660167D0F88C1041F01001C0F88C103F
:10D86000FCF756BB00000000C169806BB1F5807FFA
:10D8700000F0AC800021A0F85E1000BF016851E804
:10D88000001F026821F4807142E80013002B1FBFC3
:10D89000016851E8001F026821F480711CBF42E852
:10D8A0000013002B12D0016851E8001F026821F418
:10D8B000807142E800134BB1016851E8001F026813
:10D8C00021F4807142E80013002BD7D1016851E8A0
:10D8D000021F026821F0010142E80213002B1FBF62
:10D8E000016851E8021F026821F001011CBF42E8F3
:10D8F0000213002B26D0016851E8021F026821F0B4
:10D90000010142E80213EBB1016851E8021F02680D
:10D9100021F0010142E80213002BD7D112E000BF31
:10D92000016851E8021F026821F0400142E8021339
:10D93000EBB1016851E8021F026821F0400142E8A2
:10D940000213A3B1016851E8021F026821F04001EF
:10D9500042E80213002B1FBF016851E8021F026852
:10D9600021F040011CBF42E80213002BD8D1202136
:10D97000C0F88810C16E012928D100BF016851E8A4
:10D98000001F026821F0100142E80013002B1FBFA6
:10D99000016851E8001F026821F010011CBF42E835
:10D9A0000013002B12D0016851E8001F026821F01B
:10D9B000100142E800134BB1016851E8001F0268F2
:10D9C00021F0100142E80013002BD7D1C16E0129CC
:10D9D00003D1B0F85C10FCF777B8FDF77DB8000014
:10D9E000806BC16E012904D1B0F85C104908FCF7C6
:10D9F0006BB8FDF791B8000070B584B004460068BC
:10DA000004F1080340F6004EE669C5F6000E0ECBA1
:10DA1000194363690B4346F6F3110568CCF6FF71B1
:10DA2000334329401943016041684FF2FF4321F419
:10DA30004051704541EA02014160A269C1F2FF1301
:10DA40001CBF216A0A43816844F2544C1940C5F650
:10DA5000020C1143816047F6FF32C16AC4F2000232
:10DA600021F00F01656A90424FF0800341EA050101
:10DA7000C1622ADD41F2FF71C4F2010188424FDC2C
:10DA800047F60041C4F20001884200F0888041F26C
:10DA90000001C4F20101884200F0918041F200418E
:10DAA000C4F20101884240F00681DCF80010C1F3A5
:10DAB000C202052A00F2E6800123DFE812F0FC0032
:10DAC000DB00EB00F300FB00A30144F6FF31C4F2DE
:10DAD0000001884245DD44F60041C4F2000188425D
:10DAE00000F07D8045F20001C4F20001884200F0A0
:10DAF000858047F60001C4F20001884240F0DB80D7
:10DB0000DCF8001001F00702052A00F2BB800023B8
:10DB1000DFE812F0D100B000C000C800D0007801EA
:10DB200041F60001C4F20101884200F0768041F61E
:10DB30000041C4F20101884200F07E80704540F04F
:10DB4000BA80DCF8041001F00702052A00F29A807E
:10DB50000223DFE812F0B0008F009F00A700AF00A3
:10DB6000570144F20041C4F20001884200F0738082
:10DB700044F60001C4F20001884240F09C80DCF8C9
:10DB8000001001F00702052A00F27C800023DFE884
:10DB900012F0920071008100890091003901DCF8D7
:10DBA000001001F00702052A00F26C800023DFE874
:10DBB00012F0820061007100790081002901DCF817
:10DBC0000010C1F3C202052A00F25C800123DFE8E5
:10DBD00012F0720051006100690071001901DCF857
:10DBE000001001F00702052A4CD80023DFE812F0EC
:10DBF0006300420052005A0062000A01DCF8001083
:10DC000001F00702052A3DD80023DFE812F0540096
:10DC1000330043004B005300FB00DCF80010C1F35D
:10DC2000C202052A2ED80123DFE812F045002400A5
:10DC300034003C004400EC00DCF80010C1F3C202E8
:10DC4000052A1FD80123DFE812F036001500250051
:10DC50002D003500DD00DCF8001001F00702052A78
:10DC600010D80023DFE812F02700060016001E007F
:10DC70002600CE000423704540F60010C0F23D009F
:10DC800020D1C7E08023704540F60010C0F23D006F
:10DC900018D1BFE00823704540F60010C0F23D00E7
:10DCA00010D1B7E01023704540F60010C0F23D00DF
:10DCB00008D1AFE02023704540F60010C0F23D00CF
:10DCC00000F0A880B6F5004F40F04E80402B4FF09A
:10DCD000010100F29681DFE813F041001401940184
:10DCE000940119019401940194012001940194017B
:10DCF00094019401940194019401280194019401E8
:10DD0000940194019401940194019401940194016B
:10DD100094019401940194019401380194019401B7
:10DD2000940194019401940194019401940194014B
:10DD3000940194019401940194019401940194013B
:10DD4000940194019401940194019401940194012B
:10DD5000940194019401940194013601F9F7B8FFFC
:10DD6000002840F0D180DEE0402B4FF0010100F2AE
:10DD70004881DFE813F041000A01460146010F0126
:10DD8000460146014601160146014601460146018B
:10DD90004601460146011E01460146014601460173
:10DDA000460146014601460146014601460146013B
:10DDB0004601460146012E01460146014601460143
:10DDC000460146014601460146014601460146011B
:10DDD000460146014601460146014601460146010B
:10DDE00046014601460146014601460146014601FB
:10DDF0004601460146012C01F9F76AFF002840F070
:10DE0000C780D4E04023704540F60010C0F23D00CA
:10DE10007FF458AF9A1E01211E2A25D8DFE812F0A0
:10DE20001F00F1002A00F100F100F1003100F100C3
:10DE3000F100F100F100F100F100F1003900F10012
:10DE4000F100F100F100F100F100F100F100F1004A
:10DE5000F100F100F100F100F100F1004600F8F7E7
:10DE6000C3FEA0B1656A21E0402B40F0CA804FF4A8
:10DE700000401BE001A8F8F7CBFE02980028F1D182
:10DE800005E001A8F8F758FF02980028EAD1002120
:10DE9000B7E05CF8540C800649F20000C0F2D030C4
:10DEA00004D55CF8541CC1F3C101C84040F63831B8
:10DEB0006268C9F2010131F81510B0FBF1F002EB14
:10DEC000420188424FF00101C0F09B801303984249
:10DED00000F29780010E0023000210EB520041F186
:10DEE0000001F2F731FC4FF6FF42A0F54071C0F29D
:10DEF0000F02914203D82168C860002181E001210E
:10DF00007FE0F9F715FF70B1656A1EE001A8F8F728
:10DF10007FFE02980028F7D105E001A8F8F70CFF72
:10DF200002980028F0D100216BE05CF8540C8006C8
:10DF300049F20000C0F2D03007D55CF8541CC1F3A0
:10DF4000C101C84001E04FF4004040F63831C9F249
:10DF5000010131F81510B0FBF1F061684A0802EBDD
:10DF600040004FF6EF72B0FBF1F0A0F110019142CA
:10DF700009D84FF6F07122680140C0F3420008440E
:10DF8000D06000213DE001213BE0F9F7D1FE70B106
:10DF9000656A1EE001A8F8F73BFE02980028F7D159
:10DFA00005E001A8F8F7C8FE02980028F0D100218A
:10DFB00027E05CF8540C800649F20000C0F2D03033
:10DFC00007D55CF8541CC1F3C101C84001E04FF40F
:10DFD000004040F638316268C9F2010131F815108D
:10DFE000B0FBF1F000EB5200B0FBF2F0A0F1100139
:10DFF0004FF6EF72914203D82168C860002100E01B
:10E0000001214FF00110A0660020C4E91C00084661
:10E0100004B070BD000000002DE9F0410446006826
:10E020000D46C7693940491BB1FA81F1490991424E
:10E0300040F0A380DDF81880B8F1000F27D0164615
:10E0400018F1010140F08280C1692940491BB1FAF1
:10E0500081F14909B14240F09080C1692940491BD2
:10E06000B1FA81F14909B14201BFC1692940491B97
:10E07000B1FA81F104BF4909B1427ED1C169294099
:10E08000491BB1FA81F14909B142DDD075E0F7F7DA
:10E09000BBFF00BF206850E8000F216820F4D0705B
:10E0A00041E80002002A1FBF206850E8000F2168E5
:10E0B00020F4D0701CBF41E80002002A26D020685E
:10E0C00050E8000F216820F4D07041E80002EAB166
:10E0D000206850E8000F216820F4D07041E8000269
:10E0E000002AD7D112E000BF206850E8020F216853
:10E0F00020F0010041E80202EAB1206850E8020F76
:10E10000216820F0010041E80202A2B1206850E835
:10E11000020F216820F0010041E80202002A1FBF1F
:10E12000206850E8020F216820F001001CBF41E880
:10E130000202002AD8D12020C4F88400C4F8880044
:10E14000002084F880000320BDE8F0811F4600BF56
:10E15000F7F75AFFC01B40459CD820680168490763
:10E1600044BFC1695FEA01510AD4C0692840401B1D
:10E17000B0FA80F04009B042EAD00020BDE8F0815A
:10E180004FF40061016200BF50E8000F216820F4E5
:10E19000D07041E800028AB3206850E8000F21687F
:10E1A00020F4D07041E80002002A1FBF206850E828
:10E1B000000F216820F4D0701CBF41E80002002A43
:10E1C0001CD0206850E8000F216820F4D07041E88E
:10E1D00000029AB12068D7E7206850E8020F216852
:10E1E00020F0010041E80202EAB1206850E8020F85
:10E1F000216820F0010041E80202A2B1206850E845
:10E20000020F216820F0010041E80202002A1FBF2E
:10E21000206850E8020F216820F001001CBF41E88F
:10E220000202002AD8D12020C4F88400C4F8880053
:10E23000C4F88C00002084F880000320BDE8F08141
:10E2400047F63450C2F20040FBF7A2BE00000000C7
:10E2500040F688305921C9F20100FEF7C9FD00BF20
:10E26000FEE700000000000010B561B34FF0000CA5
:10E2700000244FF0000E00BF10F80C2044F0010302
:10E28000DBB28B4272441BD210F803C044F002038D
:10E29000DBB25CFA82F28B4212D210F803C044F077
:10E2A0000303DBB25CFA82F28B4209D2C35C043412
:10E2B0005FFA84FC53FA82F28C455FFA82FEDBD36C
:10E2C0005042C0B210BD00225042C0B210BD00008A
:10E2D00010B5B1F1010E10F80EC023D000230021BB
:10E2E000002400BFC25C41F00103DBB29E45224422
:10E2F00019D9C45C41F00203DBB254FA82F29E45A4
:10E3000011D9C45C41F00303DBB254FA82F29E459A
:10E3100009D9C45C0431CBB254FA82F29E45D4B21E
:10E32000E0D800E000225042C0B2BCEB000018BFB1
:10E33000012010BD00000000F0B581B00F4634216F
:10E340001D4616460446F2F7F7FB25F00300E06190
:10E35000A0F108013044676040F2C023A661C2F218
:10E360000043C4E90466A1600221E1604EF6EE615B
:10E3700040F8086DCFF6FF714460C6E9000145F230
:10E38000454100202062EFF3108072B6C4F259219B
:10E39000216040F2C421C2F200410A682AB11F681C
:10E3A0003E6B3C6306F12C0301E0274626461C60C9
:10E3B0000132C4E90B760A6080F31088002001B0B6
:10E3C000F0BD00000000000080B5EFF3108E72B6C3
:10E3D0004EF2C932836EC9F20002934202D08EF32C
:10E3E000108880BDD0F8AC208A42F8D1C16E0029D7
:10E3F000F5D044F24E430A68C4F256439A42EED135
:10E400004B69002BEBD0D1F810C00022BCF1000FFB
:10E4100082660AD05A1E4A610AD0D0E91C3284456D
:10E420005A67136706D10B6104E00122CA6001E05C
:10E4300000220A61016B0729D1D10721C0F884109D
:10E4400040F2E821C2F200410A6801320A608EF30C
:10E45000108800F081FEEFF3108E72B68EF31088F4
:10E4600080BD000000000000B0B50D462421044628
:10E47000F2F762FB40F2B42C44F24E41C2F2004C7F
:10E480006560EFF3108072B6C4F256412160DCF88B
:10E49000002040F2B023C2F200432AB11D68E969AE
:10E4A000EC6101F1180301E0254621461C60C4E936
:10E4B0000651511CCCF8001080F310880020B0BD2C
:10E4C000B0B5EFF3108C72B68568046A25EA040EC5
:10E4D0000EEA01056C1A18BF012455B104EA520472
:10E4E0003CB9D207C3F800E012D100208CF31088A9
:10E4F000B0BDDDF810E0BEF1000F15D040F2E82508
:10E50000C2F200452C689CB107208CF31088B0BD86
:10E5100042690AB102694AB3826822EA0101816054
:10E5200000208CF31088B0BD07208CF31088B0BD9C
:10E5300040F2D024C2F200442468C4E91E134EF213
:10E54000C931C4F88020C9F20001C4E91A10416938
:10E55000D4F8AC2002F10102C4F8AC2069B1026920
:10E56000226752F8743F63671C670AE0026A11432E
:10E57000016200208CF31088B0BD046104F17402C4
:10E580002467146001314161072020630120A063EA
:10E59000C4F84CE02868013028608CF310882046CD
:10E5A00000F072FEEFF3108C72B6D4F884008CF396
:10E5B0001088B0BD000000002DE9F04F83B0EFF3EC
:10E5C000108B72B692074BD4026A8368002A43EA22
:10E5D000010EC0F808E01CBF22EA01010162D0F878
:10E5E00010A04569BAF1000F49D0012D51D1DAF8D8
:10E5F000782002EA0E039F1A18BF0127002B42D091
:10E60000DAF8803003F0020607EA5607002F3AD105
:10E61000DAF87C70DB07C7F800E003D0836823EAF0
:10E62000020282600022C0E9042240F2E820CAF817
:10E630006820C2F20040CAF88420026801320260F9
:10E640008BF31088504600F087FDEFF3108072B610
:10E6500080F3108800F058FD002003B0BDE8F08F73
:10E6600042691AB10269002A00F0B1808268114043
:10E6700081608BF31088002003B0BDE8F08F002D7F
:10E680001CBF0121C1608BF31088002003B0BDE8DE
:10E69000F08F0021016140F2E821C2F200410A68D6
:10E6A00001320A6000220021CDE9011A0021009107
:10E6B00008E000BF1A460021396701210091019747
:10E6C000013D52D08BF31088EFF3108B72B6C36804
:10E6D00043B10021C160816845694EEA010E029F85
:10E6E00001E000BF5746BE6F06EA0E0CD7F8308037
:10E6F000BCEB060918BF4FF00109B8F1070FD7F8B6
:10E7000070A0D7F8803008D1BCFA8CF403F0020175
:10E71000640909EA51012143D2D1B8F1070F0BD1A5
:10E72000F96FDB07C1F800E002D08168B143816076
:10E730000021B966C7F88410574509D0796F029B4C
:10E74000BB42CAF87410C1F870A003D1396F00E061
:10E75000002102914169002A3B46A1F1010141617A
:10E76000A8D0019913460F67A4E7016A029B0361D1
:10E7700029B1836823EA010181600021016240F22E
:10E78000E8258BF31088C2F2004572B1146FEFF3E5
:10E79000108072B629680131296080F31088104614
:10E7A00000F0DAFC002C2246F0D1EFF3108072B6B4
:10E7B00029680139296080F31088009801287FF4C6
:10E7C0004BAF00F0A1FC002003B0BDE8F08F026A5F
:10E7D00062EA010101628BF31088002003B0BDE8FA
:10E7E000F08F00000000000080B500F0F9FB00F0A1
:10E7F000B7FE40F2A0200021C2F20040C0E90011A3
:10E80000C0E90211C0E90411C0E90611C0E908110C
:10E81000C0E90A1180BD000010B540F2D804C2F270
:10E820000044206810F10F3F0DD04FF0F030206011
:10E83000F1F75EFEFFF7D8FF40F2E820C2F2004099
:10E840000168013101604FF0F030206046F24C6009
:10E85000C2F20040006801F08BFC00202060BDE89F
:10E860001040F1F785BE000080B5EFF3108E72B650
:10E870004EF66902836EC9F20002934202D08EF313
:10E88000108880BDD0F8AC208A42F8D1C16E002932
:10E89000F5D045F245430A68C4F655539A42EED185
:10E8A000CB69002BEBD04FF0000C5A1EC0F868C0AB
:10E8B000CA6109D0D0E91C32D1F818C05A67844522
:10E8C000136708BF8B6101E0C1F818C0016B0D2907
:10E8D000D5D11D21C0F8841040F2E821C2F20041D8
:10E8E0000A6801320A608EF3108800F035FCEFF3FD
:10E8F000108E72B68EF3108880BD000000000000FC
:10E9000070B50E46342115460446F2F715F945F266
:10E91000454166602561EFF3108072B6C4F655512B
:10E92000216040F2CC2140F2EC23C2F20041C2F25D
:10E9300000434EF661660A68C9F200061E6040F2A6
:10E94000C823C2F200432AB11E68756A746205F1D9
:10E95000200301E0264625461C600132C4E9086513
:10E960000A6080F31088002070BD000000000000E5
:10E9700070B540F2D022EFF3108672B6C2F20042B8
:10E980008368146873B1C268A2422ED099B340F272
:10E99000E82CC2F2004CDCF8003083B386F3108818
:10E9A0001D2070BD4FF001018160C460CCB10169D0
:10E9B000012903D1E16A4161202181622146054696
:10E9C000024651F8A43F23B11A6B1D4602F12C01F7
:10E9D00018630860C0E90B52D4F8A0000130C4F8F5
:10E9E000A00086F31088002070BD591C816086F35A
:10E9F0001088002070BD86F310881D2070BD4EF673
:10EA00006903D0F81CE0C9F20003A366D4F8AC3067
:10EA1000BEF1000F03F10103C4F8AC30E06606D08C
:10EA20008369236753F8745F65672C6703E084612B
:10EA300004F1740324671C600EF10103C3610D230C
:10EA400023630123A363E164DCF800100131CCF8F7
:10EA5000001086F310880169012910D1836AE16AE8
:10EA60008B4288BF8162D2F89C00814238BFC2F8D5
:10EA70009C10D06A884202D9104600F069F82046FE
:10EA800000F002FCD4F8840070BD0000000000001B
:10EA9000F0B581B0EFF3108172B6D0F81CE0BEF192
:10EAA000010F04D881F31088002001B0F0BD836904
:10EAB000BEF1020F1C6F09D1E26ADB6A9A4238BFCD
:10EAC000846181F31088002001B0F0BD40F2E82C91
:10EAD000C2F2004CDCF800200132CCF800201A46CB
:10EAE00007E000BFC6692B462A46B6462C6F944203
:10EAF00013D0E66ADF6A81F31088EFF3108172B6F3
:10EB00008569AA42EED1BE42C66938BF2346B645E2
:10EB1000E9D125462C6F9442EBD1DCF8007093428A
:10EB2000A7F10107CCF8007009D0D3E91C767E6705
:10EB30003767576FC3E91C273B675367836181F3CE
:10EB4000108800F0E1FA002001B0F0BD00000000E4
:10EB50002DE9F041EFF3108272B60446006B0D46CA
:10EB600050B1D4F89800E562A84238BF0546E56385
:10EB700082F31088BDE8F08140F2D42640F2E8200C
:10EB8000C2F20046C2F20040D4F82C803768016817
:10EB9000023101600E2020630120A0630020E064A8
:10EBA00082F31088204600F06FFBEFF3108072B6FE
:10EBB000D4F89810E562A94228BF2946E16380F3A2
:10EBC0001088204600F0C8FAEFF3108072B6326861
:10EBD000A24201D0216B19B180F31088BDE8F08109
:10EBE000E16AD26A914211D9E36B8B42F4D293422B
:10EBF000F2D8A8453460EFD246F25062C2F2004229
:10EC000042F8214080F31088BDE8F081A742E3D1AB
:10EC1000A8453460E0D246F25062C2F2004242F8A7
:10EC2000214080F31088BDE8F08100000000000062
:10EC30002DE9F041EFF3108172B68268BAB140F26B
:10EC4000D0230446C2F20043C0681B68984205D036
:10EC500040F2E823C2F200431B6803B3013AA2600A
:10EC60000BD081F3108800252846BDE8F08181F3A0
:10EC700010881E252846BDE8F081B0B1D0F8A0204C
:10EC8000013AC0F8A02016D0D4E90B23D0F8A47024
:10EC90001363A742DA6208BFC0F8A4200EE081F334
:10ECA00010881E252846BDE8F08181F310880025D4
:10ECB0002846BDE8F0810022C0F8A420A269002AFD
:10ECC000226908BF002A20D0012AD0F894502FD101
:10ECD00040F2E822C2F2004213680133136081F36C
:10ECE00010882023D0F8A470B7B1394605E000BFE2
:10ECF000CE6AF11B18BF314671B10E69012EF7D1F2
:10ED00008E6A9E4238BF3346F2E70025E56081F304
:10ED100010882846BDE8F081EFF3108172B61768BD
:10ED2000AB42A7F101071760C0F89C3038BF1D4601
:10ED3000E069022814D32069012811D140F2E826A5
:10ED4000C2F2004630680130306081F310882046FE
:10ED5000FFF79EFEEFF3108172B630680138306025
:10ED6000A6694EB12069012828D1D4F80C80F06A38
:10ED700060612020A06223E040F2E826C2F2004653
:10ED800030680130306081F31088E068C16AA942C0
:10ED90004FF02001A16202D02946FFF7D9FEEFF320
:10EDA000108072B63168002501393160E56080F36A
:10EDB000108800F0A9F92846BDE8F0814FF000085E
:10EDC000D6F8A00006F1A40228B113681F6B1C63DB
:10EDD00007F12C0201E02346274614600130C4E904
:10EDE0000B37C6F8A0000120A060E0690138E6609A
:10EDF000E06105D0D6E91C02A0614267106701E01E
:10EE00000020A0610020B066C6F8840040F2E8202F
:10EE1000C2F2004002680132026081F3108820696A
:10EE2000012816D1E06960B12046FFF731FEEFF30B
:10EE3000108072B6A16900291CBFC96AA16280F363
:10EE40001088D8F82C00A84203D040462946FFF786
:10EE50007FFE304600F080F900252846BDE8F081AD
:10EE600070B540F2E825EFF31081C2F2004572B6AA
:10EE700004460126286801302860D4F8A40000BFA9
:10EE800058B1866081F31088FFF7D2FEEFF310814E
:10EE900072B6D4F8A4000028F2D12868013828609E
:10EEA00081F3108870BD00002DE9F04F81B0DDE9DD
:10EEB0000A5993460F460446EF222846494698468B
:10EEC000DDF838A00C9EF1F70DFEB0212046F1F7D9
:10EED00033FE09EB050004F110010138C4E911B853
:10EEE000C4E90A76E56081E801060D98C4F81CA023
:10EEF0008642304618BF0020C4F894602021E063A9
:10EF0000C4E92601032020634FF281404FF219012A
:10EF1000C9F20000C9F20001C4E915042046F1F766
:10EF20008FFB45F24421EFF3108072B6C5F24841E1
:10EF3000216040F2E421C2F2004140F2E023C2F23B
:10EF400000430A683AB11F68D7F88C60C7F88C4054
:10EF500006F1880301E0274626461C600132C4E919
:10EF600022760A6040F2E821C2F200410F9D012D95
:10EF70000A6802F101020A6014D140F2D801C2F21B
:10EF800000410968EFF305821143B1F1F03F19D355
:10EF900040F2D421C2F200410D689DB1EE6BE96AE6
:10EFA000E96311E080F31088EFF3108072B60A680D
:10EFB000013A0A6080F3108800F0A6F8002001B042
:10EFC000BDE8F08F0025002680F31088204600F071
:10EFD000C3F8002DF2D0EE63002001B0BDE8F08F41
:10EFE000B0B540F2D0240025C2F200442020802198
:10EFF000C4E90055E06046F25060C2F20040A560EE
:10F00000F1F79AFDC4E90455A561206AE56140F075
:10F0100085702062B0BD000010B540F2D020C2F271
:10F0200000400468D4E91110884740F2EC20C2F295
:10F030000040016809B120468847EFF3108072B69E
:10F0400001212163A1630021E16440F2E821C2F2C1
:10F0500000410A6801320A6080F31088EFF31480DF
:10F0600020F0040080F314882046BDE8104000F032
:10F070000BB900000000000010B540F2D022EFF301
:10F080001081C2F2004272B6146864B140F2D80234
:10F09000C2F200421268EFF305831A4307D081F3EE
:10F0A0001088132010BD81F31088132010BD46F284
:10F0B0005472C2F2004294420AD068B140F2E8228F
:10F0C000C2F2004213685BB181F31088132010BDB7
:10F0D00081F31088132010BD81F31088002010BD2B
:10F0E000042323630123A3630023C4F88430E06472
:10F0F00010680130106081F31088204600F0C4F8D9
:10F10000D4F8840010BD000040F2E820C2F20040B4
:10F11000006800B1704740F2D02040F2D421C2F222
:10F120000040C2F20041006809688842F2D04EF601
:10F1300004504FF08051CEF200000160EFF30580E3
:10F14000002818BF7047EFF3108062B680F3108874
:10F15000704700000000000070B5EFF3108572B634
:10F160000446406E002804F14C0002D000F088FAFA
:10F1700001E00021016040F2E820C2F20040016895
:10F1800001390160A16B002940F2D421226BC2F247
:10F19000004108D0013A022A0CD3626B32B9002236
:10F1A000A263226306E02AB1626B12B303222263D8
:10F1B0000022626340F2D022C2F20042126885F35C
:10F1C000108809688A4201D0006800B170BD4EF60F
:10F1D00004504FF08051CEF200000160EFF3058043
:10F1E000002818BF70BDEFF3108062B680F310885E
:10F1F00070BDD4F82CE046F2506CC2F2004C0022F4
:10F2000022635CF82E302BB15A6A5C621462C4E946
:10F210000832CFE74CF82E4040F2DC2CC2F2004C12
:10F2200040F2D823C4E90844C2F200430122DCF8CA
:10F23000006002FA0EF2B6451E6842EA06021A6043
:10F24000B8D20B68CCF800E0CBB1DA6B9645B1D2FE
:10F250000C6085F3108800680028B7D14EF6045082
:10F260004FF08051CEF200000160EFF305800028DE
:10F27000ACD1EFF3108062B680F3108870BD0C60E3
:10F2800098E7000000000000F0B581B0044640F2AD
:10F29000D020C2F200400668EFF3108572B6A64295
:10F2A0000DD1204650F84C1F0131022901D300F046
:10F2B000B7F940F2F820E169C2F20040016040F283
:10F2C000E82040F2D42CC2F20040C2F2004C0168A7
:10F2D00001390160A16B012916D1236A0021A342E3
:10F2E000E26AA1631BD0616A46F2506EC2F2004E20
:10F2F00059620B625EF82210A14201D14EF8223011
:10F30000DCF80010A1422BD085F31088DCF8001047
:10F310008E4202D00068002846D001B0F0BD40F215
:10F32000D82E0123C2F2004E9340DEF8007027EA87
:10F33000030346F25067C2F20047002BCEF80030BC
:10F3400047F8221042D040F2DC2293FAA3F1C2F235
:10F350000042B1FA81F11160DCF80010A142D3D172
:10F3600040F2DC2146F25062C2F20041C2F2004299
:10F37000096852F82110CCF8001085F31088006855
:10F380000028CAD14EF604504FF08051CEF2000052
:10F390000160EFF305800028BFD1EFF3108062B663
:10F3A00080F3108801B0F0BD4EF604504FF080514C
:10F3B000CEF200000160EFF305800028ADD1EFF33D
:10F3C000108062B680F3108801B0F0BD40F2DC21FD
:10F3D0002022C2F200410A600021CCF8001085F31F
:10F3E00010880068002898D14EF604504FF08051E4
:10F3F000CEF200000160EFF3058000287FF48DAFAE
:10F40000EFF3108062B680F3108801B0F0BD000009
:10F4100040F2D02040F2FC22C2F20040C2F2004290
:10F4200000230168EFF3108072B6136009B10A6B14
:10F4300012B180F31088704740F2F82CD1E90732FE
:10F44000C2F2004C8A428B61CCF80030F1D0CB6A1A
:10F45000C96B8B42EDD140F2DC2146F2506CC2F216
:10F460000041C2F2004C09684CF8232040F2D4223B
:10F47000C2F200425CF82110116080F310887047DE
:10F48000EFF3108272B6016B04290AD140F2E82131
:10F49000C2F200410B6801330B6082F31088FFF762
:10F4A0005BBE836ED0F8AC1082F31088002B08BFCF
:10F4B00070471847000000002DE9F0470F462C2147
:10F4C0001D4616460446DDF82880DDE908A9F1F757
:10F4D00033FB204644F64D116760C4F2541140F8E6
:10F4E00008AF40F22033C4E903966561EFF310855D
:10F4F00072B6216040F22431C2F20043C2F20041F0
:10F500000A682AB11F68BE6ABC6206F1240301E0E2
:10F5100027462646B8F1010F1C60C4E9097602F1BE
:10F5200001020A6001D100F07BF885F31088002009
:10F53000BDE8F0870000000040F2E821EFF3108002
:10F54000C2F2004172B60A6801320A6080F3108884
:10F5500046F25470C2F20040FFF7FEBD000000000A
:10F560002DE9F04387B040F2F42446F2D466C2F2AB
:10F570000044C2F2004644F64D1880213046002572
:10F580002560C4F25418C4E90155E5602561F1F71E
:10F59000D3FA46F60401666106F18000A661C2F264
:10F5A00000414FF2C162C4E907014FF48060C9F223
:10F5B0000002C4E90905CDE9001046F2547040F696
:10F5C0001E71C2F20040C9F201014346CDE9025565
:10F5D00004950595FFF768FCE0B146F2547940F6D2
:10F5E0001E764FF2C167C2F20049C9F20106C9F2A4
:10F5F000000700BF04F12002434607CA8DE8070058
:10F60000CDE90325484631463A460595FFF74CFCBF
:10F610000028EFD1C4E90B5507B0BDE8F083000026
:10F6200001684A1C022A27D38269002A18BF704742
:10F630004A1E202940F20C3140F20833C2F2004148
:10F64000C2F2004388BF1F2209681B6801EB8201D8
:10F6500040F21032C2F2004212688A1A28BF99188A
:10F660000A682AB1536950611861C0E9042302E0B5
:10F67000C0E90400086081617047000000000000DC
:10F680008169002908BF70470269824208D0436936
:10F6900053611A610B6883420AD00021816170476F
:10F6A0000A688242F9D100220A6000218161704714
:10F6B00091610A6000218161704700000000000034
:10F6C0002DE9F04F83B044F64D11C4F25411884235
:10F6D00040F0948040F20C3640F2003440F2043B9B
:10F6E000C2F200460027C2F200440DF10409C2F242
:10F6F000004B0DF1080804E0206800286AD081F36F
:10F700001088EFF3108072B631680A680292002AFE
:10F7100018BFC2F8188040F210320F60C2F20042E7
:10F720003168043131601268914205D140F20831EC
:10F73000C2F2004109683160276080F31088EFF35E
:10F74000108172B605E000BF8AF31088EFF31081D4
:10F7500072B6029D002DCFD0286900228542019209
:10F7600014D06A694261C0F8188010612A6802905A
:10F77000212A10D3A2F120002860C5F818902D612D
:10F780000195CBF8005081F3108815E000202A681D
:10F790000290212AEED2D5E90132E8682B601BB134
:10F7A0004B462D61019500E00023AB61CBF8005082
:10F7B00081F3108802B19047EFF3108A72B6019876
:10F7C000CBF80070A842BFD12846AF61FFF728FFF1
:10F7D000BAE700BF46F2547040F2E823C2F200409C
:10F7E000C2F2004303220263012282631A680132DB
:10F7F0001A6081F31088FFF747FD82E703B0BDE888
:10F80000F08F0000000000002DE9F04381B00446B5
:10F8100000284FF0020000F09D80884608993429A6
:10F8200040F0988040F2E820EFF31081C2F20040EF
:10F8300072B61646994602680132026081F310885A
:10F8400040F2C021C2F200410B68191BB1FA81F1EC
:10F850004FEA51172ED040F2C421C2F2004109688C
:10F8600041B30222DB6A1F1BB7FA87F74FEA57172B
:10F8700020D0551E8D421DD2DB6A1F1BB7FA87F7B9
:10F880004FEA571716D08A4214D2DB6A1F1BB7FA09
:10F8900087F74FEA57170DD0551C8D420AD2DB6A05
:10F8A0001F1BB7FA87F74FEA571703D0951C04328E
:10F8B0008D42D7D3EFF3108172B60268013A02602D
:10F8C00081F31088FFF720FC1FB1022001B0BDE8D2
:10F8D000F08336B1B9F1640F07D2052001B0BDE85D
:10F8E000F083032001B0BDE8F08340F2D020C2F2E3
:10F8F0000040016840F2D800C2F200400268EFF315
:10F9000005831A4316D046F254730268C2F20043CC
:10F910000020EFF30587994242EA070208BF13204F
:10F92000B2F1F03F38BF1320994213D0B2F1F03F4B
:10F9300006D20FE046F25470C2F20040814208D075
:10F940002046414632464B4601B0BDE8F043FEF743
:10F95000F3BC132001B0BDE8F083000000000000FC
:10F96000F0B581B0044600284FF0060000F07C801E
:10F97000242A40F0798040F2E8200F46C2F200408D
:10F98000EFF3108172B602680132026081F31088D1
:10F9900040F2B021C2F200410B68191BB1FA81F1AB
:10F9A0004FEA51162ED040F2B421C2F2004109684C
:10F9B00041B302229B691E1BB6FA86F64FEA561621
:10F9C00020D0551E8D421DD29B691E1BB6FA86F6AD
:10F9D0004FEA561616D08A4214D29B691E1BB6FAFD
:10F9E00086F64FEA56160DD0551C8D420AD29B69F9
:10F9F0001E1BB6FA86F64FEA561603D0951C043243
:10FA00008D42D7D3EFF3108172B60268013A0260DB
:10FA100081F31088FFF778FB16B1062001B0F0BD26
:10FA200040F2D020C2F20040016840F2D800C2F299
:10FA300000400268EFF305831A4317D046F254736F
:10FA40000268C2F200430020EFF30586994242EAC1
:10FA5000060208BF1320B2F1F03F38BF13209942CD
:10FA600002D0B2F1F03F07D201B0F0BD46F25470BF
:10FA7000C2F20040814206D02046394601B0BDE8BE
:10FA8000F040FEF7F1BC132001B0F0BD0000000013
:10FA900010B5E8B144F24E4ED0F800C0C4F2564E54
:10FAA000F44515D153B3DDF808C0BCF1000F2AD0DE
:10FAB00040F2D80CC2F2004CDCF800C0EFF3058E27
:10FAC0005CEA0E0C24D04FF0040E4FF0000C03E063
:10FAD0004FF0060E4FF0000CBCF1000FF44618BFBB
:10FAE0004FF0080C032A98BFF446BCF1000F1CBF6E
:10FAF000604610BDBDE81040FEF7E2BC4FF0030EBB
:10FB00004FF0000CE8E74FF0000E4FF0010CE3E778
:10FB100040F2D02C46F2547EC2F2004CC2F2004EAB
:10FB2000DCF800C0ACEB0E04BCEB0E0CB4FA84F4B1
:10FB30004FEA54144FEA840E18BF4FF0010CCBE784
:10FB400078B144F24E43D0F800C0C4F256439C450D
:10FB500007D16FF002031A421CBF08207047FEF75E
:10FB60002BBD0620704700002DE9F0410446002817
:10FB70004FF01C0000F09080342B40F08D8040F25C
:10FB8000E8208846C2F20040EFF3108172B61546B5
:10FB900002680132026081F3108840F2C821C2F28B
:10FBA00000410B68191BB1FA81F14FEA51172FD0B0
:10FBB00040F2CC21C2F20041096849B3022200BFE1
:10FBC0001B6A1F1BB7FA87F74FEA571720D0561E3C
:10FBD0008E421DD21B6A1F1BB7FA87F74FEA5717D1
:10FBE00016D08A4214D21B6A1F1BB7FA87F74FEA56
:10FBF00057170DD0561C8E420AD21B6A1F1BB7FA2C
:10FC000087F74FEA571703D0961C04328E42D7D39A
:10FC1000EFF3108172B60268013A026081F3108836
:10FC2000FFF772FA17B11C20BDE8F081012D29D829
:10FC300040F2D020C2F20040016840F2D800C2F287
:10FC400000400268EFF305831A431ED046F2547257
:10FC50000368C2F20042EFF3058700203B43914264
:10FC600008BF1320B3F1F03F38BF132014D39142E3
:10FC700008BFBDE8F081204641462A46BDE8F04174
:10FC8000FEF73EBE1F20BDE8F08146F25470C2F27E
:10FC900000408142EFD11320BDE8F0810000000058
:10FCA00080B580B345F245430268C4F655539A4285
:10FCB00029D140F2D80CC2F2004C99B1DCF80020F6
:10FCC000EFF305831A434FF004021AD140F2D02318
:10FCD000C2F20043D3F800E046F25473C2F200438C
:10FCE0009E450ED0DCF80020EFF305831A430DD0BB
:10FCF000DCF80020EFF305831A43B2F1F03F05D2A0
:10FD00001322104680BD1C22104680BDBDE88040F5
:10FD1000FEF72EBE00000000C0B145F2454201686A
:10FD2000C4F65552914211D140F2D801C2F20041BD
:10FD30000A68EFF305831A430AD00968EFF30582D6
:10FD40001143B1F1F03F03D2132070471C207047DC
:10FD5000FEF76EBF000000002DE9F04F87B00446AB
:10FD600000284FF00E0052D08A461699B0294ED185
:10FD700040F2E820EFF31081C2F2004072B69346E1
:10FD800099460268DDF844800132026081F31088F0
:10FD900040F2E421C2F2004140F2E022C2F200420D
:10FDA000109D0968176801B308EB05020023013AAA
:10FDB000012B18BFA74218D0FE68B54203D200231A
:10FDC000B24209D20DE03B699D424FF000033CBFB7
:10FDD00001230025B24204D33E69B2423CBF002554
:10FDE00001230139D7F88870E2D1EFF3108172B6A0
:10FDF0000268013A026081F31088FFF785F9A74293
:10FE000008D00320BBF1000F18BF002D06D107B0AA
:10FE1000BDE8F08F0E2007B0BDE8F08FB8F1C80F35
:10FE200003D2052007B0BDE8F08F12991F2903D92E
:10FE30000F2007B0BDE8F08F139A8A4203D918202B
:10FE400007B0BDE8F08FDDF854C0BCF1010F03D955
:10FE5000102007B0BDE8F08F40F2D020C2F2004081
:10FE6000076840F2D800C2F200400668EFF305834D
:10FE7000334316D046F2547E0668C2F2004E00208C
:10FE8000EFF30583774546EA030608BF1320B6F172
:10FE9000F03F38BF13207745B9D0B6F1F03F06D216
:10FEA000B5E746F25470C2F2004087420FD0149872
:10FEB0004B46CDE90058CDE90212CDE9040C2046AD
:10FEC00051465A46FEF7F0FF07B0BDE8F08F132009
:10FED00007B0BDE8F08F00002DE9F04F81B0044677
:10FEE00000284FF0150000F0A0800F460D992C2936
:10FEF00040F09B8040F2E820DDF83080C2F2004004
:10FF0000DDF82890EFF3108172B693460268013253
:10FF1000026081F3108840F22031C2F200419A461B
:10FF20000B68191BB1FA81F14FEA51152ED040F23E
:10FF30002431C2F20041096841B302225B6A1D1BF1
:10FF4000B5FA85F54FEA551520D0561E8E421DD2C2
:10FF50005B6A1E1BB6FA86F64FEA561516D08A4221
:10FF600014D25B6A1E1BB6FA86F64FEA56150DD000
:10FF7000561C8E420AD25B6A1E1BB6FA86F64FEA00
:10FF8000561503D0961C04328E42D7D3EFF310815E
:10FF900072B60268013A026081F31088FFF7B4F884
:10FFA0001DB1152001B0BDE8F08FB9F1000F24D0CC
:10FFB000B8F1010F25D840F2D020C2F2004001680C
:10FFC00040F2D800C2F200400268EFF305831A4302
:10FFD0001BD046F254720368C2F20042EFF305866A
:10FFE00000203343914208BF1320B3F1F03F38BFE4
:10FFF00013201AD391420ED117E0162001B0BDE8AC
:02000004900169
:10000000F08F172001B0BDE8F08F46F25470C2F2B5
:100010000040814208D0204639465A46534601B036
:10002000BDE8F04FFFF748BA132001B0BDE8F08FEC
:1000300082B04FF000504FF010414FF480624FF00B
:100040000054F0F71DFD4EF60850CEF2000004609B
:10005000F2F7FAFAF6F7ECFAFCF7FEFD44F2E040AC
:100060000022C5F60200016841F01001016001683C
:1000700001F0100101910199016841F00401016052
:10008000016801F0040101910199016841F020012A
:100090000160016801F0200101910199016841F0BE
:1000A00080010160016801F08001019101990168FE
:1000B00041F001010160016801F001010191019924
:1000C000016841F002010160016801F00201019143
:1000D0000199016841F040010160016801F04001AF
:1000E00001910199016841F008010160016801F086
:1000F00008010191019950F8081C41F0020140F8F3
:10010000081C50F8081C01F002010191019950F8F7
:10011000081C41F0010140F8081C50F8080C0621A9
:1001200000F00100019001983820F6F7F9FC382022
:10013000F6F7E6FC0B2005210022F6F7F1FC0B2078
:10014000F6F7DEFCFBF7D8FC03A400BF3321204602
:10015000FCF74EFEFAE700BF2E2E2F436F72652F7D
:100160005372632F6D61696E2E6300000000000002
:1001700080B582B047F6546047F68862C2F200400C
:100180000BA1C2F200424FF420534FF0340CCDF8D3
:1001900000C0FFF739FB40B947F65460C2F2004097
:1001A000F1F776FD08B100BFFEE702B080BD00BFE9
:1001B000547820417070206D656D6F727920706F7A
:1001C0006F6C00005FEA400C08BF91F0000F4FEA2F
:1001D0008C234FEAC12243EA51514FEA1C5018BF09
:1001E00000F5F0404FEA300018BF41F000415FEAEF
:1001F0006C5C00F02980BCF1FF3F08BF40F08040FC
:100200007047130C06BF12044FF0100C4FF0000C97
:10021000130E04BF12020CF1080C130F04BF1201DD
:100220000CF1040C930F04BF92000CF1020CD30FDD
:1002300004BF52000CF1010C11464FF00002A0F176
:100240001F00A0EB0C00704711F0004F08BF704773
:1002500031F000413FF4D5AF0B0C06BF09044FF05D
:10026000100C4FF0000C0B0E04BF09020CF1080C2F
:100270000B0F04BF09010CF1040C8B0F04BF8900A4
:100280000CF1020CCB0F04BF49000CF1010CCCF1B6
:10029000200322FA03F341EA030102FA0CF2A0EB75
:1002A0000C0000F10100704723F07F4720F07F4CE5
:1002B00080EA030000F00040ACEB070303F57C5339
:1002C00003F1FF032DE9804909B44FEA144324EAFE
:1002D00003484FEA154B25EA0B4E0FF2042606EBB6
:1002E00013273E7803FB0667C7F5000707FB06F6F2
:1002F0004FEAD64606F102064FEA543707FB066C72
:10030000CCF1005C4FEA1C472CEA074C0CFB06F5CD
:1003100007FB06F404EB15464FEA961649085FEA18
:10032000320234BF00204FF000404FEAD13706FBC5
:1003300007FC4FEA1C4C0CFB0BF7D21B03FB0CF722
:1003400061EB07010CFB0EF7B0EB074072EB1742B5
:100350000CFB08F734BFA2EB0742B2EB074261EB9C
:1003600017414FEA0C444FEA910706FB07FC4FEA9E
:100370001C4C0CFB0BF7B0EBC74072EB573203FB86
:100380000CF734BFA2EBC742B2EBC74261EB573167
:100390000CFB0EF7B0EBC70072EB57720CFB08F7C3
:1003A00034BFA2EBC702B2EBC70261EB57714FEA51
:1003B000816141EA92114FEA826242EA90124FEA69
:1003C000806004EBCC04039F4FEAD13706FB07FCA7
:1003D0004FEA1C4C0CFB0BF7D21B03FB0CF761EB39
:1003E00007010CFB0EF7B0EB074072EB17420CFB5A
:1003F00008F734BFA2EB0742B2EB074261EB1741AB
:100400004FEA8C5504EB9C244FEA910706FB07FC4E
:100410004FEA1C4C0CFB0BF7B0EBC74072EB5732AA
:1004200003FB0CF734BFA2EBC742B2EBC74261EB50
:1004300057310CFB0EF7B0EBC70072EB57720CFB99
:1004400008F734BFA2EBC702B2EBC70261EB5771EA
:100450004FEA816141EA92114FEA826242EA9012C8
:100460004FEA806015EB4C2544F100044FEAD13788
:1004700006FB07FC4FEA1C4C0CFB0BF7D21B03FBE3
:100480000CF761EB07010CFB0EF7B0EB074072EBCA
:1004900017420CFB08F734BFA2EB0742B2EB07424E
:1004A00061EB17414FEA813141EA92414FEA8232D2
:1004B00042EA90424FEA80304FEA0C7615EB1C1569
:1004C00044F1000448EA03434EEA0B484FF0000EA3
:1004D000B2EB080C71EB030724BF624639464EEBC2
:1004E0000E0E4FF0000B0018524149414BEB0B0B25
:1004F000B2EB080C71EB03077BF1000B24BF6246E3
:1005000039464EEB0E0E4FF0000B00185241494198
:100510004BEB0B0BB2EB080C71EB03077BF1000B01
:1005200024BF624639464EEB0E0E51EA020718BF51
:1005300046F0010616EB0E7655F1000254F100016B
:1005400003D5BDE88901BDE80088BDE88901BDE8A3
:100550000048B619524141EB0101A3F10103704774
:1005600080807F7E7D7C7B7A7978777676757473F0
:10057000727171706F6E6E6D6C6C6B6A6A696868AF
:10058000676666656464636362616160605F5F5E45
:100590005E5D5D5C5C5B5B5A5A59595858575756BB
:1005A0005655555554545353525252515150505020
:1005B0004F4F4F4E4E4D4D4D4C4C4C4B4B4B4A4A72
:1005C0004A494949484848474747474646464545B6
:1005D00045444444444343434342424242414141EF
:1005E0009C46002B30D477002BD04FEA37071CB540
:1005F00003B44FF010004FF01001BAF1000F06D015
:10060000BCF1000FDCBF40F0080040F008014FF0E3
:1006100000000FBCBDE810400BF1010BBBF1010F56
:1006200008BF5FEA170722BF12F1010211F10101B1
:100630004FF0004143F1000300F0004043EA0000A6
:100640007047F9D35708D0E746EA06464FEA164600
:1006500013F1400F1FDD13F1200FDFBF16430A46D1
:10066000002120335B42BED0C3F1200746EA064694
:100670004FEA164602FA07F746EA070622FA03F29D
:10068000C3F1200701FA07F742EA070221FA03F152
:100690004FF00003A7E746EA020646EA06464FEA9D
:1006A000164646EA0106BCBF46EA0646360C4FF03F
:1006B00000034FF000024FF0000194E72DE9804C59
:1006C00070B49A46934691E8380007C831EA400C66
:1006D00048BF34EA430C03D5FFF7E6FDFFF780FF80
:1006E000F0BCBDE8008C2DE9804C70B49A4693466E
:1006F00091E8380007C810F0804F08BF13F0804F12
:1007000003D100F005F8FFF76BFFF0BCBDE8008CEB
:1007100020F07F4723F07F4C80EA030000F0004088
:1007200007EB0C03A3F57C53A3F1FE0392F0000F3B
:1007300000F0B38095F0000F00F077802DE90149BB
:100740004FEA114021EA00484FEA144624EA0647DE
:1007500000FB06FC08FB06F607FB08F818EB06484A
:100760004CEB164C00FB07F718EB07484CEB174017
:100770004FEA124B22EA0B4E4FEA154625EA06478E
:100780000BFB06FC0EFB06F607FB0EFE1EEB064EF1
:100790004CEB164C0BFB07F71EEB074E4CEB174BC5
:1007A00018EB0B0840F1000018EB0E0B58EB00089B
:1007B00040F100008F1A4FF000014FF000063CBFDF
:1007C000C943661B14BFB5EB040C00213CBFC943F1
:1007D000F61B4FEA174427EA04454FEA1C472CEA68
:1007E000074C04FB076205FB07F70CFB05F616EB4D
:1007F000074642EB174204FB0CFC16EB0C4642EB9F
:100800001C421BEB060658EB020241414EEA8E0EDB
:1008100046EA9E0601D5BDE80189B619524141EB71
:100820000101A3F10103BDE801894FEA144524EA5F
:1008300005464FEA114721EA074C05FB07F406FB82
:1008400007F70CFB06F111EB074144EB174405FBDE
:100850000CFC11EB0C4144EB1C444FEA124722EA1A
:10086000074C05FB07F206FB07F70CFB06F616EB39
:10087000074642EB174205FB0CFC16EB0C4642EB1D
:100880001C456A1854F1000148BF7047B61952411F
:1008900041EB0101A3F10103704795F0000F37D040
:1008A0004FEA114221EA02464FEA144724EA074C74
:1008B00002FB07F106FB07F70CFB06F414EB0744F9
:1008C00041EB174102FB0CFC14EB0C4441EB1C41C7
:1008D0004FEA154725EA074C02FB07F506FB07F729
:1008E0000CFB06F616EB074645EB174502FB0CFC26
:1008F00016EB0C4645EB1C42121951F1000148BFA2
:100900007047B619524141EB0101A3F10103704751
:100910004FEA144524EA05464FEA114721EA074CFD
:1009200005FB07F106FB07F70CFB06F212EB07428B
:1009300041EB174105FB0CFC12EB0C4251EB1C4147
:100940004FF0000648BF7047921841EB0101A3F138
:100950000103704740F2090CC0F2000C604703B479
:1009600001984100009850EAC12018BF04204A0DA8
:1009700018BF40F0010040F2FF72B2EB515F08BFB8
:1009800040F00200012808BF052002B0704730384F
:100990000A2801D2012070470020704710B50029B5
:1009A0000AD00878002807D005487844F1F730F8D5
:1009B000002801D0002010BD0248784410BD00007E
:1009C000161300000E13000010B500290AD0087895
:1009D000002807D005487844F1F71AF8002801D01C
:1009E000002010BD0248784410BD0000061300002E
:1009F000FE120000F1EE100A4FF6FF71C0F2C03196
:100A000020EA010040F04070E1EE100A7047F0F774
:100A10001DBCF0F751BD04000008000000000000FC
:100A200000020001000010000000000000000000B3
:100A30003031323334353637383941424344454614
:100A4000403058003031323334353637383961620E
:100A50006364656640307800303132333435363780
:100A600038396162636465667870003031323334DE
:100A70003536373839414243444546585000000026
:100A800002400000000000A000000000054000003F
:100A9000000000C8000000000C4000000000409C66
:100AA00000000000194000000020BCBE0000000053
:100AB00034400000BFC91B8E00000004B540000098
:100AC000504BCFD06607E2CF010000006C41000020
:100AD0003E8251AADFEEA73401000000D942000097
:100AE000DCB5A0E23A301F97FFFFFFFFB4450000DE
:100AF000FD25A0C8E9A3C14FFFFFFFFFFF3F000096
:100B00000000008000000000FF3F000000000080A7
:100B1000000000000000FFFF00FF00FFFF0000FFDB
:100B2000FFFFFFFF000000FF0000000001020304C0
:100B30000102030406070809010002000400060080
:100B400008000A000C001000200040008000000196
:100B5000040000000300000002000000020000008A
:100B6000020000000100000001000000020000007F
:100B7000000610160006101601010103070100000F
:100B800008040204080101012E2E2F436F72652F05
:100B90005372632F73746D3332683778785F69747A
:100BA0002E63004465627567204D75746578204337
:100BB0007265617465204661696C0D0A0044656266
:100BC0007567204D75746578204372656174652082
:100BD000537563636573730D0A00454D47004445C3
:100BE00042554700434F4D4D4F4E005741524E0026
:100BF000494E464F004552524F52001B5B33306DF9
:100C0000001B5B33316D001B5B33326D001B5B33AC
:100C1000336D001B5B33346D0074797065203D20AB
:100C20002564206B6579436F6465203D2025642031
:100C30006B657956616C7565203D2025640D0A0051
:100C40006964203D20256420737461747573203DB0
:100C50002025642078203D2025642079203D202512
:100C6000640D0A004D756C74697461736B20496E74
:100C70006974206F6B0D0A00417070204755492040
:100C80005461736B00417070204D73205461736B1D
:100C90000041707020546F756368205363726565FE
:100CA0006E002A2A094669726D776172653A0925D4
:100CB0007309092A2A0D0A002A2A09466F667477E1
:100CC0006172653A09257309092A2A0D0A002A2A40
:100CD000094170703A09257309092A2A0D0A002A68
:100CE0002A202020202020202020202020202020FA
:100CF00020202020202020202020202020202020F4
:100D000020202020202020202020202020202020E3
:100D1000202A2A0D0A002A2A2A2A2A2A2A2A2A2AA4
:100D20002A2A2A2A2A2A2A2A2A2A2A2A2A2A2A2A23
:100D30002A2A2A2A2A2A2A2A2A2A2A2A2A2A2A2A13
:100D40002A2A2A2A2A2A2A2A2A2A0D0A0057726FB0
:100D50006E6720706172616D657465727320766173
:100D60006C75653A2066696C65202573206F6E206E
:100D70006C696E652025640D0A007230303A2030AF
:100D800078253038780D0A007230313A20307825D5
:100D90003038780D0A007230323A203078253038F9
:100DA000780D0A007230333A203078253038780DCB
:100DB0000A007230343A203078253038780D0A0035
:100DC0007230353A203078253038780D0A0070734B
:100DD000723A203078253038780D0A0056312E309E
:100DE0002E300043524320496E6974204F6B0D0A28
:100DF00000524E4720496E6974204F6B0D0A004423
:100E0000545320496E6974204F6B0D0A002E2E2F0B
:100E10002E2E2F2E2E2F4253502F4273702E6300F2
:100E20002E2E2F2E2E2F2E2E2F4253502F446973ED
:100E3000706C61794472697665722E630025733A2D
:100E4000256409002E2E2F2E2E2F2E2E2F4253508A
:100E50002F53657269616C2E6300493243205265DD
:100E60006164204661696C0D0A002E2E2F2E2E2FF4
:100E70002E2E2F4253502F436F6D706F6E656E7420
:100E8000732F6674353333362F6674353333362E0D
:100E9000630053656E642043616C6C204E554C4C6E
:100EA0000D0A002E2E2F2E2E2F2E2E2F50726F74E5
:100EB0006F636F6C2F50726F746F636F6C2E630073
:100EC0002E2E2F2E2E2F2E2E2F50726F746F636F9B
:100ED0006C2F437573746F6D2F50726F746F636FE7
:100EE0006C5F4844736D6172742E63002E2E2F2E3A
:100EF0002E2F2E2E2F426F6172642F424F4152448B
:100F00005F53544D3332483733305F47454E455277
:100F1000414C2E63006170702054657374005379E6
:100F20007374656D2054696D6572205468726561D3
:100F3000640000000000000000000000000000004D
:100F400000000000000000000000000000000000A1
:100F50000000000000000000000000000000000091
:100F600000000000101FFF381FFF380000000000C5
:100F70000000000000000000000000000000000071
:100F80000000000F80000F80000000000000000F34
:100F900080000F000000000000000000000000635F
:100FA000000063000063F801FFE00FE3000063004E
:100FB000006308006FF80FFF000F6300006300007C
:100FC00000000000000001C003E1F007F0700C30E9
:100FD000181FFFFE0C1C180E0E380787F00383E065
:100FE00000000000000000000007F0000C18180CC2
:100FF000186007F380000C0000308000C7F0070C79
:1010000018080C180007F00000000000000007E0BE
:1010100003CFF007FC300C3C180C3F180C6398070A
:10102000C1F00100E00007F0000630000000000001
:10103000000000000000000000000F80000F800092
:1010400000000000000000000000000000000000A0
:101050000000000000000000000000000000000090
:1010600000001C0001FFC00780700C001818000C65
:1010700010000400000000000030000618000C0EF4
:1010800000380380E000FF80000000000000000046
:1010900000000000000000000000000000038C00C1
:1010A00001980000D80000F0000FFF000FFF0000C3
:1010B000F00000D800019800038C00000000000838
:1010C0000000080000080000080000080001FFC040
:1010D00001FFC00008000008000008000008000030
:1010E000000000000000000000003900003E000089
:1010F00038000000000000000000000000000000B8
:1011000000000000000000080000080000080000C7
:10111000080000080000080000080000080000089F
:1011200000000800000800000000000000000000AF
:10113000000038000038000000000000000000003F
:10114000000000000000000000000000000000009F
:10115000000000180000700000C0000300000C0038
:1011600000300000E00001800006000018000000D0
:10117000000000000000FF8003FFE00700700E0089
:10118000300C00180C00180600300780F003FFE058
:10119000007F0000000000000000000000C000010F
:1011A000800003000007FFF00FFFF00000000000C8
:1011B000000000000000000000000000000180109E
:1011C0000780700600F00C01D00C03900C07100E85
:1011D0001C1007F81003E0100000100000000000D1
:1011E000000180C00380E00600300C00180C1818C5
:1011F0000C18180C1C3007FE7003E7E0000180009B
:101200000000000180000380000F80001D8000713D
:101210008000E18003818007FFF00FFFF000018074
:101220000001800001800000800038E007F87007AE
:10123000B010042018042018043018043030043C86
:10124000F0041FE00003000000000000000007C0E1
:10125000001FE000783000F01803B0180F30180CB1
:101260003018081830001FF0000FC0000000000008
:10127000000400000400000400100400F00407E073
:10128000041F0004780005E000078000060000004D
:10129000000000000001C7E007FFF0063C300C181A
:1012A000180C18180C1818043C1807FC3003E7E059
:1012B0000003C000000000400003F80007BC000667
:1012C0000C080C06380C06F00C07C0060F8007FE51
:1012D0000003F80000C00000000000000000000053
:1012E000000000000000001830001C38001830001A
:1012F00000000000000000000000000000000000EE
:1013000000000000000000000000001811001C3A5E
:1013100000183C0000000000000000000000000079
:101320000000000000000800001C00003600006300
:101330000000C1800180C00300600600300400107E
:1013400008000800000000430000430000430000C4
:1013500043000043000043000043000043000043FB
:10136000000043000043000000000000000C0018D3
:101370000400100200200100400180C000C1800074
:101380006300003600001C000008000000000000A0
:10139000000080000380000700000E00100C0738DA
:1013A0000C1E3006380007F00003E00000000000CB
:1013B0000000001E0000E1C0030020043F90047004
:1013C0008808808808830808FF8804E0900201806C
:1013D00001FE000000000000080000F80007F8000F
:1013E0007F8003FB000F83000FC30001FF00003F5D
:1013F000C00003F80000780000080000000FFFF8AC
:101400000FFFF80C18180C18180C181804181806E8
:10141000183007FC7003E7F000C3C00000000000B4
:101420000000FF8003FFE00780F00600300C00188A
:101430000C00180C001806007003C3E001C3C000C4
:1014400000000000000FFFF80FFFF80C0018040068
:101450001804001006003007007003C1E001FFC04F
:10146000007F000000000000000FFFF80FFFF80CE5
:1014700018180C18180C18180C18180C18180C1828
:10148000180C18180000180000000000000FFFF8EA
:101490000FFFF80C08000C08000C08000C08000CEA
:1014A00008000C08000C00000C0000000000000008
:1014B0000000FF8003FFE00780F00600300C0018FA
:1014C0000C0C18060C10078C7003CFF800CFF80036
:1014D00000000000000FFFF80FFFF80018000018D0
:1014E000000018000018000018000018000FFFF896
:1014F0000FFFF800000000000000000000000000E6
:1015000000000000000FFFF80FFFF80000000000CF
:10151000000000000000000000000000000003C008
:101520000003E00000700000380000180000180000
:1015300000300FFFF00FFFE00FFE00000000000082
:10154000000FFFF80FFFF8001C0000380000FC003F
:1015500001CF000387C00701F00C007808001800D5
:1015600000000000000FFFF80FFFF8000018000057
:1015700018000018000018000018000018000018DB
:101580000000180000000000000FFFF80FFFF80F28
:10159000F00000FF800007F80007F801FF000FE0EF
:1015A000000FFFF80FFFF80000000000000FFFF829
:1015B0000FFFF807C00001F000003C00000F000022
:1015C00003E00000F80FFFF80FFFF8000000000034
:1015D0000001FFC003FFE00700700E00380C001888
:1015E0000C00180600300780F003FFE000FF8000C9
:1015F00000000000000FFFF80FFFF80C0C000C0CAF
:10160000000C0C00040C00060C00061C0003F80083
:1016100001F00000000000000001FFC003FFE00730
:1016200000700E00380C00180C01980601F00780BD
:10163000F803FFF800FF800000000000000FFFF833
:101640000FFFF80C0C000C0C000C0C00040E000634
:101650001F800739F003F07801E018000000000057
:101660000001C1E003E1F00770300C38180C1818C5
:101670000C1C18060C18078E700387E00003C000CE
:1016800000000000000C00000C00000C00000C002A
:10169000000FFFF80FFFF80C00000C00000C00001A
:1016A0000C00000000000000000FFFC00FFFF00062
:1016B000003000001800001800001800003800007A
:1016C000700FFFF00FFFC00000000C00000F800043
:1016D00007F80000FF00000FE00000F80001F8002C
:1016E0001FC001FE000FE0000F00000000000F000F
:1016F000000FFF0000FFF80003F801FF800FC0009B
:101700000FF800007FF00003F80FFFF00FF800085B
:1017100000000000080C00380F00F807C1E000F7D7
:1017200080003E00007E0001E7800781F00E007817
:101730000800180000000800000E00000F800001E3
:10174000E000007800001FF8003FF800F00003C040
:10175000000F00000C00000000000000000C00382A
:101760000C00F80C03D80C07180C1E180C78180C79
:10177000E0180FC0180F00180C001800000000003F
:10178000000000000000000000000000003FFFFE1D
:10179000300006300006300006300006300006003B
:1017A00000000000000800000E000003C00000F070
:1017B00000001E000007800000E000003C00000662
:1017C000000000000000000000300006300006307D
:1017D00000063000063FFFFE3FFFFE000000000055
:1017E00000000000000000000000000000040000F5
:1017F0000C0000180000300000200000300000380D
:1018000000001800000400000000000000000000BC
:1018100001000001000001000001000001000001C2
:1018200000000100000100000100000100000100B3
:101830000001000000000000000000000000200087
:10184000003000001C00000C000000000000000040
:101850000000000000000000000000E00019F0009F
:101860003998003318003318003310003230003F2D
:10187000F0001FF80000080000000000000FFFF853
:101880000FFFF8001830003010002018003018004A
:101890003038003EF0001FE0000380000000000030
:1018A00000000FC0001FE000383000301800301872
:1018B000003018003018003C70001CE00000C00030
:1018C0000000000000000FC0001FF00038300030A2
:1018D000180020180030180030300FFFF80FFFF804
:1018E0000000000000000000000007C0001FE00032
:1018F0003A30003218002218002218003218003E38
:1019000070001E6000024000000000000000300077
:1019100000300000300003FFF807FFF80430000C2F
:1019200030000C30000C3000060000000000000009
:101930000000004E001FEF003FB30031B10020B1A6
:101940000031B1003F91003F1300201E00200C0029
:1019500000000000000FFFF80FFFF8000C0000105F
:1019600000003000002000003000003800001FF8A8
:101970000007F80000000000000000000000000068
:101980000000000000063FF8063FF80000000000DD
:101990000000000000000000000000000000000047
:1019A000000003000003000003000003040003061E
:1019B0003FFE063FFC0000000000000000000000A9
:1019C000000FFFF80FFFF8000380000700000E0073
:1019D000001F800039C0003070002038000008006F
:1019E00000000000000000000000000000000000F7
:1019F000000FFFF80FFFF8000000000000000000DB
:101A0000000000000000003FF8003FF80018000050
:101A10003000003000003FF8001FF80010000030D8
:101A200000003000003FF8000000000000003FF818
:101A3000003FF8000C000010000030000020000003
:101A40003000003800001FF80007F8000000000018
:101A500000000FC0001FE0003830003018003018C0
:101A6000003018003030001870001FE00007C00080
:101A70000000000000003FFF003FFF001830003072
:101A800010003018003018003038001EF0001FE041
:101A9000000380000000000000000FC0001FF000E5
:101AA0003830003018003018003018003030003F57
:101AB000FF003FFF000000000000000000000000E9
:101AC000003FF8003FF8000E000018000010000072
:101AD00030000030000000000000000000000000A6
:101AE00000000000001E70003E3000331800231874
:101AF0000023180031180039F00018F00000000031
:101B0000000000000000300000300000300003FF43
:101B1000E003FFF0003018003018003018003018D3
:101B2000000000000000000000003FE0003FF00067
:101B300000380000180000180000100000300000FD
:101B4000E0003FF8003FF800000000000000300017
:101B5000003E00000F800001F00000380000780017
:101B600003E0001F00003C000020000000000030E7
:101B700000003F000007F8000078000FE0003C0084
:101B8000003F000003F80000F8003FE0003E0000C6
:101B90000000000000002008003038003870000FFE
:101BA000C00007800007C0001CE00038700020184B
:101BB000000008000000000000003000003E0300AC
:101BC0000F830001F300007E00007C0003E0001F93
:101BD00000003C0000200000000000000000001891
:101BE0000030380030F80031D80033980037180042
:101BF0003C180038180030180000000000000000F9
