Component: ARM Compiler 6.15 Tool: armlink [5dd79300]

==============================================================================

Section Cross References

    startup_stm32h730xx.o(STACK) refers (Special) to heapauxi.o(.text) for __use_two_region_memory
    startup_stm32h730xx.o(HEAP) refers (Special) to heapauxi.o(.text) for __use_two_region_memory
    startup_stm32h730xx.o(RESET) refers (Special) to heapauxi.o(.text) for __use_two_region_memory
    startup_stm32h730xx.o(RESET) refers to startup_stm32h730xx.o(STACK) for __initial_sp
    startup_stm32h730xx.o(RESET) refers to startup_stm32h730xx.o(.text) for Reset_Handler
    startup_stm32h730xx.o(RESET) refers to stm32h7xx_it.o(.text.NMI_Handler) for NMI_Handler
    startup_stm32h730xx.o(RESET) refers to stm32h7xx_it.o(.text.MemManage_Handler) for MemManage_Handler
    startup_stm32h730xx.o(RESET) refers to stm32h7xx_it.o(.text.BusFault_Handler) for BusFault_Handler
    startup_stm32h730xx.o(RESET) refers to stm32h7xx_it.o(.text.UsageFault_Handler) for UsageFault_Handler
    startup_stm32h730xx.o(RESET) refers to stm32h7xx_it.o(.text.DebugMon_Handler) for DebugMon_Handler
    startup_stm32h730xx.o(RESET) refers to tx_thread_schedule.o(.text) for PendSV_Handler
    startup_stm32h730xx.o(RESET) refers to tx_initialize_low_level.o(.text) for SysTick_Handler
    startup_stm32h730xx.o(RESET) refers to bsp.o(.text.RTC_WKUP_IRQHandler) for RTC_WKUP_IRQHandler
    startup_stm32h730xx.o(RESET) refers to stm32h7xx_it.o(.text.DMA1_Stream0_IRQHandler) for DMA1_Stream0_IRQHandler
    startup_stm32h730xx.o(RESET) refers to stm32h7xx_it.o(.text.EXTI9_5_IRQHandler) for EXTI9_5_IRQHandler
    startup_stm32h730xx.o(RESET) refers to stm32h7xx_it.o(.text.TIM6_DAC_IRQHandler) for TIM6_DAC_IRQHandler
    startup_stm32h730xx.o(RESET) refers to displaydriver.o(.text.LTDC_IRQHandler) for LTDC_IRQHandler
    startup_stm32h730xx.o(RESET) refers to displaydriver.o(.text.LTDC_ER_IRQHandler) for LTDC_ER_IRQHandler
==============================================================================

Removing Unused input sections from the image.

    Removing main.o(.text), (0 bytes).
    Removing main.o(.ARM.exidx.text.main), (8 bytes).
    Removing main.o(.ARM.exidx.text.HAL_TIM_PeriodElapsedCallback), (8 bytes).
    Removing main.o(.ARM.exidx.text.Error_Handler), (8 bytes).
    Removing main.o(.ARM.use_no_argv), (4 bytes).
    Removing app_threadx.o(.text), (0 bytes).
    Removing app_threadx.o(.ARM.exidx.text.App_ThreadX_Init), (8 bytes).
    Removing app_threadx.o(.ARM.exidx.text.MX_ThreadX_Init), (8 bytes).
    Removing stm32h7xx_it.o(.text), (0 bytes).
    Removing stm32h7xx_it.o(.ARM.exidx.text.EXTI9_5_IRQHandler), (8 bytes).
    Removing stm32h7xx_it.o(.ARM.exidx.text.TIM6_DAC_IRQHandler), (8 bytes).
    Removing stm32h7xx_it.o(.ARM.exidx.text.DMA1_Stream0_IRQHandler), (8 bytes).
    Removing stm32h7xx_it.o(.ARM.exidx.text.USART10_IRQHandler), (8 bytes).
    Removing stm32h7xx_it.o(.ARM.exidx.text.NMI_Handler), (8 bytes).
    Removing stm32h7xx_it.o(.ARM.exidx.text.MemManage_Handler), (8 bytes).
    Removing stm32h7xx_it.o(.ARM.exidx.text.BusFault_Handler), (8 bytes).
    Removing stm32h7xx_it.o(.ARM.exidx.text.UsageFault_Handler), (8 bytes).
    Removing stm32h7xx_it.o(.ARM.exidx.text.DebugMon_Handler), (8 bytes).
==============================================================================

Adding Veneers to the image

    Adding TT veneer (10 bytes, Long) for call to '__2snprintf' from debug.o(ITCM).
    Adding TT veneer (10 bytes, Long) for call to 'vsnprintf' from debug.o(ITCM).
    Adding TT veneer (10 bytes, Long) for call to 'OSAL_MutexGet' from debug.o(ITCM).
    Adding TT veneer (10 bytes, Long) for call to 'HAL_UART_Transmit' from debug.o(ITCM).
    Adding TT veneer (10 bytes, Long) for call to 'OSAL_MutexPut' from debug.o(ITCM).
    Adding TT veneer (10 bytes, Long) for call to 'OS_Delay' from application.o(ITCM).
    Adding TT veneer (10 bytes, Long) for call to 'GUI_FillRect' from apptest.o(ITCM).
    Adding TT veneer (10 bytes, Long) for call to 'GUI_DrawRect' from apptest.o(ITCM).
    Adding TT veneer (10 bytes, Long) for call to 'GUI_DrawCircle' from apptest.o(ITCM).
    Adding TT veneer (10 bytes, Long) for call to 'SwTmr_Skip' from apptest.o(ITCM).
    Adding TT veneer (10 bytes, Long) for call to 'Bsp_RNGGenerate' from apptest.o(ITCM).
    Adding TT veneer (10 bytes, Long) for call to 'Debug_Printf' from multitask.o(.text.AppTaskStart).

12 Veneer(s) (total 120 bytes) added to the image.

==============================================================================

Image Symbol Table

    Local Symbols

    Symbol Name                              Value     Ov Type        Size  Object(Section)

    ../clib/angel/boardlib.s                 0x00000000   Number         0  boardinit1.o ABSOLUTE
    ../clib/angel/boardlib.s                 0x00000000   Number         0  boardinit2.o ABSOLUTE
    ../clib/angel/boardlib.s                 0x00000000   Number         0  boardinit3.o ABSOLUTE
    ../clib/angel/boardlib.s                 0x00000000   Number         0  boardshut.o ABSOLUTE
    ../clib/angel/dczerorl.s                 0x00000000   Number         0  __dczerorl.o ABSOLUTE
    ../clib/angel/handlers.s                 0x00000000   Number         0  __scatter_copy.o ABSOLUTE
    ../clib/angel/handlers.s                 0x00000000   Number         0  __scatter_zi.o ABSOLUTE
    ../clib/angel/kernel.s                   0x00000000   Number         0  __rtentry.o ABSOLUTE
    ../clib/angel/kernel.s                   0x00000000   Number         0  __rtentry2.o ABSOLUTE
    ../clib/angel/kernel.s                   0x00000000   Number         0  __rtentry4.o ABSOLUTE
    ../clib/angel/kernel.s                   0x00000000   Number         0  rtexit.o ABSOLUTE
    ../clib/angel/kernel.s                   0x00000000   Number         0  rtexit2.o ABSOLUTE
    ../clib/angel/rt.s                       0x00000000   Number         0  aeabi_ldiv0.o ABSOLUTE
    ../clib/angel/rt.s                       0x00000000   Number         0  aeabi_ldiv0_sigfpe.o ABSOLUTE
    ../clib/angel/rt.s                       0x00000000   Number         0  rt_div0.o ABSOLUTE
    ../clib/angel/rt.s                       0x00000000   Number         0  rt_ctype_table.o ABSOLUTE
    ../clib/angel/rt.s                       0x00000000   Number         0  rt_raise.o ABSOLUTE
    ../clib/angel/rt.s                       0x00000000   Number         0  rt_locale.o ABSOLUTE
    ../clib/angel/rt.s                       0x00000000   Number         0  rt_locale_intlibspace.o ABSOLUTE
    ../clib/angel/scatter.s                  0x00000000   Number         0  __scatter.o ABSOLUTE
    ../clib/angel/startup.s                  0x00000000   Number         0  __main.o ABSOLUTE
    ../clib/angel/sys.s                      0x00000000   Number         0  use_no_semi.o ABSOLUTE
    ../clib/angel/sys.s                      0x00000000   Number         0  indicate_semi.o ABSOLUTE
    ../clib/angel/sys.s                      0x00000000   Number         0  sys_stackheap_outer.o ABSOLUTE
    ../clib/angel/sys.s                      0x00000000   Number         0  libspace.o ABSOLUTE
    ../clib/angel/sysapp.c                   0x00000000   Number         0  sys_wrch.o ABSOLUTE
    ../clib/angel/sysapp.c                   0x00000000   Number         0  sys_exit.o ABSOLUTE
    ../clib/angel/sysapp.c                   0x00000000   Number         0  sys_wrch_hlt.o ABSOLUTE
    ../clib/angel/sysapp.c                   0x00000000   Number         0  sys_exit_hlt.o ABSOLUTE
    ../clib/angel/sysapp.c                   0x00000000   Number         0  sys_command.o ABSOLUTE
    ../clib/angel/sysapp.c                   0x00000000   Number         0  sys_command_hlt.o ABSOLUTE
    ../clib/armsys.c                         0x00000000   Number         0  argv_veneer.o ABSOLUTE
    ../clib/armsys.c                         0x00000000   Number         0  argv_veneer.o ABSOLUTE
    ../clib/armsys.c                         0x00000000   Number         0  _get_argv_nomalloc.o ABSOLUTE
    ../clib/armsys.c                         0x00000000   Number         0  no_argv.o ABSOLUTE
    ../clib/assert.c                         0x00000000   Number         0  assert.o ABSOLUTE
    ../clib/assert.c                         0x00000000   Number         0  assert_puts.o ABSOLUTE
    ../clib/bigflt.c                         0x00000000   Number         0  bigflt0.o ABSOLUTE
    ../clib/btod.s                           0x00000000   Number         0  btod.o ABSOLUTE
    ../clib/btod_accurate.c                  0x00000000   Number         0  btod_accurate.o ABSOLUTE
    ../clib/btod_accurate.c                  0x00000000   Number         0  btod_accurate_common.o ABSOLUTE
    ../clib/heapalloc.c                      0x00000000   Number         0  hrguard.o ABSOLUTE
    ../clib/heapaux.c                        0x00000000   Number         0  heapauxi.o ABSOLUTE
    ../clib/libinit.s                        0x00000000   Number         0  libinit.o ABSOLUTE
    ../clib/libinit.s                        0x00000000   Number         0  libinit2.o ABSOLUTE
    ../clib/libinit.s                        0x00000000   Number         0  libshutdown.o ABSOLUTE
    ../clib/libinit.s                        0x00000000   Number         0  libshutdown2.o ABSOLUTE
    ../clib/locale.c                         0x00000000   Number         0  _c16rtomb.o ABSOLUTE
    ../clib/locale.s                         0x00000000   Number         0  lc_numeric_c.o ABSOLUTE
    ../clib/locale.s                         0x00000000   Number         0  lc_ctype_c.o ABSOLUTE
    ../clib/longlong.s                       0x00000000   Number         0  lludivv7m.o ABSOLUTE
    ../clib/longlong.s                       0x00000000   Number         0  lludiv10.o ABSOLUTE
    ../clib/longlong.s                       0x00000000   Number         0  llushr.o ABSOLUTE
    ../clib/memcpset.s                       0x00000000   Number         0  rt_memcpy_v6.o ABSOLUTE
    ../clib/memcpset.s                       0x00000000   Number         0  rt_memmove_v6.o ABSOLUTE
    ../clib/memcpset.s                       0x00000000   Number         0  rt_memcpy_w.o ABSOLUTE
    ../clib/memcpset.s                       0x00000000   Number         0  rt_memmove_w.o ABSOLUTE
    ../clib/memcpset.s                       0x00000000   Number         0  aeabi_memset.o ABSOLUTE
    ../clib/memcpset.s                       0x00000000   Number         0  rt_memclr.o ABSOLUTE
    ../clib/memcpset.s                       0x00000000   Number         0  rt_memclr_w.o ABSOLUTE
    ../clib/memcpset.s                       0x00000000   Number         0  strcmpv7m_pel.o ABSOLUTE
    ../clib/misc.s                           0x00000000   Number         0  printf_stubs.o ABSOLUTE
    ../clib/printf.c                         0x00000000   Number         0  vsnprintf.o ABSOLUTE
    ../clib/printf.c                         0x00000000   Number         0  __2snprintf.o ABSOLUTE
    ../clib/printf.c                         0x00000000   Number         0  noretval__2snprintf.o ABSOLUTE
    ../clib/printf.c                         0x00000000   Number         0  __printf.o ABSOLUTE
    ../clib/printf.c                         0x00000000   Number         0  _printf_str.o ABSOLUTE
    ../clib/printf.c                         0x00000000   Number         0  __printf_flags.o ABSOLUTE
    ../clib/printf.c                         0x00000000   Number         0  __printf_ss.o ABSOLUTE
    ../clib/printf.c                         0x00000000   Number         0  __printf_flags_ss.o ABSOLUTE
    ../clib/printf.c                         0x00000000   Number         0  __printf_wp.o ABSOLUTE
    ../clib/printf.c                         0x00000000   Number         0  __printf_flags_wp.o ABSOLUTE
    ../clib/printf.c                         0x00000000   Number         0  __printf_ss_wp.o ABSOLUTE
    ../clib/printf.c                         0x00000000   Number         0  __printf_flags_ss_wp.o ABSOLUTE
    ../clib/printf.c                         0x00000000   Number         0  _printf_pad.o ABSOLUTE
    ../clib/printf.c                         0x00000000   Number         0  _printf_truncate.o ABSOLUTE
    ../clib/printf.c                         0x00000000   Number         0  _printf_dec.o ABSOLUTE
    ../clib/printf.c                         0x00000000   Number         0  _printf_charcount.o ABSOLUTE
    ../clib/printf.c                         0x00000000   Number         0  _printf_char_common.o ABSOLUTE
    ../clib/printf.c                         0x00000000   Number         0  _sputc.o ABSOLUTE
    ../clib/printf.c                         0x00000000   Number         0  _snputc.o ABSOLUTE
    ../clib/printf.c                         0x00000000   Number         0  _printf_char.o ABSOLUTE
    ../clib/printf.c                         0x00000000   Number         0  _printf_wctomb.o ABSOLUTE
    ../clib/printf.c                         0x00000000   Number         0  _printf_longlong_dec.o ABSOLUTE
    ../clib/printf.c                         0x00000000   Number         0  _printf_oct_ll.o ABSOLUTE
    ../clib/printf.c                         0x00000000   Number         0  _printf_oct_int.o ABSOLUTE
    ../clib/printf.c                         0x00000000   Number         0  _printf_oct_int_ll.o ABSOLUTE
    ../clib/printf.c                         0x00000000   Number         0  _printf_hex_ll.o ABSOLUTE
    ../clib/printf.c                         0x00000000   Number         0  _printf_hex_int.o ABSOLUTE
    ../clib/printf.c                         0x00000000   Number         0  _printf_hex_int_ll.o ABSOLUTE
    ../clib/printf.c                         0x00000000   Number         0  _printf_hex_ptr.o ABSOLUTE
    ../clib/printf.c                         0x00000000   Number         0  _printf_hex_int_ptr.o ABSOLUTE
    ../clib/printf.c                         0x00000000   Number         0  _printf_hex_ll_ptr.o ABSOLUTE
    ../clib/printf.c                         0x00000000   Number         0  _printf_hex_int_ll_ptr.o ABSOLUTE
    ../clib/printf.c                         0x00000000   Number         0  _printf_intcommon.o ABSOLUTE
    ../clib/printf.c                         0x00000000   Number         0  _printf_fp_dec.o ABSOLUTE
    ../clib/printf.c                         0x00000000   Number         0  _printf_fp_dec_accurate.o ABSOLUTE
    ../clib/printf.c                         0x00000000   Number         0  _printf_fp_hex.o ABSOLUTE
    ../clib/printf.c                         0x00000000   Number         0  __printf_nopercent.o ABSOLUTE
    ../clib/printf.c                         0x00000000   Number         0  _printf_wchar.o ABSOLUTE
    ../clib/printf.c                         0x00000000   Number         0  _printf_fp_infnan.o ABSOLUTE
    ../clib/printf_percent.s                 0x00000000   Number         0  _printf_s.o ABSOLUTE
    ../clib/printf_percent.s                 0x00000000   Number         0  _printf_percent.o ABSOLUTE
    ../clib/printf_percent.s                 0x00000000   Number         0  _printf_c.o ABSOLUTE
    ../clib/printf_percent.s                 0x00000000   Number         0  _printf_n.o ABSOLUTE
    ../clib/printf_percent.s                 0x00000000   Number         0  _printf_x.o ABSOLUTE
    ../clib/printf_percent.s                 0x00000000   Number         0  _printf_p.o ABSOLUTE
    ../clib/printf_percent.s                 0x00000000   Number         0  _printf_o.o ABSOLUTE
    ../clib/printf_percent.s                 0x00000000   Number         0  _printf_i.o ABSOLUTE
    ../clib/printf_percent.s                 0x00000000   Number         0  _printf_d.o ABSOLUTE
    ../clib/printf_percent.s                 0x00000000   Number         0  _printf_u.o ABSOLUTE
    ../clib/printf_percent.s                 0x00000000   Number         0  _printf_f.o ABSOLUTE
    ../clib/printf_percent.s                 0x00000000   Number         0  _printf_e.o ABSOLUTE
    ../clib/printf_percent.s                 0x00000000   Number         0  _printf_g.o ABSOLUTE
    ../clib/printf_percent.s                 0x00000000   Number         0  _printf_a.o ABSOLUTE
    ../clib/printf_percent.s                 0x00000000   Number         0  _printf_percent_end.o ABSOLUTE
    ../clib/printf_percent.s                 0x00000000   Number         0  _printf_lli.o ABSOLUTE
    ../clib/printf_percent.s                 0x00000000   Number         0  _printf_lld.o ABSOLUTE
    ../clib/printf_percent.s                 0x00000000   Number         0  _printf_llu.o ABSOLUTE
    ../clib/printf_percent.s                 0x00000000   Number         0  _printf_ll.o ABSOLUTE
    ../clib/printf_percent.s                 0x00000000   Number         0  _printf_l.o ABSOLUTE
    ../clib/printf_percent.s                 0x00000000   Number         0  _printf_lc.o ABSOLUTE
    ../clib/printf_percent.s                 0x00000000   Number         0  _printf_ls.o ABSOLUTE
    ../clib/printf_percent.s                 0x00000000   Number         0  _printf_llo.o ABSOLUTE
    ../clib/printf_percent.s                 0x00000000   Number         0  _printf_llx.o ABSOLUTE
    ../clib/signal.c                         0x00000000   Number         0  defsig_abrt_outer.o ABSOLUTE
    ../clib/signal.c                         0x00000000   Number         0  defsig_abrt_formal.o ABSOLUTE
    ../clib/signal.c                         0x00000000   Number         0  defsig_exit.o ABSOLUTE
    ../clib/signal.c                         0x00000000   Number         0  defsig_abrt_inner.o ABSOLUTE
    ../clib/signal.c                         0x00000000   Number         0  defsig_fpe_outer.o ABSOLUTE
    ../clib/signal.c                         0x00000000   Number         0  defsig_fpe_formal.o ABSOLUTE
    ../clib/signal.c                         0x00000000   Number         0  __raise.o ABSOLUTE
    ../clib/signal.c                         0x00000000   Number         0  defsig_general.o ABSOLUTE
    ../clib/signal.c                         0x00000000   Number         0  defsig_fpe_inner.o ABSOLUTE
    ../clib/signal.c                         0x00000000   Number         0  defsig_rtred_inner.o ABSOLUTE
    ../clib/signal.c                         0x00000000   Number         0  defsig_rtmem_inner.o ABSOLUTE
    ../clib/signal.c                         0x00000000   Number         0  defsig_stak_inner.o ABSOLUTE
    ../clib/signal.c                         0x00000000   Number         0  defsig_pvfn_inner.o ABSOLUTE
    ../clib/signal.c                         0x00000000   Number         0  defsig_cppl_inner.o ABSOLUTE
    ../clib/signal.c                         0x00000000   Number         0  defsig_segv_inner.o ABSOLUTE
    ../clib/signal.c                         0x00000000   Number         0  defsig_other.o ABSOLUTE
    ../clib/signal.c                         0x00000000   Number         0  defsig_rtmem_outer.o ABSOLUTE
    ../clib/signal.c                         0x00000000   Number         0  defsig_rtmem_formal.o ABSOLUTE
    ../clib/signal.s                         0x00000000   Number         0  defsig.o ABSOLUTE
    ../clib/stdlib.c                         0x00000000   Number         0  abort.o ABSOLUTE
    ../clib/stdlib.c                         0x00000000   Number         0  exit.o ABSOLUTE
    ../clib/string.c                         0x00000000   Number         0  strlen.o ABSOLUTE
    ../clib/string.c                         0x00000000   Number         0  memchr.o ABSOLUTE
    ../fplib/fpinit.s                        0x00000000   Number         0  fpinit.o ABSOLUTE
    ../fplib/istatus.s                       0x00000000   Number         0  istatus.o ABSOLUTE
    ../fplib/printf1.s                       0x00000000   Number         0  printf1.o ABSOLUTE
    ../fplib/printf2.s                       0x00000000   Number         0  printf2.o ABSOLUTE
    ../fplib/printf2a.s                      0x00000000   Number         0  printf2a.o ABSOLUTE
    ../fplib/printf2b.s                      0x00000000   Number         0  printf2b.o ABSOLUTE
    ../fplib/usenofp.s                       0x00000000   Number         0  usenofp.o ABSOLUTE
    ../mathlib/fpclassify.c                  0x00000000   Number         0  fpclassify.o ABSOLUTE
    AppTest.c                                0x00000000   Number         0  apptest.o ABSOLUTE
    Application.c                            0x00000000   Number         0  application.o ABSOLUTE
    BOARD_STM32H730_GENERAL.c                0x00000000   Number         0  board_stm32h730_general.o ABSOLUTE
    BasicGUI.c                               0x00000000   Number         0  basicgui.o ABSOLUTE
    Bsp.c                                    0x00000000   Number         0  bsp.o ABSOLUTE
    Debug.c                                  0x00000000   Number         0  debug.o ABSOLUTE
    DisplayDriver.c                          0x00000000   Number         0  displaydriver.o ABSOLUTE
    ExtFlash.c                               0x00000000   Number         0  extflash.o ABSOLUTE
    ExtRAM.c                                 0x00000000   Number         0  extram.o ABSOLUTE
    Input.c                                  0x00000000   Number         0  input.o ABSOLUTE
    Instructions.c                           0x00000000   Number         0  instructions.o ABSOLUTE
    IntCallBack.c                            0x00000000   Number         0  intcallback.o ABSOLUTE
    LCD_HDTR039_400X960_UE.c                 0x00000000   Number         0  lcd_hdtr039_400x960_ue.o ABSOLUTE
    LCD_HDTR070_1024X600_TSD.c               0x00000000   Number         0  lcd_hdtr070_1024x600_tsd.o ABSOLUTE
    Multitask.c                              0x00000000   Number         0  multitask.o ABSOLUTE
    OSAL.c                                   0x00000000   Number         0  osal.o ABSOLUTE
    OSAL_Event.c                             0x00000000   Number         0  osal_event.o ABSOLUTE
    OSAL_MemMan.c                            0x00000000   Number         0  osal_memman.o ABSOLUTE
    OSAL_Mutex.c                             0x00000000   Number         0  osal_mutex.o ABSOLUTE
    OSAL_SwTmr.c                             0x00000000   Number         0  osal_swtmr.o ABSOLUTE
    OSAL_Task.c                              0x00000000   Number         0  osal_task.o ABSOLUTE
    Panel.c                                  0x00000000   Number         0  panel.o ABSOLUTE
    Protocol.c                               0x00000000   Number         0  protocol.o ABSOLUTE
    Protocol_Custom.c                        0x00000000   Number         0  protocol_custom.o ABSOLUTE
    Protocol_HDsmart.c                       0x00000000   Number         0  protocol_hdsmart.o ABSOLUTE
    Response.c                               0x00000000   Number         0  response.o ABSOLUTE
    Serial.c                                 0x00000000   Number         0  serial.o ABSOLUTE
    SwIIC.c                                  0x00000000   Number         0  swiic.o ABSOLUTE
    SwTmr.c                                  0x00000000   Number         0  swtmr.o ABSOLUTE
    SysFifo.c                                0x00000000   Number         0  sysfifo.o ABSOLUTE
    SysFile.c                                0x00000000   Number         0  sysfile.o ABSOLUTE
    SysFont.c                                0x00000000   Number         0  sysfont.o ABSOLUTE
    System.c                                 0x00000000   Number         0  system.o ABSOLUTE
    TouchScreen.c                            0x00000000   Number         0  touchscreen.o ABSOLUTE
    Verify.c                                 0x00000000   Number         0  verify.o ABSOLUTE
    app_azure_rtos.c                         0x00000000   Number         0  app_azure_rtos.o ABSOLUTE
    app_threadx.c                            0x00000000   Number         0  app_threadx.o ABSOLUTE
    dc.s                                     0x00000000   Number         0  dc.o ABSOLUTE
    ft5336.c                                 0x00000000   Number         0  ft5336.o ABSOLUTE
    gt911.c                                  0x00000000   Number         0  gt911.o ABSOLUTE
    hy4633.c                                 0x00000000   Number         0  hy4633.o ABSOLUTE
    icnt8952an.c                             0x00000000   Number         0  icnt8952an.o ABSOLUTE
    image.c                                  0x00000000   Number         0  image.o ABSOLUTE
    main.c                                   0x00000000   Number         0  main.o ABSOLUTE
    ota.c                                    0x00000000   Number         0  ota.o ABSOLUTE
    qrcodegen.c                              0x00000000   Number         0  qrcodegen.o ABSOLUTE
    rtx_memory.c                             0x00000000   Number         0  rtx_memory.o ABSOLUTE
    startup_stm32h730xx.s                    0x00000000   Number         0  startup_stm32h730xx.o ABSOLUTE
    stm32h7xx_hal.c                          0x00000000   Number         0  stm32h7xx_hal.o ABSOLUTE
    stm32h7xx_hal_cortex.c                   0x00000000   Number         0  stm32h7xx_hal_cortex.o ABSOLUTE
    stm32h7xx_hal_crc.c                      0x00000000   Number         0  stm32h7xx_hal_crc.o ABSOLUTE
    stm32h7xx_hal_crc_ex.c                   0x00000000   Number         0  stm32h7xx_hal_crc_ex.o ABSOLUTE
    stm32h7xx_hal_dma.c                      0x00000000   Number         0  stm32h7xx_hal_dma.o ABSOLUTE
    stm32h7xx_hal_dma2d.c                    0x00000000   Number         0  stm32h7xx_hal_dma2d.o ABSOLUTE
    stm32h7xx_hal_dma_ex.c                   0x00000000   Number         0  stm32h7xx_hal_dma_ex.o ABSOLUTE
    stm32h7xx_hal_dts.c                      0x00000000   Number         0  stm32h7xx_hal_dts.o ABSOLUTE
    stm32h7xx_hal_exti.c                     0x00000000   Number         0  stm32h7xx_hal_exti.o ABSOLUTE
    stm32h7xx_hal_flash.c                    0x00000000   Number         0  stm32h7xx_hal_flash.o ABSOLUTE
    stm32h7xx_hal_flash_ex.c                 0x00000000   Number         0  stm32h7xx_hal_flash_ex.o ABSOLUTE
    stm32h7xx_hal_gpio.c                     0x00000000   Number         0  stm32h7xx_hal_gpio.o ABSOLUTE
    stm32h7xx_hal_hsem.c                     0x00000000   Number         0  stm32h7xx_hal_hsem.o ABSOLUTE
    stm32h7xx_hal_i2c.c                      0x00000000   Number         0  stm32h7xx_hal_i2c.o ABSOLUTE
    stm32h7xx_hal_i2c_ex.c                   0x00000000   Number         0  stm32h7xx_hal_i2c_ex.o ABSOLUTE
    stm32h7xx_hal_iwdg.c                     0x00000000   Number         0  stm32h7xx_hal_iwdg.o ABSOLUTE
    stm32h7xx_hal_ltdc.c                     0x00000000   Number         0  stm32h7xx_hal_ltdc.o ABSOLUTE
    stm32h7xx_hal_ltdc_ex.c                  0x00000000   Number         0  stm32h7xx_hal_ltdc_ex.o ABSOLUTE
    stm32h7xx_hal_mdma.c                     0x00000000   Number         0  stm32h7xx_hal_mdma.o ABSOLUTE
    stm32h7xx_hal_msp.c                      0x00000000   Number         0  stm32h7xx_hal_msp.o ABSOLUTE
    stm32h7xx_hal_ospi.c                     0x00000000   Number         0  stm32h7xx_hal_ospi.o ABSOLUTE
    stm32h7xx_hal_pwr.c                      0x00000000   Number         0  stm32h7xx_hal_pwr.o ABSOLUTE
    stm32h7xx_hal_pwr_ex.c                   0x00000000   Number         0  stm32h7xx_hal_pwr_ex.o ABSOLUTE
    stm32h7xx_hal_rcc.c                      0x00000000   Number         0  stm32h7xx_hal_rcc.o ABSOLUTE
    stm32h7xx_hal_rcc_ex.c                   0x00000000   Number         0  stm32h7xx_hal_rcc_ex.o ABSOLUTE
    stm32h7xx_hal_rng.c                      0x00000000   Number         0  stm32h7xx_hal_rng.o ABSOLUTE
    stm32h7xx_hal_rng_ex.c                   0x00000000   Number         0  stm32h7xx_hal_rng_ex.o ABSOLUTE
    stm32h7xx_hal_rtc.c                      0x00000000   Number         0  stm32h7xx_hal_rtc.o ABSOLUTE
    stm32h7xx_hal_rtc_ex.c                   0x00000000   Number         0  stm32h7xx_hal_rtc_ex.o ABSOLUTE
    stm32h7xx_hal_sdram.c                    0x00000000   Number         0  stm32h7xx_hal_sdram.o ABSOLUTE
    stm32h7xx_hal_spi.c                      0x00000000   Number         0  stm32h7xx_hal_spi.o ABSOLUTE
    stm32h7xx_hal_spi_ex.c                   0x00000000   Number         0  stm32h7xx_hal_spi_ex.o ABSOLUTE
    stm32h7xx_hal_tim.c                      0x00000000   Number         0  stm32h7xx_hal_tim.o ABSOLUTE
    stm32h7xx_hal_tim_ex.c                   0x00000000   Number         0  stm32h7xx_hal_tim_ex.o ABSOLUTE
    stm32h7xx_hal_timebase_tim.c             0x00000000   Number         0  stm32h7xx_hal_timebase_tim.o ABSOLUTE
    stm32h7xx_hal_uart.c                     0x00000000   Number         0  stm32h7xx_hal_uart.o ABSOLUTE
    stm32h7xx_hal_uart_ex.c                  0x00000000   Number         0  stm32h7xx_hal_uart_ex.o ABSOLUTE
    stm32h7xx_it.c                           0x00000000   Number         0  stm32h7xx_it.o ABSOLUTE
    stm32h7xx_ll_fmc.c                       0x00000000   Number         0  stm32h7xx_ll_fmc.o ABSOLUTE
    system_stm32h7xx.c                       0x00000000   Number         0  system_stm32h7xx.o ABSOLUTE
    tx_block_allocate.c                      0x00000000   Number         0  tx_block_allocate.o ABSOLUTE
    tx_block_pool_cleanup.c                  0x00000000   Number         0  tx_block_pool_cleanup.o ABSOLUTE
    tx_block_pool_create.c                   0x00000000   Number         0  tx_block_pool_create.o ABSOLUTE
    tx_block_pool_delete.c                   0x00000000   Number         0  tx_block_pool_delete.o ABSOLUTE
    tx_block_pool_info_get.c                 0x00000000   Number         0  tx_block_pool_info_get.o ABSOLUTE
    tx_block_pool_initialize.c               0x00000000   Number         0  tx_block_pool_initialize.o ABSOLUTE
    tx_block_pool_prioritize.c               0x00000000   Number         0  tx_block_pool_prioritize.o ABSOLUTE
    tx_block_release.c                       0x00000000   Number         0  tx_block_release.o ABSOLUTE
    tx_byte_allocate.c                       0x00000000   Number         0  tx_byte_allocate.o ABSOLUTE
    tx_byte_pool_cleanup.c                   0x00000000   Number         0  tx_byte_pool_cleanup.o ABSOLUTE
    tx_byte_pool_create.c                    0x00000000   Number         0  tx_byte_pool_create.o ABSOLUTE
    tx_byte_pool_delete.c                    0x00000000   Number         0  tx_byte_pool_delete.o ABSOLUTE
    tx_byte_pool_info_get.c                  0x00000000   Number         0  tx_byte_pool_info_get.o ABSOLUTE
    tx_byte_pool_initialize.c                0x00000000   Number         0  tx_byte_pool_initialize.o ABSOLUTE
    tx_byte_pool_prioritize.c                0x00000000   Number         0  tx_byte_pool_prioritize.o ABSOLUTE
    tx_byte_pool_search.c                    0x00000000   Number         0  tx_byte_pool_search.o ABSOLUTE
    tx_byte_release.c                        0x00000000   Number         0  tx_byte_release.o ABSOLUTE
    tx_event_flags_cleanup.c                 0x00000000   Number         0  tx_event_flags_cleanup.o ABSOLUTE
    tx_event_flags_create.c                  0x00000000   Number         0  tx_event_flags_create.o ABSOLUTE
    tx_event_flags_delete.c                  0x00000000   Number         0  tx_event_flags_delete.o ABSOLUTE
    tx_event_flags_get.c                     0x00000000   Number         0  tx_event_flags_get.o ABSOLUTE
    tx_event_flags_info_get.c                0x00000000   Number         0  tx_event_flags_info_get.o ABSOLUTE
    tx_event_flags_initialize.c              0x00000000   Number         0  tx_event_flags_initialize.o ABSOLUTE
    tx_event_flags_set.c                     0x00000000   Number         0  tx_event_flags_set.o ABSOLUTE
    tx_event_flags_set_notify.c              0x00000000   Number         0  tx_event_flags_set_notify.o ABSOLUTE
    tx_initialize_high_level.c               0x00000000   Number         0  tx_initialize_high_level.o ABSOLUTE
    tx_initialize_kernel_enter.c             0x00000000   Number         0  tx_initialize_kernel_enter.o ABSOLUTE
    tx_initialize_kernel_setup.c             0x00000000   Number         0  tx_initialize_kernel_setup.o ABSOLUTE
    tx_mutex_cleanup.c                       0x00000000   Number         0  tx_mutex_cleanup.o ABSOLUTE
    tx_mutex_create.c                        0x00000000   Number         0  tx_mutex_create.o ABSOLUTE
    tx_mutex_delete.c                        0x00000000   Number         0  tx_mutex_delete.o ABSOLUTE
    tx_mutex_get.c                           0x00000000   Number         0  tx_mutex_get.o ABSOLUTE
    tx_mutex_info_get.c                      0x00000000   Number         0  tx_mutex_info_get.o ABSOLUTE
    tx_mutex_initialize.c                    0x00000000   Number         0  tx_mutex_initialize.o ABSOLUTE
    tx_mutex_prioritize.c                    0x00000000   Number         0  tx_mutex_prioritize.o ABSOLUTE
    tx_mutex_priority_change.c               0x00000000   Number         0  tx_mutex_priority_change.o ABSOLUTE
    tx_mutex_put.c                           0x00000000   Number         0  tx_mutex_put.o ABSOLUTE
    tx_queue_cleanup.c                       0x00000000   Number         0  tx_queue_cleanup.o ABSOLUTE
    tx_queue_create.c                        0x00000000   Number         0  tx_queue_create.o ABSOLUTE
    tx_queue_delete.c                        0x00000000   Number         0  tx_queue_delete.o ABSOLUTE
    tx_queue_flush.c                         0x00000000   Number         0  tx_queue_flush.o ABSOLUTE
    tx_queue_front_send.c                    0x00000000   Number         0  tx_queue_front_send.o ABSOLUTE
    tx_queue_info_get.c                      0x00000000   Number         0  tx_queue_info_get.o ABSOLUTE
    tx_queue_initialize.c                    0x00000000   Number         0  tx_queue_initialize.o ABSOLUTE
    tx_queue_prioritize.c                    0x00000000   Number         0  tx_queue_prioritize.o ABSOLUTE
    tx_queue_receive.c                       0x00000000   Number         0  tx_queue_receive.o ABSOLUTE
    tx_queue_send.c                          0x00000000   Number         0  tx_queue_send.o ABSOLUTE
    tx_queue_send_notify.c                   0x00000000   Number         0  tx_queue_send_notify.o ABSOLUTE
    tx_semaphore_ceiling_put.c               0x00000000   Number         0  tx_semaphore_ceiling_put.o ABSOLUTE
    tx_semaphore_cleanup.c                   0x00000000   Number         0  tx_semaphore_cleanup.o ABSOLUTE
    tx_semaphore_create.c                    0x00000000   Number         0  tx_semaphore_create.o ABSOLUTE
    tx_semaphore_delete.c                    0x00000000   Number         0  tx_semaphore_delete.o ABSOLUTE
    tx_semaphore_get.c                       0x00000000   Number         0  tx_semaphore_get.o ABSOLUTE
    tx_semaphore_info_get.c                  0x00000000   Number         0  tx_semaphore_info_get.o ABSOLUTE
    tx_semaphore_initialize.c                0x00000000   Number         0  tx_semaphore_initialize.o ABSOLUTE
    tx_semaphore_prioritize.c                0x00000000   Number         0  tx_semaphore_prioritize.o ABSOLUTE
    tx_semaphore_put.c                       0x00000000   Number         0  tx_semaphore_put.o ABSOLUTE
    tx_semaphore_put_notify.c                0x00000000   Number         0  tx_semaphore_put_notify.o ABSOLUTE
    tx_thread_create.c                       0x00000000   Number         0  tx_thread_create.o ABSOLUTE
    tx_thread_delete.c                       0x00000000   Number         0  tx_thread_delete.o ABSOLUTE
    tx_thread_entry_exit_notify.c            0x00000000   Number         0  tx_thread_entry_exit_notify.o ABSOLUTE
    tx_thread_identify.c                     0x00000000   Number         0  tx_thread_identify.o ABSOLUTE
    tx_thread_info_get.c                     0x00000000   Number         0  tx_thread_info_get.o ABSOLUTE
    tx_thread_initialize.c                   0x00000000   Number         0  tx_thread_initialize.o ABSOLUTE
    tx_thread_preemption_change.c            0x00000000   Number         0  tx_thread_preemption_change.o ABSOLUTE
    tx_thread_priority_change.c              0x00000000   Number         0  tx_thread_priority_change.o ABSOLUTE
    tx_thread_relinquish.c                   0x00000000   Number         0  tx_thread_relinquish.o ABSOLUTE
    tx_thread_reset.c                        0x00000000   Number         0  tx_thread_reset.o ABSOLUTE
    tx_thread_resume.c                       0x00000000   Number         0  tx_thread_resume.o ABSOLUTE
    tx_thread_shell_entry.c                  0x00000000   Number         0  tx_thread_shell_entry.o ABSOLUTE
    tx_thread_sleep.c                        0x00000000   Number         0  tx_thread_sleep.o ABSOLUTE
    tx_thread_stack_analyze.c                0x00000000   Number         0  tx_thread_stack_analyze.o ABSOLUTE
    tx_thread_stack_error_handler.c          0x00000000   Number         0  tx_thread_stack_error_handler.o ABSOLUTE
    tx_thread_stack_error_notify.c           0x00000000   Number         0  tx_thread_stack_error_notify.o ABSOLUTE
    tx_thread_suspend.c                      0x00000000   Number         0  tx_thread_suspend.o ABSOLUTE
    tx_thread_system_preempt_check.c         0x00000000   Number         0  tx_thread_system_preempt_check.o ABSOLUTE
    tx_thread_system_resume.c                0x00000000   Number         0  tx_thread_system_resume.o ABSOLUTE
    tx_thread_system_suspend.c               0x00000000   Number         0  tx_thread_system_suspend.o ABSOLUTE
    tx_thread_terminate.c                    0x00000000   Number         0  tx_thread_terminate.o ABSOLUTE
    tx_thread_time_slice.c                   0x00000000   Number         0  tx_thread_time_slice.o ABSOLUTE
    tx_thread_time_slice_change.c            0x00000000   Number         0  tx_thread_time_slice_change.o ABSOLUTE
    tx_thread_timeout.c                      0x00000000   Number         0  tx_thread_timeout.o ABSOLUTE
    tx_thread_wait_abort.c                   0x00000000   Number         0  tx_thread_wait_abort.o ABSOLUTE
    tx_time_get.c                            0x00000000   Number         0  tx_time_get.o ABSOLUTE
    tx_time_set.c                            0x00000000   Number         0  tx_time_set.o ABSOLUTE
    tx_timer_activate.c                      0x00000000   Number         0  tx_timer_activate.o ABSOLUTE
    tx_timer_change.c                        0x00000000   Number         0  tx_timer_change.o ABSOLUTE
    tx_timer_create.c                        0x00000000   Number         0  tx_timer_create.o ABSOLUTE
    tx_timer_deactivate.c                    0x00000000   Number         0  tx_timer_deactivate.o ABSOLUTE
    tx_timer_delete.c                        0x00000000   Number         0  tx_timer_delete.o ABSOLUTE
    tx_timer_expiration_process.c            0x00000000   Number         0  tx_timer_expiration_process.o ABSOLUTE
    tx_timer_info_get.c                      0x00000000   Number         0  tx_timer_info_get.o ABSOLUTE
    tx_timer_initialize.c                    0x00000000   Number         0  tx_timer_initialize.o ABSOLUTE
    tx_timer_system_activate.c               0x00000000   Number         0  tx_timer_system_activate.o ABSOLUTE
    tx_timer_system_deactivate.c             0x00000000   Number         0  tx_timer_system_deactivate.o ABSOLUTE
    tx_timer_thread_entry.c                  0x00000000   Number         0  tx_timer_thread_entry.o ABSOLUTE
    txe_block_allocate.c                     0x00000000   Number         0  txe_block_allocate.o ABSOLUTE
    txe_block_pool_create.c                  0x00000000   Number         0  txe_block_pool_create.o ABSOLUTE
    txe_block_pool_delete.c                  0x00000000   Number         0  txe_block_pool_delete.o ABSOLUTE
    txe_block_pool_info_get.c                0x00000000   Number         0  txe_block_pool_info_get.o ABSOLUTE
    txe_block_pool_prioritize.c              0x00000000   Number         0  txe_block_pool_prioritize.o ABSOLUTE
    txe_block_release.c                      0x00000000   Number         0  txe_block_release.o ABSOLUTE
    txe_byte_allocate.c                      0x00000000   Number         0  txe_byte_allocate.o ABSOLUTE
    txe_byte_pool_create.c                   0x00000000   Number         0  txe_byte_pool_create.o ABSOLUTE
    txe_byte_pool_delete.c                   0x00000000   Number         0  txe_byte_pool_delete.o ABSOLUTE
    txe_byte_pool_info_get.c                 0x00000000   Number         0  txe_byte_pool_info_get.o ABSOLUTE
    txe_byte_pool_prioritize.c               0x00000000   Number         0  txe_byte_pool_prioritize.o ABSOLUTE
    txe_byte_release.c                       0x00000000   Number         0  txe_byte_release.o ABSOLUTE
    txe_event_flags_create.c                 0x00000000   Number         0  txe_event_flags_create.o ABSOLUTE
    txe_event_flags_delete.c                 0x00000000   Number         0  txe_event_flags_delete.o ABSOLUTE
    txe_event_flags_get.c                    0x00000000   Number         0  txe_event_flags_get.o ABSOLUTE
    txe_event_flags_info_get.c               0x00000000   Number         0  txe_event_flags_info_get.o ABSOLUTE
    txe_event_flags_set.c                    0x00000000   Number         0  txe_event_flags_set.o ABSOLUTE
    txe_event_flags_set_notify.c             0x00000000   Number         0  txe_event_flags_set_notify.o ABSOLUTE
    txe_mutex_create.c                       0x00000000   Number         0  txe_mutex_create.o ABSOLUTE
    txe_mutex_delete.c                       0x00000000   Number         0  txe_mutex_delete.o ABSOLUTE
    txe_mutex_get.c                          0x00000000   Number         0  txe_mutex_get.o ABSOLUTE
    txe_mutex_info_get.c                     0x00000000   Number         0  txe_mutex_info_get.o ABSOLUTE
    txe_mutex_prioritize.c                   0x00000000   Number         0  txe_mutex_prioritize.o ABSOLUTE
    txe_mutex_put.c                          0x00000000   Number         0  txe_mutex_put.o ABSOLUTE
    txe_queue_create.c                       0x00000000   Number         0  txe_queue_create.o ABSOLUTE
    txe_queue_delete.c                       0x00000000   Number         0  txe_queue_delete.o ABSOLUTE
    txe_queue_flush.c                        0x00000000   Number         0  txe_queue_flush.o ABSOLUTE
    txe_queue_front_send.c                   0x00000000   Number         0  txe_queue_front_send.o ABSOLUTE
    txe_queue_info_get.c                     0x00000000   Number         0  txe_queue_info_get.o ABSOLUTE
    txe_queue_prioritize.c                   0x00000000   Number         0  txe_queue_prioritize.o ABSOLUTE
    txe_queue_receive.c                      0x00000000   Number         0  txe_queue_receive.o ABSOLUTE
    txe_queue_send.c                         0x00000000   Number         0  txe_queue_send.o ABSOLUTE
    txe_queue_send_notify.c                  0x00000000   Number         0  txe_queue_send_notify.o ABSOLUTE
    txe_semaphore_ceiling_put.c              0x00000000   Number         0  txe_semaphore_ceiling_put.o ABSOLUTE
    txe_semaphore_create.c                   0x00000000   Number         0  txe_semaphore_create.o ABSOLUTE
    txe_semaphore_delete.c                   0x00000000   Number         0  txe_semaphore_delete.o ABSOLUTE
    txe_semaphore_get.c                      0x00000000   Number         0  txe_semaphore_get.o ABSOLUTE
    txe_semaphore_info_get.c                 0x00000000   Number         0  txe_semaphore_info_get.o ABSOLUTE
    txe_semaphore_prioritize.c               0x00000000   Number         0  txe_semaphore_prioritize.o ABSOLUTE
    txe_semaphore_put.c                      0x00000000   Number         0  txe_semaphore_put.o ABSOLUTE
    txe_semaphore_put_notify.c               0x00000000   Number         0  txe_semaphore_put_notify.o ABSOLUTE
    txe_thread_create.c                      0x00000000   Number         0  txe_thread_create.o ABSOLUTE
    txe_thread_delete.c                      0x00000000   Number         0  txe_thread_delete.o ABSOLUTE
    txe_thread_entry_exit_notify.c           0x00000000   Number         0  txe_thread_entry_exit_notify.o ABSOLUTE
    txe_thread_info_get.c                    0x00000000   Number         0  txe_thread_info_get.o ABSOLUTE
    txe_thread_preemption_change.c           0x00000000   Number         0  txe_thread_preemption_change.o ABSOLUTE
    txe_thread_priority_change.c             0x00000000   Number         0  txe_thread_priority_change.o ABSOLUTE
    txe_thread_relinquish.c                  0x00000000   Number         0  txe_thread_relinquish.o ABSOLUTE
    txe_thread_reset.c                       0x00000000   Number         0  txe_thread_reset.o ABSOLUTE
    txe_thread_resume.c                      0x00000000   Number         0  txe_thread_resume.o ABSOLUTE
    txe_thread_suspend.c                     0x00000000   Number         0  txe_thread_suspend.o ABSOLUTE
    txe_thread_terminate.c                   0x00000000   Number         0  txe_thread_terminate.o ABSOLUTE
    txe_thread_time_slice_change.c           0x00000000   Number         0  txe_thread_time_slice_change.o ABSOLUTE
    txe_thread_wait_abort.c                  0x00000000   Number         0  txe_thread_wait_abort.o ABSOLUTE
    txe_timer_activate.c                     0x00000000   Number         0  txe_timer_activate.o ABSOLUTE
    txe_timer_change.c                       0x00000000   Number         0  txe_timer_change.o ABSOLUTE
    txe_timer_create.c                       0x00000000   Number         0  txe_timer_create.o ABSOLUTE
    txe_timer_deactivate.c                   0x00000000   Number         0  txe_timer_deactivate.o ABSOLUTE
    txe_timer_delete.c                       0x00000000   Number         0  txe_timer_delete.o ABSOLUTE
    txe_timer_info_get.c                     0x00000000   Number         0  txe_timer_info_get.o ABSOLUTE
    w25qxx.c                                 0x00000000   Number         0  w25qxx.o ABSOLUTE
    [Anonymous Symbol]                       0x00000008   Section        0  debug.o(ITCM)
    gs_colourString                          0x00000100   Number         0  debug.o(ITCM)
    gs_logString                             0x0000011c   Number         0  debug.o(ITCM)
    [Anonymous Symbol]                       0x0000013c   Section        0  application.o(ITCM)
    [Anonymous Symbol]                       0x00000168   Section        0  apptest.o(ITCM)
    SYSTICK_CYCLES                           0x0007cfff   Number         0  tx_initialize_low_level.o ABSOLUTE
    SYSTEM_CLOCK                             0x1e848000   Number         0  tx_initialize_low_level.o ABSOLUTE
    gs_ucRxBuf                               0x24000008   Data           1  serial.o(.ARM.__at_0x24000008)
    [Anonymous Symbol]                       0x24000008   Section        0  serial.o(.ARM.__at_0x24000008)
    .L_MergedGlobals                         0x2400000c   Data         108  multitask.o(.data..L_MergedGlobals)
    [Anonymous Symbol]                       0x2400000c   Section        0  multitask.o(.data..L_MergedGlobals)
    .L_MergedGlobals                         0x24000078   Data          68  displaydriver.o(.data..L_MergedGlobals)
    [Anonymous Symbol]                       0x24000078   Section        0  displaydriver.o(.data..L_MergedGlobals)
    .L_MergedGlobals                         0x240000bc   Data           8  system_stm32h7xx.o(.data..L_MergedGlobals)
    [Anonymous Symbol]                       0x240000bc   Section        0  system_stm32h7xx.o(.data..L_MergedGlobals)
    .L_MergedGlobals                         0x240000c4   Data           8  stm32h7xx_hal.o(.data..L_MergedGlobals)
    [Anonymous Symbol]                       0x240000c4   Section        0  stm32h7xx_hal.o(.data..L_MergedGlobals)
    .bss                                     0x24000198   Section       96  libspace.o(.bss)
    .L_MergedGlobals                         0x240001f8   Data         108  bsp.o(.bss..L_MergedGlobals)
    [Anonymous Symbol]                       0x240001f8   Section        0  bsp.o(.bss..L_MergedGlobals)
    .L_MergedGlobals                         0x24000264   Data          12  protocol.o(.bss..L_MergedGlobals)
    [Anonymous Symbol]                       0x24000264   Section        0  protocol.o(.bss..L_MergedGlobals)
    gs_sendCall                              0x24000268   Data           4  protocol.o(.bss..L_MergedGlobals)
    gs_parseCall                             0x2400026c   Data           4  protocol.o(.bss..L_MergedGlobals)
    .L_MergedGlobals                         0x24000270   Data          48  application.o(.bss..L_MergedGlobals)
    [Anonymous Symbol]                       0x24000270   Section        0  application.o(.bss..L_MergedGlobals)
    .L_MergedGlobals                         0x240002a0   Data          48  tx_initialize_high_level.o(.bss..L_MergedGlobals)
    [Anonymous Symbol]                       0x240002a0   Section        0  tx_initialize_high_level.o(.bss..L_MergedGlobals)
    .L_MergedGlobals                         0x240002d0   Data          36  tx_thread_initialize.o(.bss..L_MergedGlobals)
    [Anonymous Symbol]                       0x240002d0   Section        0  tx_thread_initialize.o(.bss..L_MergedGlobals)
    .L_MergedGlobals                         0x240002f4   Data          52  tx_timer_initialize.o(.bss..L_MergedGlobals)
    [Anonymous Symbol]                       0x240002f4   Section        0  tx_timer_initialize.o(.bss..L_MergedGlobals)
    .L_MergedGlobals.6                       0x24000328   Data          40  displaydriver.o(.bss..L_MergedGlobals.6)
    [Anonymous Symbol]                       0x24000328   Section        0  displaydriver.o(.bss..L_MergedGlobals.6)
    AppTaskGuiStk                            0x24000350   Data        8192  multitask.o(.bss.AppTaskGuiStk)
    [Anonymous Symbol]                       0x24000350   Section        0  multitask.o(.bss.AppTaskGuiStk)
    AppTaskInputStk                          0x24002400   Data        4096  multitask.o(.bss.AppTaskInputStk)
    [Anonymous Symbol]                       0x24002400   Section        0  multitask.o(.bss.AppTaskInputStk)
    AppTaskMsStk                             0x240034b0   Data        8192  multitask.o(.bss.AppTaskMsStk)
    [Anonymous Symbol]                       0x240034b0   Section        0  multitask.o(.bss.AppTaskMsStk)
    AppTaskStartfStk                         0x24005560   Data        4096  app_threadx.o(.bss.AppTaskStartfStk)
    [Anonymous Symbol]                       0x24005560   Section        0  app_threadx.o(.bss.AppTaskStartfStk)
    AppTaskStartfTCB                         0x24006560   Data         176  app_threadx.o(.bss.AppTaskStartfTCB)
    [Anonymous Symbol]                       0x24006560   Section        0  app_threadx.o(.bss.AppTaskStartfTCB)
    App_TestFunc.ucCnt                       0x24006610   Data           1  apptest.o(.bss.App_TestFunc.ucCnt)
    [Anonymous Symbol]                       0x24006610   Section        0  apptest.o(.bss.App_TestFunc.ucCnt)
    FMC_Initialized                          0x24006648   Data           1  board_stm32h730_general.o(.bss.FMC_Initialized)
    [Anonymous Symbol]                       0x24006648   Section        0  board_stm32h730_general.o(.bss.FMC_Initialized)
    FT5336_TS_GetXY.coord                    0x2400664a   Data           2  ft5336.o(.bss.FT5336_TS_GetXY.coord)
    [Anonymous Symbol]                       0x2400664a   Section        0  ft5336.o(.bss.FT5336_TS_GetXY.coord)
    g_touchInfo                              0x24006e60   Data           4  touchscreen.o(.bss.g_touchInfo)
    [Anonymous Symbol]                       0x24006e60   Section        0  touchscreen.o(.bss.g_touchInfo)
    gs_debugBuf                              0x24006f78   Data         512  debug.o(.bss.gs_debugBuf)
    [Anonymous Symbol]                       0x24006f78   Section        0  debug.o(.bss.gs_debugBuf)
    gs_inuptData                             0x24007178   Data         400  input.o(.bss.gs_inuptData)
    [Anonymous Symbol]                       0x24007178   Section        0  input.o(.bss.gs_inuptData)
    gs_resData                               0x24007308   Data         792  response.o(.bss.gs_resData)
    [Anonymous Symbol]                       0x24007308   Section        0  response.o(.bss.gs_resData)
    gs_rxBuf                                 0x24007620   Data        1024  serial.o(.bss.gs_rxBuf)
    [Anonymous Symbol]                       0x24007620   Section        0  serial.o(.bss.gs_rxBuf)
    gs_swTmr                                 0x24007a20   Data          80  swtmr.o(.bss.gs_swTmr)
    [Anonymous Symbol]                       0x24007a20   Section        0  swtmr.o(.bss.gs_swTmr)
    tx_app_byte_pool                         0x24007e54   Data          52  app_azure_rtos.o(.bss.tx_app_byte_pool)
    [Anonymous Symbol]                       0x24007e54   Section        0  app_azure_rtos.o(.bss.tx_app_byte_pool)
    tx_byte_pool_buffer                      0x24007e88   Data       10240  app_azure_rtos.o(.bss.tx_byte_pool_buffer)
    [Anonymous Symbol]                       0x24007e88   Section        0  app_azure_rtos.o(.bss.tx_byte_pool_buffer)
    Heap_Mem                                 0x2400a690   Data        2048  startup_stm32h730xx.o(HEAP)
    HEAP                                     0x2400a690   Section     2048  startup_stm32h730xx.o(HEAP)
    Stack_Mem                                0x2400ae90   Data        1024  startup_stm32h730xx.o(STACK)
    STACK                                    0x2400ae90   Section     1024  startup_stm32h730xx.o(STACK)
    __initial_sp                             0x2400b290   Data           0  startup_stm32h730xx.o(STACK)
    RESET                                    0x90000000   Section      716  startup_stm32h730xx.o(RESET)
    !!!main                                  0x900002cc   Section        8  __main.o(!!!main)
    !!!scatter                               0x900002d4   Section       52  __scatter.o(!!!scatter)
    !!dczerorl                               0x90000308   Section       58  __dczerorl.o(!!dczerorl)
    !!handler_copy                           0x90000344   Section       26  __scatter_copy.o(!!handler_copy)
    !!handler_zi                             0x90000360   Section       28  __scatter_zi.o(!!handler_zi)
    .ARM.Collect$$_printf_percent$$00000000  0x9000037c   Section        0  _printf_percent.o(.ARM.Collect$$_printf_percent$$00000000)
    .ARM.Collect$$_printf_percent$$00000001  0x9000037c   Section        6  _printf_n.o(.ARM.Collect$$_printf_percent$$00000001)
    .ARM.Collect$$_printf_percent$$00000002  0x90000382   Section        6  _printf_p.o(.ARM.Collect$$_printf_percent$$00000002)
    .ARM.Collect$$_printf_percent$$00000003  0x90000388   Section        6  _printf_f.o(.ARM.Collect$$_printf_percent$$00000003)
    .ARM.Collect$$_printf_percent$$00000004  0x9000038e   Section        6  _printf_e.o(.ARM.Collect$$_printf_percent$$00000004)
    .ARM.Collect$$_printf_percent$$00000005  0x90000394   Section        6  _printf_g.o(.ARM.Collect$$_printf_percent$$00000005)
    .ARM.Collect$$_printf_percent$$00000006  0x9000039a   Section        6  _printf_a.o(.ARM.Collect$$_printf_percent$$00000006)
    .ARM.Collect$$_printf_percent$$00000007  0x900003a0   Section       10  _printf_ll.o(.ARM.Collect$$_printf_percent$$00000007)
    .ARM.Collect$$_printf_percent$$00000008  0x900003aa   Section        6  _printf_i.o(.ARM.Collect$$_printf_percent$$00000008)
    .ARM.Collect$$_printf_percent$$00000009  0x900003b0   Section        6  _printf_d.o(.ARM.Collect$$_printf_percent$$00000009)
    .ARM.Collect$$_printf_percent$$0000000A  0x900003b6   Section        6  _printf_u.o(.ARM.Collect$$_printf_percent$$0000000A)
    .ARM.Collect$$_printf_percent$$0000000B  0x900003bc   Section        6  _printf_o.o(.ARM.Collect$$_printf_percent$$0000000B)
    .ARM.Collect$$_printf_percent$$0000000C  0x900003c2   Section        6  _printf_x.o(.ARM.Collect$$_printf_percent$$0000000C)
    .ARM.Collect$$_printf_percent$$0000000D  0x900003c8   Section        6  _printf_lli.o(.ARM.Collect$$_printf_percent$$0000000D)
    .ARM.Collect$$_printf_percent$$0000000E  0x900003ce   Section        6  _printf_lld.o(.ARM.Collect$$_printf_percent$$0000000E)
    .ARM.Collect$$_printf_percent$$0000000F  0x900003d4   Section        6  _printf_llu.o(.ARM.Collect$$_printf_percent$$0000000F)
    .ARM.Collect$$_printf_percent$$00000010  0x900003da   Section        6  _printf_llo.o(.ARM.Collect$$_printf_percent$$00000010)
    .ARM.Collect$$_printf_percent$$00000011  0x900003e0   Section        6  _printf_llx.o(.ARM.Collect$$_printf_percent$$00000011)
    .ARM.Collect$$_printf_percent$$00000012  0x900003e6   Section       10  _printf_l.o(.ARM.Collect$$_printf_percent$$00000012)
    .ARM.Collect$$_printf_percent$$00000013  0x900003f0   Section        6  _printf_c.o(.ARM.Collect$$_printf_percent$$00000013)
    .ARM.Collect$$_printf_percent$$00000014  0x900003f6   Section        6  _printf_s.o(.ARM.Collect$$_printf_percent$$00000014)
    .ARM.Collect$$_printf_percent$$00000015  0x900003fc   Section        6  _printf_lc.o(.ARM.Collect$$_printf_percent$$00000015)
    .ARM.Collect$$_printf_percent$$00000016  0x90000402   Section        6  _printf_ls.o(.ARM.Collect$$_printf_percent$$00000016)
    .ARM.Collect$$_printf_percent$$00000017  0x90000408   Section        4  _printf_percent_end.o(.ARM.Collect$$_printf_percent$$00000017)
    .ARM.Collect$$libinit$$00000000          0x9000040c   Section        2  libinit.o(.ARM.Collect$$libinit$$00000000)
    .ARM.Collect$$libinit$$00000001          0x9000040e   Section        4  libinit2.o(.ARM.Collect$$libinit$$00000001)
    .ARM.Collect$$libinit$$00000004          0x90000412   Section        0  libinit2.o(.ARM.Collect$$libinit$$00000004)
    .ARM.Collect$$libinit$$0000000A          0x90000412   Section        0  libinit2.o(.ARM.Collect$$libinit$$0000000A)
    .ARM.Collect$$libinit$$0000000C          0x90000412   Section        0  libinit2.o(.ARM.Collect$$libinit$$0000000C)
    .ARM.Collect$$libinit$$0000000E          0x90000412   Section        0  libinit2.o(.ARM.Collect$$libinit$$0000000E)
    .ARM.Collect$$libinit$$0000000F          0x90000412   Section        6  libinit2.o(.ARM.Collect$$libinit$$0000000F)
    .ARM.Collect$$libinit$$00000011          0x90000418   Section        0  libinit2.o(.ARM.Collect$$libinit$$00000011)
    .ARM.Collect$$libinit$$00000012          0x90000418   Section       12  libinit2.o(.ARM.Collect$$libinit$$00000012)
    .ARM.Collect$$libinit$$00000013          0x90000424   Section        0  libinit2.o(.ARM.Collect$$libinit$$00000013)
    .ARM.Collect$$libinit$$00000015          0x90000424   Section        0  libinit2.o(.ARM.Collect$$libinit$$00000015)
    .ARM.Collect$$libinit$$00000016          0x90000424   Section       10  libinit2.o(.ARM.Collect$$libinit$$00000016)
    .ARM.Collect$$libinit$$00000017          0x9000042e   Section        0  libinit2.o(.ARM.Collect$$libinit$$00000017)
    .ARM.Collect$$libinit$$00000019          0x9000042e   Section        0  libinit2.o(.ARM.Collect$$libinit$$00000019)
    .ARM.Collect$$libinit$$0000001B          0x9000042e   Section        0  libinit2.o(.ARM.Collect$$libinit$$0000001B)
    .ARM.Collect$$libinit$$0000001D          0x9000042e   Section        0  libinit2.o(.ARM.Collect$$libinit$$0000001D)
    .ARM.Collect$$libinit$$0000001F          0x9000042e   Section        0  libinit2.o(.ARM.Collect$$libinit$$0000001F)
    .ARM.Collect$$libinit$$00000021          0x9000042e   Section        0  libinit2.o(.ARM.Collect$$libinit$$00000021)
    .ARM.Collect$$libinit$$00000023          0x9000042e   Section        0  libinit2.o(.ARM.Collect$$libinit$$00000023)
    .ARM.Collect$$libinit$$00000025          0x9000042e   Section        0  libinit2.o(.ARM.Collect$$libinit$$00000025)
    .ARM.Collect$$libinit$$0000002C          0x9000042e   Section        0  libinit2.o(.ARM.Collect$$libinit$$0000002C)
    .ARM.Collect$$libinit$$0000002E          0x9000042e   Section        0  libinit2.o(.ARM.Collect$$libinit$$0000002E)
    .ARM.Collect$$libinit$$00000030          0x9000042e   Section        0  libinit2.o(.ARM.Collect$$libinit$$00000030)
    .ARM.Collect$$libinit$$00000032          0x9000042e   Section        0  libinit2.o(.ARM.Collect$$libinit$$00000032)
    .ARM.Collect$$libinit$$00000033          0x9000042e   Section        2  libinit2.o(.ARM.Collect$$libinit$$00000033)
    .ARM.Collect$$libshutdown$$00000000      0x90000430   Section        2  libshutdown.o(.ARM.Collect$$libshutdown$$00000000)
    .ARM.Collect$$libshutdown$$00000002      0x90000432   Section        0  libshutdown2.o(.ARM.Collect$$libshutdown$$00000002)
    .ARM.Collect$$libshutdown$$00000004      0x90000432   Section        0  libshutdown2.o(.ARM.Collect$$libshutdown$$00000004)
    .ARM.Collect$$libshutdown$$00000007      0x90000432   Section        0  libshutdown2.o(.ARM.Collect$$libshutdown$$00000007)
    .ARM.Collect$$libshutdown$$0000000A      0x90000432   Section        0  libshutdown2.o(.ARM.Collect$$libshutdown$$0000000A)
    .ARM.Collect$$libshutdown$$0000000C      0x90000432   Section        0  libshutdown2.o(.ARM.Collect$$libshutdown$$0000000C)
    .ARM.Collect$$libshutdown$$0000000F      0x90000432   Section        0  libshutdown2.o(.ARM.Collect$$libshutdown$$0000000F)
    .ARM.Collect$$libshutdown$$00000010      0x90000432   Section        2  libshutdown2.o(.ARM.Collect$$libshutdown$$00000010)
    .ARM.Collect$$rtentry$$00000000          0x90000434   Section        0  __rtentry.o(.ARM.Collect$$rtentry$$00000000)
    .ARM.Collect$$rtentry$$00000002          0x90000434   Section        0  __rtentry2.o(.ARM.Collect$$rtentry$$00000002)
    .ARM.Collect$$rtentry$$00000004          0x90000434   Section        6  __rtentry4.o(.ARM.Collect$$rtentry$$00000004)
    .ARM.Collect$$rtentry$$00000009          0x9000043a   Section        0  __rtentry2.o(.ARM.Collect$$rtentry$$00000009)
    .ARM.Collect$$rtentry$$0000000A          0x9000043a   Section        4  __rtentry2.o(.ARM.Collect$$rtentry$$0000000A)
    .ARM.Collect$$rtentry$$0000000C          0x9000043e   Section        0  __rtentry2.o(.ARM.Collect$$rtentry$$0000000C)
    .ARM.Collect$$rtentry$$0000000D          0x9000043e   Section        8  __rtentry2.o(.ARM.Collect$$rtentry$$0000000D)
    .ARM.Collect$$rtexit$$00000000           0x90000446   Section        2  rtexit.o(.ARM.Collect$$rtexit$$00000000)
    .ARM.Collect$$rtexit$$00000002           0x90000448   Section        0  rtexit2.o(.ARM.Collect$$rtexit$$00000002)
    .ARM.Collect$$rtexit$$00000003           0x90000448   Section        4  rtexit2.o(.ARM.Collect$$rtexit$$00000003)
    .ARM.Collect$$rtexit$$00000004           0x9000044c   Section        6  rtexit2.o(.ARM.Collect$$rtexit$$00000004)
    $v0                                      0x90000454   Number         0  startup_stm32h730xx.o(.text)
    .text                                    0x90000454   Section      116  startup_stm32h730xx.o(.text)
    [Anonymous Symbol]                       0x900004d0   Section        0  tx_initialize_low_level.o(.text)
    [Anonymous Symbol]                       0x90000570   Section        0  tx_thread_schedule.o(.text)
    __tx_wait_here                           0x9000059a   Number         0  tx_thread_schedule.o(.text)
    __tx_ts_handler                          0x9000059c   Number         0  tx_thread_schedule.o(.text)
    _skip_vfp_save                           0x900005bc   Number         0  tx_thread_schedule.o(.text)
    __tx_ts_new                              0x900005ce   Number         0  tx_thread_schedule.o(.text)
    __tx_ts_restore                          0x900005d8   Number         0  tx_thread_schedule.o(.text)
    _skip_vfp_restore                        0x900005f8   Number         0  tx_thread_schedule.o(.text)
    __tx_ts_wait                             0x90000602   Number         0  tx_thread_schedule.o(.text)
    __tx_ts_ready                            0x9000060e   Number         0  tx_thread_schedule.o(.text)
    [Anonymous Symbol]                       0x90000640   Section        0  tx_thread_stack_build.o(.text)
    [Anonymous Symbol]                       0x90000680   Section        0  tx_timer_interrupt.o(.text)
    __tx_timer_no_time_slice                 0x900006a0   Number         0  tx_timer_interrupt.o(.text)
    __tx_timer_no_timer                      0x900006b2   Number         0  tx_timer_interrupt.o(.text)
    __tx_timer_skip_wrap                     0x900006c2   Number         0  tx_timer_interrupt.o(.text)
    __tx_timer_done                          0x900006c4   Number         0  tx_timer_interrupt.o(.text)
    __tx_something_expired                   0x900006d0   Number         0  tx_timer_interrupt.o(.text)
    __tx_timer_dont_activate                 0x900006de   Number         0  tx_timer_interrupt.o(.text)
    __tx_timer_not_ts_expiration             0x90000702   Number         0  tx_timer_interrupt.o(.text)
    __tx_timer_skip_time_slice               0x90000702   Number         0  tx_timer_interrupt.o(.text)
    __tx_timer_nothing_expired               0x90000706   Number         0  tx_timer_interrupt.o(.text)
    .text                                    0x90000748   Section      240  lludivv7m.o(.text)
    .text                                    0x90000838   Section        0  vsnprintf.o(.text)
    .text                                    0x9000086c   Section        0  __2snprintf.o(.text)
    .text                                    0x900008a4   Section        0  _printf_str.o(.text)
    .text                                    0x900008f8   Section        0  __printf_flags_ss_wp.o(.text)
    .text                                    0x90000a80   Section      100  rt_memcpy_w.o(.text)
    .text                                    0x90000ae4   Section       16  aeabi_memset.o(.text)
    .text                                    0x90000af4   Section       68  rt_memclr.o(.text)
    .text                                    0x90000b38   Section       78  rt_memclr_w.o(.text)
    .text                                    0x90000b86   Section        0  heapauxi.o(.text)
    .text                                    0x90000b8c   Section        0  _printf_pad.o(.text)
    .text                                    0x90000bda   Section        0  _printf_truncate.o(.text)
    .text                                    0x90000c00   Section        0  _printf_dec.o(.text)
    .text                                    0x90000c78   Section        0  _printf_charcount.o(.text)
    _printf_input_char                       0x90000ca1   Thumb Code    10  _printf_char_common.o(.text)
    .text                                    0x90000ca0   Section        0  _printf_char_common.o(.text)
    .text                                    0x90000cd0   Section        0  _sputc.o(.text)
    .text                                    0x90000cda   Section        0  _snputc.o(.text)
    .text                                    0x90000cea   Section        0  _printf_char.o(.text)
    .text                                    0x90000d18   Section        0  _printf_wctomb.o(.text)
    .text                                    0x90000dd4   Section        0  _printf_longlong_dec.o(.text)
    _printf_longlong_oct_internal            0x90000e51   Thumb Code     0  _printf_oct_int_ll.o(.text)
    .text                                    0x90000e50   Section        0  _printf_oct_int_ll.o(.text)
    _printf_hex_common                       0x90000ec1   Thumb Code     0  _printf_hex_int_ll_ptr.o(.text)
    .text                                    0x90000ec0   Section        0  _printf_hex_int_ll_ptr.o(.text)
    .text                                    0x90000f54   Section        0  sys_exit.o(.text)
    .text                                    0x90000f60   Section      138  lludiv10.o(.text)
    .text                                    0x90000fea   Section        0  _printf_intcommon.o(.text)
    _fp_digits                               0x9000109d   Thumb Code   432  _printf_fp_dec.o(.text)
    .text                                    0x9000109c   Section        0  _printf_fp_dec.o(.text)
    .text                                    0x900014b8   Section        0  _printf_fp_hex.o(.text)
    .text                                    0x900017b4   Section        0  _printf_wchar.o(.text)
    .text                                    0x900017e0   Section        0  _c16rtomb.o(.text)
    .text                                    0x90001828   Section        2  use_no_semi.o(.text)
    .text                                    0x9000182a   Section        0  indicate_semi.o(.text)
    .text                                    0x9000182a   Section       74  sys_stackheap_outer.o(.text)
    .text                                    0x90001874   Section       16  rt_ctype_table.o(.text)
    .text                                    0x90001884   Section        8  rt_locale_intlibspace.o(.text)
    .text                                    0x9000188c   Section        0  _printf_fp_infnan.o(.text)
    .text                                    0x9000190c   Section        0  bigflt0.o(.text)
    .text                                    0x900019f0   Section        0  exit.o(.text)
    .text                                    0x90001a04   Section        8  libspace.o(.text)
    .text                                    0x90001a10   Section      124  strcmpv7m_pel.o(.text)
    [Anonymous Symbol]                       0x90001a90   Section        0  multitask.o(.text.AppTaskStart)
    [Anonymous Symbol]                       0x90001b98   Section        0  application.o(.text.App_Init)
    [Anonymous Symbol]                       0x90001c90   Section        0  app_threadx.o(.text.App_ThreadX_Init)
    [Anonymous Symbol]                       0x90001ce8   Section        0  board_stm32h730_general.o(.text.Board_DebugPortInit)
    [Anonymous Symbol]                       0x90001d90   Section        0  board_stm32h730_general.o(.text.Board_LcdBacklight)
    [Anonymous Symbol]                       0x90001dc0   Section        0  board_stm32h730_general.o(.text.Board_LcdBacklightPortInit)
    [Anonymous Symbol]                       0x90001f50   Section        0  board_stm32h730_general.o(.text.Board_LcdPortInit)
    [Anonymous Symbol]                       0x90001fa0   Section        0  board_stm32h730_general.o(.text.Board_LtdcIOInit)
    [Anonymous Symbol]                       0x90002138   Section        0  board_stm32h730_general.o(.text.Board_SDRAMPortInit)
    [Anonymous Symbol]                       0x900021b0   Section        0  board_stm32h730_general.o(.text.Board_TouchPortInit)
    [Anonymous Symbol]                       0x900022f0   Section        0  board_stm32h730_general.o(.text.Board_USART10PortInit)
    [Anonymous Symbol]                       0x900023a8   Section        0  board_stm32h730_general.o(.text.Board_USARTPortInit)
    Bsp_CRCInit                              0x900023b1   Thumb Code    64  bsp.o(.text.Bsp_CRCInit)
    [Anonymous Symbol]                       0x900023b0   Section        0  bsp.o(.text.Bsp_CRCInit)
    Bsp_DTSInit                              0x900023f1   Thumb Code    84  bsp.o(.text.Bsp_DTSInit)
    [Anonymous Symbol]                       0x900023f0   Section        0  bsp.o(.text.Bsp_DTSInit)
    [Anonymous Symbol]                       0x90002448   Section        0  bsp.o(.text.Bsp_GetTemperature)
    [Anonymous Symbol]                       0x900024a8   Section        0  bsp.o(.text.Bsp_IWDGRefresh)
    [Anonymous Symbol]                       0x900024b8   Section        0  bsp.o(.text.Bsp_RNGGenerate)
    Bsp_RNGInit                              0x900024e1   Thumb Code    68  bsp.o(.text.Bsp_RNGInit)
    [Anonymous Symbol]                       0x900024e0   Section        0  bsp.o(.text.Bsp_RNGInit)
    Bsp_RTCInit                              0x90002529   Thumb Code   264  bsp.o(.text.Bsp_RTCInit)
    [Anonymous Symbol]                       0x90002528   Section        0  bsp.o(.text.Bsp_RTCInit)
    [Anonymous Symbol]                       0x90002630   Section        0  stm32h7xx_it.o(.text.BusFault_Handler)
    [Anonymous Symbol]                       0x90002648   Section        0  system.o(.text.CPU_Config)
    [Anonymous Symbol]                       0x900027e8   Section        0  stm32h7xx_it.o(.text.DMA1_Stream0_IRQHandler)
    [Anonymous Symbol]                       0x900027f8   Section        0  displaydriver.o(.text.DMA2D_IRQHandler)
    DMA_CalcBaseAndBitshift                  0x90002809   Thumb Code   282  stm32h7xx_hal_dma.o(.text.DMA_CalcBaseAndBitshift)
    [Anonymous Symbol]                       0x90002808   Section        0  stm32h7xx_hal_dma.o(.text.DMA_CalcBaseAndBitshift)
    DMA_SetConfig                            0x90002929   Thumb Code   766  stm32h7xx_hal_dma.o(.text.DMA_SetConfig)
    [Anonymous Symbol]                       0x90002928   Section        0  stm32h7xx_hal_dma.o(.text.DMA_SetConfig)
    [Anonymous Symbol]                       0x90002c28   Section        0  stm32h7xx_it.o(.text.DebugMon_Handler)
    [Anonymous Symbol]                       0x90002c38   Section        0  debug.o(.text.Debug_Init)
    [Anonymous Symbol]                       0x90002c80   Section        0  stm32h7xx_it.o(.text.EXTI9_5_IRQHandler)
    [Anonymous Symbol]                       0x90002c98   Section        0  main.o(.text.Error_Handler)
    [Anonymous Symbol]                       0x90002ca8   Section        0  extram.o(.text.ExtRAM_Init)
    [Anonymous Symbol]                       0x90002d68   Section        0  sysfifo.o(.text.FIFO_GetData)
    [Anonymous Symbol]                       0x90002d90   Section        0  sysfifo.o(.text.FIFO_GetLen)
    [Anonymous Symbol]                       0x90002d98   Section        0  sysfifo.o(.text.FIFO_GetPosData)
    [Anonymous Symbol]                       0x90002da8   Section        0  sysfifo.o(.text.FIFO_InserData)
    [Anonymous Symbol]                       0x90002dd8   Section        0  stm32h7xx_ll_fmc.o(.text.FMC_SDRAM_Init)
    [Anonymous Symbol]                       0x90002e68   Section        0  stm32h7xx_ll_fmc.o(.text.FMC_SDRAM_ProgramRefreshRate)
    [Anonymous Symbol]                       0x90002e80   Section        0  stm32h7xx_ll_fmc.o(.text.FMC_SDRAM_SendCommand)
    [Anonymous Symbol]                       0x90002eb0   Section        0  stm32h7xx_ll_fmc.o(.text.FMC_SDRAM_Timing_Init)
    [Anonymous Symbol]                       0x90002f88   Section        0  ft5336.o(.text.FT5336_TS_GetXY)
    [Anonymous Symbol]                       0x90003100   Section        0  sysfifo.o(.text.Fifo_Get)
    [Anonymous Symbol]                       0x90003120   Section        0  sysfifo.o(.text.Fifo_Init)
    [Anonymous Symbol]                       0x90003170   Section        0  sysfifo.o(.text.Fifo_Put)
    [Anonymous Symbol]                       0x900031a0   Section        0  basicgui.o(.text.GUI_DrawCircle)
    [Anonymous Symbol]                       0x90003338   Section        0  basicgui.o(.text.GUI_DrawRect)
    [Anonymous Symbol]                       0x90003450   Section        0  basicgui.o(.text.GUI_FillRect)
    [Anonymous Symbol]                       0x900034a8   Section        0  basicgui.o(.text.GUI_ShowChar)
    [Anonymous Symbol]                       0x90003798   Section        0  basicgui.o(.text.GUI_ShowString)
    [Anonymous Symbol]                       0x90003860   Section        0  system.o(.text.GetSystemClock)
    [Anonymous Symbol]                       0x90003868   Section        0  stm32h7xx_hal_crc_ex.o(.text.HAL_CRCEx_Polynomial_Set)
    [Anonymous Symbol]                       0x90003900   Section        0  stm32h7xx_hal_crc.o(.text.HAL_CRC_Init)
    [Anonymous Symbol]                       0x90003980   Section        0  bsp.o(.text.HAL_CRC_MspInit)
    [Anonymous Symbol]                       0x900039b0   Section        0  stm32h7xx_hal_dma2d.o(.text.HAL_DMA2D_CLUTLoadingCpltCallback)
    [Anonymous Symbol]                       0x900039b8   Section        0  stm32h7xx_hal_dma2d.o(.text.HAL_DMA2D_ConfigLayer)
    [Anonymous Symbol]                       0x90003a88   Section        0  stm32h7xx_hal_dma2d.o(.text.HAL_DMA2D_IRQHandler)
    [Anonymous Symbol]                       0x90003bc8   Section        0  stm32h7xx_hal_dma2d.o(.text.HAL_DMA2D_Init)
    [Anonymous Symbol]                       0x90003c48   Section        0  stm32h7xx_hal_dma2d.o(.text.HAL_DMA2D_LineEventCallback)
    [Anonymous Symbol]                       0x90003c50   Section        0  displaydriver.o(.text.HAL_DMA2D_MspInit)
    [Anonymous Symbol]                       0x90003c98   Section        0  stm32h7xx_hal_dma.o(.text.HAL_DMA_Abort)
    [Anonymous Symbol]                       0x90004198   Section        0  stm32h7xx_hal_dma.o(.text.HAL_DMA_Abort_IT)
    [Anonymous Symbol]                       0x90004438   Section        0  stm32h7xx_hal_dma.o(.text.HAL_DMA_DeInit)
    [Anonymous Symbol]                       0x900047c0   Section        0  stm32h7xx_hal_dma.o(.text.HAL_DMA_GetError)
    [Anonymous Symbol]                       0x900047c8   Section        0  stm32h7xx_hal_dma.o(.text.HAL_DMA_IRQHandler)
    [Anonymous Symbol]                       0x90004fc0   Section        0  stm32h7xx_hal_dma.o(.text.HAL_DMA_Init)
    [Anonymous Symbol]                       0x90005620   Section        0  stm32h7xx_hal_dma.o(.text.HAL_DMA_Start_IT)
    [Anonymous Symbol]                       0x900059a8   Section        0  stm32h7xx_hal_dts.o(.text.HAL_DTS_GetTemperature)
    [Anonymous Symbol]                       0x90005a38   Section        0  stm32h7xx_hal_dts.o(.text.HAL_DTS_Init)
    [Anonymous Symbol]                       0x90005ae0   Section        0  bsp.o(.text.HAL_DTS_MspInit)
    [Anonymous Symbol]                       0x90005b18   Section        0  stm32h7xx_hal_dts.o(.text.HAL_DTS_Start)
    [Anonymous Symbol]                       0x90005b88   Section        0  stm32h7xx_hal_dts.o(.text.HAL_DTS_Stop)
    [Anonymous Symbol]                       0x90005bc8   Section        0  stm32h7xx_hal.o(.text.HAL_Delay)
    [Anonymous Symbol]                       0x90005bf0   Section        0  stm32h7xx_hal_gpio.o(.text.HAL_GPIO_DeInit)
    [Anonymous Symbol]                       0x90005dd8   Section        0  intcallback.o(.text.HAL_GPIO_EXTI_Callback)
    [Anonymous Symbol]                       0x90005df8   Section        0  stm32h7xx_hal_gpio.o(.text.HAL_GPIO_EXTI_IRQHandler)
    [Anonymous Symbol]                       0x90005e10   Section        0  stm32h7xx_hal_gpio.o(.text.HAL_GPIO_Init)
    [Anonymous Symbol]                       0x90005ff8   Section        0  stm32h7xx_hal_gpio.o(.text.HAL_GPIO_WritePin)
    [Anonymous Symbol]                       0x90006008   Section        0  stm32h7xx_hal.o(.text.HAL_GetTick)
    [Anonymous Symbol]                       0x90006018   Section        0  stm32h7xx_hal.o(.text.HAL_GetUIDw0)
    [Anonymous Symbol]                       0x90006028   Section        0  stm32h7xx_hal.o(.text.HAL_GetUIDw1)
    [Anonymous Symbol]                       0x90006038   Section        0  stm32h7xx_hal.o(.text.HAL_GetUIDw2)
    [Anonymous Symbol]                       0x90006048   Section        0  stm32h7xx_hal_uart.o(.text.HAL_HalfDuplex_Init)
    [Anonymous Symbol]                       0x90006118   Section        0  stm32h7xx_hal_i2c_ex.o(.text.HAL_I2CEx_ConfigAnalogFilter)
    [Anonymous Symbol]                       0x90006168   Section        0  stm32h7xx_hal_i2c_ex.o(.text.HAL_I2CEx_ConfigDigitalFilter)
    [Anonymous Symbol]                       0x900061b0   Section        0  stm32h7xx_hal_i2c.o(.text.HAL_I2C_Init)
    [Anonymous Symbol]                       0x90006250   Section        0  stm32h7xx_hal_i2c.o(.text.HAL_I2C_Mem_Read)
    [Anonymous Symbol]                       0x90006530   Section        0  board_stm32h730_general.o(.text.HAL_I2C_MspInit)
    [Anonymous Symbol]                       0x90006600   Section        0  stm32h7xx_hal_iwdg.o(.text.HAL_IWDG_Refresh)
    [Anonymous Symbol]                       0x90006610   Section        0  stm32h7xx_hal.o(.text.HAL_IncTick)
    [Anonymous Symbol]                       0x90006630   Section        0  stm32h7xx_hal.o(.text.HAL_Init)
    [Anonymous Symbol]                       0x90006698   Section        0  stm32h7xx_hal_timebase_tim.o(.text.HAL_InitTick)
    [Anonymous Symbol]                       0x90006740   Section        0  stm32h7xx_hal_ltdc.o(.text.HAL_LTDC_ConfigLayer)
    [Anonymous Symbol]                       0x900067b8   Section        0  stm32h7xx_hal_ltdc.o(.text.HAL_LTDC_ErrorCallback)
    [Anonymous Symbol]                       0x900067c0   Section        0  stm32h7xx_hal_ltdc.o(.text.HAL_LTDC_IRQHandler)
    [Anonymous Symbol]                       0x90006880   Section        0  stm32h7xx_hal_ltdc.o(.text.HAL_LTDC_Init)
    [Anonymous Symbol]                       0x90006960   Section        0  stm32h7xx_hal_ltdc.o(.text.HAL_LTDC_LineEventCallback)
    [Anonymous Symbol]                       0x90006968   Section        0  displaydriver.o(.text.HAL_LTDC_MspInit)
    [Anonymous Symbol]                       0x90006a10   Section        0  stm32h7xx_hal_ltdc.o(.text.HAL_LTDC_ReloadEventCallback)
    [Anonymous Symbol]                       0x90006a18   Section        0  stm32h7xx_hal_cortex.o(.text.HAL_MPU_ConfigRegion)
    [Anonymous Symbol]                       0x90006a78   Section        0  stm32h7xx_hal_cortex.o(.text.HAL_MPU_Disable)
    [Anonymous Symbol]                       0x90006a98   Section        0  stm32h7xx_hal_cortex.o(.text.HAL_MPU_Enable)
    [Anonymous Symbol]                       0x90006ab8   Section        0  stm32h7xx_hal_msp.o(.text.HAL_MspInit)
    [Anonymous Symbol]                       0x90006ad8   Section        0  stm32h7xx_hal_cortex.o(.text.HAL_NVIC_DisableIRQ)
    [Anonymous Symbol]                       0x90006b00   Section        0  stm32h7xx_hal_cortex.o(.text.HAL_NVIC_EnableIRQ)
    [Anonymous Symbol]                       0x90006b20   Section        0  stm32h7xx_hal_cortex.o(.text.HAL_NVIC_SetPriority)
    [Anonymous Symbol]                       0x90006b80   Section        0  stm32h7xx_hal_cortex.o(.text.HAL_NVIC_SetPriorityGrouping)
    [Anonymous Symbol]                       0x90006ba0   Section        0  stm32h7xx_hal_pwr_ex.o(.text.HAL_PWREx_ConfigSupply)
    [Anonymous Symbol]                       0x90006be8   Section        0  stm32h7xx_hal_rcc_ex.o(.text.HAL_RCCEx_GetD3PCLK1Freq)
    [Anonymous Symbol]                       0x90006c10   Section        0  stm32h7xx_hal_rcc_ex.o(.text.HAL_RCCEx_GetPLL2ClockFreq)
    [Anonymous Symbol]                       0x90006d38   Section        0  stm32h7xx_hal_rcc_ex.o(.text.HAL_RCCEx_GetPLL3ClockFreq)
    [Anonymous Symbol]                       0x90006e60   Section        0  stm32h7xx_hal_rcc_ex.o(.text.HAL_RCCEx_PeriphCLKConfig)
    [Anonymous Symbol]                       0x900079c0   Section        0  stm32h7xx_hal_rcc.o(.text.HAL_RCC_ClockConfig)
    [Anonymous Symbol]                       0x90007c28   Section        0  stm32h7xx_hal_rcc.o(.text.HAL_RCC_GetClockConfig)
    [Anonymous Symbol]                       0x90007c80   Section        0  stm32h7xx_hal_rcc.o(.text.HAL_RCC_GetHCLKFreq)
    [Anonymous Symbol]                       0x90007cd0   Section        0  stm32h7xx_hal_rcc.o(.text.HAL_RCC_GetPCLK1Freq)
    [Anonymous Symbol]                       0x90007d30   Section        0  stm32h7xx_hal_rcc.o(.text.HAL_RCC_GetPCLK2Freq)
    [Anonymous Symbol]                       0x90007d90   Section        0  stm32h7xx_hal_rcc.o(.text.HAL_RCC_GetSysClockFreq)
    [Anonymous Symbol]                       0x90007e98   Section        0  stm32h7xx_hal_rcc.o(.text.HAL_RCC_OscConfig)
    [Anonymous Symbol]                       0x90008360   Section        0  stm32h7xx_hal_rng.o(.text.HAL_RNG_ErrorCallback)
    [Anonymous Symbol]                       0x90008368   Section        0  stm32h7xx_hal_rng.o(.text.HAL_RNG_GenerateRandomNumber)
    [Anonymous Symbol]                       0x90008418   Section        0  stm32h7xx_hal_rng.o(.text.HAL_RNG_Init)
    [Anonymous Symbol]                       0x900084f0   Section        0  bsp.o(.text.HAL_RNG_MspInit)
    [Anonymous Symbol]                       0x90008550   Section        0  stm32h7xx_hal_rtc_ex.o(.text.HAL_RTCEx_SetWakeUpTimer_IT)
    [Anonymous Symbol]                       0x90008600   Section        0  bsp.o(.text.HAL_RTCEx_WakeUpTimerEventCallback)
    [Anonymous Symbol]                       0x90008650   Section        0  stm32h7xx_hal_rtc_ex.o(.text.HAL_RTCEx_WakeUpTimerIRQHandler)
    [Anonymous Symbol]                       0x90008688   Section        0  stm32h7xx_hal_rtc.o(.text.HAL_RTC_GetDate)
    [Anonymous Symbol]                       0x900086f0   Section        0  stm32h7xx_hal_rtc.o(.text.HAL_RTC_GetTime)
    [Anonymous Symbol]                       0x90008768   Section        0  stm32h7xx_hal_rtc.o(.text.HAL_RTC_Init)
    [Anonymous Symbol]                       0x90008840   Section        0  bsp.o(.text.HAL_RTC_MspInit)
    [Anonymous Symbol]                       0x900088a8   Section        0  stm32h7xx_hal_rtc.o(.text.HAL_RTC_SetDate)
    [Anonymous Symbol]                       0x90008a08   Section        0  stm32h7xx_hal_rtc.o(.text.HAL_RTC_SetTime)
    [Anonymous Symbol]                       0x90008b80   Section        0  stm32h7xx_hal_sdram.o(.text.HAL_SDRAM_Init)
    [Anonymous Symbol]                       0x90008bd0   Section        0  board_stm32h730_general.o(.text.HAL_SDRAM_MspInit)
    [Anonymous Symbol]                       0x90008d20   Section        0  stm32h7xx_hal_sdram.o(.text.HAL_SDRAM_ProgramRefreshRate)
    [Anonymous Symbol]                       0x90008d50   Section        0  stm32h7xx_hal_sdram.o(.text.HAL_SDRAM_SendCommand)
    [Anonymous Symbol]                       0x90008d98   Section        0  stm32h7xx_hal_tim_ex.o(.text.HAL_TIMEx_Break2Callback)
    [Anonymous Symbol]                       0x90008da0   Section        0  stm32h7xx_hal_tim_ex.o(.text.HAL_TIMEx_BreakCallback)
    [Anonymous Symbol]                       0x90008da8   Section        0  stm32h7xx_hal_tim_ex.o(.text.HAL_TIMEx_CommutCallback)
    [Anonymous Symbol]                       0x90008db0   Section        0  stm32h7xx_hal_tim_ex.o(.text.HAL_TIMEx_ConfigBreakDeadTime)
    [Anonymous Symbol]                       0x90008e68   Section        0  stm32h7xx_hal_tim_ex.o(.text.HAL_TIMEx_MasterConfigSynchronization)
    [Anonymous Symbol]                       0x90008f48   Section        0  stm32h7xx_hal_tim_ex.o(.text.HAL_TIMEx_PWMN_Start)
    [Anonymous Symbol]                       0x90009070   Section        0  stm32h7xx_hal_tim.o(.text.HAL_TIM_Base_Init)
    [Anonymous Symbol]                       0x900090d0   Section        0  board_stm32h730_general.o(.text.HAL_TIM_Base_MspInit)
    [Anonymous Symbol]                       0x90009108   Section        0  stm32h7xx_hal_tim.o(.text.HAL_TIM_Base_Start_IT)
    [Anonymous Symbol]                       0x900091d0   Section        0  stm32h7xx_hal_tim.o(.text.HAL_TIM_ConfigClockSource)
    [Anonymous Symbol]                       0x900093c0   Section        0  stm32h7xx_hal_tim.o(.text.HAL_TIM_IC_CaptureCallback)
    [Anonymous Symbol]                       0x900093c8   Section        0  stm32h7xx_hal_tim.o(.text.HAL_TIM_IRQHandler)
    [Anonymous Symbol]                       0x90009550   Section        0  stm32h7xx_hal_tim.o(.text.HAL_TIM_OC_DelayElapsedCallback)
    [Anonymous Symbol]                       0x90009558   Section        0  stm32h7xx_hal_tim.o(.text.HAL_TIM_PWM_ConfigChannel)
    [Anonymous Symbol]                       0x90009a00   Section        0  stm32h7xx_hal_tim.o(.text.HAL_TIM_PWM_Init)
    [Anonymous Symbol]                       0x90009a60   Section        0  stm32h7xx_hal_tim.o(.text.HAL_TIM_PWM_MspInit)
    [Anonymous Symbol]                       0x90009a68   Section        0  stm32h7xx_hal_tim.o(.text.HAL_TIM_PWM_PulseFinishedCallback)
    [Anonymous Symbol]                       0x90009a70   Section        0  main.o(.text.HAL_TIM_PeriodElapsedCallback)
    [Anonymous Symbol]                       0x90009a88   Section        0  stm32h7xx_hal_tim.o(.text.HAL_TIM_TriggerCallback)
    [Anonymous Symbol]                       0x90009a90   Section        0  stm32h7xx_hal_uart_ex.o(.text.HAL_UARTEx_DisableFifoMode)
    [Anonymous Symbol]                       0x90009ac8   Section        0  stm32h7xx_hal_uart.o(.text.HAL_UARTEx_RxEventCallback)
    [Anonymous Symbol]                       0x90009ad0   Section        0  stm32h7xx_hal_uart_ex.o(.text.HAL_UARTEx_RxFifoFullCallback)
    [Anonymous Symbol]                       0x90009ad8   Section        0  stm32h7xx_hal_uart_ex.o(.text.HAL_UARTEx_SetRxFifoThreshold)
    [Anonymous Symbol]                       0x90009b68   Section        0  stm32h7xx_hal_uart_ex.o(.text.HAL_UARTEx_SetTxFifoThreshold)
    [Anonymous Symbol]                       0x90009bf8   Section        0  stm32h7xx_hal_uart_ex.o(.text.HAL_UARTEx_TxFifoEmptyCallback)
    [Anonymous Symbol]                       0x90009c00   Section        0  stm32h7xx_hal_uart_ex.o(.text.HAL_UARTEx_WakeupCallback)
    [Anonymous Symbol]                       0x90009c08   Section        0  stm32h7xx_hal_uart.o(.text.HAL_UART_DMAStop)
    [Anonymous Symbol]                       0x90009ed0   Section        0  stm32h7xx_hal_uart.o(.text.HAL_UART_DeInit)
    [Anonymous Symbol]                       0x90009f10   Section        0  serial.o(.text.HAL_UART_ErrorCallback)
    [Anonymous Symbol]                       0x90009f90   Section        0  stm32h7xx_hal_uart.o(.text.HAL_UART_IRQHandler)
    [Anonymous Symbol]                       0x9000a5f8   Section        0  stm32h7xx_hal_uart.o(.text.HAL_UART_Init)
    [Anonymous Symbol]                       0x9000a6c0   Section        0  board_stm32h730_general.o(.text.HAL_UART_MspDeInit)
    [Anonymous Symbol]                       0x9000a738   Section        0  board_stm32h730_general.o(.text.HAL_UART_MspInit)
    [Anonymous Symbol]                       0x9000a8d0   Section        0  stm32h7xx_hal_uart.o(.text.HAL_UART_Receive_DMA)
    [Anonymous Symbol]                       0x9000aad8   Section        0  serial.o(.text.HAL_UART_RxCpltCallback)
    [Anonymous Symbol]                       0x9000ab18   Section        0  stm32h7xx_hal_uart.o(.text.HAL_UART_RxHalfCpltCallback)
    [Anonymous Symbol]                       0x9000ab20   Section        0  stm32h7xx_hal_uart.o(.text.HAL_UART_Transmit)
    [Anonymous Symbol]                       0x9000ac00   Section        0  serial.o(.text.HAL_UART_TxCpltCallback)
    I2C_IsErrorOccurred                      0x9000ac09   Thumb Code   338  stm32h7xx_hal_i2c.o(.text.I2C_IsErrorOccurred)
    [Anonymous Symbol]                       0x9000ac08   Section        0  stm32h7xx_hal_i2c.o(.text.I2C_IsErrorOccurred)
    I2C_RequestMemoryRead                    0x9000ad61   Thumb Code   218  stm32h7xx_hal_i2c.o(.text.I2C_RequestMemoryRead)
    [Anonymous Symbol]                       0x9000ad60   Section        0  stm32h7xx_hal_i2c.o(.text.I2C_RequestMemoryRead)
    I2C_WaitOnTXISFlagUntilTimeout           0x9000ae41   Thumb Code   134  stm32h7xx_hal_i2c.o(.text.I2C_WaitOnTXISFlagUntilTimeout)
    [Anonymous Symbol]                       0x9000ae40   Section        0  stm32h7xx_hal_i2c.o(.text.I2C_WaitOnTXISFlagUntilTimeout)
    [Anonymous Symbol]                       0x9000aec8   Section        0  input.o(.text.Input_DetecTask)
    [Anonymous Symbol]                       0x9000afc8   Section        0  input.o(.text.Input_Init)
    [Anonymous Symbol]                       0x9000b070   Section        0  input.o(.text.Input_InserData)
    [Anonymous Symbol]                       0x9000b0b8   Section        0  instructions.o(.text.Instruct_Init)
    Instruct_Parse                           0x9000b0f9   Thumb Code   276  instructions.o(.text.Instruct_Parse)
    [Anonymous Symbol]                       0x9000b0f8   Section        0  instructions.o(.text.Instruct_Parse)
    Instruct_Send                            0x9000b211   Thumb Code    12  instructions.o(.text.Instruct_Send)
    [Anonymous Symbol]                       0x9000b210   Section        0  instructions.o(.text.Instruct_Send)
    [Anonymous Symbol]                       0x9000b220   Section        0  displaydriver.o(.text.LTDC_ER_IRQHandler)
    [Anonymous Symbol]                       0x9000b230   Section        0  displaydriver.o(.text.LTDC_IRQHandler)
    [Anonymous Symbol]                       0x9000b240   Section        0  displaydriver.o(.text.LTDC_Init)
    LTDC_SetConfig                           0x9000b341   Thumb Code   292  stm32h7xx_hal_ltdc.o(.text.LTDC_SetConfig)
    [Anonymous Symbol]                       0x9000b340   Section        0  stm32h7xx_hal_ltdc.o(.text.LTDC_SetConfig)
    Lcd_DrawBitmap                           0x9000b469   Thumb Code   384  displaydriver.o(.text.Lcd_DrawBitmap)
    [Anonymous Symbol]                       0x9000b468   Section        0  displaydriver.o(.text.Lcd_DrawBitmap)
    Lcd_DrawPoint                            0x9000b5e9   Thumb Code   124  displaydriver.o(.text.Lcd_DrawPoint)
    [Anonymous Symbol]                       0x9000b5e8   Section        0  displaydriver.o(.text.Lcd_DrawPoint)
    [Anonymous Symbol]                       0x9000b668   Section        0  lcd_hdtr070_1024x600_tsd.o(.text.Lcd_Drive_Init)
    Lcd_FillColor                            0x9000b671   Thumb Code   364  displaydriver.o(.text.Lcd_FillColor)
    [Anonymous Symbol]                       0x9000b670   Section        0  displaydriver.o(.text.Lcd_FillColor)
    Lcd_GetFrameBuf                          0x9000b7e1   Thumb Code     8  displaydriver.o(.text.Lcd_GetFrameBuf)
    [Anonymous Symbol]                       0x9000b7e0   Section        0  displaydriver.o(.text.Lcd_GetFrameBuf)
    Lcd_Init                                 0x9000b7e9   Thumb Code   724  displaydriver.o(.text.Lcd_Init)
    [Anonymous Symbol]                       0x9000b7e8   Section        0  displaydriver.o(.text.Lcd_Init)
    Lcd_IsTransmitting                       0x9000bac1   Thumb Code    20  displaydriver.o(.text.Lcd_IsTransmitting)
    [Anonymous Symbol]                       0x9000bac0   Section        0  displaydriver.o(.text.Lcd_IsTransmitting)
    Lcd_Off                                  0x9000bad9   Thumb Code     6  displaydriver.o(.text.Lcd_Off)
    [Anonymous Symbol]                       0x9000bad8   Section        0  displaydriver.o(.text.Lcd_Off)
    Lcd_On                                   0x9000bae1   Thumb Code     6  displaydriver.o(.text.Lcd_On)
    [Anonymous Symbol]                       0x9000bae0   Section        0  displaydriver.o(.text.Lcd_On)
    Lcd_SetBacklight                         0x9000bae9   Thumb Code    10  displaydriver.o(.text.Lcd_SetBacklight)
    [Anonymous Symbol]                       0x9000bae8   Section        0  displaydriver.o(.text.Lcd_SetBacklight)
    [Anonymous Symbol]                       0x9000baf8   Section        0  app_threadx.o(.text.MX_ThreadX_Init)
    [Anonymous Symbol]                       0x9000bb00   Section        0  stm32h7xx_it.o(.text.MemManage_Handler)
    [Anonymous Symbol]                       0x9000bb18   Section        0  stm32h7xx_it.o(.text.NMI_Handler)
    [Anonymous Symbol]                       0x9000bb30   Section        0  osal_event.o(.text.OSAL_EventCreate)
    [Anonymous Symbol]                       0x9000bb48   Section        0  osal_event.o(.text.OSAL_EventGet)
    [Anonymous Symbol]                       0x9000bb68   Section        0  osal_event.o(.text.OSAL_EventSet)
    [Anonymous Symbol]                       0x9000bb78   Section        0  osal_mutex.o(.text.OSAL_MutexCreate)
    [Anonymous Symbol]                       0x9000bb90   Section        0  osal_mutex.o(.text.OSAL_MutexGet)
    [Anonymous Symbol]                       0x9000bba0   Section        0  osal_mutex.o(.text.OSAL_MutexPut)
    [Anonymous Symbol]                       0x9000bbb0   Section        0  osal_swtmr.o(.text.OSAL_SwTmrCreate)
    [Anonymous Symbol]                       0x9000bbe0   Section        0  osal_task.o(.text.OSAL_TaskCreate)
    [Anonymous Symbol]                       0x9000bc18   Section        0  osal.o(.text.OS_Delay)
    [Anonymous Symbol]                       0x9000bc40   Section        0  protocol_hdsmart.o(.text.Protocol_HDsmartAnalysis)
    [Anonymous Symbol]                       0x9000bdf8   Section        0  protocol_hdsmart.o(.text.Protocol_HDsmartConfigFrame)
    [Anonymous Symbol]                       0x9000bea0   Section        0  protocol_hdsmart.o(.text.Protocol_HDsmartConfigResFrame)
    [Anonymous Symbol]                       0x9000bf38   Section        0  protocol_hdsmart.o(.text.Protocol_HDsmartIdleFrame)
    Protocol_Idle                            0x9000bf79   Thumb Code    58  protocol.o(.text.Protocol_Idle)
    [Anonymous Symbol]                       0x9000bf78   Section        0  protocol.o(.text.Protocol_Idle)
    [Anonymous Symbol]                       0x9000bfb8   Section        0  protocol.o(.text.Protocol_Init)
    [Anonymous Symbol]                       0x9000c038   Section        0  protocol.o(.text.Protocol_ParseCallRegister)
    [Anonymous Symbol]                       0x9000c048   Section        0  protocol.o(.text.Protocol_Process)
    [Anonymous Symbol]                       0x9000c0d8   Section        0  protocol.o(.text.Protocol_SendCallRegister)
    [Anonymous Symbol]                       0x9000c0e8   Section        0  protocol.o(.text.Protocol_SendFrame)
    [Anonymous Symbol]                       0x9000c170   Section        0  protocol.o(.text.Protocol_SendRespFrame)
    RCCEx_PLL2_Config                        0x9000c1e9   Thumb Code   286  stm32h7xx_hal_rcc_ex.o(.text.RCCEx_PLL2_Config)
    [Anonymous Symbol]                       0x9000c1e8   Section        0  stm32h7xx_hal_rcc_ex.o(.text.RCCEx_PLL2_Config)
    RCCEx_PLL3_Config                        0x9000c309   Thumb Code   286  stm32h7xx_hal_rcc_ex.o(.text.RCCEx_PLL3_Config)
    [Anonymous Symbol]                       0x9000c308   Section        0  stm32h7xx_hal_rcc_ex.o(.text.RCCEx_PLL3_Config)
    [Anonymous Symbol]                       0x9000c428   Section        0  stm32h7xx_hal_rng.o(.text.RNG_RecoverSeedError)
    [Anonymous Symbol]                       0x9000c518   Section        0  stm32h7xx_hal_rtc.o(.text.RTC_ExitInitMode)
    [Anonymous Symbol]                       0x9000c5b0   Section        0  bsp.o(.text.RTC_WKUP_IRQHandler)
    [Anonymous Symbol]                       0x9000c5c0   Section        0  response.o(.text.Response_Init)
    [Anonymous Symbol]                       0x9000c658   Section        0  response.o(.text.Response_Inser)
    Response_Process                         0x9000c731   Thumb Code   284  response.o(.text.Response_Process)
    [Anonymous Symbol]                       0x9000c730   Section        0  response.o(.text.Response_Process)
    [Anonymous Symbol]                       0x9000c850   Section        0  serial.o(.text.Serial_Init)
    [Anonymous Symbol]                       0x9000c910   Section        0  serial.o(.text.Serial_SendArray)
    [Anonymous Symbol]                       0x9000c998   Section        0  swtmr.o(.text.SwTmr_Create)
    [Anonymous Symbol]                       0x9000ca50   Section        0  swtmr.o(.text.SwTmr_Init)
    [Anonymous Symbol]                       0x9000cab8   Section        0  swtmr.o(.text.SwTmr_Process)
    [Anonymous Symbol]                       0x9000cc18   Section        0  swtmr.o(.text.SwTmr_Skip)
    [Anonymous Symbol]                       0x9000cc48   Section        0  system.o(.text.SystemClockDiff)
    [Anonymous Symbol]                       0x9000cc58   Section        0  board_stm32h730_general.o(.text.SystemClock_Config)
    [Anonymous Symbol]                       0x9000cd40   Section        0  system_stm32h7xx.o(.text.SystemInit)
    [Anonymous Symbol]                       0x9000cdf0   Section        0  system.o(.text.System_ErrorHandle)
    [Anonymous Symbol]                       0x9000ce30   Section        0  system.o(.text.System_HardFaultException)
    [Anonymous Symbol]                       0x9000d018   Section        0  system.o(.text.System_Init)
    [Anonymous Symbol]                       0x9000d1c8   Section        0  system.o(.text.System_MemSet)
    [Anonymous Symbol]                       0x9000d1e0   Section        0  system.o(.text.System_ParamInit)
    [Anonymous Symbol]                       0x9000d200   Section        0  stm32h7xx_it.o(.text.TIM6_DAC_IRQHandler)
    [Anonymous Symbol]                       0x9000d210   Section        0  stm32h7xx_hal_tim.o(.text.TIM_Base_SetConfig)
    [Anonymous Symbol]                       0x9000d380   Section        0  multitask.o(.text.Task_Process)
    [Anonymous Symbol]                       0x9000d398   Section        0  touchscreen.o(.text.TouchScreen_Init)
    [Anonymous Symbol]                       0x9000d418   Section        0  touchscreen.o(.text.TouchScreen_Read)
    [Anonymous Symbol]                       0x9000d488   Section        0  ft5336.o(.text.Touch_Init)
    [Anonymous Symbol]                       0x9000d490   Section        0  ft5336.o(.text.Touch_ReadCoord)
    [Anonymous Symbol]                       0x9000d4b0   Section        0  ft5336.o(.text.Touch_ReadID)
    [Anonymous Symbol]                       0x9000d520   Section        0  ft5336.o(.text.Touch_ReadVersion)
    [Anonymous Symbol]                       0x9000d528   Section        0  ft5336.o(.text.Touch_Reset)
    [Anonymous Symbol]                       0x9000d560   Section        0  stm32h7xx_hal_uart.o(.text.UART_AdvFeatureConfig)
    UART_DMAAbortOnError                     0x9000d641   Thumb Code    16  stm32h7xx_hal_uart.o(.text.UART_DMAAbortOnError)
    [Anonymous Symbol]                       0x9000d640   Section        0  stm32h7xx_hal_uart.o(.text.UART_DMAAbortOnError)
    UART_DMAError                            0x9000d651   Thumb Code   532  stm32h7xx_hal_uart.o(.text.UART_DMAError)
    [Anonymous Symbol]                       0x9000d650   Section        0  stm32h7xx_hal_uart.o(.text.UART_DMAError)
    UART_DMAReceiveCplt                      0x9000d869   Thumb Code   374  stm32h7xx_hal_uart.o(.text.UART_DMAReceiveCplt)
    [Anonymous Symbol]                       0x9000d868   Section        0  stm32h7xx_hal_uart.o(.text.UART_DMAReceiveCplt)
    UART_DMARxHalfCplt                       0x9000d9e1   Thumb Code    22  stm32h7xx_hal_uart.o(.text.UART_DMARxHalfCplt)
    [Anonymous Symbol]                       0x9000d9e0   Section        0  stm32h7xx_hal_uart.o(.text.UART_DMARxHalfCplt)
    [Anonymous Symbol]                       0x9000d9f8   Section        0  stm32h7xx_hal_uart.o(.text.UART_SetConfig)
    [Anonymous Symbol]                       0x9000e018   Section        0  stm32h7xx_hal_uart.o(.text.UART_WaitOnFlagUntilTimeout)
    [Anonymous Symbol]                       0x9000e240   Section        0  stm32h7xx_it.o(.text.USART10_IRQHandler)
    [Anonymous Symbol]                       0x9000e250   Section        0  stm32h7xx_it.o(.text.UsageFault_Handler)
    [Anonymous Symbol]                       0x9000e268   Section        0  verify.o(.text.Verify_CalLRC)
    [Anonymous Symbol]                       0x9000e2d0   Section        0  verify.o(.text.Verify_CrcCheck)
    [Anonymous Symbol]                       0x9000e338   Section        0  tx_byte_pool_create.o(.text._tx_byte_pool_create)
    [Anonymous Symbol]                       0x9000e3c8   Section        0  tx_event_flags_cleanup.o(.text._tx_event_flags_cleanup)
    [Anonymous Symbol]                       0x9000e468   Section        0  tx_event_flags_create.o(.text._tx_event_flags_create)
    [Anonymous Symbol]                       0x9000e4c0   Section        0  tx_event_flags_get.o(.text._tx_event_flags_get)
    [Anonymous Symbol]                       0x9000e5b8   Section        0  tx_event_flags_set.o(.text._tx_event_flags_set)
    [Anonymous Symbol]                       0x9000e7e8   Section        0  tx_initialize_high_level.o(.text._tx_initialize_high_level)
    [Anonymous Symbol]                       0x9000e818   Section        0  tx_initialize_kernel_enter.o(.text._tx_initialize_kernel_enter)
    [Anonymous Symbol]                       0x9000e868   Section        0  tx_mutex_cleanup.o(.text._tx_mutex_cleanup)
    [Anonymous Symbol]                       0x9000e900   Section        0  tx_mutex_create.o(.text._tx_mutex_create)
    [Anonymous Symbol]                       0x9000e970   Section        0  tx_mutex_get.o(.text._tx_mutex_get)
    [Anonymous Symbol]                       0x9000ea90   Section        0  tx_mutex_prioritize.o(.text._tx_mutex_prioritize)
    [Anonymous Symbol]                       0x9000eb50   Section        0  tx_mutex_priority_change.o(.text._tx_mutex_priority_change)
    [Anonymous Symbol]                       0x9000ec30   Section        0  tx_mutex_put.o(.text._tx_mutex_put)
    [Anonymous Symbol]                       0x9000ee60   Section        0  tx_mutex_cleanup.o(.text._tx_mutex_thread_release)
    [Anonymous Symbol]                       0x9000eea8   Section        0  tx_thread_create.o(.text._tx_thread_create)
    [Anonymous Symbol]                       0x9000efe0   Section        0  tx_thread_initialize.o(.text._tx_thread_initialize)
    [Anonymous Symbol]                       0x9000f018   Section        0  tx_thread_shell_entry.o(.text._tx_thread_shell_entry)
    [Anonymous Symbol]                       0x9000f078   Section        0  tx_thread_sleep.o(.text._tx_thread_sleep)
    [Anonymous Symbol]                       0x9000f108   Section        0  tx_thread_system_preempt_check.o(.text._tx_thread_system_preempt_check)
    [Anonymous Symbol]                       0x9000f158   Section        0  tx_thread_system_resume.o(.text._tx_thread_system_resume)
    [Anonymous Symbol]                       0x9000f288   Section        0  tx_thread_system_suspend.o(.text._tx_thread_system_suspend)
    [Anonymous Symbol]                       0x9000f410   Section        0  tx_thread_time_slice.o(.text._tx_thread_time_slice)
    [Anonymous Symbol]                       0x9000f480   Section        0  tx_thread_timeout.o(.text._tx_thread_timeout)
    [Anonymous Symbol]                       0x9000f4b8   Section        0  tx_timer_create.o(.text._tx_timer_create)
    [Anonymous Symbol]                       0x9000f538   Section        0  tx_timer_expiration_process.o(.text._tx_timer_expiration_process)
    [Anonymous Symbol]                       0x9000f560   Section        0  tx_timer_initialize.o(.text._tx_timer_initialize)
    [Anonymous Symbol]                       0x9000f620   Section        0  tx_timer_system_activate.o(.text._tx_timer_system_activate)
    [Anonymous Symbol]                       0x9000f680   Section        0  tx_timer_system_deactivate.o(.text._tx_timer_system_deactivate)
    [Anonymous Symbol]                       0x9000f6c0   Section        0  tx_timer_thread_entry.o(.text._tx_timer_thread_entry)
    [Anonymous Symbol]                       0x9000f808   Section        0  txe_byte_pool_create.o(.text._txe_byte_pool_create)
    [Anonymous Symbol]                       0x9000f960   Section        0  txe_event_flags_create.o(.text._txe_event_flags_create)
    [Anonymous Symbol]                       0x9000fa90   Section        0  txe_event_flags_get.o(.text._txe_event_flags_get)
    [Anonymous Symbol]                       0x9000fb40   Section        0  txe_event_flags_set.o(.text._txe_event_flags_set)
    [Anonymous Symbol]                       0x9000fb68   Section        0  txe_mutex_create.o(.text._txe_mutex_create)
    [Anonymous Symbol]                       0x9000fca0   Section        0  txe_mutex_get.o(.text._txe_mutex_get)
    [Anonymous Symbol]                       0x9000fd18   Section        0  txe_mutex_put.o(.text._txe_mutex_put)
    [Anonymous Symbol]                       0x9000fd58   Section        0  txe_thread_create.o(.text._txe_thread_create)
    [Anonymous Symbol]                       0x9000fed8   Section        0  txe_timer_create.o(.text._txe_timer_create)
    [Anonymous Symbol]                       0x90010030   Section        0  main.o(.text.main)
    [Anonymous Symbol]                       0x90010170   Section        0  app_azure_rtos.o(.text.tx_application_define)
    CL$$btod_d2e                             0x900101c4   Section       62  btod.o(CL$$btod_d2e)
    CL$$btod_d2e_denorm_low                  0x90010202   Section       70  btod.o(CL$$btod_d2e_denorm_low)
    CL$$btod_d2e_norm_op1                    0x90010248   Section       96  btod.o(CL$$btod_d2e_norm_op1)
    CL$$btod_div_common                      0x900102a8   Section      824  btod.o(CL$$btod_div_common)
    CL$$btod_e2e                             0x900105e0   Section      220  btod.o(CL$$btod_e2e)
    CL$$btod_ediv                            0x900106bc   Section       42  btod.o(CL$$btod_ediv)
    CL$$btod_emul                            0x900106e6   Section       42  btod.o(CL$$btod_emul)
    CL$$btod_mult_common                     0x90010710   Section      580  btod.o(CL$$btod_mult_common)
    i.__ARM_fpclassify                       0x9001095e   Section        0  fpclassify.o(i.__ARM_fpclassify)
    i._is_digit                              0x9001098e   Section        0  __printf_wp.o(i._is_digit)
    locale$$code                             0x9001099c   Section       44  lc_numeric_c.o(locale$$code)
    locale$$code                             0x900109c8   Section       44  lc_ctype_c.o(locale$$code)
    $v0                                      0x900109f4   Number         0  fpinit.o(x$fpl$fpinit)
    x$fpl$fpinit                             0x900109f4   Section       26  fpinit.o(x$fpl$fpinit)
    $v0                                      0x90010a0e   Number         0  printf1.o(x$fpl$printf1)
    x$fpl$printf1                            0x90010a0e   Section        4  printf1.o(x$fpl$printf1)
    $v0                                      0x90010a12   Number         0  printf2.o(x$fpl$printf2)
    x$fpl$printf2                            0x90010a12   Section        4  printf2.o(x$fpl$printf2)
    maptable                                 0x90010a16   Data          17  __printf_flags_ss_wp.o(.constdata)
    .constdata                               0x90010a16   Section       17  __printf_flags_ss_wp.o(.constdata)
    x$fpl$usenofp                            0x90010a16   Section        0  usenofp.o(x$fpl$usenofp)
    initial_mbstate                          0x90010a28   Data           8  _printf_wctomb.o(.constdata)
    .constdata                               0x90010a28   Section        8  _printf_wctomb.o(.constdata)
    uc_hextab                                0x90010a30   Data          20  _printf_hex_int_ll_ptr.o(.constdata)
    .constdata                               0x90010a30   Section       40  _printf_hex_int_ll_ptr.o(.constdata)
    lc_hextab                                0x90010a44   Data          20  _printf_hex_int_ll_ptr.o(.constdata)
    lc_hextab                                0x90010a58   Data          19  _printf_fp_hex.o(.constdata)
    .constdata                               0x90010a58   Section       38  _printf_fp_hex.o(.constdata)
    uc_hextab                                0x90010a6b   Data          19  _printf_fp_hex.o(.constdata)
    tenpwrs_x                                0x90010a80   Data          60  bigflt0.o(.constdata)
    .constdata                               0x90010a80   Section      148  bigflt0.o(.constdata)
    tenpwrs_i                                0x90010abc   Data          64  bigflt0.o(.constdata)
    .L__const.App_TestFunc.uiColor           0x90010b14   Data          20  apptest.o(.rodata..L__const.App_TestFunc.uiColor)
    .Lswitch.table.HAL_LTDC_SetPitch_NoReload 0x90010b50   Data          32  stm32h7xx_hal_ltdc.o(.rodata.cst32)
    DMA_CalcBaseAndBitshift.flagBitshiftOffset 0x90010b70   Data           8  stm32h7xx_hal_dma.o(.rodata.cst8)
    UARTEx_SetNbDataToProcess.numerator      0x90010b78   Data           8  stm32h7xx_hal_uart_ex.o(.rodata.cst8)
    UARTEx_SetNbDataToProcess.denominator    0x90010b80   Data           8  stm32h7xx_hal_uart_ex.o(.rodata.cst8)
    .L.str                                   0x90010b88   Data          27  stm32h7xx_it.o(.rodata.str1.1)
    [Anonymous Symbol]                       0x90010b88   Section        0  stm32h7xx_it.o(.rodata.str1.1)
    .L.str.1                                 0x90010ba3   Data          26  debug.o(.rodata.str1.1)
    [Anonymous Symbol]                       0x90010ba3   Section        0  debug.o(.rodata.str1.1)
    .L.str                                   0x90010bbd   Data          29  debug.o(.rodata.str1.1)
    .L.str.9                                 0x90010bda   Data           4  debug.o(.rodata.str1.1)
    .L.str.14                                0x90010bde   Data           6  debug.o(.rodata.str1.1)
    .L.str.10                                0x90010be4   Data           7  debug.o(.rodata.str1.1)
    .L.str.12                                0x90010beb   Data           5  debug.o(.rodata.str1.1)
    .L.str.13                                0x90010bf0   Data           5  debug.o(.rodata.str1.1)
    .L.str.11                                0x90010bf5   Data           6  debug.o(.rodata.str1.1)
    .L.str.4                                 0x90010bfb   Data           6  debug.o(.rodata.str1.1)
    .L.str.6                                 0x90010c01   Data           6  debug.o(.rodata.str1.1)
    .L.str.8                                 0x90010c07   Data           6  debug.o(.rodata.str1.1)
    .L.str.7                                 0x90010c0d   Data           6  debug.o(.rodata.str1.1)
    .L.str.5                                 0x90010c13   Data           6  debug.o(.rodata.str1.1)
    .L.str.1                                 0x90010c19   Data          39  input.o(.rodata.str1.1)
    [Anonymous Symbol]                       0x90010c19   Section        0  input.o(.rodata.str1.1)
    .L.str.2                                 0x90010c40   Data          36  input.o(.rodata.str1.1)
    .L.str                                   0x90010c64   Data          20  multitask.o(.rodata.str1.1)
    [Anonymous Symbol]                       0x90010c64   Section        0  multitask.o(.rodata.str1.1)
    .L.str.2                                 0x90010c78   Data          13  multitask.o(.rodata.str1.1)
    .L.str.3                                 0x90010c85   Data          12  multitask.o(.rodata.str1.1)
    .L.str.1                                 0x90010c91   Data          17  multitask.o(.rodata.str1.1)
    .L.str.6                                 0x90010ca2   Data          22  system.o(.rodata.str1.1)
    [Anonymous Symbol]                       0x90010ca2   Section        0  system.o(.rodata.str1.1)
    .L.str.8                                 0x90010cb8   Data          22  system.o(.rodata.str1.1)
    .L.str.4                                 0x90010cce   Data          17  system.o(.rodata.str1.1)
    .L.str.3                                 0x90010cdf   Data          55  system.o(.rodata.str1.1)
    .L.str.2                                 0x90010d16   Data          55  system.o(.rodata.str1.1)
    .L.str.37                                0x90010d4d   Data          45  system.o(.rodata.str1.1)
    .L.str.19                                0x90010d7a   Data          14  system.o(.rodata.str1.1)
    .L.str.20                                0x90010d88   Data          14  system.o(.rodata.str1.1)
    .L.str.21                                0x90010d96   Data          14  system.o(.rodata.str1.1)
    .L.str.22                                0x90010da4   Data          14  system.o(.rodata.str1.1)
    .L.str.23                                0x90010db2   Data          14  system.o(.rodata.str1.1)
    .L.str.24                                0x90010dc0   Data          14  system.o(.rodata.str1.1)
    .L.str.18                                0x90010dce   Data          14  system.o(.rodata.str1.1)
    .L.str.36                                0x90010dd9   Data           3  system.o(.rodata.str1.1)
    .L.str.7                                 0x90010ddc   Data           7  system.o(.rodata.str1.1)
    .L.str.4                                 0x90010de3   Data          14  bsp.o(.rodata.str1.1)
    [Anonymous Symbol]                       0x90010de3   Section        0  bsp.o(.rodata.str1.1)
    .L.str.3                                 0x90010df1   Data          14  bsp.o(.rodata.str1.1)
    .L.str.2                                 0x90010dff   Data          14  bsp.o(.rodata.str1.1)
    .L.str                                   0x90010e0d   Data          19  bsp.o(.rodata.str1.1)
    .L.str                                   0x90010e20   Data          29  displaydriver.o(.rodata.str1.1)
    [Anonymous Symbol]                       0x90010e20   Section        0  displaydriver.o(.rodata.str1.1)
    .L.str                                   0x90010e3d   Data           7  serial.o(.rodata.str1.1)
    .L.str                                   0x90010e3d   Data           7  serial.o(.rodata.str1.1)
    .L.str.1                                 0x90010e3d   Data           7  serial.o(.rodata.str1.1)
    .L.str.2                                 0x90010e3d   Data           7  serial.o(.rodata.str1.1)
    [Anonymous Symbol]                       0x90010e3d   Section        0  serial.o(.rodata.str1.1)
    .L.str.1                                 0x90010e44   Data          22  serial.o(.rodata.str1.1)
    .L.str.2                                 0x90010e5a   Data          16  ft5336.o(.rodata.str1.1)
    [Anonymous Symbol]                       0x90010e5a   Section        0  ft5336.o(.rodata.str1.1)
    .L.str.1                                 0x90010e6a   Data          40  ft5336.o(.rodata.str1.1)
    .L.str.4                                 0x90010e92   Data          17  protocol.o(.rodata.str1.1)
    [Anonymous Symbol]                       0x90010e92   Section        0  protocol.o(.rodata.str1.1)
    .L.str                                   0x90010ea3   Data          29  protocol.o(.rodata.str1.1)
    .L.str.2                                 0x90010ec0   Data          44  protocol_hdsmart.o(.rodata.str1.1)
    [Anonymous Symbol]                       0x90010ec0   Section        0  protocol_hdsmart.o(.rodata.str1.1)
    .L.str                                   0x90010eec   Data          41  board_stm32h730_general.o(.rodata.str1.1)
    [Anonymous Symbol]                       0x90010eec   Section        0  board_stm32h730_general.o(.rodata.str1.1)
    .L.str                                   0x90010f15   Data           9  application.o(.rodata.str1.1)
    [Anonymous Symbol]                       0x90010f15   Section        0  application.o(.rodata.str1.1)
    .L.str                                   0x90010f1e   Data          20  tx_timer_initialize.o(.rodata.str1.1)
    [Anonymous Symbol]                       0x90010f1e   Section        0  tx_timer_initialize.o(.rodata.str1.1)
    locale$$data                             0x90011cc0   Section       28  lc_numeric_c.o(locale$$data)
    __lcnum_c_name                           0x90011cc4   Data           2  lc_numeric_c.o(locale$$data)
    __lcnum_c_start                          0x90011ccc   Data           0  lc_numeric_c.o(locale$$data)
    __lcnum_c_point                          0x90011cd8   Data           0  lc_numeric_c.o(locale$$data)
    __lcnum_c_thousands                      0x90011cda   Data           0  lc_numeric_c.o(locale$$data)
    __lcnum_c_grouping                       0x90011cdb   Data           0  lc_numeric_c.o(locale$$data)
    __lcnum_c_end                            0x90011cdc   Data           0  lc_numeric_c.o(locale$$data)
    locale$$data                             0x90011cdc   Section      272  lc_ctype_c.o(locale$$data)
    __lcctype_c_name                         0x90011ce0   Data           2  lc_ctype_c.o(locale$$data)
    __lcctype_c_start                        0x90011ce8   Data           0  lc_ctype_c.o(locale$$data)
    __lcctype_c_end                          0x90011dec   Data           0  lc_ctype_c.o(locale$$data)

    Global Symbols

    Symbol Name                              Value     Ov Type        Size  Object(Section)

    BuildAttributes$$THM_ISAv4$E$P$D$K$B$S$7EM$VFPv5_D16$PE$PLD8$A:L22UL41UL21$X:L11$S22US41US21$IEEE1$IW$~IW$USESV6$~STKCKD$USESV7$~SHL$OTIME$ROPI$IEEEJ$EBA8$UX$STANDARDLIB$REQ8$EABIv2 0x00000000   Number         0  anon$$obj.o ABSOLUTE
    _printf_flags                            0x00000000   Number         0  printf_stubs.o ABSOLUTE
    _printf_return_value                     0x00000000   Number         0  printf_stubs.o ABSOLUTE
    _printf_sizespec                         0x00000000   Number         0  printf_stubs.o ABSOLUTE
    _printf_widthprec                        0x00000000   Number         0  printf_stubs.o ABSOLUTE
    __ARM_exceptions_init                     - Undefined Weak Reference
    __alloca_initialize                       - Undefined Weak Reference
    __arm_preinit_                            - Undefined Weak Reference
    __cpp_initialize__aeabi_                  - Undefined Weak Reference
    __cxa_finalize                            - Undefined Weak Reference
    __sigvec_lookup                           - Undefined Weak Reference
    _atexit_init                              - Undefined Weak Reference
    _call_atexit_fns                          - Undefined Weak Reference
    _clock_init                               - Undefined Weak Reference
    _fp_trap_init                             - Undefined Weak Reference
    _fp_trap_shutdown                         - Undefined Weak Reference
    _get_lc_collate                           - Undefined Weak Reference
    _get_lc_monetary                          - Undefined Weak Reference
    _get_lc_time                              - Undefined Weak Reference
    _getenv_init                              - Undefined Weak Reference
    _handle_redirection                       - Undefined Weak Reference
    _init_alloc                               - Undefined Weak Reference
    _init_user_alloc                          - Undefined Weak Reference
    _initio                                   - Undefined Weak Reference
    _printf_mbtowc                            - Undefined Weak Reference
    _printf_wc                                - Undefined Weak Reference
    _rand_init                                - Undefined Weak Reference
    _signal_finish                            - Undefined Weak Reference
    _signal_init                              - Undefined Weak Reference
    _terminate_alloc                          - Undefined Weak Reference
    _terminate_user_alloc                     - Undefined Weak Reference
    _terminateio                              - Undefined Weak Reference
    Debug_Printf                             0x00000009   Thumb Code   308  debug.o(ITCM)
    AppGUITask                               0x0000013d   Thumb Code    44  application.o(ITCM)
    App_TestFunc                             0x00000169   Thumb Code   216  apptest.o(ITCM)
    Long Thumb to Thumb Veneer to __2snprintf 0x00000241   Thumb Code    10  anon$$obj.o(Veneer$$Code)
    Long Thumb to Thumb Veneer to vsnprintf  0x0000024b   Thumb Code    10  anon$$obj.o(Veneer$$Code)
    Long Thumb to Thumb Veneer to OSAL_MutexGet 0x00000255   Thumb Code    10  anon$$obj.o(Veneer$$Code)
    Long Thumb to Thumb Veneer to HAL_UART_Transmit 0x0000025f   Thumb Code    10  anon$$obj.o(Veneer$$Code)
    Long Thumb to Thumb Veneer to OSAL_MutexPut 0x00000269   Thumb Code    10  anon$$obj.o(Veneer$$Code)
    Long Thumb to Thumb Veneer to OS_Delay   0x00000273   Thumb Code    10  anon$$obj.o(Veneer$$Code)
    Long Thumb to Thumb Veneer to GUI_FillRect 0x0000027d   Thumb Code    10  anon$$obj.o(Veneer$$Code)
    Long Thumb to Thumb Veneer to GUI_DrawRect 0x00000287   Thumb Code    10  anon$$obj.o(Veneer$$Code)
    Long Thumb to Thumb Veneer to GUI_DrawCircle 0x00000291   Thumb Code    10  anon$$obj.o(Veneer$$Code)
    Long Thumb to Thumb Veneer to SwTmr_Skip 0x0000029b   Thumb Code    10  anon$$obj.o(Veneer$$Code)
    Long Thumb to Thumb Veneer to Bsp_RNGGenerate 0x000002a5   Thumb Code    10  anon$$obj.o(Veneer$$Code)
    __Vectors_Size                           0x000002cc   Number         0  startup_stm32h730xx.o ABSOLUTE
    AppTaskInputAttr                         0x2400000c   Data          36  multitask.o(.data..L_MergedGlobals)
    AppTaskGuiAttr                           0x24000030   Data          36  multitask.o(.data..L_MergedGlobals)
    AppTaskMsAttr                            0x24000054   Data          36  multitask.o(.data..L_MergedGlobals)
    lcdSyncEvent_attr                        0x24000078   Data          13  displaydriver.o(.data..L_MergedGlobals)
    g_lcdDriver                              0x24000088   Data          52  displaydriver.o(.data..L_MergedGlobals)
    SystemCoreClock                          0x240000bc   Data           4  system_stm32h7xx.o(.data..L_MergedGlobals)
    SystemD2Clock                            0x240000c0   Data           4  system_stm32h7xx.o(.data..L_MergedGlobals)
    uwTickFreq                               0x240000c4   Data           1  stm32h7xx_hal.o(.data..L_MergedGlobals)
    uwTickPrio                               0x240000c8   Data           4  stm32h7xx_hal.o(.data..L_MergedGlobals)
    DebugMutex_attr                          0x240000cc   Data          11  debug.o(.data.DebugMutex_attr)
    _tx_thread_system_state                  0x240000d8   Data           4  tx_thread_initialize.o(.data._tx_thread_system_state)
    g_appTestAttr                            0x240000dc   Data          24  application.o(.data.g_appTestAttr)
    g_lcdInfo                                0x240000f4   Data          48  lcd_hdtr070_1024x600_tsd.o(.data.g_lcdInfo)
    g_lcdTiming                              0x24000124   Data          92  lcd_hdtr070_1024x600_tsd.o(.data.g_lcdTiming)
    g_uartDriver                             0x24000180   Data           8  serial.o(.data.g_uartDriver)
    inputEvent_attr                          0x24000188   Data          11  input.o(.data.inputEvent_attr)
    __libspace_start                         0x24000198   Data          96  libspace.o(.bss)
    __temporary_stack_top$libspace           0x240001f8   Data           0  libspace.o(.bss)
    hiwdg                                    0x240001f8   Data          16  bsp.o(.bss..L_MergedGlobals)
    hrng                                     0x24000208   Data          20  bsp.o(.bss..L_MergedGlobals)
    hdts                                     0x2400021c   Data          36  bsp.o(.bss..L_MergedGlobals)
    hcrc                                     0x24000240   Data          36  bsp.o(.bss..L_MergedGlobals)
    g_ucProtocolSwtmr                        0x24000264   Data           1  protocol.o(.bss..L_MergedGlobals)
    g_userFlag                               0x24000270   Data           4  application.o(.bss..L_MergedGlobals)
    g_appTest                                0x24000274   Data          44  application.o(.bss..L_MergedGlobals)
    _tx_semaphore_created_ptr                0x240002a0   Data           4  tx_initialize_high_level.o(.bss..L_MergedGlobals)
    _tx_semaphore_created_count              0x240002a4   Data           4  tx_initialize_high_level.o(.bss..L_MergedGlobals)
    _tx_queue_created_ptr                    0x240002a8   Data           4  tx_initialize_high_level.o(.bss..L_MergedGlobals)
    _tx_queue_created_count                  0x240002ac   Data           4  tx_initialize_high_level.o(.bss..L_MergedGlobals)
    _tx_event_flags_created_ptr              0x240002b0   Data           4  tx_initialize_high_level.o(.bss..L_MergedGlobals)
    _tx_event_flags_created_count            0x240002b4   Data           4  tx_initialize_high_level.o(.bss..L_MergedGlobals)
    _tx_block_pool_created_ptr               0x240002b8   Data           4  tx_initialize_high_level.o(.bss..L_MergedGlobals)
    _tx_block_pool_created_count             0x240002bc   Data           4  tx_initialize_high_level.o(.bss..L_MergedGlobals)
    _tx_byte_pool_created_ptr                0x240002c0   Data           4  tx_initialize_high_level.o(.bss..L_MergedGlobals)
    _tx_byte_pool_created_count              0x240002c4   Data           4  tx_initialize_high_level.o(.bss..L_MergedGlobals)
    _tx_mutex_created_ptr                    0x240002c8   Data           4  tx_initialize_high_level.o(.bss..L_MergedGlobals)
    _tx_mutex_created_count                  0x240002cc   Data           4  tx_initialize_high_level.o(.bss..L_MergedGlobals)
    _tx_thread_current_ptr                   0x240002d0   Data           4  tx_thread_initialize.o(.bss..L_MergedGlobals)
    _tx_thread_execute_ptr                   0x240002d4   Data           4  tx_thread_initialize.o(.bss..L_MergedGlobals)
    _tx_thread_priority_maps                 0x240002d8   Data           4  tx_thread_initialize.o(.bss..L_MergedGlobals)
    _tx_thread_highest_priority              0x240002dc   Data           4  tx_thread_initialize.o(.bss..L_MergedGlobals)
    _tx_thread_created_ptr                   0x240002e0   Data           4  tx_thread_initialize.o(.bss..L_MergedGlobals)
    _tx_thread_created_count                 0x240002e4   Data           4  tx_thread_initialize.o(.bss..L_MergedGlobals)
    _tx_thread_preempt_disable               0x240002e8   Data           4  tx_thread_initialize.o(.bss..L_MergedGlobals)
    _tx_thread_mutex_release                 0x240002ec   Data           4  tx_thread_initialize.o(.bss..L_MergedGlobals)
    _tx_build_options                        0x240002f0   Data           4  tx_thread_initialize.o(.bss..L_MergedGlobals)
    _tx_timer_system_clock                   0x240002f4   Data           4  tx_timer_initialize.o(.bss..L_MergedGlobals)
    _tx_timer_time_slice                     0x240002f8   Data           4  tx_timer_initialize.o(.bss..L_MergedGlobals)
    _tx_timer_expired_time_slice             0x240002fc   Data           4  tx_timer_initialize.o(.bss..L_MergedGlobals)
    _tx_timer_expired                        0x24000300   Data           4  tx_timer_initialize.o(.bss..L_MergedGlobals)
    _tx_timer_expired_timer_ptr              0x24000304   Data           4  tx_timer_initialize.o(.bss..L_MergedGlobals)
    _tx_timer_list_start                     0x24000308   Data           4  tx_timer_initialize.o(.bss..L_MergedGlobals)
    _tx_timer_current_ptr                    0x2400030c   Data           4  tx_timer_initialize.o(.bss..L_MergedGlobals)
    _tx_timer_list_end                       0x24000310   Data           4  tx_timer_initialize.o(.bss..L_MergedGlobals)
    _tx_timer_stack_start                    0x24000314   Data           4  tx_timer_initialize.o(.bss..L_MergedGlobals)
    _tx_timer_stack_size                     0x24000318   Data           4  tx_timer_initialize.o(.bss..L_MergedGlobals)
    _tx_timer_priority                       0x2400031c   Data           4  tx_timer_initialize.o(.bss..L_MergedGlobals)
    _tx_timer_created_ptr                    0x24000320   Data           4  tx_timer_initialize.o(.bss..L_MergedGlobals)
    _tx_timer_created_count                  0x24000324   Data           4  tx_timer_initialize.o(.bss..L_MergedGlobals)
    gv_ucIsTransmitting                      0x24000328   Data           1  displaydriver.o(.bss..L_MergedGlobals.6)
    g_lcdSyncEvent                           0x2400032c   Data          36  displaydriver.o(.bss..L_MergedGlobals.6)
    AppTaskGuiTCB                            0x24002350   Data         176  multitask.o(.bss.AppTaskGuiTCB)
    AppTaskInputTCB                          0x24003400   Data         176  multitask.o(.bss.AppTaskInputTCB)
    AppTaskMsTCB                             0x240054b0   Data         176  multitask.o(.bss.AppTaskMsTCB)
    DebugMutexHandle                         0x24006614   Data          52  debug.o(.bss.DebugMutexHandle)
    _tx_initialize_unused_memory             0x2400664c   Data           4  tx_initialize_high_level.o(.bss._tx_initialize_unused_memory)
    _tx_thread_priority_list                 0x24006650   Data         128  tx_thread_initialize.o(.bss._tx_thread_priority_list)
    _tx_thread_system_stack_ptr              0x240066d0   Data           4  tx_thread_initialize.o(.bss._tx_thread_system_stack_ptr)
    _tx_timer_list                           0x240066d4   Data         128  tx_timer_initialize.o(.bss._tx_timer_list)
    _tx_timer_thread                         0x24006754   Data         176  tx_timer_initialize.o(.bss._tx_timer_thread)
    _tx_timer_thread_stack_area              0x24006804   Data        1024  tx_timer_initialize.o(.bss._tx_timer_thread_stack_area)
    g_frameRece                              0x24006c04   Data         256  protocol.o(.bss.g_frameRece)
    g_frameSend                              0x24006d04   Data         256  protocol.o(.bss.g_frameSend)
    g_inputEvent                             0x24006e04   Data          36  input.o(.bss.g_inputEvent)
    g_sysInfo                                0x24006e28   Data          56  system.o(.bss.g_sysInfo)
    g_uartBuff                               0x24006e64   Data          20  serial.o(.bss.g_uartBuff)
    g_ucCmdBuf                               0x24006e78   Data         250  protocol.o(.bss.g_ucCmdBuf)
    g_ucLcdSwtmr                             0x24006f72   Data           1  application.o(.bss.g_ucLcdSwtmr)
    g_ucRespSwtmr                            0x24006f73   Data           1  response.o(.bss.g_ucRespSwtmr)
    g_ucRuning                               0x24006f74   Data           1  system.o(.bss.g_ucRuning)
    g_userData                               0x24006f75   Data           2  application.o(.bss.g_userData)
    hdma2d                                   0x24007a70   Data         104  displaydriver.o(.bss.hdma2d)
    hdma_usart10_rx                          0x24007ad8   Data         120  board_stm32h730_general.o(.bss.hdma_usart10_rx)
    hi2c3                                    0x24007b50   Data          76  board_stm32h730_general.o(.bss.hi2c3)
    hltdc                                    0x24007b9c   Data         168  displaydriver.o(.bss.hltdc)
    hrtc                                     0x24007c44   Data          36  bsp.o(.bss.hrtc)
    hsdram1                                  0x24007c68   Data          52  board_stm32h730_general.o(.bss.hsdram1)
    htim15                                   0x24007c9c   Data          76  board_stm32h730_general.o(.bss.htim15)
    htim6                                    0x24007ce8   Data          76  stm32h7xx_hal_timebase_tim.o(.bss.htim6)
    huart10                                  0x24007d34   Data         144  board_stm32h730_general.o(.bss.huart10)
    huart7                                   0x24007dc4   Data         144  board_stm32h730_general.o(.bss.huart7)
    uwTick                                   0x2400a688   Data           4  stm32h7xx_hal.o(.bss.uwTick)
    __Vectors                                0x90000000   Data           4  startup_stm32h730xx.o(RESET)
    __Vectors_End                            0x900002cc   Data           0  startup_stm32h730xx.o(RESET)
    __main                                   0x900002cd   Thumb Code     8  __main.o(!!!main)
    __scatterload                            0x900002d5   Thumb Code     0  __scatter.o(!!!scatter)
    __scatterload_rt2                        0x900002d5   Thumb Code    44  __scatter.o(!!!scatter)
    __scatterload_rt2_thumb_only             0x900002d5   Thumb Code     0  __scatter.o(!!!scatter)
    __scatterload_null                       0x900002e3   Thumb Code     0  __scatter.o(!!!scatter)
    __decompress                             0x90000309   Thumb Code    58  __dczerorl.o(!!dczerorl)
    __decompress0                            0x90000309   Thumb Code     0  __dczerorl.o(!!dczerorl)
    __scatterload_copy                       0x90000345   Thumb Code    26  __scatter_copy.o(!!handler_copy)
    __scatterload_zeroinit                   0x90000361   Thumb Code    28  __scatter_zi.o(!!handler_zi)
    _printf_n                                0x9000037d   Thumb Code     0  _printf_n.o(.ARM.Collect$$_printf_percent$$00000001)
    _printf_percent                          0x9000037d   Thumb Code     0  _printf_percent.o(.ARM.Collect$$_printf_percent$$00000000)
    _printf_p                                0x90000383   Thumb Code     0  _printf_p.o(.ARM.Collect$$_printf_percent$$00000002)
    _printf_f                                0x90000389   Thumb Code     0  _printf_f.o(.ARM.Collect$$_printf_percent$$00000003)
    _printf_e                                0x9000038f   Thumb Code     0  _printf_e.o(.ARM.Collect$$_printf_percent$$00000004)
    _printf_g                                0x90000395   Thumb Code     0  _printf_g.o(.ARM.Collect$$_printf_percent$$00000005)
    _printf_a                                0x9000039b   Thumb Code     0  _printf_a.o(.ARM.Collect$$_printf_percent$$00000006)
    _printf_ll                               0x900003a1   Thumb Code     0  _printf_ll.o(.ARM.Collect$$_printf_percent$$00000007)
    _printf_i                                0x900003ab   Thumb Code     0  _printf_i.o(.ARM.Collect$$_printf_percent$$00000008)
    _printf_d                                0x900003b1   Thumb Code     0  _printf_d.o(.ARM.Collect$$_printf_percent$$00000009)
    _printf_u                                0x900003b7   Thumb Code     0  _printf_u.o(.ARM.Collect$$_printf_percent$$0000000A)
    _printf_o                                0x900003bd   Thumb Code     0  _printf_o.o(.ARM.Collect$$_printf_percent$$0000000B)
    _printf_x                                0x900003c3   Thumb Code     0  _printf_x.o(.ARM.Collect$$_printf_percent$$0000000C)
    _printf_lli                              0x900003c9   Thumb Code     0  _printf_lli.o(.ARM.Collect$$_printf_percent$$0000000D)
    _printf_lld                              0x900003cf   Thumb Code     0  _printf_lld.o(.ARM.Collect$$_printf_percent$$0000000E)
    _printf_llu                              0x900003d5   Thumb Code     0  _printf_llu.o(.ARM.Collect$$_printf_percent$$0000000F)
    _printf_llo                              0x900003db   Thumb Code     0  _printf_llo.o(.ARM.Collect$$_printf_percent$$00000010)
    _printf_llx                              0x900003e1   Thumb Code     0  _printf_llx.o(.ARM.Collect$$_printf_percent$$00000011)
    _printf_l                                0x900003e7   Thumb Code     0  _printf_l.o(.ARM.Collect$$_printf_percent$$00000012)
    _printf_c                                0x900003f1   Thumb Code     0  _printf_c.o(.ARM.Collect$$_printf_percent$$00000013)
    _printf_s                                0x900003f7   Thumb Code     0  _printf_s.o(.ARM.Collect$$_printf_percent$$00000014)
    _printf_lc                               0x900003fd   Thumb Code     0  _printf_lc.o(.ARM.Collect$$_printf_percent$$00000015)
    _printf_ls                               0x90000403   Thumb Code     0  _printf_ls.o(.ARM.Collect$$_printf_percent$$00000016)
    _printf_percent_end                      0x90000409   Thumb Code     0  _printf_percent_end.o(.ARM.Collect$$_printf_percent$$00000017)
    __rt_lib_init                            0x9000040d   Thumb Code     0  libinit.o(.ARM.Collect$$libinit$$00000000)
    __rt_lib_init_fp_1                       0x9000040f   Thumb Code     0  libinit2.o(.ARM.Collect$$libinit$$00000001)
    __rt_lib_init_heap_1                     0x90000413   Thumb Code     0  libinit2.o(.ARM.Collect$$libinit$$0000000A)
    __rt_lib_init_lc_common                  0x90000413   Thumb Code     0  libinit2.o(.ARM.Collect$$libinit$$0000000F)
    __rt_lib_init_preinit_1                  0x90000413   Thumb Code     0  libinit2.o(.ARM.Collect$$libinit$$00000004)
    __rt_lib_init_rand_1                     0x90000413   Thumb Code     0  libinit2.o(.ARM.Collect$$libinit$$0000000E)
    __rt_lib_init_user_alloc_1               0x90000413   Thumb Code     0  libinit2.o(.ARM.Collect$$libinit$$0000000C)
    __rt_lib_init_lc_collate_1               0x90000419   Thumb Code     0  libinit2.o(.ARM.Collect$$libinit$$00000011)
    __rt_lib_init_lc_ctype_2                 0x90000419   Thumb Code     0  libinit2.o(.ARM.Collect$$libinit$$00000012)
    __rt_lib_init_lc_ctype_1                 0x90000425   Thumb Code     0  libinit2.o(.ARM.Collect$$libinit$$00000013)
    __rt_lib_init_lc_monetary_1              0x90000425   Thumb Code     0  libinit2.o(.ARM.Collect$$libinit$$00000015)
    __rt_lib_init_lc_numeric_2               0x90000425   Thumb Code     0  libinit2.o(.ARM.Collect$$libinit$$00000016)
    __rt_lib_init_alloca_1                   0x9000042f   Thumb Code     0  libinit2.o(.ARM.Collect$$libinit$$0000002E)
    __rt_lib_init_argv_1                     0x9000042f   Thumb Code     0  libinit2.o(.ARM.Collect$$libinit$$0000002C)
    __rt_lib_init_atexit_1                   0x9000042f   Thumb Code     0  libinit2.o(.ARM.Collect$$libinit$$0000001B)
    __rt_lib_init_clock_1                    0x9000042f   Thumb Code     0  libinit2.o(.ARM.Collect$$libinit$$00000021)
    __rt_lib_init_cpp_1                      0x9000042f   Thumb Code     0  libinit2.o(.ARM.Collect$$libinit$$00000032)
    __rt_lib_init_exceptions_1               0x9000042f   Thumb Code     0  libinit2.o(.ARM.Collect$$libinit$$00000030)
    __rt_lib_init_fp_trap_1                  0x9000042f   Thumb Code     0  libinit2.o(.ARM.Collect$$libinit$$0000001F)
    __rt_lib_init_getenv_1                   0x9000042f   Thumb Code     0  libinit2.o(.ARM.Collect$$libinit$$00000023)
    __rt_lib_init_lc_numeric_1               0x9000042f   Thumb Code     0  libinit2.o(.ARM.Collect$$libinit$$00000017)
    __rt_lib_init_lc_time_1                  0x9000042f   Thumb Code     0  libinit2.o(.ARM.Collect$$libinit$$00000019)
    __rt_lib_init_return                     0x9000042f   Thumb Code     0  libinit2.o(.ARM.Collect$$libinit$$00000033)
    __rt_lib_init_signal_1                   0x9000042f   Thumb Code     0  libinit2.o(.ARM.Collect$$libinit$$0000001D)
    __rt_lib_init_stdio_1                    0x9000042f   Thumb Code     0  libinit2.o(.ARM.Collect$$libinit$$00000025)
    __rt_lib_shutdown                        0x90000431   Thumb Code     0  libshutdown.o(.ARM.Collect$$libshutdown$$00000000)
    __rt_lib_shutdown_cpp_1                  0x90000433   Thumb Code     0  libshutdown2.o(.ARM.Collect$$libshutdown$$00000002)
    __rt_lib_shutdown_fp_trap_1              0x90000433   Thumb Code     0  libshutdown2.o(.ARM.Collect$$libshutdown$$00000007)
    __rt_lib_shutdown_heap_1                 0x90000433   Thumb Code     0  libshutdown2.o(.ARM.Collect$$libshutdown$$0000000F)
    __rt_lib_shutdown_return                 0x90000433   Thumb Code     0  libshutdown2.o(.ARM.Collect$$libshutdown$$00000010)
    __rt_lib_shutdown_signal_1               0x90000433   Thumb Code     0  libshutdown2.o(.ARM.Collect$$libshutdown$$0000000A)
    __rt_lib_shutdown_stdio_1                0x90000433   Thumb Code     0  libshutdown2.o(.ARM.Collect$$libshutdown$$00000004)
    __rt_lib_shutdown_user_alloc_1           0x90000433   Thumb Code     0  libshutdown2.o(.ARM.Collect$$libshutdown$$0000000C)
    __rt_entry                               0x90000435   Thumb Code     0  __rtentry.o(.ARM.Collect$$rtentry$$00000000)
    __rt_entry_presh_1                       0x90000435   Thumb Code     0  __rtentry2.o(.ARM.Collect$$rtentry$$00000002)
    __rt_entry_sh                            0x90000435   Thumb Code     0  __rtentry4.o(.ARM.Collect$$rtentry$$00000004)
    __rt_entry_li                            0x9000043b   Thumb Code     0  __rtentry2.o(.ARM.Collect$$rtentry$$0000000A)
    __rt_entry_postsh_1                      0x9000043b   Thumb Code     0  __rtentry2.o(.ARM.Collect$$rtentry$$00000009)
    __rt_entry_main                          0x9000043f   Thumb Code     0  __rtentry2.o(.ARM.Collect$$rtentry$$0000000D)
    __rt_entry_postli_1                      0x9000043f   Thumb Code     0  __rtentry2.o(.ARM.Collect$$rtentry$$0000000C)
    __rt_exit                                0x90000447   Thumb Code     0  rtexit.o(.ARM.Collect$$rtexit$$00000000)
    __rt_exit_ls                             0x90000449   Thumb Code     0  rtexit2.o(.ARM.Collect$$rtexit$$00000003)
    __rt_exit_prels_1                        0x90000449   Thumb Code     0  rtexit2.o(.ARM.Collect$$rtexit$$00000002)
    __rt_exit_exit                           0x9000044d   Thumb Code     0  rtexit2.o(.ARM.Collect$$rtexit$$00000004)
    Reset_Handler                            0x90000455   Thumb Code     8  startup_stm32h730xx.o(.text)
    HardFault_Handler                        0x9000045f   Thumb Code    52  startup_stm32h730xx.o(.text)
    SVC_Handler                              0x90000499   Thumb Code     2  startup_stm32h730xx.o(.text)
    ADC3_IRQHandler                          0x900004a1   Thumb Code     0  startup_stm32h730xx.o(.text)
    ADC_IRQHandler                           0x900004a1   Thumb Code     0  startup_stm32h730xx.o(.text)
    BDMA_Channel0_IRQHandler                 0x900004a1   Thumb Code     0  startup_stm32h730xx.o(.text)
    BDMA_Channel1_IRQHandler                 0x900004a1   Thumb Code     0  startup_stm32h730xx.o(.text)
    BDMA_Channel2_IRQHandler                 0x900004a1   Thumb Code     0  startup_stm32h730xx.o(.text)
    BDMA_Channel3_IRQHandler                 0x900004a1   Thumb Code     0  startup_stm32h730xx.o(.text)
    BDMA_Channel4_IRQHandler                 0x900004a1   Thumb Code     0  startup_stm32h730xx.o(.text)
    BDMA_Channel5_IRQHandler                 0x900004a1   Thumb Code     0  startup_stm32h730xx.o(.text)
    BDMA_Channel6_IRQHandler                 0x900004a1   Thumb Code     0  startup_stm32h730xx.o(.text)
    BDMA_Channel7_IRQHandler                 0x900004a1   Thumb Code     0  startup_stm32h730xx.o(.text)
    CEC_IRQHandler                           0x900004a1   Thumb Code     0  startup_stm32h730xx.o(.text)
    COMP1_IRQHandler                         0x900004a1   Thumb Code     0  startup_stm32h730xx.o(.text)
    CORDIC_IRQHandler                        0x900004a1   Thumb Code     0  startup_stm32h730xx.o(.text)
    CRS_IRQHandler                           0x900004a1   Thumb Code     0  startup_stm32h730xx.o(.text)
    CRYP_IRQHandler                          0x900004a1   Thumb Code     0  startup_stm32h730xx.o(.text)
    DCMI_PSSI_IRQHandler                     0x900004a1   Thumb Code     0  startup_stm32h730xx.o(.text)
    DFSDM1_FLT0_IRQHandler                   0x900004a1   Thumb Code     0  startup_stm32h730xx.o(.text)
    DFSDM1_FLT1_IRQHandler                   0x900004a1   Thumb Code     0  startup_stm32h730xx.o(.text)
    DFSDM1_FLT2_IRQHandler                   0x900004a1   Thumb Code     0  startup_stm32h730xx.o(.text)
    DFSDM1_FLT3_IRQHandler                   0x900004a1   Thumb Code     0  startup_stm32h730xx.o(.text)
    DMA1_Stream1_IRQHandler                  0x900004a1   Thumb Code     0  startup_stm32h730xx.o(.text)
    DMA1_Stream2_IRQHandler                  0x900004a1   Thumb Code     0  startup_stm32h730xx.o(.text)
    DMA1_Stream3_IRQHandler                  0x900004a1   Thumb Code     0  startup_stm32h730xx.o(.text)
    DMA1_Stream4_IRQHandler                  0x900004a1   Thumb Code     0  startup_stm32h730xx.o(.text)
    DMA1_Stream5_IRQHandler                  0x900004a1   Thumb Code     0  startup_stm32h730xx.o(.text)
    DMA1_Stream6_IRQHandler                  0x900004a1   Thumb Code     0  startup_stm32h730xx.o(.text)
    DMA1_Stream7_IRQHandler                  0x900004a1   Thumb Code     0  startup_stm32h730xx.o(.text)
    DMA2_Stream0_IRQHandler                  0x900004a1   Thumb Code     0  startup_stm32h730xx.o(.text)
    DMA2_Stream1_IRQHandler                  0x900004a1   Thumb Code     0  startup_stm32h730xx.o(.text)
    DMA2_Stream2_IRQHandler                  0x900004a1   Thumb Code     0  startup_stm32h730xx.o(.text)
    DMA2_Stream3_IRQHandler                  0x900004a1   Thumb Code     0  startup_stm32h730xx.o(.text)
    DMA2_Stream4_IRQHandler                  0x900004a1   Thumb Code     0  startup_stm32h730xx.o(.text)
    DMA2_Stream5_IRQHandler                  0x900004a1   Thumb Code     0  startup_stm32h730xx.o(.text)
    DMA2_Stream6_IRQHandler                  0x900004a1   Thumb Code     0  startup_stm32h730xx.o(.text)
    DMA2_Stream7_IRQHandler                  0x900004a1   Thumb Code     0  startup_stm32h730xx.o(.text)
    DMAMUX1_OVR_IRQHandler                   0x900004a1   Thumb Code     0  startup_stm32h730xx.o(.text)
    DMAMUX2_OVR_IRQHandler                   0x900004a1   Thumb Code     0  startup_stm32h730xx.o(.text)
    DTS_IRQHandler                           0x900004a1   Thumb Code     0  startup_stm32h730xx.o(.text)
    ECC_IRQHandler                           0x900004a1   Thumb Code     0  startup_stm32h730xx.o(.text)
    ETH_IRQHandler                           0x900004a1   Thumb Code     0  startup_stm32h730xx.o(.text)
    ETH_WKUP_IRQHandler                      0x900004a1   Thumb Code     0  startup_stm32h730xx.o(.text)
    EXTI0_IRQHandler                         0x900004a1   Thumb Code     0  startup_stm32h730xx.o(.text)
    EXTI15_10_IRQHandler                     0x900004a1   Thumb Code     0  startup_stm32h730xx.o(.text)
    EXTI1_IRQHandler                         0x900004a1   Thumb Code     0  startup_stm32h730xx.o(.text)
    EXTI2_IRQHandler                         0x900004a1   Thumb Code     0  startup_stm32h730xx.o(.text)
    EXTI3_IRQHandler                         0x900004a1   Thumb Code     0  startup_stm32h730xx.o(.text)
    EXTI4_IRQHandler                         0x900004a1   Thumb Code     0  startup_stm32h730xx.o(.text)
    FDCAN1_IT0_IRQHandler                    0x900004a1   Thumb Code     0  startup_stm32h730xx.o(.text)
    FDCAN1_IT1_IRQHandler                    0x900004a1   Thumb Code     0  startup_stm32h730xx.o(.text)
    FDCAN2_IT0_IRQHandler                    0x900004a1   Thumb Code     0  startup_stm32h730xx.o(.text)
    FDCAN2_IT1_IRQHandler                    0x900004a1   Thumb Code     0  startup_stm32h730xx.o(.text)
    FDCAN3_IT0_IRQHandler                    0x900004a1   Thumb Code     0  startup_stm32h730xx.o(.text)
    FDCAN3_IT1_IRQHandler                    0x900004a1   Thumb Code     0  startup_stm32h730xx.o(.text)
    FDCAN_CAL_IRQHandler                     0x900004a1   Thumb Code     0  startup_stm32h730xx.o(.text)
    FLASH_IRQHandler                         0x900004a1   Thumb Code     0  startup_stm32h730xx.o(.text)
    FMAC_IRQHandler                          0x900004a1   Thumb Code     0  startup_stm32h730xx.o(.text)
    FMC_IRQHandler                           0x900004a1   Thumb Code     0  startup_stm32h730xx.o(.text)
    FPU_IRQHandler                           0x900004a1   Thumb Code     0  startup_stm32h730xx.o(.text)
    HASH_RNG_IRQHandler                      0x900004a1   Thumb Code     0  startup_stm32h730xx.o(.text)
    HSEM1_IRQHandler                         0x900004a1   Thumb Code     0  startup_stm32h730xx.o(.text)
    I2C1_ER_IRQHandler                       0x900004a1   Thumb Code     0  startup_stm32h730xx.o(.text)
    I2C1_EV_IRQHandler                       0x900004a1   Thumb Code     0  startup_stm32h730xx.o(.text)
    I2C2_ER_IRQHandler                       0x900004a1   Thumb Code     0  startup_stm32h730xx.o(.text)
    I2C2_EV_IRQHandler                       0x900004a1   Thumb Code     0  startup_stm32h730xx.o(.text)
    I2C3_ER_IRQHandler                       0x900004a1   Thumb Code     0  startup_stm32h730xx.o(.text)
    I2C3_EV_IRQHandler                       0x900004a1   Thumb Code     0  startup_stm32h730xx.o(.text)
    I2C4_ER_IRQHandler                       0x900004a1   Thumb Code     0  startup_stm32h730xx.o(.text)
    I2C4_EV_IRQHandler                       0x900004a1   Thumb Code     0  startup_stm32h730xx.o(.text)
    I2C5_ER_IRQHandler                       0x900004a1   Thumb Code     0  startup_stm32h730xx.o(.text)
    I2C5_EV_IRQHandler                       0x900004a1   Thumb Code     0  startup_stm32h730xx.o(.text)
    LPTIM1_IRQHandler                        0x900004a1   Thumb Code     0  startup_stm32h730xx.o(.text)
    LPTIM2_IRQHandler                        0x900004a1   Thumb Code     0  startup_stm32h730xx.o(.text)
    LPTIM3_IRQHandler                        0x900004a1   Thumb Code     0  startup_stm32h730xx.o(.text)
    LPTIM4_IRQHandler                        0x900004a1   Thumb Code     0  startup_stm32h730xx.o(.text)
    LPTIM5_IRQHandler                        0x900004a1   Thumb Code     0  startup_stm32h730xx.o(.text)
    LPUART1_IRQHandler                       0x900004a1   Thumb Code     0  startup_stm32h730xx.o(.text)
    MDIOS_IRQHandler                         0x900004a1   Thumb Code     0  startup_stm32h730xx.o(.text)
    MDIOS_WKUP_IRQHandler                    0x900004a1   Thumb Code     0  startup_stm32h730xx.o(.text)
    MDMA_IRQHandler                          0x900004a1   Thumb Code     0  startup_stm32h730xx.o(.text)
    OCTOSPI1_IRQHandler                      0x900004a1   Thumb Code     0  startup_stm32h730xx.o(.text)
    OCTOSPI2_IRQHandler                      0x900004a1   Thumb Code     0  startup_stm32h730xx.o(.text)
    OTFDEC1_IRQHandler                       0x900004a1   Thumb Code     0  startup_stm32h730xx.o(.text)
    OTFDEC2_IRQHandler                       0x900004a1   Thumb Code     0  startup_stm32h730xx.o(.text)
    OTG_HS_EP1_IN_IRQHandler                 0x900004a1   Thumb Code     0  startup_stm32h730xx.o(.text)
    OTG_HS_EP1_OUT_IRQHandler                0x900004a1   Thumb Code     0  startup_stm32h730xx.o(.text)
    OTG_HS_IRQHandler                        0x900004a1   Thumb Code     0  startup_stm32h730xx.o(.text)
    OTG_HS_WKUP_IRQHandler                   0x900004a1   Thumb Code     0  startup_stm32h730xx.o(.text)
    PVD_AVD_IRQHandler                       0x900004a1   Thumb Code     0  startup_stm32h730xx.o(.text)
    RCC_IRQHandler                           0x900004a1   Thumb Code     0  startup_stm32h730xx.o(.text)
    RTC_Alarm_IRQHandler                     0x900004a1   Thumb Code     0  startup_stm32h730xx.o(.text)
    SAI1_IRQHandler                          0x900004a1   Thumb Code     0  startup_stm32h730xx.o(.text)
    SAI4_IRQHandler                          0x900004a1   Thumb Code     0  startup_stm32h730xx.o(.text)
    SDMMC1_IRQHandler                        0x900004a1   Thumb Code     0  startup_stm32h730xx.o(.text)
    SDMMC2_IRQHandler                        0x900004a1   Thumb Code     0  startup_stm32h730xx.o(.text)
    SPDIF_RX_IRQHandler                      0x900004a1   Thumb Code     0  startup_stm32h730xx.o(.text)
    SPI1_IRQHandler                          0x900004a1   Thumb Code     0  startup_stm32h730xx.o(.text)
    SPI2_IRQHandler                          0x900004a1   Thumb Code     0  startup_stm32h730xx.o(.text)
    SPI3_IRQHandler                          0x900004a1   Thumb Code     0  startup_stm32h730xx.o(.text)
    SPI4_IRQHandler                          0x900004a1   Thumb Code     0  startup_stm32h730xx.o(.text)
    SPI5_IRQHandler                          0x900004a1   Thumb Code     0  startup_stm32h730xx.o(.text)
    SPI6_IRQHandler                          0x900004a1   Thumb Code     0  startup_stm32h730xx.o(.text)
    SWPMI1_IRQHandler                        0x900004a1   Thumb Code     0  startup_stm32h730xx.o(.text)
    TAMP_STAMP_IRQHandler                    0x900004a1   Thumb Code     0  startup_stm32h730xx.o(.text)
    TIM15_IRQHandler                         0x900004a1   Thumb Code     0  startup_stm32h730xx.o(.text)
    TIM16_IRQHandler                         0x900004a1   Thumb Code     0  startup_stm32h730xx.o(.text)
    TIM17_IRQHandler                         0x900004a1   Thumb Code     0  startup_stm32h730xx.o(.text)
    TIM1_BRK_IRQHandler                      0x900004a1   Thumb Code     0  startup_stm32h730xx.o(.text)
    TIM1_CC_IRQHandler                       0x900004a1   Thumb Code     0  startup_stm32h730xx.o(.text)
    TIM1_TRG_COM_IRQHandler                  0x900004a1   Thumb Code     0  startup_stm32h730xx.o(.text)
    TIM1_UP_IRQHandler                       0x900004a1   Thumb Code     0  startup_stm32h730xx.o(.text)
    TIM23_IRQHandler                         0x900004a1   Thumb Code     0  startup_stm32h730xx.o(.text)
    TIM24_IRQHandler                         0x900004a1   Thumb Code     0  startup_stm32h730xx.o(.text)
    TIM2_IRQHandler                          0x900004a1   Thumb Code     0  startup_stm32h730xx.o(.text)
    TIM3_IRQHandler                          0x900004a1   Thumb Code     0  startup_stm32h730xx.o(.text)
    TIM4_IRQHandler                          0x900004a1   Thumb Code     0  startup_stm32h730xx.o(.text)
    TIM5_IRQHandler                          0x900004a1   Thumb Code     0  startup_stm32h730xx.o(.text)
    TIM7_IRQHandler                          0x900004a1   Thumb Code     0  startup_stm32h730xx.o(.text)
    TIM8_BRK_TIM12_IRQHandler                0x900004a1   Thumb Code     0  startup_stm32h730xx.o(.text)
    TIM8_CC_IRQHandler                       0x900004a1   Thumb Code     0  startup_stm32h730xx.o(.text)
    TIM8_TRG_COM_TIM14_IRQHandler            0x900004a1   Thumb Code     0  startup_stm32h730xx.o(.text)
    TIM8_UP_TIM13_IRQHandler                 0x900004a1   Thumb Code     0  startup_stm32h730xx.o(.text)
    UART4_IRQHandler                         0x900004a1   Thumb Code     0  startup_stm32h730xx.o(.text)
    UART5_IRQHandler                         0x900004a1   Thumb Code     0  startup_stm32h730xx.o(.text)
    UART7_IRQHandler                         0x900004a1   Thumb Code     0  startup_stm32h730xx.o(.text)
    UART8_IRQHandler                         0x900004a1   Thumb Code     0  startup_stm32h730xx.o(.text)
    UART9_IRQHandler                         0x900004a1   Thumb Code     0  startup_stm32h730xx.o(.text)
    USART1_IRQHandler                        0x900004a1   Thumb Code     0  startup_stm32h730xx.o(.text)
    USART2_IRQHandler                        0x900004a1   Thumb Code     0  startup_stm32h730xx.o(.text)
    USART3_IRQHandler                        0x900004a1   Thumb Code     0  startup_stm32h730xx.o(.text)
    USART6_IRQHandler                        0x900004a1   Thumb Code     0  startup_stm32h730xx.o(.text)
    WAKEUP_PIN_IRQHandler                    0x900004a1   Thumb Code     0  startup_stm32h730xx.o(.text)
    WWDG_IRQHandler                          0x900004a1   Thumb Code     0  startup_stm32h730xx.o(.text)
    __user_initial_stackheap                 0x900004a5   Thumb Code     0  startup_stm32h730xx.o(.text)
    _tx_initialize_low_level                 0x900004f1   Thumb Code     0  tx_initialize_low_level.o(.text)
    __tx_BadHandler                          0x90000541   Thumb Code     0  tx_initialize_low_level.o(.text)
    __tx_HardfaultHandler                    0x90000545   Thumb Code     0  tx_initialize_low_level.o(.text)
    __tx_SVCallHandler                       0x90000549   Thumb Code     0  tx_initialize_low_level.o(.text)
    __tx_IntHandler                          0x9000054d   Thumb Code     0  tx_initialize_low_level.o(.text)
    SysTick_Handler                          0x90000555   Thumb Code     0  tx_initialize_low_level.o(.text)
    __tx_SysTickHandler                      0x90000555   Thumb Code     0  tx_initialize_low_level.o(.text)
    __tx_NMIHandler                          0x90000561   Thumb Code     0  tx_initialize_low_level.o(.text)
    __tx_DBGHandler                          0x90000565   Thumb Code     0  tx_initialize_low_level.o(.text)
    _tx_thread_schedule                      0x90000571   Thumb Code     0  tx_thread_schedule.o(.text)
    PendSV_Handler                           0x9000059d   Thumb Code     0  tx_thread_schedule.o(.text)
    __tx_PendSVHandler                       0x9000059d   Thumb Code     0  tx_thread_schedule.o(.text)
    tx_thread_fpu_disable                    0x9000061f   Thumb Code     0  tx_thread_schedule.o(.text)
    tx_thread_fpu_enable                     0x9000061f   Thumb Code     0  tx_thread_schedule.o(.text)
    _tx_thread_stack_build                   0x90000641   Thumb Code     0  tx_thread_stack_build.o(.text)
    _tx_timer_interrupt                      0x90000681   Thumb Code     0  tx_timer_interrupt.o(.text)
    __aeabi_uldivmod                         0x90000749   Thumb Code     0  lludivv7m.o(.text)
    _ll_udiv                                 0x90000749   Thumb Code   240  lludivv7m.o(.text)
    vsnprintf                                0x90000839   Thumb Code    48  vsnprintf.o(.text)
    __2snprintf                              0x9000086d   Thumb Code    50  __2snprintf.o(.text)
    _printf_str                              0x900008a5   Thumb Code    82  _printf_str.o(.text)
    __printf                                 0x900008f9   Thumb Code   388  __printf_flags_ss_wp.o(.text)
    __aeabi_memcpy4                          0x90000a81   Thumb Code     0  rt_memcpy_w.o(.text)
    __aeabi_memcpy8                          0x90000a81   Thumb Code     0  rt_memcpy_w.o(.text)
    __rt_memcpy_w                            0x90000a81   Thumb Code   100  rt_memcpy_w.o(.text)
    _memcpy_lastbytes_aligned                0x90000ac9   Thumb Code     0  rt_memcpy_w.o(.text)
    __aeabi_memset                           0x90000ae5   Thumb Code    16  aeabi_memset.o(.text)
    __aeabi_memclr                           0x90000af5   Thumb Code     0  rt_memclr.o(.text)
    __rt_memclr                              0x90000af5   Thumb Code    68  rt_memclr.o(.text)
    _memset                                  0x90000af9   Thumb Code     0  rt_memclr.o(.text)
    __aeabi_memclr4                          0x90000b39   Thumb Code     0  rt_memclr_w.o(.text)
    __aeabi_memclr8                          0x90000b39   Thumb Code     0  rt_memclr_w.o(.text)
    __rt_memclr_w                            0x90000b39   Thumb Code    78  rt_memclr_w.o(.text)
    _memset_w                                0x90000b3d   Thumb Code     0  rt_memclr_w.o(.text)
    __use_two_region_memory                  0x90000b87   Thumb Code     2  heapauxi.o(.text)
    __rt_heap_escrow$2region                 0x90000b89   Thumb Code     2  heapauxi.o(.text)
    __rt_heap_expand$2region                 0x90000b8b   Thumb Code     2  heapauxi.o(.text)
    _printf_pre_padding                      0x90000b8d   Thumb Code    44  _printf_pad.o(.text)
    _printf_post_padding                     0x90000bb9   Thumb Code    34  _printf_pad.o(.text)
    _printf_truncate_signed                  0x90000bdb   Thumb Code    18  _printf_truncate.o(.text)
    _printf_truncate_unsigned                0x90000bed   Thumb Code    18  _printf_truncate.o(.text)
    _printf_int_dec                          0x90000c01   Thumb Code   104  _printf_dec.o(.text)
    _printf_charcount                        0x90000c79   Thumb Code    40  _printf_charcount.o(.text)
    _printf_char_common                      0x90000cab   Thumb Code    32  _printf_char_common.o(.text)
    _sputc                                   0x90000cd1   Thumb Code    10  _sputc.o(.text)
    _snputc                                  0x90000cdb   Thumb Code    16  _snputc.o(.text)
    _printf_cs_common                        0x90000ceb   Thumb Code    20  _printf_char.o(.text)
    _printf_char                             0x90000cff   Thumb Code    16  _printf_char.o(.text)
    _printf_string                           0x90000d0f   Thumb Code     8  _printf_char.o(.text)
    _printf_wctomb                           0x90000d19   Thumb Code   182  _printf_wctomb.o(.text)
    _printf_longlong_dec                     0x90000dd5   Thumb Code   108  _printf_longlong_dec.o(.text)
    _printf_longlong_oct                     0x90000e51   Thumb Code    68  _printf_oct_int_ll.o(.text)
    _printf_int_oct                          0x90000e95   Thumb Code    24  _printf_oct_int_ll.o(.text)
    _printf_ll_oct                           0x90000ead   Thumb Code    12  _printf_oct_int_ll.o(.text)
    _printf_longlong_hex                     0x90000ec1   Thumb Code    86  _printf_hex_int_ll_ptr.o(.text)
    _printf_int_hex                          0x90000f17   Thumb Code    28  _printf_hex_int_ll_ptr.o(.text)
    _printf_ll_hex                           0x90000f33   Thumb Code    12  _printf_hex_int_ll_ptr.o(.text)
    _printf_hex_ptr                          0x90000f3f   Thumb Code    18  _printf_hex_int_ll_ptr.o(.text)
    _sys_exit                                0x90000f55   Thumb Code     8  sys_exit.o(.text)
    _ll_udiv10                               0x90000f61   Thumb Code   138  lludiv10.o(.text)
    _printf_int_common                       0x90000feb   Thumb Code   178  _printf_intcommon.o(.text)
    _printf_fp_dec_real                      0x9000124d   Thumb Code   620  _printf_fp_dec.o(.text)
    _printf_fp_hex_real                      0x900014b9   Thumb Code   756  _printf_fp_hex.o(.text)
    _printf_lcs_common                       0x900017b5   Thumb Code    20  _printf_wchar.o(.text)
    _printf_wchar                            0x900017c9   Thumb Code    16  _printf_wchar.o(.text)
    _printf_wstring                          0x900017d9   Thumb Code     8  _printf_wchar.o(.text)
    _c16rtomb                                0x900017e1   Thumb Code    72  _c16rtomb.o(.text)
    _wcrtomb                                 0x900017e1   Thumb Code     0  _c16rtomb.o(.text)
    __I$use$semihosting                      0x90001829   Thumb Code     0  use_no_semi.o(.text)
    __use_no_semihosting_swi                 0x90001829   Thumb Code     2  use_no_semi.o(.text)
    __semihosting_library_function           0x9000182b   Thumb Code     0  indicate_semi.o(.text)
    __user_setup_stackheap                   0x9000182b   Thumb Code    74  sys_stackheap_outer.o(.text)
    __rt_ctype_table                         0x90001875   Thumb Code    16  rt_ctype_table.o(.text)
    __rt_locale                              0x90001885   Thumb Code     8  rt_locale_intlibspace.o(.text)
    _printf_fp_infnan                        0x9000188d   Thumb Code   112  _printf_fp_infnan.o(.text)
    _btod_etento                             0x9000190d   Thumb Code   224  bigflt0.o(.text)
    exit                                     0x900019f1   Thumb Code    18  exit.o(.text)
    __user_libspace                          0x90001a05   Thumb Code     8  libspace.o(.text)
    __user_perproc_libspace                  0x90001a05   Thumb Code     0  libspace.o(.text)
    __user_perthread_libspace                0x90001a05   Thumb Code     0  libspace.o(.text)
    strcmp                                   0x90001a11   Thumb Code   124  strcmpv7m_pel.o(.text)
    AppTaskStart                             0x90001a91   Thumb Code   260  multitask.o(.text.AppTaskStart)
    App_Init                                 0x90001b99   Thumb Code   244  application.o(.text.App_Init)
    App_ThreadX_Init                         0x90001c91   Thumb Code    84  app_threadx.o(.text.App_ThreadX_Init)
    Board_DebugPortInit                      0x90001ce9   Thumb Code   164  board_stm32h730_general.o(.text.Board_DebugPortInit)
    Board_LcdBacklight                       0x90001d91   Thumb Code    48  board_stm32h730_general.o(.text.Board_LcdBacklight)
    Board_LcdBacklightPortInit               0x90001dc1   Thumb Code   398  board_stm32h730_general.o(.text.Board_LcdBacklightPortInit)
    Board_LcdPortInit                        0x90001f51   Thumb Code    80  board_stm32h730_general.o(.text.Board_LcdPortInit)
    Board_LtdcIOInit                         0x90001fa1   Thumb Code   406  board_stm32h730_general.o(.text.Board_LtdcIOInit)
    Board_SDRAMPortInit                      0x90002139   Thumb Code   116  board_stm32h730_general.o(.text.Board_SDRAMPortInit)
    Board_TouchPortInit                      0x900021b1   Thumb Code   314  board_stm32h730_general.o(.text.Board_TouchPortInit)
    Board_USART10PortInit                    0x900022f1   Thumb Code   182  board_stm32h730_general.o(.text.Board_USART10PortInit)
    Board_USARTPortInit                      0x900023a9   Thumb Code     4  board_stm32h730_general.o(.text.Board_USARTPortInit)
    Bsp_GetTemperature                       0x90002449   Thumb Code    94  bsp.o(.text.Bsp_GetTemperature)
    Bsp_IWDGRefresh                          0x900024a9   Thumb Code    12  bsp.o(.text.Bsp_IWDGRefresh)
    Bsp_RNGGenerate                          0x900024b9   Thumb Code    40  bsp.o(.text.Bsp_RNGGenerate)
    BusFault_Handler                         0x90002631   Thumb Code    18  stm32h7xx_it.o(.text.BusFault_Handler)
    CPU_Config                               0x90002649   Thumb Code   410  system.o(.text.CPU_Config)
    DMA1_Stream0_IRQHandler                  0x900027e9   Thumb Code    12  stm32h7xx_it.o(.text.DMA1_Stream0_IRQHandler)
    DMA2D_IRQHandler                         0x900027f9   Thumb Code    12  displaydriver.o(.text.DMA2D_IRQHandler)
    DebugMon_Handler                         0x90002c29   Thumb Code    14  stm32h7xx_it.o(.text.DebugMon_Handler)
    Debug_Init                               0x90002c39   Thumb Code    68  debug.o(.text.Debug_Init)
    EXTI9_5_IRQHandler                       0x90002c81   Thumb Code    22  stm32h7xx_it.o(.text.EXTI9_5_IRQHandler)
    Error_Handler                            0x90002c99   Thumb Code    10  main.o(.text.Error_Handler)
    ExtRAM_Init                              0x90002ca9   Thumb Code   192  extram.o(.text.ExtRAM_Init)
    FIFO_GetData                             0x90002d69   Thumb Code    34  sysfifo.o(.text.FIFO_GetData)
    FIFO_GetLen                              0x90002d91   Thumb Code     8  sysfifo.o(.text.FIFO_GetLen)
    FIFO_GetPosData                          0x90002d99   Thumb Code    14  sysfifo.o(.text.FIFO_GetPosData)
    FIFO_InserData                           0x90002da9   Thumb Code    46  sysfifo.o(.text.FIFO_InserData)
    FMC_SDRAM_Init                           0x90002dd9   Thumb Code   142  stm32h7xx_ll_fmc.o(.text.FMC_SDRAM_Init)
    FMC_SDRAM_ProgramRefreshRate             0x90002e69   Thumb Code    22  stm32h7xx_ll_fmc.o(.text.FMC_SDRAM_ProgramRefreshRate)
    FMC_SDRAM_SendCommand                    0x90002e81   Thumb Code    46  stm32h7xx_ll_fmc.o(.text.FMC_SDRAM_SendCommand)
    FMC_SDRAM_Timing_Init                    0x90002eb1   Thumb Code   210  stm32h7xx_ll_fmc.o(.text.FMC_SDRAM_Timing_Init)
    FT5336_TS_GetXY                          0x90002f89   Thumb Code   374  ft5336.o(.text.FT5336_TS_GetXY)
    Fifo_Get                                 0x90003101   Thumb Code    32  sysfifo.o(.text.Fifo_Get)
    Fifo_Init                                0x90003121   Thumb Code    78  sysfifo.o(.text.Fifo_Init)
    Fifo_Put                                 0x90003171   Thumb Code    42  sysfifo.o(.text.Fifo_Put)
    GUI_DrawCircle                           0x900031a1   Thumb Code   402  basicgui.o(.text.GUI_DrawCircle)
    GUI_DrawRect                             0x90003339   Thumb Code   280  basicgui.o(.text.GUI_DrawRect)
    GUI_FillRect                             0x90003451   Thumb Code    84  basicgui.o(.text.GUI_FillRect)
    GUI_ShowChar                             0x900034a9   Thumb Code   746  basicgui.o(.text.GUI_ShowChar)
    GUI_ShowString                           0x90003799   Thumb Code   194  basicgui.o(.text.GUI_ShowString)
    GetSystemClock                           0x90003861   Thumb Code     4  system.o(.text.GetSystemClock)
    HAL_CRCEx_Polynomial_Set                 0x90003869   Thumb Code   146  stm32h7xx_hal_crc_ex.o(.text.HAL_CRCEx_Polynomial_Set)
    HAL_CRC_Init                             0x90003901   Thumb Code   124  stm32h7xx_hal_crc.o(.text.HAL_CRC_Init)
    HAL_CRC_MspInit                          0x90003981   Thumb Code    46  bsp.o(.text.HAL_CRC_MspInit)
    HAL_DMA2D_CLUTLoadingCpltCallback        0x900039b1   Thumb Code     2  stm32h7xx_hal_dma2d.o(.text.HAL_DMA2D_CLUTLoadingCpltCallback)
    HAL_DMA2D_ConfigLayer                    0x900039b9   Thumb Code   202  stm32h7xx_hal_dma2d.o(.text.HAL_DMA2D_ConfigLayer)
    HAL_DMA2D_IRQHandler                     0x90003a89   Thumb Code   320  stm32h7xx_hal_dma2d.o(.text.HAL_DMA2D_IRQHandler)
    HAL_DMA2D_Init                           0x90003bc9   Thumb Code   126  stm32h7xx_hal_dma2d.o(.text.HAL_DMA2D_Init)
    HAL_DMA2D_LineEventCallback              0x90003c49   Thumb Code     2  stm32h7xx_hal_dma2d.o(.text.HAL_DMA2D_LineEventCallback)
    HAL_DMA2D_MspInit                        0x90003c51   Thumb Code    70  displaydriver.o(.text.HAL_DMA2D_MspInit)
    HAL_DMA_Abort                            0x90003c99   Thumb Code  1280  stm32h7xx_hal_dma.o(.text.HAL_DMA_Abort)
    HAL_DMA_Abort_IT                         0x90004199   Thumb Code   668  stm32h7xx_hal_dma.o(.text.HAL_DMA_Abort_IT)
    HAL_DMA_DeInit                           0x90004439   Thumb Code   904  stm32h7xx_hal_dma.o(.text.HAL_DMA_DeInit)
    HAL_DMA_GetError                         0x900047c1   Thumb Code     4  stm32h7xx_hal_dma.o(.text.HAL_DMA_GetError)
    HAL_DMA_IRQHandler                       0x900047c9   Thumb Code  2034  stm32h7xx_hal_dma.o(.text.HAL_DMA_IRQHandler)
    HAL_DMA_Init                             0x90004fc1   Thumb Code  1626  stm32h7xx_hal_dma.o(.text.HAL_DMA_Init)
    HAL_DMA_Start_IT                         0x90005621   Thumb Code   898  stm32h7xx_hal_dma.o(.text.HAL_DMA_Start_IT)
    HAL_DTS_GetTemperature                   0x900059a9   Thumb Code   142  stm32h7xx_hal_dts.o(.text.HAL_DTS_GetTemperature)
    HAL_DTS_Init                             0x90005a39   Thumb Code   166  stm32h7xx_hal_dts.o(.text.HAL_DTS_Init)
    HAL_DTS_MspInit                          0x90005ae1   Thumb Code    50  bsp.o(.text.HAL_DTS_MspInit)
    HAL_DTS_Start                            0x90005b19   Thumb Code   108  stm32h7xx_hal_dts.o(.text.HAL_DTS_Start)
    HAL_DTS_Stop                             0x90005b89   Thumb Code    60  stm32h7xx_hal_dts.o(.text.HAL_DTS_Stop)
    HAL_Delay                                0x90005bc9   Thumb Code    40  stm32h7xx_hal.o(.text.HAL_Delay)
    HAL_GPIO_DeInit                          0x90005bf1   Thumb Code   488  stm32h7xx_hal_gpio.o(.text.HAL_GPIO_DeInit)
    HAL_GPIO_EXTI_Callback                   0x90005dd9   Thumb Code    28  intcallback.o(.text.HAL_GPIO_EXTI_Callback)
    HAL_GPIO_EXTI_IRQHandler                 0x90005df9   Thumb Code    20  stm32h7xx_hal_gpio.o(.text.HAL_GPIO_EXTI_IRQHandler)
    HAL_GPIO_Init                            0x90005e11   Thumb Code   482  stm32h7xx_hal_gpio.o(.text.HAL_GPIO_Init)
    HAL_GPIO_WritePin                        0x90005ff9   Thumb Code    10  stm32h7xx_hal_gpio.o(.text.HAL_GPIO_WritePin)
    HAL_GetTick                              0x90006009   Thumb Code    12  stm32h7xx_hal.o(.text.HAL_GetTick)
    HAL_GetUIDw0                             0x90006019   Thumb Code    12  stm32h7xx_hal.o(.text.HAL_GetUIDw0)
    HAL_GetUIDw1                             0x90006029   Thumb Code    12  stm32h7xx_hal.o(.text.HAL_GetUIDw1)
    HAL_GetUIDw2                             0x90006039   Thumb Code    12  stm32h7xx_hal.o(.text.HAL_GetUIDw2)
    HAL_HalfDuplex_Init                      0x90006049   Thumb Code   202  stm32h7xx_hal_uart.o(.text.HAL_HalfDuplex_Init)
    HAL_I2CEx_ConfigAnalogFilter             0x90006119   Thumb Code    74  stm32h7xx_hal_i2c_ex.o(.text.HAL_I2CEx_ConfigAnalogFilter)
    HAL_I2CEx_ConfigDigitalFilter            0x90006169   Thumb Code    72  stm32h7xx_hal_i2c_ex.o(.text.HAL_I2CEx_ConfigDigitalFilter)
    HAL_I2C_Init                             0x900061b1   Thumb Code   160  stm32h7xx_hal_i2c.o(.text.HAL_I2C_Init)
    HAL_I2C_Mem_Read                         0x90006251   Thumb Code   736  stm32h7xx_hal_i2c.o(.text.HAL_I2C_Mem_Read)
    HAL_I2C_MspInit                          0x90006531   Thumb Code   206  board_stm32h730_general.o(.text.HAL_I2C_MspInit)
    HAL_IWDG_Refresh                         0x90006601   Thumb Code    12  stm32h7xx_hal_iwdg.o(.text.HAL_IWDG_Refresh)
    HAL_IncTick                              0x90006611   Thumb Code    26  stm32h7xx_hal.o(.text.HAL_IncTick)
    HAL_Init                                 0x90006631   Thumb Code   100  stm32h7xx_hal.o(.text.HAL_Init)
    HAL_InitTick                             0x90006699   Thumb Code   164  stm32h7xx_hal_timebase_tim.o(.text.HAL_InitTick)
    HAL_LTDC_ConfigLayer                     0x90006741   Thumb Code   118  stm32h7xx_hal_ltdc.o(.text.HAL_LTDC_ConfigLayer)
    HAL_LTDC_ErrorCallback                   0x900067b9   Thumb Code     2  stm32h7xx_hal_ltdc.o(.text.HAL_LTDC_ErrorCallback)
    HAL_LTDC_IRQHandler                      0x900067c1   Thumb Code   192  stm32h7xx_hal_ltdc.o(.text.HAL_LTDC_IRQHandler)
    HAL_LTDC_Init                            0x90006881   Thumb Code   220  stm32h7xx_hal_ltdc.o(.text.HAL_LTDC_Init)
    HAL_LTDC_LineEventCallback               0x90006961   Thumb Code     2  stm32h7xx_hal_ltdc.o(.text.HAL_LTDC_LineEventCallback)
    HAL_LTDC_MspInit                         0x90006969   Thumb Code   168  displaydriver.o(.text.HAL_LTDC_MspInit)
    HAL_LTDC_ReloadEventCallback             0x90006a11   Thumb Code     2  stm32h7xx_hal_ltdc.o(.text.HAL_LTDC_ReloadEventCallback)
    HAL_MPU_ConfigRegion                     0x90006a19   Thumb Code    94  stm32h7xx_hal_cortex.o(.text.HAL_MPU_ConfigRegion)
    HAL_MPU_Disable                          0x90006a79   Thumb Code    26  stm32h7xx_hal_cortex.o(.text.HAL_MPU_Disable)
    HAL_MPU_Enable                           0x90006a99   Thumb Code    32  stm32h7xx_hal_cortex.o(.text.HAL_MPU_Enable)
    HAL_MspInit                              0x90006ab9   Thumb Code    32  stm32h7xx_hal_msp.o(.text.HAL_MspInit)
    HAL_NVIC_DisableIRQ                      0x90006ad9   Thumb Code    40  stm32h7xx_hal_cortex.o(.text.HAL_NVIC_DisableIRQ)
    HAL_NVIC_EnableIRQ                       0x90006b01   Thumb Code    32  stm32h7xx_hal_cortex.o(.text.HAL_NVIC_EnableIRQ)
    HAL_NVIC_SetPriority                     0x90006b21   Thumb Code    94  stm32h7xx_hal_cortex.o(.text.HAL_NVIC_SetPriority)
    HAL_NVIC_SetPriorityGrouping             0x90006b81   Thumb Code    32  stm32h7xx_hal_cortex.o(.text.HAL_NVIC_SetPriorityGrouping)
    HAL_PWREx_ConfigSupply                   0x90006ba1   Thumb Code    72  stm32h7xx_hal_pwr_ex.o(.text.HAL_PWREx_ConfigSupply)
    HAL_RCCEx_GetD3PCLK1Freq                 0x90006be9   Thumb Code    38  stm32h7xx_hal_rcc_ex.o(.text.HAL_RCCEx_GetD3PCLK1Freq)
    HAL_RCCEx_GetPLL2ClockFreq               0x90006c11   Thumb Code   292  stm32h7xx_hal_rcc_ex.o(.text.HAL_RCCEx_GetPLL2ClockFreq)
    HAL_RCCEx_GetPLL3ClockFreq               0x90006d39   Thumb Code   292  stm32h7xx_hal_rcc_ex.o(.text.HAL_RCCEx_GetPLL3ClockFreq)
    HAL_RCCEx_PeriphCLKConfig                0x90006e61   Thumb Code  2910  stm32h7xx_hal_rcc_ex.o(.text.HAL_RCCEx_PeriphCLKConfig)
    HAL_RCC_ClockConfig                      0x900079c1   Thumb Code   612  stm32h7xx_hal_rcc.o(.text.HAL_RCC_ClockConfig)
    HAL_RCC_GetClockConfig                   0x90007c29   Thumb Code    88  stm32h7xx_hal_rcc.o(.text.HAL_RCC_GetClockConfig)
    HAL_RCC_GetHCLKFreq                      0x90007c81   Thumb Code    76  stm32h7xx_hal_rcc.o(.text.HAL_RCC_GetHCLKFreq)
    HAL_RCC_GetPCLK1Freq                     0x90007cd1   Thumb Code    96  stm32h7xx_hal_rcc.o(.text.HAL_RCC_GetPCLK1Freq)
    HAL_RCC_GetPCLK2Freq                     0x90007d31   Thumb Code    96  stm32h7xx_hal_rcc.o(.text.HAL_RCC_GetPCLK2Freq)
    HAL_RCC_GetSysClockFreq                  0x90007d91   Thumb Code   264  stm32h7xx_hal_rcc.o(.text.HAL_RCC_GetSysClockFreq)
    HAL_RCC_OscConfig                        0x90007e99   Thumb Code  1224  stm32h7xx_hal_rcc.o(.text.HAL_RCC_OscConfig)
    HAL_RNG_ErrorCallback                    0x90008361   Thumb Code     2  stm32h7xx_hal_rng.o(.text.HAL_RNG_ErrorCallback)
    HAL_RNG_GenerateRandomNumber             0x90008369   Thumb Code   176  stm32h7xx_hal_rng.o(.text.HAL_RNG_GenerateRandomNumber)
    HAL_RNG_Init                             0x90008419   Thumb Code   216  stm32h7xx_hal_rng.o(.text.HAL_RNG_Init)
    HAL_RNG_MspInit                          0x900084f1   Thumb Code    96  bsp.o(.text.HAL_RNG_MspInit)
    HAL_RTCEx_SetWakeUpTimer_IT              0x90008551   Thumb Code   176  stm32h7xx_hal_rtc_ex.o(.text.HAL_RTCEx_SetWakeUpTimer_IT)
    HAL_RTCEx_WakeUpTimerEventCallback       0x90008601   Thumb Code    76  bsp.o(.text.HAL_RTCEx_WakeUpTimerEventCallback)
    HAL_RTCEx_WakeUpTimerIRQHandler          0x90008651   Thumb Code    50  stm32h7xx_hal_rtc_ex.o(.text.HAL_RTCEx_WakeUpTimerIRQHandler)
    HAL_RTC_GetDate                          0x90008689   Thumb Code   102  stm32h7xx_hal_rtc.o(.text.HAL_RTC_GetDate)
    HAL_RTC_GetTime                          0x900086f1   Thumb Code   114  stm32h7xx_hal_rtc.o(.text.HAL_RTC_GetTime)
    HAL_RTC_Init                             0x90008769   Thumb Code   212  stm32h7xx_hal_rtc.o(.text.HAL_RTC_Init)
    HAL_RTC_MspInit                          0x90008841   Thumb Code   102  bsp.o(.text.HAL_RTC_MspInit)
    HAL_RTC_SetDate                          0x900088a9   Thumb Code   348  stm32h7xx_hal_rtc.o(.text.HAL_RTC_SetDate)
    HAL_RTC_SetTime                          0x90008a09   Thumb Code   370  stm32h7xx_hal_rtc.o(.text.HAL_RTC_SetTime)
    HAL_SDRAM_Init                           0x90008b81   Thumb Code    80  stm32h7xx_hal_sdram.o(.text.HAL_SDRAM_Init)
    HAL_SDRAM_MspInit                        0x90008bd1   Thumb Code   336  board_stm32h730_general.o(.text.HAL_SDRAM_MspInit)
    HAL_SDRAM_ProgramRefreshRate             0x90008d21   Thumb Code    48  stm32h7xx_hal_sdram.o(.text.HAL_SDRAM_ProgramRefreshRate)
    HAL_SDRAM_SendCommand                    0x90008d51   Thumb Code    68  stm32h7xx_hal_sdram.o(.text.HAL_SDRAM_SendCommand)
    HAL_TIMEx_Break2Callback                 0x90008d99   Thumb Code     2  stm32h7xx_hal_tim_ex.o(.text.HAL_TIMEx_Break2Callback)
    HAL_TIMEx_BreakCallback                  0x90008da1   Thumb Code     2  stm32h7xx_hal_tim_ex.o(.text.HAL_TIMEx_BreakCallback)
    HAL_TIMEx_CommutCallback                 0x90008da9   Thumb Code     2  stm32h7xx_hal_tim_ex.o(.text.HAL_TIMEx_CommutCallback)
    HAL_TIMEx_ConfigBreakDeadTime            0x90008db1   Thumb Code   182  stm32h7xx_hal_tim_ex.o(.text.HAL_TIMEx_ConfigBreakDeadTime)
    HAL_TIMEx_MasterConfigSynchronization    0x90008e69   Thumb Code   224  stm32h7xx_hal_tim_ex.o(.text.HAL_TIMEx_MasterConfigSynchronization)
    HAL_TIMEx_PWMN_Start                     0x90008f49   Thumb Code   290  stm32h7xx_hal_tim_ex.o(.text.HAL_TIMEx_PWMN_Start)
    HAL_TIM_Base_Init                        0x90009071   Thumb Code    96  stm32h7xx_hal_tim.o(.text.HAL_TIM_Base_Init)
    HAL_TIM_Base_MspInit                     0x900090d1   Thumb Code    50  board_stm32h730_general.o(.text.HAL_TIM_Base_MspInit)
    HAL_TIM_Base_Start_IT                    0x90009109   Thumb Code   198  stm32h7xx_hal_tim.o(.text.HAL_TIM_Base_Start_IT)
    HAL_TIM_ConfigClockSource                0x900091d1   Thumb Code   496  stm32h7xx_hal_tim.o(.text.HAL_TIM_ConfigClockSource)
    HAL_TIM_IC_CaptureCallback               0x900093c1   Thumb Code     2  stm32h7xx_hal_tim.o(.text.HAL_TIM_IC_CaptureCallback)
    HAL_TIM_IRQHandler                       0x900093c9   Thumb Code   392  stm32h7xx_hal_tim.o(.text.HAL_TIM_IRQHandler)
    HAL_TIM_OC_DelayElapsedCallback          0x90009551   Thumb Code     2  stm32h7xx_hal_tim.o(.text.HAL_TIM_OC_DelayElapsedCallback)
    HAL_TIM_PWM_ConfigChannel                0x90009559   Thumb Code  1192  stm32h7xx_hal_tim.o(.text.HAL_TIM_PWM_ConfigChannel)
    HAL_TIM_PWM_Init                         0x90009a01   Thumb Code    96  stm32h7xx_hal_tim.o(.text.HAL_TIM_PWM_Init)
    HAL_TIM_PWM_MspInit                      0x90009a61   Thumb Code     2  stm32h7xx_hal_tim.o(.text.HAL_TIM_PWM_MspInit)
    HAL_TIM_PWM_PulseFinishedCallback        0x90009a69   Thumb Code     2  stm32h7xx_hal_tim.o(.text.HAL_TIM_PWM_PulseFinishedCallback)
    HAL_TIM_PeriodElapsedCallback            0x90009a71   Thumb Code    20  main.o(.text.HAL_TIM_PeriodElapsedCallback)
    HAL_TIM_TriggerCallback                  0x90009a89   Thumb Code     2  stm32h7xx_hal_tim.o(.text.HAL_TIM_TriggerCallback)
    HAL_UARTEx_DisableFifoMode               0x90009a91   Thumb Code    54  stm32h7xx_hal_uart_ex.o(.text.HAL_UARTEx_DisableFifoMode)
    HAL_UARTEx_RxEventCallback               0x90009ac9   Thumb Code     2  stm32h7xx_hal_uart.o(.text.HAL_UARTEx_RxEventCallback)
    HAL_UARTEx_RxFifoFullCallback            0x90009ad1   Thumb Code     2  stm32h7xx_hal_uart_ex.o(.text.HAL_UARTEx_RxFifoFullCallback)
    HAL_UARTEx_SetRxFifoThreshold            0x90009ad9   Thumb Code   144  stm32h7xx_hal_uart_ex.o(.text.HAL_UARTEx_SetRxFifoThreshold)
    HAL_UARTEx_SetTxFifoThreshold            0x90009b69   Thumb Code   144  stm32h7xx_hal_uart_ex.o(.text.HAL_UARTEx_SetTxFifoThreshold)
    HAL_UARTEx_TxFifoEmptyCallback           0x90009bf9   Thumb Code     2  stm32h7xx_hal_uart_ex.o(.text.HAL_UARTEx_TxFifoEmptyCallback)
    HAL_UARTEx_WakeupCallback                0x90009c01   Thumb Code     2  stm32h7xx_hal_uart_ex.o(.text.HAL_UARTEx_WakeupCallback)
    HAL_UART_DMAStop                         0x90009c09   Thumb Code   710  stm32h7xx_hal_uart.o(.text.HAL_UART_DMAStop)
    HAL_UART_DeInit                          0x90009ed1   Thumb Code    62  stm32h7xx_hal_uart.o(.text.HAL_UART_DeInit)
    HAL_UART_ErrorCallback                   0x90009f11   Thumb Code   124  serial.o(.text.HAL_UART_ErrorCallback)
    HAL_UART_IRQHandler                      0x90009f91   Thumb Code  1634  stm32h7xx_hal_uart.o(.text.HAL_UART_IRQHandler)
    HAL_UART_Init                            0x9000a5f9   Thumb Code   194  stm32h7xx_hal_uart.o(.text.HAL_UART_Init)
    HAL_UART_MspDeInit                       0x9000a6c1   Thumb Code   120  board_stm32h730_general.o(.text.HAL_UART_MspDeInit)
    HAL_UART_MspInit                         0x9000a739   Thumb Code   408  board_stm32h730_general.o(.text.HAL_UART_MspInit)
    HAL_UART_Receive_DMA                     0x9000a8d1   Thumb Code   518  stm32h7xx_hal_uart.o(.text.HAL_UART_Receive_DMA)
    HAL_UART_RxCpltCallback                  0x9000aad9   Thumb Code    62  serial.o(.text.HAL_UART_RxCpltCallback)
    HAL_UART_RxHalfCpltCallback              0x9000ab19   Thumb Code     2  stm32h7xx_hal_uart.o(.text.HAL_UART_RxHalfCpltCallback)
    HAL_UART_Transmit                        0x9000ab21   Thumb Code   218  stm32h7xx_hal_uart.o(.text.HAL_UART_Transmit)
    HAL_UART_TxCpltCallback                  0x9000ac01   Thumb Code     2  serial.o(.text.HAL_UART_TxCpltCallback)
    Input_DetecTask                          0x9000aec9   Thumb Code   256  input.o(.text.Input_DetecTask)
    Input_Init                               0x9000afc9   Thumb Code   164  input.o(.text.Input_Init)
    Input_InserData                          0x9000b071   Thumb Code    68  input.o(.text.Input_InserData)
    Instruct_Init                            0x9000b0b9   Thumb Code    60  instructions.o(.text.Instruct_Init)
    LTDC_ER_IRQHandler                       0x9000b221   Thumb Code    12  displaydriver.o(.text.LTDC_ER_IRQHandler)
    LTDC_IRQHandler                          0x9000b231   Thumb Code    12  displaydriver.o(.text.LTDC_IRQHandler)
    LTDC_Init                                0x9000b241   Thumb Code   254  displaydriver.o(.text.LTDC_Init)
    Lcd_Drive_Init                           0x9000b669   Thumb Code     2  lcd_hdtr070_1024x600_tsd.o(.text.Lcd_Drive_Init)
    MX_ThreadX_Init                          0x9000baf9   Thumb Code     4  app_threadx.o(.text.MX_ThreadX_Init)
    MemManage_Handler                        0x9000bb01   Thumb Code    18  stm32h7xx_it.o(.text.MemManage_Handler)
    NMI_Handler                              0x9000bb19   Thumb Code    18  stm32h7xx_it.o(.text.NMI_Handler)
    OSAL_EventCreate                         0x9000bb31   Thumb Code    18  osal_event.o(.text.OSAL_EventCreate)
    OSAL_EventGet                            0x9000bb49   Thumb Code    32  osal_event.o(.text.OSAL_EventGet)
    OSAL_EventSet                            0x9000bb69   Thumb Code    16  osal_event.o(.text.OSAL_EventSet)
    OSAL_MutexCreate                         0x9000bb79   Thumb Code    20  osal_mutex.o(.text.OSAL_MutexCreate)
    OSAL_MutexGet                            0x9000bb91   Thumb Code    16  osal_mutex.o(.text.OSAL_MutexGet)
    OSAL_MutexPut                            0x9000bba1   Thumb Code    16  osal_mutex.o(.text.OSAL_MutexPut)
    OSAL_SwTmrCreate                         0x9000bbb1   Thumb Code    44  osal_swtmr.o(.text.OSAL_SwTmrCreate)
    OSAL_TaskCreate                          0x9000bbe1   Thumb Code    56  osal_task.o(.text.OSAL_TaskCreate)
    OS_Delay                                 0x9000bc19   Thumb Code    40  osal.o(.text.OS_Delay)
    Protocol_HDsmartAnalysis                 0x9000bc41   Thumb Code   440  protocol_hdsmart.o(.text.Protocol_HDsmartAnalysis)
    Protocol_HDsmartConfigFrame              0x9000bdf9   Thumb Code   166  protocol_hdsmart.o(.text.Protocol_HDsmartConfigFrame)
    Protocol_HDsmartConfigResFrame           0x9000bea1   Thumb Code   152  protocol_hdsmart.o(.text.Protocol_HDsmartConfigResFrame)
    Protocol_HDsmartIdleFrame                0x9000bf39   Thumb Code    64  protocol_hdsmart.o(.text.Protocol_HDsmartIdleFrame)
    Protocol_Init                            0x9000bfb9   Thumb Code   124  protocol.o(.text.Protocol_Init)
    Protocol_ParseCallRegister               0x9000c039   Thumb Code    12  protocol.o(.text.Protocol_ParseCallRegister)
    Protocol_Process                         0x9000c049   Thumb Code   140  protocol.o(.text.Protocol_Process)
    Protocol_SendCallRegister                0x9000c0d9   Thumb Code    12  protocol.o(.text.Protocol_SendCallRegister)
    Protocol_SendFrame                       0x9000c0e9   Thumb Code   132  protocol.o(.text.Protocol_SendFrame)
    Protocol_SendRespFrame                   0x9000c171   Thumb Code   114  protocol.o(.text.Protocol_SendRespFrame)
    RNG_RecoverSeedError                     0x9000c429   Thumb Code   236  stm32h7xx_hal_rng.o(.text.RNG_RecoverSeedError)
    RTC_ExitInitMode                         0x9000c519   Thumb Code   148  stm32h7xx_hal_rtc.o(.text.RTC_ExitInitMode)
    RTC_WKUP_IRQHandler                      0x9000c5b1   Thumb Code    12  bsp.o(.text.RTC_WKUP_IRQHandler)
    Response_Init                            0x9000c5c1   Thumb Code   152  response.o(.text.Response_Init)
    Response_Inser                           0x9000c659   Thumb Code   210  response.o(.text.Response_Inser)
    Serial_Init                              0x9000c851   Thumb Code   188  serial.o(.text.Serial_Init)
    Serial_SendArray                         0x9000c911   Thumb Code   132  serial.o(.text.Serial_SendArray)
    SwTmr_Create                             0x9000c999   Thumb Code   184  swtmr.o(.text.SwTmr_Create)
    SwTmr_Init                               0x9000ca51   Thumb Code   100  swtmr.o(.text.SwTmr_Init)
    SwTmr_Process                            0x9000cab9   Thumb Code   346  swtmr.o(.text.SwTmr_Process)
    SwTmr_Skip                               0x9000cc19   Thumb Code    44  swtmr.o(.text.SwTmr_Skip)
    SystemClockDiff                          0x9000cc49   Thumb Code    16  system.o(.text.SystemClockDiff)
    SystemClock_Config                       0x9000cc59   Thumb Code   228  board_stm32h730_general.o(.text.SystemClock_Config)
    SystemInit                               0x9000cd41   Thumb Code   176  system_stm32h7xx.o(.text.SystemInit)
    System_ErrorHandle                       0x9000cdf1   Thumb Code    60  system.o(.text.System_ErrorHandle)
    System_HardFaultException                0x9000ce31   Thumb Code   484  system.o(.text.System_HardFaultException)
    System_Init                              0x9000d019   Thumb Code   432  system.o(.text.System_Init)
    System_MemSet                            0x9000d1c9   Thumb Code    24  system.o(.text.System_MemSet)
    System_ParamInit                         0x9000d1e1   Thumb Code    28  system.o(.text.System_ParamInit)
    TIM6_DAC_IRQHandler                      0x9000d201   Thumb Code    12  stm32h7xx_it.o(.text.TIM6_DAC_IRQHandler)
    TIM_Base_SetConfig                       0x9000d211   Thumb Code   366  stm32h7xx_hal_tim.o(.text.TIM_Base_SetConfig)
    Task_Process                             0x9000d381   Thumb Code    20  multitask.o(.text.Task_Process)
    TouchScreen_Init                         0x9000d399   Thumb Code   128  touchscreen.o(.text.TouchScreen_Init)
    TouchScreen_Read                         0x9000d419   Thumb Code   108  touchscreen.o(.text.TouchScreen_Read)
    Touch_Init                               0x9000d489   Thumb Code     2  ft5336.o(.text.Touch_Init)
    Touch_ReadCoord                          0x9000d491   Thumb Code    28  ft5336.o(.text.Touch_ReadCoord)
    Touch_ReadID                             0x9000d4b1   Thumb Code   108  ft5336.o(.text.Touch_ReadID)
    Touch_ReadVersion                        0x9000d521   Thumb Code     4  ft5336.o(.text.Touch_ReadVersion)
    Touch_Reset                              0x9000d529   Thumb Code    50  ft5336.o(.text.Touch_Reset)
    UART_AdvFeatureConfig                    0x9000d561   Thumb Code   224  stm32h7xx_hal_uart.o(.text.UART_AdvFeatureConfig)
    UART_SetConfig                           0x9000d9f9   Thumb Code  1564  stm32h7xx_hal_uart.o(.text.UART_SetConfig)
    UART_WaitOnFlagUntilTimeout              0x9000e019   Thumb Code   552  stm32h7xx_hal_uart.o(.text.UART_WaitOnFlagUntilTimeout)
    USART10_IRQHandler                       0x9000e241   Thumb Code    12  stm32h7xx_it.o(.text.USART10_IRQHandler)
    UsageFault_Handler                       0x9000e251   Thumb Code    18  stm32h7xx_it.o(.text.UsageFault_Handler)
    Verify_CalLRC                            0x9000e269   Thumb Code   102  verify.o(.text.Verify_CalLRC)
    Verify_CrcCheck                          0x9000e2d1   Thumb Code   100  verify.o(.text.Verify_CrcCheck)
    _tx_byte_pool_create                     0x9000e339   Thumb Code   138  tx_byte_pool_create.o(.text._tx_byte_pool_create)
    _tx_event_flags_cleanup                  0x9000e3c9   Thumb Code   154  tx_event_flags_cleanup.o(.text._tx_event_flags_cleanup)
    _tx_event_flags_create                   0x9000e469   Thumb Code    88  tx_event_flags_create.o(.text._tx_event_flags_create)
    _tx_event_flags_get                      0x9000e4c1   Thumb Code   244  tx_event_flags_get.o(.text._tx_event_flags_get)
    _tx_event_flags_set                      0x9000e5b9   Thumb Code   554  tx_event_flags_set.o(.text._tx_event_flags_set)
    _tx_initialize_high_level                0x9000e7e9   Thumb Code    46  tx_initialize_high_level.o(.text._tx_initialize_high_level)
    _tx_initialize_kernel_enter              0x9000e819   Thumb Code    78  tx_initialize_kernel_enter.o(.text._tx_initialize_kernel_enter)
    _tx_mutex_cleanup                        0x9000e869   Thumb Code   146  tx_mutex_cleanup.o(.text._tx_mutex_cleanup)
    _tx_mutex_create                         0x9000e901   Thumb Code   106  tx_mutex_create.o(.text._tx_mutex_create)
    _tx_mutex_get                            0x9000e971   Thumb Code   282  tx_mutex_get.o(.text._tx_mutex_get)
    _tx_mutex_prioritize                     0x9000ea91   Thumb Code   188  tx_mutex_prioritize.o(.text._tx_mutex_prioritize)
    _tx_mutex_priority_change                0x9000eb51   Thumb Code   218  tx_mutex_priority_change.o(.text._tx_mutex_priority_change)
    _tx_mutex_put                            0x9000ec31   Thumb Code   560  tx_mutex_put.o(.text._tx_mutex_put)
    _tx_mutex_thread_release                 0x9000ee61   Thumb Code    70  tx_mutex_cleanup.o(.text._tx_mutex_thread_release)
    _tx_thread_create                        0x9000eea9   Thumb Code   312  tx_thread_create.o(.text._tx_thread_create)
    _tx_thread_initialize                    0x9000efe1   Thumb Code    54  tx_thread_initialize.o(.text._tx_thread_initialize)
    _tx_thread_shell_entry                   0x9000f019   Thumb Code    90  tx_thread_shell_entry.o(.text._tx_thread_shell_entry)
    _tx_thread_sleep                         0x9000f079   Thumb Code   142  tx_thread_sleep.o(.text._tx_thread_sleep)
    _tx_thread_system_preempt_check          0x9000f109   Thumb Code    74  tx_thread_system_preempt_check.o(.text._tx_thread_system_preempt_check)
    _tx_thread_system_resume                 0x9000f159   Thumb Code   298  tx_thread_system_resume.o(.text._tx_thread_system_resume)
    _tx_thread_system_suspend                0x9000f289   Thumb Code   390  tx_thread_system_suspend.o(.text._tx_thread_system_suspend)
    _tx_thread_time_slice                    0x9000f411   Thumb Code   112  tx_thread_time_slice.o(.text._tx_thread_time_slice)
    _tx_thread_timeout                       0x9000f481   Thumb Code    52  tx_thread_timeout.o(.text._tx_thread_timeout)
    _tx_timer_create                         0x9000f4b9   Thumb Code   124  tx_timer_create.o(.text._tx_timer_create)
    _tx_timer_expiration_process             0x9000f539   Thumb Code    36  tx_timer_expiration_process.o(.text._tx_timer_expiration_process)
    _tx_timer_initialize                     0x9000f561   Thumb Code   190  tx_timer_initialize.o(.text._tx_timer_initialize)
    _tx_timer_system_activate                0x9000f621   Thumb Code    90  tx_timer_system_activate.o(.text._tx_timer_system_activate)
    _tx_timer_system_deactivate              0x9000f681   Thumb Code    58  tx_timer_system_deactivate.o(.text._tx_timer_system_deactivate)
    _tx_timer_thread_entry                   0x9000f6c1   Thumb Code   322  tx_timer_thread_entry.o(.text._tx_timer_thread_entry)
    _txe_byte_pool_create                    0x9000f809   Thumb Code   338  txe_byte_pool_create.o(.text._txe_byte_pool_create)
    _txe_event_flags_create                  0x9000f961   Thumb Code   300  txe_event_flags_create.o(.text._txe_event_flags_create)
    _txe_event_flags_get                     0x9000fa91   Thumb Code   176  txe_event_flags_get.o(.text._txe_event_flags_get)
    _txe_event_flags_set                     0x9000fb41   Thumb Code    38  txe_event_flags_set.o(.text._txe_event_flags_set)
    _txe_mutex_create                        0x9000fb69   Thumb Code   308  txe_mutex_create.o(.text._txe_mutex_create)
    _txe_mutex_get                           0x9000fca1   Thumb Code   116  txe_mutex_get.o(.text._txe_mutex_get)
    _txe_mutex_put                           0x9000fd19   Thumb Code    60  txe_mutex_put.o(.text._txe_mutex_put)
    _txe_thread_create                       0x9000fd59   Thumb Code   382  txe_thread_create.o(.text._txe_thread_create)
